{
  "transactions": [
    {
      "hash": null,
      "transactionType": "CALL",
      "contractName": null,
      "contractAddress": "0x44406ad771b05827f5fd95b002189e51eebedc91",
      "function": "mint(address,uint256)",
      "arguments": [
        "0xb29e1ddDfc73E00dEE3EaA7EA102990ADca78b39",
        "1000000000000000000000000"
      ],
      "transaction": {
        "from": "0xb29e1dddfc73e00dee3eaa7ea102990adca78b39",
        "to": "0x44406ad771b05827f5fd95b002189e51eebedc91",
        "gas": "0xb713",
        "value": "0x0",
        "input": "0x40c10f19000000000000000000000000b29e1dddfc73e00dee3eaa7ea102990adca78b3900000000000000000000000000000000000000000000d3c21bcecceda1000000",
        "nonce": "0x62",
        "chainId": "0x14a34"
      },
      "additionalContracts": [],
      "isFixedGasLimit": false
    },
    {
      "hash": null,
      "transactionType": "CALL",
      "contractName": null,
      "contractAddress": "0x168deb69184ea184aadb8a626dc4d3013dc08fe8",
      "function": "mint(address,uint256)",
      "arguments": [
        "0xb29e1ddDfc73E00dEE3EaA7EA102990ADca78b39",
        "1000000000000000000000000"
      ],
      "transaction": {
        "from": "0xb29e1dddfc73e00dee3eaa7ea102990adca78b39",
        "to": "0x168deb69184ea184aadb8a626dc4d3013dc08fe8",
        "gas": "0xb713",
        "value": "0x0",
        "input": "0x40c10f19000000000000000000000000b29e1dddfc73e00dee3eaa7ea102990adca78b3900000000000000000000000000000000000000000000d3c21bcecceda1000000",
        "nonce": "0x63",
        "chainId": "0x14a34"
      },
      "additionalContracts": [],
      "isFixedGasLimit": false
    },
    {
      "hash": null,
      "transactionType": "CALL",
      "contractName": null,
      "contractAddress": "0x60cb112631ce92f9fe164878d690fac1fd1c295d",
      "function": "mint(address,uint256)",
      "arguments": [
        "0xb29e1ddDfc73E00dEE3EaA7EA102990ADca78b39",
        "1000000000000000000000000"
      ],
      "transaction": {
        "from": "0xb29e1dddfc73e00dee3eaa7ea102990adca78b39",
        "to": "0x60cb112631ce92f9fe164878d690fac1fd1c295d",
        "gas": "0xb713",
        "value": "0x0",
        "input": "0x40c10f19000000000000000000000000b29e1dddfc73e00dee3eaa7ea102990adca78b3900000000000000000000000000000000000000000000d3c21bcecceda1000000",
        "nonce": "0x64",
        "chainId": "0x14a34"
      },
      "additionalContracts": [],
      "isFixedGasLimit": false
    },
    {
      "hash": null,
      "transactionType": "CALL",
      "contractName": null,
      "contractAddress": "0x39855b7de333de50a7b2e97a3a3e2ec1cf0411a9",
      "function": "mint(address,uint256)",
      "arguments": [
        "0xb29e1ddDfc73E00dEE3EaA7EA102990ADca78b39",
        "1000000000000000000000000"
      ],
      "transaction": {
        "from": "0xb29e1dddfc73e00dee3eaa7ea102990adca78b39",
        "to": "0x39855b7de333de50a7b2e97a3a3e2ec1cf0411a9",
        "gas": "0xb713",
        "value": "0x0",
        "input": "0x40c10f19000000000000000000000000b29e1dddfc73e00dee3eaa7ea102990adca78b3900000000000000000000000000000000000000000000d3c21bcecceda1000000",
        "nonce": "0x65",
        "chainId": "0x14a34"
      },
      "additionalContracts": [],
      "isFixedGasLimit": false
    },
    {
      "hash": null,
      "transactionType": "CALL",
      "contractName": null,
      "contractAddress": "0x44406ad771b05827f5fd95b002189e51eebedc91",
      "function": "approve(address,uint256)",
      "arguments": [
        "0x08AC49be269F1c6C2821D56c4C729C9843152EE3",
        "115792089237316195423570985008687907853269984665640564039457584007913129639935"
      ],
      "transaction": {
        "from": "0xb29e1dddfc73e00dee3eaa7ea102990adca78b39",
        "to": "0x44406ad771b05827f5fd95b002189e51eebedc91",
        "gas": "0x8e58",
        "value": "0x0",
        "input": "0x095ea7b300000000000000000000000008ac49be269f1c6c2821d56c4c729c9843152ee3ffffffffffffffffffffffffffffffffffffffffffffffffffffffffffffffff",
        "nonce": "0x66",
        "chainId": "0x14a34"
      },
      "additionalContracts": [],
      "isFixedGasLimit": false
    },
    {
      "hash": null,
      "transactionType": "CALL",
      "contractName": null,
      "contractAddress": "0x44406ad771b05827f5fd95b002189e51eebedc91",
      "function": "approve(address,uint256)",
      "arguments": [
        "0x60CEC0218b501Cf4E045CbDbA3eF021374e1aFAc",
        "115792089237316195423570985008687907853269984665640564039457584007913129639935"
      ],
      "transaction": {
        "from": "0xb29e1dddfc73e00dee3eaa7ea102990adca78b39",
        "to": "0x44406ad771b05827f5fd95b002189e51eebedc91",
        "gas": "0x8e58",
        "value": "0x0",
        "input": "0x095ea7b300000000000000000000000060cec0218b501cf4e045cbdba3ef021374e1afacffffffffffffffffffffffffffffffffffffffffffffffffffffffffffffffff",
        "nonce": "0x67",
        "chainId": "0x14a34"
      },
      "additionalContracts": [],
      "isFixedGasLimit": false
    },
    {
      "hash": null,
      "transactionType": "CALL",
      "contractName": null,
      "contractAddress": "0x168deb69184ea184aadb8a626dc4d3013dc08fe8",
      "function": "approve(address,uint256)",
      "arguments": [
        "0x08AC49be269F1c6C2821D56c4C729C9843152EE3",
        "115792089237316195423570985008687907853269984665640564039457584007913129639935"
      ],
      "transaction": {
        "from": "0xb29e1dddfc73e00dee3eaa7ea102990adca78b39",
        "to": "0x168deb69184ea184aadb8a626dc4d3013dc08fe8",
        "gas": "0x8e58",
        "value": "0x0",
        "input": "0x095ea7b300000000000000000000000008ac49be269f1c6c2821d56c4c729c9843152ee3ffffffffffffffffffffffffffffffffffffffffffffffffffffffffffffffff",
        "nonce": "0x68",
        "chainId": "0x14a34"
      },
      "additionalContracts": [],
      "isFixedGasLimit": false
    },
    {
      "hash": null,
      "transactionType": "CALL",
      "contractName": null,
      "contractAddress": "0x168deb69184ea184aadb8a626dc4d3013dc08fe8",
      "function": "approve(address,uint256)",
      "arguments": [
        "0x60CEC0218b501Cf4E045CbDbA3eF021374e1aFAc",
        "115792089237316195423570985008687907853269984665640564039457584007913129639935"
      ],
      "transaction": {
        "from": "0xb29e1dddfc73e00dee3eaa7ea102990adca78b39",
        "to": "0x168deb69184ea184aadb8a626dc4d3013dc08fe8",
        "gas": "0x8e58",
        "value": "0x0",
        "input": "0x095ea7b300000000000000000000000060cec0218b501cf4e045cbdba3ef021374e1afacffffffffffffffffffffffffffffffffffffffffffffffffffffffffffffffff",
        "nonce": "0x69",
        "chainId": "0x14a34"
      },
      "additionalContracts": [],
      "isFixedGasLimit": false
    },
    {
      "hash": null,
      "transactionType": "CALL",
      "contractName": null,
      "contractAddress": "0x60cb112631ce92f9fe164878d690fac1fd1c295d",
      "function": "approve(address,uint256)",
      "arguments": [
        "0x08AC49be269F1c6C2821D56c4C729C9843152EE3",
        "115792089237316195423570985008687907853269984665640564039457584007913129639935"
      ],
      "transaction": {
        "from": "0xb29e1dddfc73e00dee3eaa7ea102990adca78b39",
        "to": "0x60cb112631ce92f9fe164878d690fac1fd1c295d",
        "gas": "0x8e58",
        "value": "0x0",
        "input": "0x095ea7b300000000000000000000000008ac49be269f1c6c2821d56c4c729c9843152ee3ffffffffffffffffffffffffffffffffffffffffffffffffffffffffffffffff",
        "nonce": "0x6a",
        "chainId": "0x14a34"
      },
      "additionalContracts": [],
      "isFixedGasLimit": false
    },
    {
      "hash": null,
      "transactionType": "CALL",
      "contractName": null,
      "contractAddress": "0x60cb112631ce92f9fe164878d690fac1fd1c295d",
      "function": "approve(address,uint256)",
      "arguments": [
        "0x60CEC0218b501Cf4E045CbDbA3eF021374e1aFAc",
        "115792089237316195423570985008687907853269984665640564039457584007913129639935"
      ],
      "transaction": {
        "from": "0xb29e1dddfc73e00dee3eaa7ea102990adca78b39",
        "to": "0x60cb112631ce92f9fe164878d690fac1fd1c295d",
        "gas": "0x8e58",
        "value": "0x0",
        "input": "0x095ea7b300000000000000000000000060cec0218b501cf4e045cbdba3ef021374e1afacffffffffffffffffffffffffffffffffffffffffffffffffffffffffffffffff",
        "nonce": "0x6b",
        "chainId": "0x14a34"
      },
      "additionalContracts": [],
      "isFixedGasLimit": false
    },
    {
      "hash": null,
      "transactionType": "CALL",
      "contractName": null,
      "contractAddress": "0x39855b7de333de50a7b2e97a3a3e2ec1cf0411a9",
      "function": "approve(address,uint256)",
      "arguments": [
        "0x08AC49be269F1c6C2821D56c4C729C9843152EE3",
        "115792089237316195423570985008687907853269984665640564039457584007913129639935"
      ],
      "transaction": {
        "from": "0xb29e1dddfc73e00dee3eaa7ea102990adca78b39",
        "to": "0x39855b7de333de50a7b2e97a3a3e2ec1cf0411a9",
        "gas": "0x8e58",
        "value": "0x0",
        "input": "0x095ea7b300000000000000000000000008ac49be269f1c6c2821d56c4c729c9843152ee3ffffffffffffffffffffffffffffffffffffffffffffffffffffffffffffffff",
        "nonce": "0x6c",
        "chainId": "0x14a34"
      },
      "additionalContracts": [],
      "isFixedGasLimit": false
    },
    {
      "hash": null,
      "transactionType": "CALL",
      "contractName": null,
      "contractAddress": "0x39855b7de333de50a7b2e97a3a3e2ec1cf0411a9",
      "function": "approve(address,uint256)",
      "arguments": [
        "0x60CEC0218b501Cf4E045CbDbA3eF021374e1aFAc",
        "115792089237316195423570985008687907853269984665640564039457584007913129639935"
      ],
      "transaction": {
        "from": "0xb29e1dddfc73e00dee3eaa7ea102990adca78b39",
        "to": "0x39855b7de333de50a7b2e97a3a3e2ec1cf0411a9",
        "gas": "0x8e58",
        "value": "0x0",
        "input": "0x095ea7b300000000000000000000000060cec0218b501cf4e045cbdba3ef021374e1afacffffffffffffffffffffffffffffffffffffffffffffffffffffffffffffffff",
        "nonce": "0x6d",
        "chainId": "0x14a34"
      },
      "additionalContracts": [],
      "isFixedGasLimit": false
    },
    {
      "hash": null,
      "transactionType": "CALL",
      "contractName": null,
      "contractAddress": "0x08ac49be269f1c6c2821d56c4c729c9843152ee3",
      "function": "mint((address,uint256,uint256,uint256[],address,uint256))",
      "arguments": [
        "(0x285398F9Ac1D317Bca922691316BDf5B1493dA71, 420000000000000000000000, 400000000000000000000000, [0, 0, 0, 0], 0xb29e1ddDfc73E00dEE3EaA7EA102990ADca78b39, 1776427130)"
      ],
      "transaction": {
        "from": "0xb29e1dddfc73e00dee3eaa7ea102990adca78b39",
        "to": "0x08ac49be269f1c6c2821d56c4c729c9843152ee3",
        "gas": "0xee90f",
        "value": "0x0",
        "input": "0xb771f9510000000000000000000000000000000000000000000000000000000000000020000000000000000000000000285398f9ac1d317bca922691316bdf5b1493da710000000000000000000000000000000000000000000058f03ee118a13e8000000000000000000000000000000000000000000000000054b40b1f852bda00000000000000000000000000000000000000000000000000000000000000000000c0000000000000000000000000b29e1dddfc73e00dee3eaa7ea102990adca78b390000000000000000000000000000000000000000000000000000000069e2207a00000000000000000000000000000000000000000000000000000000000000040000000000000000000000000000000000000000000000000000000000000000000000000000000000000000000000000000000000000000000000000000000000000000000000000000000000000000000000000000000000000000000000000000000000000000000000000000000000000000000000000000000000000000",
        "nonce": "0x6e",
        "chainId": "0x14a34"
      },
      "additionalContracts": [],
      "isFixedGasLimit": false
    },
    {
      "hash": null,
      "transactionType": "CALL",
      "contractName": null,
      "contractAddress": "0x08ac49be269f1c6c2821d56c4c729c9843152ee3",
      "function": "mint((address,uint256,uint256,uint256[],address,uint256))",
      "arguments": [
        "(0x285398F9Ac1D317Bca922691316BDf5B1493dA71, 402500000000000000000000, 350000000000000000000000, [0, 0, 0, 0], 0xb29e1ddDfc73E00dEE3EaA7EA102990ADca78b39, 1776427130)"
      ],
      "transaction": {
        "from": "0xb29e1dddfc73e00dee3eaa7ea102990adca78b39",
        "to": "0x08ac49be269f1c6c2821d56c4c729c9843152ee3",
        "gas": "0xb7632",
        "value": "0x0",
        "input": "0xb771f9510000000000000000000000000000000000000000000000000000000000000020000000000000000000000000285398f9ac1d317bca922691316bdf5b1493da7100000000000000000000000000000000000000000000553b9197b79a86900000000000000000000000000000000000000000000000004a1d89bb94865ec0000000000000000000000000000000000000000000000000000000000000000000c0000000000000000000000000b29e1dddfc73e00dee3eaa7ea102990adca78b390000000000000000000000000000000000000000000000000000000069e2207a00000000000000000000000000000000000000000000000000000000000000040000000000000000000000000000000000000000000000000000000000000000000000000000000000000000000000000000000000000000000000000000000000000000000000000000000000000000000000000000000000000000000000000000000000000000000000000000000000000000000000000000000000000000",
        "nonce": "0x6f",
        "chainId": "0x14a34"
      },
      "additionalContracts": [],
      "isFixedGasLimit": false
    },
    {
      "hash": null,
      "transactionType": "CALL",
      "contractName": null,
      "contractAddress": "0x08ac49be269f1c6c2821d56c4c729c9843152ee3",
      "function": "mint((address,uint256,uint256,uint256[],address,uint256))",
      "arguments": [
        "(0x285398F9Ac1D317Bca922691316BDf5B1493dA71, 255000000000000000000000, 200000000000000000000000, [0, 0, 0, 0], 0xb29e1ddDfc73E00dEE3EaA7EA102990ADca78b39, 1776427130)"
      ],
      "transaction": {
        "from": "0xb29e1dddfc73e00dee3eaa7ea102990adca78b39",
        "to": "0x08ac49be269f1c6c2821d56c4c729c9843152ee3",
        "gas": "0xc69e4",
        "value": "0x0",
        "input": "0xb771f9510000000000000000000000000000000000000000000000000000000000000020000000000000000000000000285398f9ac1d317bca922691316bdf5b1493da710000000000000000000000000000000000000000000035ff93e41818c1600000000000000000000000000000000000000000000000002a5a058fc295ed00000000000000000000000000000000000000000000000000000000000000000000c0000000000000000000000000b29e1dddfc73e00dee3eaa7ea102990adca78b390000000000000000000000000000000000000000000000000000000069e2207a00000000000000000000000000000000000000000000000000000000000000040000000000000000000000000000000000000000000000000000000000000000000000000000000000000000000000000000000000000000000000000000000000000000000000000000000000000000000000000000000000000000000000000000000000000000000000000000000000000000000000000000000000000000",
        "nonce": "0x70",
        "chainId": "0x14a34"
      },
      "additionalContracts": [],
      "isFixedGasLimit": false
    },
    {
      "hash": null,
      "transactionType": "CALL",
      "contractName": null,
      "contractAddress": "0x08ac49be269f1c6c2821d56c4c729c9843152ee3",
      "function": "mint((address,uint256,uint256,uint256[],address,uint256))",
      "arguments": [
        "(0x285398F9Ac1D317Bca922691316BDf5B1493dA71, 68750000000000000000000, 50000000000000000000000, [0, 0, 0, 0], 0xb29e1ddDfc73E00dEE3EaA7EA102990ADca78b39, 1776427130)"
      ],
      "transaction": {
        "from": "0xb29e1dddfc73e00dee3eaa7ea102990adca78b39",
        "to": "0x08ac49be269f1c6c2821d56c4c729c9843152ee3",
        "gas": "0xbfc9e",
        "value": "0x0",
        "input": "0xb771f9510000000000000000000000000000000000000000000000000000000000000020000000000000000000000000285398f9ac1d317bca922691316bdf5b1493da71000000000000000000000000000000000000000000000e8ef1e96ae389780000000000000000000000000000000000000000000000000a968163f0a57b40000000000000000000000000000000000000000000000000000000000000000000c0000000000000000000000000b29e1dddfc73e00dee3eaa7ea102990adca78b390000000000000000000000000000000000000000000000000000000069e2207a00000000000000000000000000000000000000000000000000000000000000040000000000000000000000000000000000000000000000000000000000000000000000000000000000000000000000000000000000000000000000000000000000000000000000000000000000000000000000000000000000000000000000000000000000000000000000000000000000000000000000000000000000000000",
        "nonce": "0x71",
        "chainId": "0x14a34"
      },
      "additionalContracts": [],
      "isFixedGasLimit": false
    },
    {
      "hash": null,
      "transactionType": "CALL",
      "contractName": null,
      "contractAddress": "0x60cec0218b501cf4e045cbdba3ef021374e1afac",
      "function": "exactInput((address,uint256,uint256,uint256,uint256,address,uint256))",
      "arguments": [
        "(0x285398F9Ac1D317Bca922691316BDf5B1493dA71, 0, 1, 1000000000000000000000, 0, 0xb29e1ddDfc73E00dEE3EaA7EA102990ADca78b39, 1776427130)"
      ],
      "transaction": {
        "from": "0xb29e1dddfc73e00dee3eaa7ea102990adca78b39",
        "to": "0x60cec0218b501cf4e045cbdba3ef021374e1afac",
        "gas": "0xc2834",
        "value": "0x0",
        "input": "0xde6b497c000000000000000000000000285398f9ac1d317bca922691316bdf5b1493da710000000000000000000000000000000000000000000000000000000000000000000000000000000000000000000000000000000000000000000000000000000100000000000000000000000000000000000000000000003635c9adc5dea000000000000000000000000000000000000000000000000000000000000000000000000000000000000000000000b29e1dddfc73e00dee3eaa7ea102990adca78b390000000000000000000000000000000000000000000000000000000069e2207a",
        "nonce": "0x72",
        "chainId": "0x14a34"
      },
      "additionalContracts": [],
      "isFixedGasLimit": false
    },
    {
      "hash": null,
      "transactionType": "CALL",
      "contractName": null,
      "contractAddress": "0x60cec0218b501cf4e045cbdba3ef021374e1afac",
      "function": "exactInput((address,uint256,uint256,uint256,uint256,address,uint256))",
      "arguments": [
        "(0x285398F9Ac1D317Bca922691316BDf5B1493dA71, 1, 0, 1000000000000000000000, 0, 0xb29e1ddDfc73E00dEE3EaA7EA102990ADca78b39, 1776427130)"
      ],
      "transaction": {
        "from": "0xb29e1dddfc73e00dee3eaa7ea102990adca78b39",
        "to": "0x60cec0218b501cf4e045cbdba3ef021374e1afac",
        "gas": "0xafc1f",
        "value": "0x0",
        "input": "0xde6b497c000000000000000000000000285398f9ac1d317bca922691316bdf5b1493da710000000000000000000000000000000000000000000000000000000000000001000000000000000000000000000000000000000000000000000000000000000000000000000000000000000000000000000000000000003635c9adc5dea000000000000000000000000000000000000000000000000000000000000000000000000000000000000000000000b29e1dddfc73e00dee3eaa7ea102990adca78b390000000000000000000000000000000000000000000000000000000069e2207a",
        "nonce": "0x73",
        "chainId": "0x14a34"
      },
      "additionalContracts": [],
      "isFixedGasLimit": false
    },
    {
      "hash": null,
      "transactionType": "CALL",
      "contractName": null,
      "contractAddress": "0x60cec0218b501cf4e045cbdba3ef021374e1afac",
      "function": "exactInput((address,uint256,uint256,uint256,uint256,address,uint256))",
      "arguments": [
        "(0x285398F9Ac1D317Bca922691316BDf5B1493dA71, 0, 2, 1000000000000000000000, 0, 0xb29e1ddDfc73E00dEE3EaA7EA102990ADca78b39, 1776427130)"
      ],
      "transaction": {
        "from": "0xb29e1dddfc73e00dee3eaa7ea102990adca78b39",
        "to": "0x60cec0218b501cf4e045cbdba3ef021374e1afac",
        "gas": "0xa67a1",
        "value": "0x0",
        "input": "0xde6b497c000000000000000000000000285398f9ac1d317bca922691316bdf5b1493da710000000000000000000000000000000000000000000000000000000000000000000000000000000000000000000000000000000000000000000000000000000200000000000000000000000000000000000000000000003635c9adc5dea000000000000000000000000000000000000000000000000000000000000000000000000000000000000000000000b29e1dddfc73e00dee3eaa7ea102990adca78b390000000000000000000000000000000000000000000000000000000069e2207a",
        "nonce": "0x74",
        "chainId": "0x14a34"
      },
      "additionalContracts": [],
      "isFixedGasLimit": false
    },
    {
      "hash": null,
      "transactionType": "CALL",
      "contractName": null,
      "contractAddress": "0x60cec0218b501cf4e045cbdba3ef021374e1afac",
      "function": "exactInput((address,uint256,uint256,uint256,uint256,address,uint256))",
      "arguments": [
        "(0x285398F9Ac1D317Bca922691316BDf5B1493dA71, 2, 0, 1000000000000000000000, 0, 0xb29e1ddDfc73E00dEE3EaA7EA102990ADca78b39, 1776427130)"
      ],
      "transaction": {
        "from": "0xb29e1dddfc73e00dee3eaa7ea102990adca78b39",
        "to": "0x60cec0218b501cf4e045cbdba3ef021374e1afac",
        "gas": "0xb0658",
        "value": "0x0",
        "input": "0xde6b497c000000000000000000000000285398f9ac1d317bca922691316bdf5b1493da710000000000000000000000000000000000000000000000000000000000000002000000000000000000000000000000000000000000000000000000000000000000000000000000000000000000000000000000000000003635c9adc5dea000000000000000000000000000000000000000000000000000000000000000000000000000000000000000000000b29e1dddfc73e00dee3eaa7ea102990adca78b390000000000000000000000000000000000000000000000000000000069e2207a",
        "nonce": "0x75",
        "chainId": "0x14a34"
      },
      "additionalContracts": [],
      "isFixedGasLimit": false
    },
    {
      "hash": null,
      "transactionType": "CALL",
      "contractName": null,
      "contractAddress": "0x60cec0218b501cf4e045cbdba3ef021374e1afac",
      "function": "exactInput((address,uint256,uint256,uint256,uint256,address,uint256))",
      "arguments": [
        "(0x285398F9Ac1D317Bca922691316BDf5B1493dA71, 0, 3, 1000000000000000000000, 0, 0xb29e1ddDfc73E00dEE3EaA7EA102990ADca78b39, 1776427130)"
      ],
      "transaction": {
        "from": "0xb29e1dddfc73e00dee3eaa7ea102990adca78b39",
        "to": "0x60cec0218b501cf4e045cbdba3ef021374e1afac",
        "gas": "0x9d3a0",
        "value": "0x0",
        "input": "0xde6b497c000000000000000000000000285398f9ac1d317bca922691316bdf5b1493da710000000000000000000000000000000000000000000000000000000000000000000000000000000000000000000000000000000000000000000000000000000300000000000000000000000000000000000000000000003635c9adc5dea000000000000000000000000000000000000000000000000000000000000000000000000000000000000000000000b29e1dddfc73e00dee3eaa7ea102990adca78b390000000000000000000000000000000000000000000000000000000069e2207a",
        "nonce": "0x76",
        "chainId": "0x14a34"
      },
      "additionalContracts": [],
      "isFixedGasLimit": false
    },
    {
      "hash": null,
      "transactionType": "CALL",
      "contractName": null,
      "contractAddress": "0x60cec0218b501cf4e045cbdba3ef021374e1afac",
      "function": "exactInput((address,uint256,uint256,uint256,uint256,address,uint256))",
      "arguments": [
        "(0x285398F9Ac1D317Bca922691316BDf5B1493dA71, 3, 0, 1000000000000000000000, 0, 0xb29e1ddDfc73E00dEE3EaA7EA102990ADca78b39, 1776427130)"
      ],
      "transaction": {
        "from": "0xb29e1dddfc73e00dee3eaa7ea102990adca78b39",
        "to": "0x60cec0218b501cf4e045cbdba3ef021374e1afac",
        "gas": "0xb10c5",
        "value": "0x0",
        "input": "0xde6b497c000000000000000000000000285398f9ac1d317bca922691316bdf5b1493da710000000000000000000000000000000000000000000000000000000000000003000000000000000000000000000000000000000000000000000000000000000000000000000000000000000000000000000000000000003635c9adc5dea000000000000000000000000000000000000000000000000000000000000000000000000000000000000000000000b29e1dddfc73e00dee3eaa7ea102990adca78b390000000000000000000000000000000000000000000000000000000069e2207a",
        "nonce": "0x77",
        "chainId": "0x14a34"
      },
      "additionalContracts": [],
      "isFixedGasLimit": false
    },
    {
      "hash": null,
      "transactionType": "CALL",
      "contractName": null,
      "contractAddress": "0x60cec0218b501cf4e045cbdba3ef021374e1afac",
      "function": "exactInput((address,uint256,uint256,uint256,uint256,address,uint256))",
      "arguments": [
        "(0x285398F9Ac1D317Bca922691316BDf5B1493dA71, 1, 2, 1000000000000000000000, 0, 0xb29e1ddDfc73E00dEE3EaA7EA102990ADca78b39, 1776427130)"
      ],
      "transaction": {
        "from": "0xb29e1dddfc73e00dee3eaa7ea102990adca78b39",
        "to": "0x60cec0218b501cf4e045cbdba3ef021374e1afac",
        "gas": "0x9d3b6",
        "value": "0x0",
        "input": "0xde6b497c000000000000000000000000285398f9ac1d317bca922691316bdf5b1493da710000000000000000000000000000000000000000000000000000000000000001000000000000000000000000000000000000000000000000000000000000000200000000000000000000000000000000000000000000003635c9adc5dea000000000000000000000000000000000000000000000000000000000000000000000000000000000000000000000b29e1dddfc73e00dee3eaa7ea102990adca78b390000000000000000000000000000000000000000000000000000000069e2207a",
        "nonce": "0x78",
        "chainId": "0x14a34"
      },
      "additionalContracts": [],
      "isFixedGasLimit": false
    },
    {
      "hash": null,
      "transactionType": "CALL",
      "contractName": null,
      "contractAddress": "0x60cec0218b501cf4e045cbdba3ef021374e1afac",
      "function": "exactInput((address,uint256,uint256,uint256,uint256,address,uint256))",
      "arguments": [
        "(0x285398F9Ac1D317Bca922691316BDf5B1493dA71, 2, 1, 1000000000000000000000, 0, 0xb29e1ddDfc73E00dEE3EaA7EA102990ADca78b39, 1776427130)"
      ],
      "transaction": {
        "from": "0xb29e1dddfc73e00dee3eaa7ea102990adca78b39",
        "to": "0x60cec0218b501cf4e045cbdba3ef021374e1afac",
        "gas": "0x937a1",
        "value": "0x0",
        "input": "0xde6b497c000000000000000000000000285398f9ac1d317bca922691316bdf5b1493da710000000000000000000000000000000000000000000000000000000000000002000000000000000000000000000000000000000000000000000000000000000100000000000000000000000000000000000000000000003635c9adc5dea000000000000000000000000000000000000000000000000000000000000000000000000000000000000000000000b29e1dddfc73e00dee3eaa7ea102990adca78b390000000000000000000000000000000000000000000000000000000069e2207a",
        "nonce": "0x79",
        "chainId": "0x14a34"
      },
      "additionalContracts": [],
      "isFixedGasLimit": false
    },
    {
      "hash": null,
      "transactionType": "CALL",
      "contractName": null,
      "contractAddress": "0x60cec0218b501cf4e045cbdba3ef021374e1afac",
      "function": "exactInput((address,uint256,uint256,uint256,uint256,address,uint256))",
      "arguments": [
        "(0x285398F9Ac1D317Bca922691316BDf5B1493dA71, 1, 3, 1000000000000000000000, 0, 0xb29e1ddDfc73E00dEE3EaA7EA102990ADca78b39, 1776427130)"
      ],
      "transaction": {
        "from": "0xb29e1dddfc73e00dee3eaa7ea102990adca78b39",
        "to": "0x60cec0218b501cf4e045cbdba3ef021374e1afac",
        "gas": "0xa67ac",
        "value": "0x0",
        "input": "0xde6b497c000000000000000000000000285398f9ac1d317bca922691316bdf5b1493da710000000000000000000000000000000000000000000000000000000000000001000000000000000000000000000000000000000000000000000000000000000300000000000000000000000000000000000000000000003635c9adc5dea000000000000000000000000000000000000000000000000000000000000000000000000000000000000000000000b29e1dddfc73e00dee3eaa7ea102990adca78b390000000000000000000000000000000000000000000000000000000069e2207a",
        "nonce": "0x7a",
        "chainId": "0x14a34"
      },
      "additionalContracts": [],
      "isFixedGasLimit": false
    },
    {
      "hash": null,
      "transactionType": "CALL",
      "contractName": null,
      "contractAddress": "0x60cec0218b501cf4e045cbdba3ef021374e1afac",
      "function": "exactInput((address,uint256,uint256,uint256,uint256,address,uint256))",
      "arguments": [
        "(0x285398F9Ac1D317Bca922691316BDf5B1493dA71, 3, 1, 1000000000000000000000, 0, 0xb29e1ddDfc73E00dEE3EaA7EA102990ADca78b39, 1776427130)"
      ],
      "transaction": {
        "from": "0xb29e1dddfc73e00dee3eaa7ea102990adca78b39",
        "to": "0x60cec0218b501cf4e045cbdba3ef021374e1afac",
        "gas": "0xa5a3a",
        "value": "0x0",
        "input": "0xde6b497c000000000000000000000000285398f9ac1d317bca922691316bdf5b1493da710000000000000000000000000000000000000000000000000000000000000003000000000000000000000000000000000000000000000000000000000000000100000000000000000000000000000000000000000000003635c9adc5dea000000000000000000000000000000000000000000000000000000000000000000000000000000000000000000000b29e1dddfc73e00dee3eaa7ea102990adca78b390000000000000000000000000000000000000000000000000000000069e2207a",
        "nonce": "0x7b",
        "chainId": "0x14a34"
      },
      "additionalContracts": [],
      "isFixedGasLimit": false
    },
    {
      "hash": null,
      "transactionType": "CALL",
      "contractName": null,
      "contractAddress": "0x60cec0218b501cf4e045cbdba3ef021374e1afac",
      "function": "exactInput((address,uint256,uint256,uint256,uint256,address,uint256))",
      "arguments": [
        "(0x285398F9Ac1D317Bca922691316BDf5B1493dA71, 2, 3, 1000000000000000000000, 0, 0xb29e1ddDfc73E00dEE3EaA7EA102990ADca78b39, 1776427130)"
      ],
      "transaction": {
        "from": "0xb29e1dddfc73e00dee3eaa7ea102990adca78b39",
        "to": "0x60cec0218b501cf4e045cbdba3ef021374e1afac",
        "gas": "0xa68ae",
        "value": "0x0",
        "input": "0xde6b497c000000000000000000000000285398f9ac1d317bca922691316bdf5b1493da710000000000000000000000000000000000000000000000000000000000000002000000000000000000000000000000000000000000000000000000000000000300000000000000000000000000000000000000000000003635c9adc5dea000000000000000000000000000000000000000000000000000000000000000000000000000000000000000000000b29e1dddfc73e00dee3eaa7ea102990adca78b390000000000000000000000000000000000000000000000000000000069e2207a",
        "nonce": "0x7c",
        "chainId": "0x14a34"
      },
      "additionalContracts": [],
      "isFixedGasLimit": false
    },
    {
      "hash": null,
      "transactionType": "CALL",
      "contractName": null,
      "contractAddress": "0x60cec0218b501cf4e045cbdba3ef021374e1afac",
      "function": "exactInput((address,uint256,uint256,uint256,uint256,address,uint256))",
      "arguments": [
        "(0x285398F9Ac1D317Bca922691316BDf5B1493dA71, 3, 2, 1000000000000000000000, 0, 0xb29e1ddDfc73E00dEE3EaA7EA102990ADca78b39, 1776427130)"
      ],
      "transaction": {
        "from": "0xb29e1dddfc73e00dee3eaa7ea102990adca78b39",
        "to": "0x60cec0218b501cf4e045cbdba3ef021374e1afac",
        "gas": "0x937a1",
        "value": "0x0",
        "input": "0xde6b497c000000000000000000000000285398f9ac1d317bca922691316bdf5b1493da710000000000000000000000000000000000000000000000000000000000000003000000000000000000000000000000000000000000000000000000000000000200000000000000000000000000000000000000000000003635c9adc5dea000000000000000000000000000000000000000000000000000000000000000000000000000000000000000000000b29e1dddfc73e00dee3eaa7ea102990adca78b390000000000000000000000000000000000000000000000000000000069e2207a",
        "nonce": "0x7d",
        "chainId": "0x14a34"
      },
      "additionalContracts": [],
      "isFixedGasLimit": false
    },
    {
      "hash": null,
      "transactionType": "CALL",
      "contractName": null,
      "contractAddress": "0x60cec0218b501cf4e045cbdba3ef021374e1afac",
      "function": "exactInput((address,uint256,uint256,uint256,uint256,address,uint256))",
      "arguments": [
        "(0x285398F9Ac1D317Bca922691316BDf5B1493dA71, 0, 1, 1000000000000000000000, 0, 0xb29e1ddDfc73E00dEE3EaA7EA102990ADca78b39, 1776427130)"
      ],
      "transaction": {
        "from": "0xb29e1dddfc73e00dee3eaa7ea102990adca78b39",
        "to": "0x60cec0218b501cf4e045cbdba3ef021374e1afac",
        "gas": "0xa67a1",
        "value": "0x0",
        "input": "0xde6b497c000000000000000000000000285398f9ac1d317bca922691316bdf5b1493da710000000000000000000000000000000000000000000000000000000000000000000000000000000000000000000000000000000000000000000000000000000100000000000000000000000000000000000000000000003635c9adc5dea000000000000000000000000000000000000000000000000000000000000000000000000000000000000000000000b29e1dddfc73e00dee3eaa7ea102990adca78b390000000000000000000000000000000000000000000000000000000069e2207a",
        "nonce": "0x7e",
        "chainId": "0x14a34"
      },
      "additionalContracts": [],
      "isFixedGasLimit": false
    },
    {
      "hash": null,
      "transactionType": "CALL",
      "contractName": null,
      "contractAddress": "0x60cec0218b501cf4e045cbdba3ef021374e1afac",
      "function": "exactInput((address,uint256,uint256,uint256,uint256,address,uint256))",
      "arguments": [
        "(0x285398F9Ac1D317Bca922691316BDf5B1493dA71, 1, 2, 1000000000000000000000, 0, 0xb29e1ddDfc73E00dEE3EaA7EA102990ADca78b39, 1776427130)"
      ],
      "transaction": {
        "from": "0xb29e1dddfc73e00dee3eaa7ea102990adca78b39",
        "to": "0x60cec0218b501cf4e045cbdba3ef021374e1afac",
        "gas": "0xa01c1",
        "value": "0x0",
        "input": "0xde6b497c000000000000000000000000285398f9ac1d317bca922691316bdf5b1493da710000000000000000000000000000000000000000000000000000000000000001000000000000000000000000000000000000000000000000000000000000000200000000000000000000000000000000000000000000003635c9adc5dea000000000000000000000000000000000000000000000000000000000000000000000000000000000000000000000b29e1dddfc73e00dee3eaa7ea102990adca78b390000000000000000000000000000000000000000000000000000000069e2207a",
        "nonce": "0x7f",
        "chainId": "0x14a34"
      },
      "additionalContracts": [],
      "isFixedGasLimit": false
    },
    {
      "hash": null,
      "transactionType": "CALL",
      "contractName": null,
      "contractAddress": "0x60cec0218b501cf4e045cbdba3ef021374e1afac",
      "function": "exactInput((address,uint256,uint256,uint256,uint256,address,uint256))",
      "arguments": [
        "(0x285398F9Ac1D317Bca922691316BDf5B1493dA71, 2, 3, 1000000000000000000000, 0, 0xb29e1ddDfc73E00dEE3EaA7EA102990ADca78b39, 1776427130)"
      ],
      "transaction": {
        "from": "0xb29e1dddfc73e00dee3eaa7ea102990adca78b39",
        "to": "0x60cec0218b501cf4e045cbdba3ef021374e1afac",
        "gas": "0xa01c1",
        "value": "0x0",
        "input": "0xde6b497c000000000000000000000000285398f9ac1d317bca922691316bdf5b1493da710000000000000000000000000000000000000000000000000000000000000002000000000000000000000000000000000000000000000000000000000000000300000000000000000000000000000000000000000000003635c9adc5dea000000000000000000000000000000000000000000000000000000000000000000000000000000000000000000000b29e1dddfc73e00dee3eaa7ea102990adca78b390000000000000000000000000000000000000000000000000000000069e2207a",
        "nonce": "0x80",
        "chainId": "0x14a34"
      },
      "additionalContracts": [],
      "isFixedGasLimit": false
    },
    {
      "hash": null,
      "transactionType": "CALL",
      "contractName": null,
      "contractAddress": "0x60cec0218b501cf4e045cbdba3ef021374e1afac",
      "function": "exactInput((address,uint256,uint256,uint256,uint256,address,uint256))",
      "arguments": [
        "(0x285398F9Ac1D317Bca922691316BDf5B1493dA71, 3, 0, 1000000000000000000000, 0, 0xb29e1ddDfc73E00dEE3EaA7EA102990ADca78b39, 1776427130)"
      ],
      "transaction": {
        "from": "0xb29e1dddfc73e00dee3eaa7ea102990adca78b39",
        "to": "0x60cec0218b501cf4e045cbdba3ef021374e1afac",
        "gas": "0xa5a29",
        "value": "0x0",
        "input": "0xde6b497c000000000000000000000000285398f9ac1d317bca922691316bdf5b1493da710000000000000000000000000000000000000000000000000000000000000003000000000000000000000000000000000000000000000000000000000000000000000000000000000000000000000000000000000000003635c9adc5dea000000000000000000000000000000000000000000000000000000000000000000000000000000000000000000000b29e1dddfc73e00dee3eaa7ea102990adca78b390000000000000000000000000000000000000000000000000000000069e2207a",
        "nonce": "0x81",
        "chainId": "0x14a34"
      },
      "additionalContracts": [],
      "isFixedGasLimit": false
    },
    {
      "hash": null,
      "transactionType": "CALL",
      "contractName": null,
      "contractAddress": "0x60cec0218b501cf4e045cbdba3ef021374e1afac",
      "function": "exactInput((address,uint256,uint256,uint256,uint256,address,uint256))",
      "arguments": [
        "(0x285398F9Ac1D317Bca922691316BDf5B1493dA71, 0, 2, 1000000000000000000000, 0, 0xb29e1ddDfc73E00dEE3EaA7EA102990ADca78b39, 1776427130)"
      ],
      "transaction": {
        "from": "0xb29e1dddfc73e00dee3eaa7ea102990adca78b39",
        "to": "0x60cec0218b501cf4e045cbdba3ef021374e1afac",
        "gas": "0x9d3a0",
        "value": "0x0",
        "input": "0xde6b497c000000000000000000000000285398f9ac1d317bca922691316bdf5b1493da710000000000000000000000000000000000000000000000000000000000000000000000000000000000000000000000000000000000000000000000000000000200000000000000000000000000000000000000000000003635c9adc5dea000000000000000000000000000000000000000000000000000000000000000000000000000000000000000000000b29e1dddfc73e00dee3eaa7ea102990adca78b390000000000000000000000000000000000000000000000000000000069e2207a",
        "nonce": "0x82",
        "chainId": "0x14a34"
      },
      "additionalContracts": [],
      "isFixedGasLimit": false
    },
    {
      "hash": null,
      "transactionType": "CALL",
      "contractName": null,
      "contractAddress": "0x60cec0218b501cf4e045cbdba3ef021374e1afac",
      "function": "exactInput((address,uint256,uint256,uint256,uint256,address,uint256))",
      "arguments": [
        "(0x285398F9Ac1D317Bca922691316BDf5B1493dA71, 1, 3, 1000000000000000000000, 0, 0xb29e1ddDfc73E00dEE3EaA7EA102990ADca78b39, 1776427130)"
      ],
      "transaction": {
        "from": "0xb29e1dddfc73e00dee3eaa7ea102990adca78b39",
        "to": "0x60cec0218b501cf4e045cbdba3ef021374e1afac",
        "gas": "0xa70b9",
        "value": "0x0",
        "input": "0xde6b497c000000000000000000000000285398f9ac1d317bca922691316bdf5b1493da710000000000000000000000000000000000000000000000000000000000000001000000000000000000000000000000000000000000000000000000000000000300000000000000000000000000000000000000000000003635c9adc5dea000000000000000000000000000000000000000000000000000000000000000000000000000000000000000000000b29e1dddfc73e00dee3eaa7ea102990adca78b390000000000000000000000000000000000000000000000000000000069e2207a",
        "nonce": "0x83",
        "chainId": "0x14a34"
      },
      "additionalContracts": [],
      "isFixedGasLimit": false
    },
    {
      "hash": null,
      "transactionType": "CALL",
      "contractName": null,
      "contractAddress": "0x60cec0218b501cf4e045cbdba3ef021374e1afac",
      "function": "exactInput((address,uint256,uint256,uint256,uint256,address,uint256))",
      "arguments": [
        "(0x285398F9Ac1D317Bca922691316BDf5B1493dA71, 2, 0, 1000000000000000000000, 0, 0xb29e1ddDfc73E00dEE3EaA7EA102990ADca78b39, 1776427130)"
      ],
      "transaction": {
        "from": "0xb29e1dddfc73e00dee3eaa7ea102990adca78b39",
        "to": "0x60cec0218b501cf4e045cbdba3ef021374e1afac",
        "gas": "0xaa382",
        "value": "0x0",
        "input": "0xde6b497c000000000000000000000000285398f9ac1d317bca922691316bdf5b1493da710000000000000000000000000000000000000000000000000000000000000002000000000000000000000000000000000000000000000000000000000000000000000000000000000000000000000000000000000000003635c9adc5dea000000000000000000000000000000000000000000000000000000000000000000000000000000000000000000000b29e1dddfc73e00dee3eaa7ea102990adca78b390000000000000000000000000000000000000000000000000000000069e2207a",
        "nonce": "0x84",
        "chainId": "0x14a34"
      },
      "additionalContracts": [],
      "isFixedGasLimit": false
    },
    {
      "hash": null,
      "transactionType": "CALL",
      "contractName": null,
      "contractAddress": "0x60cec0218b501cf4e045cbdba3ef021374e1afac",
      "function": "exactInput((address,uint256,uint256,uint256,uint256,address,uint256))",
      "arguments": [
        "(0x285398F9Ac1D317Bca922691316BDf5B1493dA71, 3, 1, 1000000000000000000000, 0, 0xb29e1ddDfc73E00dEE3EaA7EA102990ADca78b39, 1776427130)"
      ],
      "transaction": {
        "from": "0xb29e1dddfc73e00dee3eaa7ea102990adca78b39",
        "to": "0x60cec0218b501cf4e045cbdba3ef021374e1afac",
        "gas": "0xa64a7",
        "value": "0x0",
        "input": "0xde6b497c000000000000000000000000285398f9ac1d317bca922691316bdf5b1493da710000000000000000000000000000000000000000000000000000000000000003000000000000000000000000000000000000000000000000000000000000000100000000000000000000000000000000000000000000003635c9adc5dea000000000000000000000000000000000000000000000000000000000000000000000000000000000000000000000b29e1dddfc73e00dee3eaa7ea102990adca78b390000000000000000000000000000000000000000000000000000000069e2207a",
        "nonce": "0x85",
        "chainId": "0x14a34"
      },
      "additionalContracts": [],
      "isFixedGasLimit": false
    }
  ],
  "receipts": [],
  "libraries": [],
  "pending": [],
  "returns": {},
  "timestamp": 1776426582746,
  "chain": 84532,
  "commit": "799baa8"
}