{
  "transactions": [
    {
      "hash": null,
      "transactionType": "CALL",
      "contractName": null,
      "contractAddress": "0x44406ad771b05827f5fd95b002189e51eebedc91",
      "function": "mint(address,uint256)",
      "arguments": [
        "0x1804c8AB1F12E6bbf3894d4083f33e07309d1f38",
        "1000000000000000000000000"
      ],
      "transaction": {
        "from": "0x1804c8ab1f12e6bbf3894d4083f33e07309d1f38",
        "to": "0x44406ad771b05827f5fd95b002189e51eebedc91",
        "gas": "0x11357",
        "value": "0x0",
        "input": "0x40c10f190000000000000000000000001804c8ab1f12e6bbf3894d4083f33e07309d1f3800000000000000000000000000000000000000000000d3c21bcecceda1000000",
        "nonce": "0x0",
        "chainId": "0x14a34"
      },
      "additionalContracts": [],
      "isFixedGasLimit": false
    },
    {
      "hash": null,
      "transactionType": "CALL",
      "contractName": null,
      "contractAddress": "0x168deb69184ea184aadb8a626dc4d3013dc08fe8",
      "function": "mint(address,uint256)",
      "arguments": [
        "0x1804c8AB1F12E6bbf3894d4083f33e07309d1f38",
        "1000000000000000000000000"
      ],
      "transaction": {
        "from": "0x1804c8ab1f12e6bbf3894d4083f33e07309d1f38",
        "to": "0x168deb69184ea184aadb8a626dc4d3013dc08fe8",
        "gas": "0x11357",
        "value": "0x0",
        "input": "0x40c10f190000000000000000000000001804c8ab1f12e6bbf3894d4083f33e07309d1f3800000000000000000000000000000000000000000000d3c21bcecceda1000000",
        "nonce": "0x1",
        "chainId": "0x14a34"
      },
      "additionalContracts": [],
      "isFixedGasLimit": false
    },
    {
      "hash": null,
      "transactionType": "CALL",
      "contractName": null,
      "contractAddress": "0x60cb112631ce92f9fe164878d690fac1fd1c295d",
      "function": "mint(address,uint256)",
      "arguments": [
        "0x1804c8AB1F12E6bbf3894d4083f33e07309d1f38",
        "1000000000000000000000000"
      ],
      "transaction": {
        "from": "0x1804c8ab1f12e6bbf3894d4083f33e07309d1f38",
        "to": "0x60cb112631ce92f9fe164878d690fac1fd1c295d",
        "gas": "0x11357",
        "value": "0x0",
        "input": "0x40c10f190000000000000000000000001804c8ab1f12e6bbf3894d4083f33e07309d1f3800000000000000000000000000000000000000000000d3c21bcecceda1000000",
        "nonce": "0x2",
        "chainId": "0x14a34"
      },
      "additionalContracts": [],
      "isFixedGasLimit": false
    },
    {
      "hash": null,
      "transactionType": "CALL",
      "contractName": null,
      "contractAddress": "0x39855b7de333de50a7b2e97a3a3e2ec1cf0411a9",
      "function": "mint(address,uint256)",
      "arguments": [
        "0x1804c8AB1F12E6bbf3894d4083f33e07309d1f38",
        "1000000000000000000000000"
      ],
      "transaction": {
        "from": "0x1804c8ab1f12e6bbf3894d4083f33e07309d1f38",
        "to": "0x39855b7de333de50a7b2e97a3a3e2ec1cf0411a9",
        "gas": "0x11357",
        "value": "0x0",
        "input": "0x40c10f190000000000000000000000001804c8ab1f12e6bbf3894d4083f33e07309d1f3800000000000000000000000000000000000000000000d3c21bcecceda1000000",
        "nonce": "0x3",
        "chainId": "0x14a34"
      },
      "additionalContracts": [],
      "isFixedGasLimit": false
    },
    {
      "hash": null,
      "transactionType": "CALL",
      "contractName": null,
      "contractAddress": "0x44406ad771b05827f5fd95b002189e51eebedc91",
      "function": "approve(address,uint256)",
      "arguments": [
        "0x08AC49be269F1c6C2821D56c4C729C9843152EE3",
        "115792089237316195423570985008687907853269984665640564039457584007913129639935"
      ],
      "transaction": {
        "from": "0x1804c8ab1f12e6bbf3894d4083f33e07309d1f38",
        "to": "0x44406ad771b05827f5fd95b002189e51eebedc91",
        "gas": "0x10868",
        "value": "0x0",
        "input": "0x095ea7b300000000000000000000000008ac49be269f1c6c2821d56c4c729c9843152ee3ffffffffffffffffffffffffffffffffffffffffffffffffffffffffffffffff",
        "nonce": "0x4",
        "chainId": "0x14a34"
      },
      "additionalContracts": [],
      "isFixedGasLimit": false
    },
    {
      "hash": null,
      "transactionType": "CALL",
      "contractName": null,
      "contractAddress": "0x44406ad771b05827f5fd95b002189e51eebedc91",
      "function": "approve(address,uint256)",
      "arguments": [
        "0x60CEC0218b501Cf4E045CbDbA3eF021374e1aFAc",
        "115792089237316195423570985008687907853269984665640564039457584007913129639935"
      ],
      "transaction": {
        "from": "0x1804c8ab1f12e6bbf3894d4083f33e07309d1f38",
        "to": "0x44406ad771b05827f5fd95b002189e51eebedc91",
        "gas": "0x10868",
        "value": "0x0",
        "input": "0x095ea7b300000000000000000000000060cec0218b501cf4e045cbdba3ef021374e1afacffffffffffffffffffffffffffffffffffffffffffffffffffffffffffffffff",
        "nonce": "0x5",
        "chainId": "0x14a34"
      },
      "additionalContracts": [],
      "isFixedGasLimit": false
    },
    {
      "hash": null,
      "transactionType": "CALL",
      "contractName": null,
      "contractAddress": "0x168deb69184ea184aadb8a626dc4d3013dc08fe8",
      "function": "approve(address,uint256)",
      "arguments": [
        "0x08AC49be269F1c6C2821D56c4C729C9843152EE3",
        "115792089237316195423570985008687907853269984665640564039457584007913129639935"
      ],
      "transaction": {
        "from": "0x1804c8ab1f12e6bbf3894d4083f33e07309d1f38",
        "to": "0x168deb69184ea184aadb8a626dc4d3013dc08fe8",
        "gas": "0x10868",
        "value": "0x0",
        "input": "0x095ea7b300000000000000000000000008ac49be269f1c6c2821d56c4c729c9843152ee3ffffffffffffffffffffffffffffffffffffffffffffffffffffffffffffffff",
        "nonce": "0x6",
        "chainId": "0x14a34"
      },
      "additionalContracts": [],
      "isFixedGasLimit": false
    },
    {
      "hash": null,
      "transactionType": "CALL",
      "contractName": null,
      "contractAddress": "0x168deb69184ea184aadb8a626dc4d3013dc08fe8",
      "function": "approve(address,uint256)",
      "arguments": [
        "0x60CEC0218b501Cf4E045CbDbA3eF021374e1aFAc",
        "115792089237316195423570985008687907853269984665640564039457584007913129639935"
      ],
      "transaction": {
        "from": "0x1804c8ab1f12e6bbf3894d4083f33e07309d1f38",
        "to": "0x168deb69184ea184aadb8a626dc4d3013dc08fe8",
        "gas": "0x10868",
        "value": "0x0",
        "input": "0x095ea7b300000000000000000000000060cec0218b501cf4e045cbdba3ef021374e1afacffffffffffffffffffffffffffffffffffffffffffffffffffffffffffffffff",
        "nonce": "0x7",
        "chainId": "0x14a34"
      },
      "additionalContracts": [],
      "isFixedGasLimit": false
    },
    {
      "hash": null,
      "transactionType": "CALL",
      "contractName": null,
      "contractAddress": "0x60cb112631ce92f9fe164878d690fac1fd1c295d",
      "function": "approve(address,uint256)",
      "arguments": [
        "0x08AC49be269F1c6C2821D56c4C729C9843152EE3",
        "115792089237316195423570985008687907853269984665640564039457584007913129639935"
      ],
      "transaction": {
        "from": "0x1804c8ab1f12e6bbf3894d4083f33e07309d1f38",
        "to": "0x60cb112631ce92f9fe164878d690fac1fd1c295d",
        "gas": "0x10868",
        "value": "0x0",
        "input": "0x095ea7b300000000000000000000000008ac49be269f1c6c2821d56c4c729c9843152ee3ffffffffffffffffffffffffffffffffffffffffffffffffffffffffffffffff",
        "nonce": "0x8",
        "chainId": "0x14a34"
      },
      "additionalContracts": [],
      "isFixedGasLimit": false
    },
    {
      "hash": null,
      "transactionType": "CALL",
      "contractName": null,
      "contractAddress": "0x60cb112631ce92f9fe164878d690fac1fd1c295d",
      "function": "approve(address,uint256)",
      "arguments": [
        "0x60CEC0218b501Cf4E045CbDbA3eF021374e1aFAc",
        "115792089237316195423570985008687907853269984665640564039457584007913129639935"
      ],
      "transaction": {
        "from": "0x1804c8ab1f12e6bbf3894d4083f33e07309d1f38",
        "to": "0x60cb112631ce92f9fe164878d690fac1fd1c295d",
        "gas": "0x10868",
        "value": "0x0",
        "input": "0x095ea7b300000000000000000000000060cec0218b501cf4e045cbdba3ef021374e1afacffffffffffffffffffffffffffffffffffffffffffffffffffffffffffffffff",
        "nonce": "0x9",
        "chainId": "0x14a34"
      },
      "additionalContracts": [],
      "isFixedGasLimit": false
    },
    {
      "hash": null,
      "transactionType": "CALL",
      "contractName": null,
      "contractAddress": "0x39855b7de333de50a7b2e97a3a3e2ec1cf0411a9",
      "function": "approve(address,uint256)",
      "arguments": [
        "0x08AC49be269F1c6C2821D56c4C729C9843152EE3",
        "115792089237316195423570985008687907853269984665640564039457584007913129639935"
      ],
      "transaction": {
        "from": "0x1804c8ab1f12e6bbf3894d4083f33e07309d1f38",
        "to": "0x39855b7de333de50a7b2e97a3a3e2ec1cf0411a9",
        "gas": "0x10868",
        "value": "0x0",
        "input": "0x095ea7b300000000000000000000000008ac49be269f1c6c2821d56c4c729c9843152ee3ffffffffffffffffffffffffffffffffffffffffffffffffffffffffffffffff",
        "nonce": "0xa",
        "chainId": "0x14a34"
      },
      "additionalContracts": [],
      "isFixedGasLimit": false
    },
    {
      "hash": null,
      "transactionType": "CALL",
      "contractName": null,
      "contractAddress": "0x39855b7de333de50a7b2e97a3a3e2ec1cf0411a9",
      "function": "approve(address,uint256)",
      "arguments": [
        "0x60CEC0218b501Cf4E045CbDbA3eF021374e1aFAc",
        "115792089237316195423570985008687907853269984665640564039457584007913129639935"
      ],
      "transaction": {
        "from": "0x1804c8ab1f12e6bbf3894d4083f33e07309d1f38",
        "to": "0x39855b7de333de50a7b2e97a3a3e2ec1cf0411a9",
        "gas": "0x10868",
        "value": "0x0",
        "input": "0x095ea7b300000000000000000000000060cec0218b501cf4e045cbdba3ef021374e1afacffffffffffffffffffffffffffffffffffffffffffffffffffffffffffffffff",
        "nonce": "0xb",
        "chainId": "0x14a34"
      },
      "additionalContracts": [],
      "isFixedGasLimit": false
    },
    {
      "hash": null,
      "transactionType": "CALL",
      "contractName": null,
      "contractAddress": "0x08ac49be269f1c6c2821d56c4c729c9843152ee3",
      "function": "mint((address,uint256,uint256,uint256[],address,uint256))",
      "arguments": [
        "(0x285398F9Ac1D317Bca922691316BDf5B1493dA71, 420000000000000000000000, 400000000000000000000000, [0, 0, 0, 0], 0x1804c8AB1F12E6bbf3894d4083f33e07309d1f38, 1776426924)"
      ],
      "transaction": {
        "from": "0x1804c8ab1f12e6bbf3894d4083f33e07309d1f38",
        "to": "0x08ac49be269f1c6c2821d56c4c729c9843152ee3",
        "gas": "0xf4552",
        "value": "0x0",
        "input": "0xb771f9510000000000000000000000000000000000000000000000000000000000000020000000000000000000000000285398f9ac1d317bca922691316bdf5b1493da710000000000000000000000000000000000000000000058f03ee118a13e8000000000000000000000000000000000000000000000000054b40b1f852bda00000000000000000000000000000000000000000000000000000000000000000000c00000000000000000000000001804c8ab1f12e6bbf3894d4083f33e07309d1f380000000000000000000000000000000000000000000000000000000069e21fac00000000000000000000000000000000000000000000000000000000000000040000000000000000000000000000000000000000000000000000000000000000000000000000000000000000000000000000000000000000000000000000000000000000000000000000000000000000000000000000000000000000000000000000000000000000000000000000000000000000000000000000000000000000",
        "nonce": "0xc",
        "chainId": "0x14a34"
      },
      "additionalContracts": [],
      "isFixedGasLimit": false
    },
    {
      "hash": null,
      "transactionType": "CALL",
      "contractName": null,
      "contractAddress": "0x08ac49be269f1c6c2821d56c4c729c9843152ee3",
      "function": "mint((address,uint256,uint256,uint256[],address,uint256))",
      "arguments": [
        "(0x285398F9Ac1D317Bca922691316BDf5B1493dA71, 402500000000000000000000, 350000000000000000000000, [0, 0, 0, 0], 0x1804c8AB1F12E6bbf3894d4083f33e07309d1f38, 1776426924)"
      ],
      "transaction": {
        "from": "0x1804c8ab1f12e6bbf3894d4083f33e07309d1f38",
        "to": "0x08ac49be269f1c6c2821d56c4c729c9843152ee3",
        "gas": "0xb7632",
        "value": "0x0",
        "input": "0xb771f9510000000000000000000000000000000000000000000000000000000000000020000000000000000000000000285398f9ac1d317bca922691316bdf5b1493da7100000000000000000000000000000000000000000000553b9197b79a86900000000000000000000000000000000000000000000000004a1d89bb94865ec0000000000000000000000000000000000000000000000000000000000000000000c00000000000000000000000001804c8ab1f12e6bbf3894d4083f33e07309d1f380000000000000000000000000000000000000000000000000000000069e21fac00000000000000000000000000000000000000000000000000000000000000040000000000000000000000000000000000000000000000000000000000000000000000000000000000000000000000000000000000000000000000000000000000000000000000000000000000000000000000000000000000000000000000000000000000000000000000000000000000000000000000000000000000000000",
        "nonce": "0xd",
        "chainId": "0x14a34"
      },
      "additionalContracts": [],
      "isFixedGasLimit": false
    },
    {
      "hash": null,
      "transactionType": "CALL",
      "contractName": null,
      "contractAddress": "0x08ac49be269f1c6c2821d56c4c729c9843152ee3",
      "function": "mint((address,uint256,uint256,uint256[],address,uint256))",
      "arguments": [
        "(0x285398F9Ac1D317Bca922691316BDf5B1493dA71, 255000000000000000000000, 200000000000000000000000, [0, 0, 0, 0], 0x1804c8AB1F12E6bbf3894d4083f33e07309d1f38, 1776426924)"
      ],
      "transaction": {
        "from": "0x1804c8ab1f12e6bbf3894d4083f33e07309d1f38",
        "to": "0x08ac49be269f1c6c2821d56c4c729c9843152ee3",
        "gas": "0xc69e4",
        "value": "0x0",
        "input": "0xb771f9510000000000000000000000000000000000000000000000000000000000000020000000000000000000000000285398f9ac1d317bca922691316bdf5b1493da710000000000000000000000000000000000000000000035ff93e41818c1600000000000000000000000000000000000000000000000002a5a058fc295ed00000000000000000000000000000000000000000000000000000000000000000000c00000000000000000000000001804c8ab1f12e6bbf3894d4083f33e07309d1f380000000000000000000000000000000000000000000000000000000069e21fac00000000000000000000000000000000000000000000000000000000000000040000000000000000000000000000000000000000000000000000000000000000000000000000000000000000000000000000000000000000000000000000000000000000000000000000000000000000000000000000000000000000000000000000000000000000000000000000000000000000000000000000000000000000",
        "nonce": "0xe",
        "chainId": "0x14a34"
      },
      "additionalContracts": [],
      "isFixedGasLimit": false
    },
    {
      "hash": null,
      "transactionType": "CALL",
      "contractName": null,
      "contractAddress": "0x08ac49be269f1c6c2821d56c4c729c9843152ee3",
      "function": "mint((address,uint256,uint256,uint256[],address,uint256))",
      "arguments": [
        "(0x285398F9Ac1D317Bca922691316BDf5B1493dA71, 68750000000000000000000, 50000000000000000000000, [0, 0, 0, 0], 0x1804c8AB1F12E6bbf3894d4083f33e07309d1f38, 1776426924)"
      ],
      "transaction": {
        "from": "0x1804c8ab1f12e6bbf3894d4083f33e07309d1f38",
        "to": "0x08ac49be269f1c6c2821d56c4c729c9843152ee3",
        "gas": "0xbfc9e",
        "value": "0x0",
        "input": "0xb771f9510000000000000000000000000000000000000000000000000000000000000020000000000000000000000000285398f9ac1d317bca922691316bdf5b1493da71000000000000000000000000000000000000000000000e8ef1e96ae389780000000000000000000000000000000000000000000000000a968163f0a57b40000000000000000000000000000000000000000000000000000000000000000000c00000000000000000000000001804c8ab1f12e6bbf3894d4083f33e07309d1f380000000000000000000000000000000000000000000000000000000069e21fac00000000000000000000000000000000000000000000000000000000000000040000000000000000000000000000000000000000000000000000000000000000000000000000000000000000000000000000000000000000000000000000000000000000000000000000000000000000000000000000000000000000000000000000000000000000000000000000000000000000000000000000000000000000",
        "nonce": "0xf",
        "chainId": "0x14a34"
      },
      "additionalContracts": [],
      "isFixedGasLimit": false
    },
    {
      "hash": null,
      "transactionType": "CALL",
      "contractName": null,
      "contractAddress": "0x60cec0218b501cf4e045cbdba3ef021374e1afac",
      "function": "exactInput((address,uint256,uint256,uint256,uint256,address,uint256))",
      "arguments": [
        "(0x285398F9Ac1D317Bca922691316BDf5B1493dA71, 0, 1, 1000000000000000000000, 0, 0x1804c8AB1F12E6bbf3894d4083f33e07309d1f38, 1776426924)"
      ],
      "transaction": {
        "from": "0x1804c8ab1f12e6bbf3894d4083f33e07309d1f38",
        "to": "0x60cec0218b501cf4e045cbdba3ef021374e1afac",
        "gas": "0xc2834",
        "value": "0x0",
        "input": "0xde6b497c000000000000000000000000285398f9ac1d317bca922691316bdf5b1493da710000000000000000000000000000000000000000000000000000000000000000000000000000000000000000000000000000000000000000000000000000000100000000000000000000000000000000000000000000003635c9adc5dea0000000000000000000000000000000000000000000000000000000000000000000000000000000000000000000001804c8ab1f12e6bbf3894d4083f33e07309d1f380000000000000000000000000000000000000000000000000000000069e21fac",
        "nonce": "0x10",
        "chainId": "0x14a34"
      },
      "additionalContracts": [],
      "isFixedGasLimit": false
    },
    {
      "hash": null,
      "transactionType": "CALL",
      "contractName": null,
      "contractAddress": "0x60cec0218b501cf4e045cbdba3ef021374e1afac",
      "function": "exactInput((address,uint256,uint256,uint256,uint256,address,uint256))",
      "arguments": [
        "(0x285398F9Ac1D317Bca922691316BDf5B1493dA71, 1, 0, 1000000000000000000000, 0, 0x1804c8AB1F12E6bbf3894d4083f33e07309d1f38, 1776426924)"
      ],
      "transaction": {
        "from": "0x1804c8ab1f12e6bbf3894d4083f33e07309d1f38",
        "to": "0x60cec0218b501cf4e045cbdba3ef021374e1afac",
        "gas": "0xafc1f",
        "value": "0x0",
        "input": "0xde6b497c000000000000000000000000285398f9ac1d317bca922691316bdf5b1493da710000000000000000000000000000000000000000000000000000000000000001000000000000000000000000000000000000000000000000000000000000000000000000000000000000000000000000000000000000003635c9adc5dea0000000000000000000000000000000000000000000000000000000000000000000000000000000000000000000001804c8ab1f12e6bbf3894d4083f33e07309d1f380000000000000000000000000000000000000000000000000000000069e21fac",
        "nonce": "0x11",
        "chainId": "0x14a34"
      },
      "additionalContracts": [],
      "isFixedGasLimit": false
    },
    {
      "hash": null,
      "transactionType": "CALL",
      "contractName": null,
      "contractAddress": "0x60cec0218b501cf4e045cbdba3ef021374e1afac",
      "function": "exactInput((address,uint256,uint256,uint256,uint256,address,uint256))",
      "arguments": [
        "(0x285398F9Ac1D317Bca922691316BDf5B1493dA71, 0, 2, 1000000000000000000000, 0, 0x1804c8AB1F12E6bbf3894d4083f33e07309d1f38, 1776426924)"
      ],
      "transaction": {
        "from": "0x1804c8ab1f12e6bbf3894d4083f33e07309d1f38",
        "to": "0x60cec0218b501cf4e045cbdba3ef021374e1afac",
        "gas": "0xa67a1",
        "value": "0x0",
        "input": "0xde6b497c000000000000000000000000285398f9ac1d317bca922691316bdf5b1493da710000000000000000000000000000000000000000000000000000000000000000000000000000000000000000000000000000000000000000000000000000000200000000000000000000000000000000000000000000003635c9adc5dea0000000000000000000000000000000000000000000000000000000000000000000000000000000000000000000001804c8ab1f12e6bbf3894d4083f33e07309d1f380000000000000000000000000000000000000000000000000000000069e21fac",
        "nonce": "0x12",
        "chainId": "0x14a34"
      },
      "additionalContracts": [],
      "isFixedGasLimit": false
    },
    {
      "hash": null,
      "transactionType": "CALL",
      "contractName": null,
      "contractAddress": "0x60cec0218b501cf4e045cbdba3ef021374e1afac",
      "function": "exactInput((address,uint256,uint256,uint256,uint256,address,uint256))",
      "arguments": [
        "(0x285398F9Ac1D317Bca922691316BDf5B1493dA71, 2, 0, 1000000000000000000000, 0, 0x1804c8AB1F12E6bbf3894d4083f33e07309d1f38, 1776426924)"
      ],
      "transaction": {
        "from": "0x1804c8ab1f12e6bbf3894d4083f33e07309d1f38",
        "to": "0x60cec0218b501cf4e045cbdba3ef021374e1afac",
        "gas": "0xb0658",
        "value": "0x0",
        "input": "0xde6b497c000000000000000000000000285398f9ac1d317bca922691316bdf5b1493da710000000000000000000000000000000000000000000000000000000000000002000000000000000000000000000000000000000000000000000000000000000000000000000000000000000000000000000000000000003635c9adc5dea0000000000000000000000000000000000000000000000000000000000000000000000000000000000000000000001804c8ab1f12e6bbf3894d4083f33e07309d1f380000000000000000000000000000000000000000000000000000000069e21fac",
        "nonce": "0x13",
        "chainId": "0x14a34"
      },
      "additionalContracts": [],
      "isFixedGasLimit": false
    },
    {
      "hash": null,
      "transactionType": "CALL",
      "contractName": null,
      "contractAddress": "0x60cec0218b501cf4e045cbdba3ef021374e1afac",
      "function": "exactInput((address,uint256,uint256,uint256,uint256,address,uint256))",
      "arguments": [
        "(0x285398F9Ac1D317Bca922691316BDf5B1493dA71, 0, 3, 1000000000000000000000, 0, 0x1804c8AB1F12E6bbf3894d4083f33e07309d1f38, 1776426924)"
      ],
      "transaction": {
        "from": "0x1804c8ab1f12e6bbf3894d4083f33e07309d1f38",
        "to": "0x60cec0218b501cf4e045cbdba3ef021374e1afac",
        "gas": "0x9d3a0",
        "value": "0x0",
        "input": "0xde6b497c000000000000000000000000285398f9ac1d317bca922691316bdf5b1493da710000000000000000000000000000000000000000000000000000000000000000000000000000000000000000000000000000000000000000000000000000000300000000000000000000000000000000000000000000003635c9adc5dea0000000000000000000000000000000000000000000000000000000000000000000000000000000000000000000001804c8ab1f12e6bbf3894d4083f33e07309d1f380000000000000000000000000000000000000000000000000000000069e21fac",
        "nonce": "0x14",
        "chainId": "0x14a34"
      },
      "additionalContracts": [],
      "isFixedGasLimit": false
    },
    {
      "hash": null,
      "transactionType": "CALL",
      "contractName": null,
      "contractAddress": "0x60cec0218b501cf4e045cbdba3ef021374e1afac",
      "function": "exactInput((address,uint256,uint256,uint256,uint256,address,uint256))",
      "arguments": [
        "(0x285398F9Ac1D317Bca922691316BDf5B1493dA71, 3, 0, 1000000000000000000000, 0, 0x1804c8AB1F12E6bbf3894d4083f33e07309d1f38, 1776426924)"
      ],
      "transaction": {
        "from": "0x1804c8ab1f12e6bbf3894d4083f33e07309d1f38",
        "to": "0x60cec0218b501cf4e045cbdba3ef021374e1afac",
        "gas": "0xb10c5",
        "value": "0x0",
        "input": "0xde6b497c000000000000000000000000285398f9ac1d317bca922691316bdf5b1493da710000000000000000000000000000000000000000000000000000000000000003000000000000000000000000000000000000000000000000000000000000000000000000000000000000000000000000000000000000003635c9adc5dea0000000000000000000000000000000000000000000000000000000000000000000000000000000000000000000001804c8ab1f12e6bbf3894d4083f33e07309d1f380000000000000000000000000000000000000000000000000000000069e21fac",
        "nonce": "0x15",
        "chainId": "0x14a34"
      },
      "additionalContracts": [],
      "isFixedGasLimit": false
    },
    {
      "hash": null,
      "transactionType": "CALL",
      "contractName": null,
      "contractAddress": "0x60cec0218b501cf4e045cbdba3ef021374e1afac",
      "function": "exactInput((address,uint256,uint256,uint256,uint256,address,uint256))",
      "arguments": [
        "(0x285398F9Ac1D317Bca922691316BDf5B1493dA71, 1, 2, 1000000000000000000000, 0, 0x1804c8AB1F12E6bbf3894d4083f33e07309d1f38, 1776426924)"
      ],
      "transaction": {
        "from": "0x1804c8ab1f12e6bbf3894d4083f33e07309d1f38",
        "to": "0x60cec0218b501cf4e045cbdba3ef021374e1afac",
        "gas": "0x9d3b6",
        "value": "0x0",
        "input": "0xde6b497c000000000000000000000000285398f9ac1d317bca922691316bdf5b1493da710000000000000000000000000000000000000000000000000000000000000001000000000000000000000000000000000000000000000000000000000000000200000000000000000000000000000000000000000000003635c9adc5dea0000000000000000000000000000000000000000000000000000000000000000000000000000000000000000000001804c8ab1f12e6bbf3894d4083f33e07309d1f380000000000000000000000000000000000000000000000000000000069e21fac",
        "nonce": "0x16",
        "chainId": "0x14a34"
      },
      "additionalContracts": [],
      "isFixedGasLimit": false
    },
    {
      "hash": null,
      "transactionType": "CALL",
      "contractName": null,
      "contractAddress": "0x60cec0218b501cf4e045cbdba3ef021374e1afac",
      "function": "exactInput((address,uint256,uint256,uint256,uint256,address,uint256))",
      "arguments": [
        "(0x285398F9Ac1D317Bca922691316BDf5B1493dA71, 2, 1, 1000000000000000000000, 0, 0x1804c8AB1F12E6bbf3894d4083f33e07309d1f38, 1776426924)"
      ],
      "transaction": {
        "from": "0x1804c8ab1f12e6bbf3894d4083f33e07309d1f38",
        "to": "0x60cec0218b501cf4e045cbdba3ef021374e1afac",
        "gas": "0x937a1",
        "value": "0x0",
        "input": "0xde6b497c000000000000000000000000285398f9ac1d317bca922691316bdf5b1493da710000000000000000000000000000000000000000000000000000000000000002000000000000000000000000000000000000000000000000000000000000000100000000000000000000000000000000000000000000003635c9adc5dea0000000000000000000000000000000000000000000000000000000000000000000000000000000000000000000001804c8ab1f12e6bbf3894d4083f33e07309d1f380000000000000000000000000000000000000000000000000000000069e21fac",
        "nonce": "0x17",
        "chainId": "0x14a34"
      },
      "additionalContracts": [],
      "isFixedGasLimit": false
    },
    {
      "hash": null,
      "transactionType": "CALL",
      "contractName": null,
      "contractAddress": "0x60cec0218b501cf4e045cbdba3ef021374e1afac",
      "function": "exactInput((address,uint256,uint256,uint256,uint256,address,uint256))",
      "arguments": [
        "(0x285398F9Ac1D317Bca922691316BDf5B1493dA71, 1, 3, 1000000000000000000000, 0, 0x1804c8AB1F12E6bbf3894d4083f33e07309d1f38, 1776426924)"
      ],
      "transaction": {
        "from": "0x1804c8ab1f12e6bbf3894d4083f33e07309d1f38",
        "to": "0x60cec0218b501cf4e045cbdba3ef021374e1afac",
        "gas": "0xa67ac",
        "value": "0x0",
        "input": "0xde6b497c000000000000000000000000285398f9ac1d317bca922691316bdf5b1493da710000000000000000000000000000000000000000000000000000000000000001000000000000000000000000000000000000000000000000000000000000000300000000000000000000000000000000000000000000003635c9adc5dea0000000000000000000000000000000000000000000000000000000000000000000000000000000000000000000001804c8ab1f12e6bbf3894d4083f33e07309d1f380000000000000000000000000000000000000000000000000000000069e21fac",
        "nonce": "0x18",
        "chainId": "0x14a34"
      },
      "additionalContracts": [],
      "isFixedGasLimit": false
    },
    {
      "hash": null,
      "transactionType": "CALL",
      "contractName": null,
      "contractAddress": "0x60cec0218b501cf4e045cbdba3ef021374e1afac",
      "function": "exactInput((address,uint256,uint256,uint256,uint256,address,uint256))",
      "arguments": [
        "(0x285398F9Ac1D317Bca922691316BDf5B1493dA71, 3, 1, 1000000000000000000000, 0, 0x1804c8AB1F12E6bbf3894d4083f33e07309d1f38, 1776426924)"
      ],
      "transaction": {
        "from": "0x1804c8ab1f12e6bbf3894d4083f33e07309d1f38",
        "to": "0x60cec0218b501cf4e045cbdba3ef021374e1afac",
        "gas": "0xa5a3a",
        "value": "0x0",
        "input": "0xde6b497c000000000000000000000000285398f9ac1d317bca922691316bdf5b1493da710000000000000000000000000000000000000000000000000000000000000003000000000000000000000000000000000000000000000000000000000000000100000000000000000000000000000000000000000000003635c9adc5dea0000000000000000000000000000000000000000000000000000000000000000000000000000000000000000000001804c8ab1f12e6bbf3894d4083f33e07309d1f380000000000000000000000000000000000000000000000000000000069e21fac",
        "nonce": "0x19",
        "chainId": "0x14a34"
      },
      "additionalContracts": [],
      "isFixedGasLimit": false
    },
    {
      "hash": null,
      "transactionType": "CALL",
      "contractName": null,
      "contractAddress": "0x60cec0218b501cf4e045cbdba3ef021374e1afac",
      "function": "exactInput((address,uint256,uint256,uint256,uint256,address,uint256))",
      "arguments": [
        "(0x285398F9Ac1D317Bca922691316BDf5B1493dA71, 2, 3, 1000000000000000000000, 0, 0x1804c8AB1F12E6bbf3894d4083f33e07309d1f38, 1776426924)"
      ],
      "transaction": {
        "from": "0x1804c8ab1f12e6bbf3894d4083f33e07309d1f38",
        "to": "0x60cec0218b501cf4e045cbdba3ef021374e1afac",
        "gas": "0xa68ae",
        "value": "0x0",
        "input": "0xde6b497c000000000000000000000000285398f9ac1d317bca922691316bdf5b1493da710000000000000000000000000000000000000000000000000000000000000002000000000000000000000000000000000000000000000000000000000000000300000000000000000000000000000000000000000000003635c9adc5dea0000000000000000000000000000000000000000000000000000000000000000000000000000000000000000000001804c8ab1f12e6bbf3894d4083f33e07309d1f380000000000000000000000000000000000000000000000000000000069e21fac",
        "nonce": "0x1a",
        "chainId": "0x14a34"
      },
      "additionalContracts": [],
      "isFixedGasLimit": false
    },
    {
      "hash": null,
      "transactionType": "CALL",
      "contractName": null,
      "contractAddress": "0x60cec0218b501cf4e045cbdba3ef021374e1afac",
      "function": "exactInput((address,uint256,uint256,uint256,uint256,address,uint256))",
      "arguments": [
        "(0x285398F9Ac1D317Bca922691316BDf5B1493dA71, 3, 2, 1000000000000000000000, 0, 0x1804c8AB1F12E6bbf3894d4083f33e07309d1f38, 1776426924)"
      ],
      "transaction": {
        "from": "0x1804c8ab1f12e6bbf3894d4083f33e07309d1f38",
        "to": "0x60cec0218b501cf4e045cbdba3ef021374e1afac",
        "gas": "0x937a1",
        "value": "0x0",
        "input": "0xde6b497c000000000000000000000000285398f9ac1d317bca922691316bdf5b1493da710000000000000000000000000000000000000000000000000000000000000003000000000000000000000000000000000000000000000000000000000000000200000000000000000000000000000000000000000000003635c9adc5dea0000000000000000000000000000000000000000000000000000000000000000000000000000000000000000000001804c8ab1f12e6bbf3894d4083f33e07309d1f380000000000000000000000000000000000000000000000000000000069e21fac",
        "nonce": "0x1b",
        "chainId": "0x14a34"
      },
      "additionalContracts": [],
      "isFixedGasLimit": false
    },
    {
      "hash": null,
      "transactionType": "CALL",
      "contractName": null,
      "contractAddress": "0x60cec0218b501cf4e045cbdba3ef021374e1afac",
      "function": "exactInput((address,uint256,uint256,uint256,uint256,address,uint256))",
      "arguments": [
        "(0x285398F9Ac1D317Bca922691316BDf5B1493dA71, 0, 1, 1000000000000000000000, 0, 0x1804c8AB1F12E6bbf3894d4083f33e07309d1f38, 1776426924)"
      ],
      "transaction": {
        "from": "0x1804c8ab1f12e6bbf3894d4083f33e07309d1f38",
        "to": "0x60cec0218b501cf4e045cbdba3ef021374e1afac",
        "gas": "0xa67a1",
        "value": "0x0",
        "input": "0xde6b497c000000000000000000000000285398f9ac1d317bca922691316bdf5b1493da710000000000000000000000000000000000000000000000000000000000000000000000000000000000000000000000000000000000000000000000000000000100000000000000000000000000000000000000000000003635c9adc5dea0000000000000000000000000000000000000000000000000000000000000000000000000000000000000000000001804c8ab1f12e6bbf3894d4083f33e07309d1f380000000000000000000000000000000000000000000000000000000069e21fac",
        "nonce": "0x1c",
        "chainId": "0x14a34"
      },
      "additionalContracts": [],
      "isFixedGasLimit": false
    },
    {
      "hash": null,
      "transactionType": "CALL",
      "contractName": null,
      "contractAddress": "0x60cec0218b501cf4e045cbdba3ef021374e1afac",
      "function": "exactInput((address,uint256,uint256,uint256,uint256,address,uint256))",
      "arguments": [
        "(0x285398F9Ac1D317Bca922691316BDf5B1493dA71, 1, 2, 1000000000000000000000, 0, 0x1804c8AB1F12E6bbf3894d4083f33e07309d1f38, 1776426924)"
      ],
      "transaction": {
        "from": "0x1804c8ab1f12e6bbf3894d4083f33e07309d1f38",
        "to": "0x60cec0218b501cf4e045cbdba3ef021374e1afac",
        "gas": "0xa01c1",
        "value": "0x0",
        "input": "0xde6b497c000000000000000000000000285398f9ac1d317bca922691316bdf5b1493da710000000000000000000000000000000000000000000000000000000000000001000000000000000000000000000000000000000000000000000000000000000200000000000000000000000000000000000000000000003635c9adc5dea0000000000000000000000000000000000000000000000000000000000000000000000000000000000000000000001804c8ab1f12e6bbf3894d4083f33e07309d1f380000000000000000000000000000000000000000000000000000000069e21fac",
        "nonce": "0x1d",
        "chainId": "0x14a34"
      },
      "additionalContracts": [],
      "isFixedGasLimit": false
    },
    {
      "hash": null,
      "transactionType": "CALL",
      "contractName": null,
      "contractAddress": "0x60cec0218b501cf4e045cbdba3ef021374e1afac",
      "function": "exactInput((address,uint256,uint256,uint256,uint256,address,uint256))",
      "arguments": [
        "(0x285398F9Ac1D317Bca922691316BDf5B1493dA71, 2, 3, 1000000000000000000000, 0, 0x1804c8AB1F12E6bbf3894d4083f33e07309d1f38, 1776426924)"
      ],
      "transaction": {
        "from": "0x1804c8ab1f12e6bbf3894d4083f33e07309d1f38",
        "to": "0x60cec0218b501cf4e045cbdba3ef021374e1afac",
        "gas": "0xa01c1",
        "value": "0x0",
        "input": "0xde6b497c000000000000000000000000285398f9ac1d317bca922691316bdf5b1493da710000000000000000000000000000000000000000000000000000000000000002000000000000000000000000000000000000000000000000000000000000000300000000000000000000000000000000000000000000003635c9adc5dea0000000000000000000000000000000000000000000000000000000000000000000000000000000000000000000001804c8ab1f12e6bbf3894d4083f33e07309d1f380000000000000000000000000000000000000000000000000000000069e21fac",
        "nonce": "0x1e",
        "chainId": "0x14a34"
      },
      "additionalContracts": [],
      "isFixedGasLimit": false
    },
    {
      "hash": null,
      "transactionType": "CALL",
      "contractName": null,
      "contractAddress": "0x60cec0218b501cf4e045cbdba3ef021374e1afac",
      "function": "exactInput((address,uint256,uint256,uint256,uint256,address,uint256))",
      "arguments": [
        "(0x285398F9Ac1D317Bca922691316BDf5B1493dA71, 3, 0, 1000000000000000000000, 0, 0x1804c8AB1F12E6bbf3894d4083f33e07309d1f38, 1776426924)"
      ],
      "transaction": {
        "from": "0x1804c8ab1f12e6bbf3894d4083f33e07309d1f38",
        "to": "0x60cec0218b501cf4e045cbdba3ef021374e1afac",
        "gas": "0xa5a29",
        "value": "0x0",
        "input": "0xde6b497c000000000000000000000000285398f9ac1d317bca922691316bdf5b1493da710000000000000000000000000000000000000000000000000000000000000003000000000000000000000000000000000000000000000000000000000000000000000000000000000000000000000000000000000000003635c9adc5dea0000000000000000000000000000000000000000000000000000000000000000000000000000000000000000000001804c8ab1f12e6bbf3894d4083f33e07309d1f380000000000000000000000000000000000000000000000000000000069e21fac",
        "nonce": "0x1f",
        "chainId": "0x14a34"
      },
      "additionalContracts": [],
      "isFixedGasLimit": false
    },
    {
      "hash": null,
      "transactionType": "CALL",
      "contractName": null,
      "contractAddress": "0x60cec0218b501cf4e045cbdba3ef021374e1afac",
      "function": "exactInput((address,uint256,uint256,uint256,uint256,address,uint256))",
      "arguments": [
        "(0x285398F9Ac1D317Bca922691316BDf5B1493dA71, 0, 2, 1000000000000000000000, 0, 0x1804c8AB1F12E6bbf3894d4083f33e07309d1f38, 1776426924)"
      ],
      "transaction": {
        "from": "0x1804c8ab1f12e6bbf3894d4083f33e07309d1f38",
        "to": "0x60cec0218b501cf4e045cbdba3ef021374e1afac",
        "gas": "0x9d3a0",
        "value": "0x0",
        "input": "0xde6b497c000000000000000000000000285398f9ac1d317bca922691316bdf5b1493da710000000000000000000000000000000000000000000000000000000000000000000000000000000000000000000000000000000000000000000000000000000200000000000000000000000000000000000000000000003635c9adc5dea0000000000000000000000000000000000000000000000000000000000000000000000000000000000000000000001804c8ab1f12e6bbf3894d4083f33e07309d1f380000000000000000000000000000000000000000000000000000000069e21fac",
        "nonce": "0x20",
        "chainId": "0x14a34"
      },
      "additionalContracts": [],
      "isFixedGasLimit": false
    },
    {
      "hash": null,
      "transactionType": "CALL",
      "contractName": null,
      "contractAddress": "0x60cec0218b501cf4e045cbdba3ef021374e1afac",
      "function": "exactInput((address,uint256,uint256,uint256,uint256,address,uint256))",
      "arguments": [
        "(0x285398F9Ac1D317Bca922691316BDf5B1493dA71, 1, 3, 1000000000000000000000, 0, 0x1804c8AB1F12E6bbf3894d4083f33e07309d1f38, 1776426924)"
      ],
      "transaction": {
        "from": "0x1804c8ab1f12e6bbf3894d4083f33e07309d1f38",
        "to": "0x60cec0218b501cf4e045cbdba3ef021374e1afac",
        "gas": "0xa70b9",
        "value": "0x0",
        "input": "0xde6b497c000000000000000000000000285398f9ac1d317bca922691316bdf5b1493da710000000000000000000000000000000000000000000000000000000000000001000000000000000000000000000000000000000000000000000000000000000300000000000000000000000000000000000000000000003635c9adc5dea0000000000000000000000000000000000000000000000000000000000000000000000000000000000000000000001804c8ab1f12e6bbf3894d4083f33e07309d1f380000000000000000000000000000000000000000000000000000000069e21fac",
        "nonce": "0x21",
        "chainId": "0x14a34"
      },
      "additionalContracts": [],
      "isFixedGasLimit": false
    },
    {
      "hash": null,
      "transactionType": "CALL",
      "contractName": null,
      "contractAddress": "0x60cec0218b501cf4e045cbdba3ef021374e1afac",
      "function": "exactInput((address,uint256,uint256,uint256,uint256,address,uint256))",
      "arguments": [
        "(0x285398F9Ac1D317Bca922691316BDf5B1493dA71, 2, 0, 1000000000000000000000, 0, 0x1804c8AB1F12E6bbf3894d4083f33e07309d1f38, 1776426924)"
      ],
      "transaction": {
        "from": "0x1804c8ab1f12e6bbf3894d4083f33e07309d1f38",
        "to": "0x60cec0218b501cf4e045cbdba3ef021374e1afac",
        "gas": "0xaa382",
        "value": "0x0",
        "input": "0xde6b497c000000000000000000000000285398f9ac1d317bca922691316bdf5b1493da710000000000000000000000000000000000000000000000000000000000000002000000000000000000000000000000000000000000000000000000000000000000000000000000000000000000000000000000000000003635c9adc5dea0000000000000000000000000000000000000000000000000000000000000000000000000000000000000000000001804c8ab1f12e6bbf3894d4083f33e07309d1f380000000000000000000000000000000000000000000000000000000069e21fac",
        "nonce": "0x22",
        "chainId": "0x14a34"
      },
      "additionalContracts": [],
      "isFixedGasLimit": false
    },
    {
      "hash": null,
      "transactionType": "CALL",
      "contractName": null,
      "contractAddress": "0x60cec0218b501cf4e045cbdba3ef021374e1afac",
      "function": "exactInput((address,uint256,uint256,uint256,uint256,address,uint256))",
      "arguments": [
        "(0x285398F9Ac1D317Bca922691316BDf5B1493dA71, 3, 1, 1000000000000000000000, 0, 0x1804c8AB1F12E6bbf3894d4083f33e07309d1f38, 1776426924)"
      ],
      "transaction": {
        "from": "0x1804c8ab1f12e6bbf3894d4083f33e07309d1f38",
        "to": "0x60cec0218b501cf4e045cbdba3ef021374e1afac",
        "gas": "0xa64a7",
        "value": "0x0",
        "input": "0xde6b497c000000000000000000000000285398f9ac1d317bca922691316bdf5b1493da710000000000000000000000000000000000000000000000000000000000000003000000000000000000000000000000000000000000000000000000000000000100000000000000000000000000000000000000000000003635c9adc5dea0000000000000000000000000000000000000000000000000000000000000000000000000000000000000000000001804c8ab1f12e6bbf3894d4083f33e07309d1f380000000000000000000000000000000000000000000000000000000069e21fac",
        "nonce": "0x23",
        "chainId": "0x14a34"
      },
      "additionalContracts": [],
      "isFixedGasLimit": false
    }
  ],
  "receipts": [],
  "libraries": [],
  "pending": [],
  "returns": {},
  "timestamp": 1776426378177,
  "chain": 84532,
  "commit": "799baa8"
}