{
  "transactions": [
    {
      "hash": "0xe6d8022193ba615f98b2725535e3e04781bed43a0ba93a6a6014181e2b00bcc8",
      "transactionType": "CALL",
      "contractName": null,
      "contractAddress": "0x44406ad771b05827f5fd95b002189e51eebedc91",
      "function": "mint(address,uint256)",
      "arguments": [
        "0xb29e1ddDfc73E00dEE3EaA7EA102990ADca78b39",
        "1000000000000000000000000"
      ],
      "transaction": {
        "from": "0xb29e1dddfc73e00dee3eaa7ea102990adca78b39",
        "to": "0x44406ad771b05827f5fd95b002189e51eebedc91",
        "gas": "0x16f9b",
        "value": "0x0",
        "input": "0x40c10f19000000000000000000000000b29e1dddfc73e00dee3eaa7ea102990adca78b3900000000000000000000000000000000000000000000d3c21bcecceda1000000",
        "nonce": "0x3c",
        "chainId": "0x14a34"
      },
      "additionalContracts": [],
      "isFixedGasLimit": false
    },
    {
      "hash": "0xf0e186bc1d7f7fc5a98220c64f3700d2d00ff672090c3675cab313f7f9918002",
      "transactionType": "CALL",
      "contractName": null,
      "contractAddress": "0x168deb69184ea184aadb8a626dc4d3013dc08fe8",
      "function": "mint(address,uint256)",
      "arguments": [
        "0xb29e1ddDfc73E00dEE3EaA7EA102990ADca78b39",
        "1000000000000000000000000"
      ],
      "transaction": {
        "from": "0xb29e1dddfc73e00dee3eaa7ea102990adca78b39",
        "to": "0x168deb69184ea184aadb8a626dc4d3013dc08fe8",
        "gas": "0x16f9b",
        "value": "0x0",
        "input": "0x40c10f19000000000000000000000000b29e1dddfc73e00dee3eaa7ea102990adca78b3900000000000000000000000000000000000000000000d3c21bcecceda1000000",
        "nonce": "0x3d",
        "chainId": "0x14a34"
      },
      "additionalContracts": [],
      "isFixedGasLimit": false
    },
    {
      "hash": "0x4c5ee751454770993cc2f2455e2e9da595aec7040078c0bf8a19e8b305c30db6",
      "transactionType": "CALL",
      "contractName": null,
      "contractAddress": "0x60cb112631ce92f9fe164878d690fac1fd1c295d",
      "function": "mint(address,uint256)",
      "arguments": [
        "0xb29e1ddDfc73E00dEE3EaA7EA102990ADca78b39",
        "1000000000000000000000000"
      ],
      "transaction": {
        "from": "0xb29e1dddfc73e00dee3eaa7ea102990adca78b39",
        "to": "0x60cb112631ce92f9fe164878d690fac1fd1c295d",
        "gas": "0x16f9b",
        "value": "0x0",
        "input": "0x40c10f19000000000000000000000000b29e1dddfc73e00dee3eaa7ea102990adca78b3900000000000000000000000000000000000000000000d3c21bcecceda1000000",
        "nonce": "0x3e",
        "chainId": "0x14a34"
      },
      "additionalContracts": [],
      "isFixedGasLimit": false
    },
    {
      "hash": "0x916140a80dc3657edb81f2a7862914e07c4645da0cd2784d2304c0c255b27113",
      "transactionType": "CALL",
      "contractName": null,
      "contractAddress": "0x39855b7de333de50a7b2e97a3a3e2ec1cf0411a9",
      "function": "mint(address,uint256)",
      "arguments": [
        "0xb29e1ddDfc73E00dEE3EaA7EA102990ADca78b39",
        "1000000000000000000000000"
      ],
      "transaction": {
        "from": "0xb29e1dddfc73e00dee3eaa7ea102990adca78b39",
        "to": "0x39855b7de333de50a7b2e97a3a3e2ec1cf0411a9",
        "gas": "0x16f9b",
        "value": "0x0",
        "input": "0x40c10f19000000000000000000000000b29e1dddfc73e00dee3eaa7ea102990adca78b3900000000000000000000000000000000000000000000d3c21bcecceda1000000",
        "nonce": "0x3f",
        "chainId": "0x14a34"
      },
      "additionalContracts": [],
      "isFixedGasLimit": false
    },
    {
      "hash": "0x36a1fa4b87a8670442f739d1883bb81c47a119272c0f8c2b07158df03e685b48",
      "transactionType": "CALL",
      "contractName": null,
      "contractAddress": "0x44406ad771b05827f5fd95b002189e51eebedc91",
      "function": "approve(address,uint256)",
      "arguments": [
        "0x08AC49be269F1c6C2821D56c4C729C9843152EE3",
        "115792089237316195423570985008687907853269984665640564039457584007913129639935"
      ],
      "transaction": {
        "from": "0xb29e1dddfc73e00dee3eaa7ea102990adca78b39",
        "to": "0x44406ad771b05827f5fd95b002189e51eebedc91",
        "gas": "0x10868",
        "value": "0x0",
        "input": "0x095ea7b300000000000000000000000008ac49be269f1c6c2821d56c4c729c9843152ee3ffffffffffffffffffffffffffffffffffffffffffffffffffffffffffffffff",
        "nonce": "0x40",
        "chainId": "0x14a34"
      },
      "additionalContracts": [],
      "isFixedGasLimit": false
    },
    {
      "hash": "0x3353a343c6d39c69f8e58510eade4991c8d5448227b13ee52bfd09448cd79fac",
      "transactionType": "CALL",
      "contractName": null,
      "contractAddress": "0x44406ad771b05827f5fd95b002189e51eebedc91",
      "function": "approve(address,uint256)",
      "arguments": [
        "0x60CEC0218b501Cf4E045CbDbA3eF021374e1aFAc",
        "115792089237316195423570985008687907853269984665640564039457584007913129639935"
      ],
      "transaction": {
        "from": "0xb29e1dddfc73e00dee3eaa7ea102990adca78b39",
        "to": "0x44406ad771b05827f5fd95b002189e51eebedc91",
        "gas": "0x10868",
        "value": "0x0",
        "input": "0x095ea7b300000000000000000000000060cec0218b501cf4e045cbdba3ef021374e1afacffffffffffffffffffffffffffffffffffffffffffffffffffffffffffffffff",
        "nonce": "0x41",
        "chainId": "0x14a34"
      },
      "additionalContracts": [],
      "isFixedGasLimit": false
    },
    {
      "hash": "0x4ab4255f631d84dd64c6b5ef83ef7e92c5d362e77101431e55014b7ec9b5c6bc",
      "transactionType": "CALL",
      "contractName": null,
      "contractAddress": "0x168deb69184ea184aadb8a626dc4d3013dc08fe8",
      "function": "approve(address,uint256)",
      "arguments": [
        "0x08AC49be269F1c6C2821D56c4C729C9843152EE3",
        "115792089237316195423570985008687907853269984665640564039457584007913129639935"
      ],
      "transaction": {
        "from": "0xb29e1dddfc73e00dee3eaa7ea102990adca78b39",
        "to": "0x168deb69184ea184aadb8a626dc4d3013dc08fe8",
        "gas": "0x10868",
        "value": "0x0",
        "input": "0x095ea7b300000000000000000000000008ac49be269f1c6c2821d56c4c729c9843152ee3ffffffffffffffffffffffffffffffffffffffffffffffffffffffffffffffff",
        "nonce": "0x42",
        "chainId": "0x14a34"
      },
      "additionalContracts": [],
      "isFixedGasLimit": false
    },
    {
      "hash": "0x8c7d081fc5b981837eff203202bea46ab1b2f85e167071e1799eeab2846bfe23",
      "transactionType": "CALL",
      "contractName": null,
      "contractAddress": "0x168deb69184ea184aadb8a626dc4d3013dc08fe8",
      "function": "approve(address,uint256)",
      "arguments": [
        "0x60CEC0218b501Cf4E045CbDbA3eF021374e1aFAc",
        "115792089237316195423570985008687907853269984665640564039457584007913129639935"
      ],
      "transaction": {
        "from": "0xb29e1dddfc73e00dee3eaa7ea102990adca78b39",
        "to": "0x168deb69184ea184aadb8a626dc4d3013dc08fe8",
        "gas": "0x10868",
        "value": "0x0",
        "input": "0x095ea7b300000000000000000000000060cec0218b501cf4e045cbdba3ef021374e1afacffffffffffffffffffffffffffffffffffffffffffffffffffffffffffffffff",
        "nonce": "0x43",
        "chainId": "0x14a34"
      },
      "additionalContracts": [],
      "isFixedGasLimit": false
    },
    {
      "hash": "0x8f1094a23d5d75477c0cac498b34d664923cced201f7d8f750830b11624e5a6f",
      "transactionType": "CALL",
      "contractName": null,
      "contractAddress": "0x60cb112631ce92f9fe164878d690fac1fd1c295d",
      "function": "approve(address,uint256)",
      "arguments": [
        "0x08AC49be269F1c6C2821D56c4C729C9843152EE3",
        "115792089237316195423570985008687907853269984665640564039457584007913129639935"
      ],
      "transaction": {
        "from": "0xb29e1dddfc73e00dee3eaa7ea102990adca78b39",
        "to": "0x60cb112631ce92f9fe164878d690fac1fd1c295d",
        "gas": "0x10868",
        "value": "0x0",
        "input": "0x095ea7b300000000000000000000000008ac49be269f1c6c2821d56c4c729c9843152ee3ffffffffffffffffffffffffffffffffffffffffffffffffffffffffffffffff",
        "nonce": "0x44",
        "chainId": "0x14a34"
      },
      "additionalContracts": [],
      "isFixedGasLimit": false
    },
    {
      "hash": "0xb1e0977687242ae9c2d0b4542d81d3a18a132feb888182b4d6fcde68b22b9b09",
      "transactionType": "CALL",
      "contractName": null,
      "contractAddress": "0x60cb112631ce92f9fe164878d690fac1fd1c295d",
      "function": "approve(address,uint256)",
      "arguments": [
        "0x60CEC0218b501Cf4E045CbDbA3eF021374e1aFAc",
        "115792089237316195423570985008687907853269984665640564039457584007913129639935"
      ],
      "transaction": {
        "from": "0xb29e1dddfc73e00dee3eaa7ea102990adca78b39",
        "to": "0x60cb112631ce92f9fe164878d690fac1fd1c295d",
        "gas": "0x10868",
        "value": "0x0",
        "input": "0x095ea7b300000000000000000000000060cec0218b501cf4e045cbdba3ef021374e1afacffffffffffffffffffffffffffffffffffffffffffffffffffffffffffffffff",
        "nonce": "0x45",
        "chainId": "0x14a34"
      },
      "additionalContracts": [],
      "isFixedGasLimit": false
    },
    {
      "hash": "0x99cdbf344097e92c3196a917ce1fdf74e42a8791f32d18084cdf499686524c50",
      "transactionType": "CALL",
      "contractName": null,
      "contractAddress": "0x39855b7de333de50a7b2e97a3a3e2ec1cf0411a9",
      "function": "approve(address,uint256)",
      "arguments": [
        "0x08AC49be269F1c6C2821D56c4C729C9843152EE3",
        "115792089237316195423570985008687907853269984665640564039457584007913129639935"
      ],
      "transaction": {
        "from": "0xb29e1dddfc73e00dee3eaa7ea102990adca78b39",
        "to": "0x39855b7de333de50a7b2e97a3a3e2ec1cf0411a9",
        "gas": "0x10868",
        "value": "0x0",
        "input": "0x095ea7b300000000000000000000000008ac49be269f1c6c2821d56c4c729c9843152ee3ffffffffffffffffffffffffffffffffffffffffffffffffffffffffffffffff",
        "nonce": "0x46",
        "chainId": "0x14a34"
      },
      "additionalContracts": [],
      "isFixedGasLimit": false
    },
    {
      "hash": "0x25826fb2083e9e68830e80dc351d04a4fce2818af0ee31cbd3c5659d1aee8145",
      "transactionType": "CALL",
      "contractName": null,
      "contractAddress": "0x39855b7de333de50a7b2e97a3a3e2ec1cf0411a9",
      "function": "approve(address,uint256)",
      "arguments": [
        "0x60CEC0218b501Cf4E045CbDbA3eF021374e1aFAc",
        "115792089237316195423570985008687907853269984665640564039457584007913129639935"
      ],
      "transaction": {
        "from": "0xb29e1dddfc73e00dee3eaa7ea102990adca78b39",
        "to": "0x39855b7de333de50a7b2e97a3a3e2ec1cf0411a9",
        "gas": "0x10868",
        "value": "0x0",
        "input": "0x095ea7b300000000000000000000000060cec0218b501cf4e045cbdba3ef021374e1afacffffffffffffffffffffffffffffffffffffffffffffffffffffffffffffffff",
        "nonce": "0x47",
        "chainId": "0x14a34"
      },
      "additionalContracts": [],
      "isFixedGasLimit": false
    },
    {
      "hash": "0x93616f4b6e0f2e6a486f1e19885b7c1ef5f7f05f5851788dbb90a8a7882b6382",
      "transactionType": "CALL",
      "contractName": null,
      "contractAddress": "0x08ac49be269f1c6c2821d56c4c729c9843152ee3",
      "function": "mint((address,uint256,uint256,uint256[],address,uint256))",
      "arguments": [
        "(0x79E516819DC8c06D79615A2f2F1914c646649369, 420000000000000000000000, 400000000000000000000000, [0, 0, 0, 0], 0xb29e1ddDfc73E00dEE3EaA7EA102990ADca78b39, 1776242298)"
      ],
      "transaction": {
        "from": "0xb29e1dddfc73e00dee3eaa7ea102990adca78b39",
        "to": "0x08ac49be269f1c6c2821d56c4c729c9843152ee3",
        "gas": "0xf4552",
        "value": "0x0",
        "input": "0xb771f951000000000000000000000000000000000000000000000000000000000000002000000000000000000000000079e516819dc8c06d79615a2f2f1914c6466493690000000000000000000000000000000000000000000058f03ee118a13e8000000000000000000000000000000000000000000000000054b40b1f852bda00000000000000000000000000000000000000000000000000000000000000000000c0000000000000000000000000b29e1dddfc73e00dee3eaa7ea102990adca78b390000000000000000000000000000000000000000000000000000000069df4e7a00000000000000000000000000000000000000000000000000000000000000040000000000000000000000000000000000000000000000000000000000000000000000000000000000000000000000000000000000000000000000000000000000000000000000000000000000000000000000000000000000000000000000000000000000000000000000000000000000000000000000000000000000000000",
        "nonce": "0x48",
        "chainId": "0x14a34"
      },
      "additionalContracts": [],
      "isFixedGasLimit": false
    },
    {
      "hash": "0x7bd80b16724df543753ab1133ce72de742eb7eaa7b2d14dc7ec589976e0031a1",
      "transactionType": "CALL",
      "contractName": null,
      "contractAddress": "0x08ac49be269f1c6c2821d56c4c729c9843152ee3",
      "function": "mint((address,uint256,uint256,uint256[],address,uint256))",
      "arguments": [
        "(0x79E516819DC8c06D79615A2f2F1914c646649369, 402500000000000000000000, 350000000000000000000000, [0, 0, 0, 0], 0xb29e1ddDfc73E00dEE3EaA7EA102990ADca78b39, 1776242298)"
      ],
      "transaction": {
        "from": "0xb29e1dddfc73e00dee3eaa7ea102990adca78b39",
        "to": "0x08ac49be269f1c6c2821d56c4c729c9843152ee3",
        "gas": "0xb7632",
        "value": "0x0",
        "input": "0xb771f951000000000000000000000000000000000000000000000000000000000000002000000000000000000000000079e516819dc8c06d79615a2f2f1914c64664936900000000000000000000000000000000000000000000553b9197b79a86900000000000000000000000000000000000000000000000004a1d89bb94865ec0000000000000000000000000000000000000000000000000000000000000000000c0000000000000000000000000b29e1dddfc73e00dee3eaa7ea102990adca78b390000000000000000000000000000000000000000000000000000000069df4e7a00000000000000000000000000000000000000000000000000000000000000040000000000000000000000000000000000000000000000000000000000000000000000000000000000000000000000000000000000000000000000000000000000000000000000000000000000000000000000000000000000000000000000000000000000000000000000000000000000000000000000000000000000000000",
        "nonce": "0x49",
        "chainId": "0x14a34"
      },
      "additionalContracts": [],
      "isFixedGasLimit": false
    },
    {
      "hash": "0x63416651d7012065e319d6f7414ad721a4d75ed41ce796db37dd9eef278a1c3b",
      "transactionType": "CALL",
      "contractName": null,
      "contractAddress": "0x08ac49be269f1c6c2821d56c4c729c9843152ee3",
      "function": "mint((address,uint256,uint256,uint256[],address,uint256))",
      "arguments": [
        "(0x79E516819DC8c06D79615A2f2F1914c646649369, 255000000000000000000000, 200000000000000000000000, [0, 0, 0, 0], 0xb29e1ddDfc73E00dEE3EaA7EA102990ADca78b39, 1776242298)"
      ],
      "transaction": {
        "from": "0xb29e1dddfc73e00dee3eaa7ea102990adca78b39",
        "to": "0x08ac49be269f1c6c2821d56c4c729c9843152ee3",
        "gas": "0xc69e4",
        "value": "0x0",
        "input": "0xb771f951000000000000000000000000000000000000000000000000000000000000002000000000000000000000000079e516819dc8c06d79615a2f2f1914c6466493690000000000000000000000000000000000000000000035ff93e41818c1600000000000000000000000000000000000000000000000002a5a058fc295ed00000000000000000000000000000000000000000000000000000000000000000000c0000000000000000000000000b29e1dddfc73e00dee3eaa7ea102990adca78b390000000000000000000000000000000000000000000000000000000069df4e7a00000000000000000000000000000000000000000000000000000000000000040000000000000000000000000000000000000000000000000000000000000000000000000000000000000000000000000000000000000000000000000000000000000000000000000000000000000000000000000000000000000000000000000000000000000000000000000000000000000000000000000000000000000000",
        "nonce": "0x4a",
        "chainId": "0x14a34"
      },
      "additionalContracts": [],
      "isFixedGasLimit": false
    },
    {
      "hash": "0xb20e68a7050e46c4c3c6abf7cac9646750745b4cca4c14ceec9ee42f97fe7e50",
      "transactionType": "CALL",
      "contractName": null,
      "contractAddress": "0x08ac49be269f1c6c2821d56c4c729c9843152ee3",
      "function": "mint((address,uint256,uint256,uint256[],address,uint256))",
      "arguments": [
        "(0x79E516819DC8c06D79615A2f2F1914c646649369, 68750000000000000000000, 50000000000000000000000, [0, 0, 0, 0], 0xb29e1ddDfc73E00dEE3EaA7EA102990ADca78b39, 1776242298)"
      ],
      "transaction": {
        "from": "0xb29e1dddfc73e00dee3eaa7ea102990adca78b39",
        "to": "0x08ac49be269f1c6c2821d56c4c729c9843152ee3",
        "gas": "0xbfc9e",
        "value": "0x0",
        "input": "0xb771f951000000000000000000000000000000000000000000000000000000000000002000000000000000000000000079e516819dc8c06d79615a2f2f1914c646649369000000000000000000000000000000000000000000000e8ef1e96ae389780000000000000000000000000000000000000000000000000a968163f0a57b40000000000000000000000000000000000000000000000000000000000000000000c0000000000000000000000000b29e1dddfc73e00dee3eaa7ea102990adca78b390000000000000000000000000000000000000000000000000000000069df4e7a00000000000000000000000000000000000000000000000000000000000000040000000000000000000000000000000000000000000000000000000000000000000000000000000000000000000000000000000000000000000000000000000000000000000000000000000000000000000000000000000000000000000000000000000000000000000000000000000000000000000000000000000000000000",
        "nonce": "0x4b",
        "chainId": "0x14a34"
      },
      "additionalContracts": [],
      "isFixedGasLimit": false
    },
    {
      "hash": "0xbb735b37a08435186b3659fc0570fa363e96b615ae89c88f021b898109fbcd07",
      "transactionType": "CALL",
      "contractName": null,
      "contractAddress": "0x60cec0218b501cf4e045cbdba3ef021374e1afac",
      "function": "exactInput((address,uint256,uint256,uint256,uint256,address,uint256))",
      "arguments": [
        "(0x79E516819DC8c06D79615A2f2F1914c646649369, 0, 1, 1000000000000000000000, 0, 0xb29e1ddDfc73E00dEE3EaA7EA102990ADca78b39, 1776242298)"
      ],
      "transaction": {
        "from": "0xb29e1dddfc73e00dee3eaa7ea102990adca78b39",
        "to": "0x60cec0218b501cf4e045cbdba3ef021374e1afac",
        "gas": "0xb7c46",
        "value": "0x0",
        "input": "0xde6b497c00000000000000000000000079e516819dc8c06d79615a2f2f1914c6466493690000000000000000000000000000000000000000000000000000000000000000000000000000000000000000000000000000000000000000000000000000000100000000000000000000000000000000000000000000003635c9adc5dea000000000000000000000000000000000000000000000000000000000000000000000000000000000000000000000b29e1dddfc73e00dee3eaa7ea102990adca78b390000000000000000000000000000000000000000000000000000000069df4e7a",
        "nonce": "0x4c",
        "chainId": "0x14a34"
      },
      "additionalContracts": [],
      "isFixedGasLimit": false
    },
    {
      "hash": "0x661cd4064345e6008a248d80796e85e625ae831c7a75a9c448c7dca006ad38da",
      "transactionType": "CALL",
      "contractName": null,
      "contractAddress": "0x60cec0218b501cf4e045cbdba3ef021374e1afac",
      "function": "exactInput((address,uint256,uint256,uint256,uint256,address,uint256))",
      "arguments": [
        "(0x79E516819DC8c06D79615A2f2F1914c646649369, 1, 0, 1000000000000000000000, 0, 0xb29e1ddDfc73E00dEE3EaA7EA102990ADca78b39, 1776242298)"
      ],
      "transaction": {
        "from": "0xb29e1dddfc73e00dee3eaa7ea102990adca78b39",
        "to": "0x60cec0218b501cf4e045cbdba3ef021374e1afac",
        "gas": "0xafbe1",
        "value": "0x0",
        "input": "0xde6b497c00000000000000000000000079e516819dc8c06d79615a2f2f1914c6466493690000000000000000000000000000000000000000000000000000000000000001000000000000000000000000000000000000000000000000000000000000000000000000000000000000000000000000000000000000003635c9adc5dea000000000000000000000000000000000000000000000000000000000000000000000000000000000000000000000b29e1dddfc73e00dee3eaa7ea102990adca78b390000000000000000000000000000000000000000000000000000000069df4e7a",
        "nonce": "0x4d",
        "chainId": "0x14a34"
      },
      "additionalContracts": [],
      "isFixedGasLimit": false
    },
    {
      "hash": "0x1b5fd7be1dff5849dcdeea5bada1a7786e223040985b67d710eff9fdfc605524",
      "transactionType": "CALL",
      "contractName": null,
      "contractAddress": "0x60cec0218b501cf4e045cbdba3ef021374e1afac",
      "function": "exactInput((address,uint256,uint256,uint256,uint256,address,uint256))",
      "arguments": [
        "(0x79E516819DC8c06D79615A2f2F1914c646649369, 0, 2, 1000000000000000000000, 0, 0xb29e1ddDfc73E00dEE3EaA7EA102990ADca78b39, 1776242298)"
      ],
      "transaction": {
        "from": "0xb29e1dddfc73e00dee3eaa7ea102990adca78b39",
        "to": "0x60cec0218b501cf4e045cbdba3ef021374e1afac",
        "gas": "0x9d3a0",
        "value": "0x0",
        "input": "0xde6b497c00000000000000000000000079e516819dc8c06d79615a2f2f1914c6466493690000000000000000000000000000000000000000000000000000000000000000000000000000000000000000000000000000000000000000000000000000000200000000000000000000000000000000000000000000003635c9adc5dea000000000000000000000000000000000000000000000000000000000000000000000000000000000000000000000b29e1dddfc73e00dee3eaa7ea102990adca78b390000000000000000000000000000000000000000000000000000000069df4e7a",
        "nonce": "0x4e",
        "chainId": "0x14a34"
      },
      "additionalContracts": [],
      "isFixedGasLimit": false
    },
    {
      "hash": "0x98160923e81efb523262bc029613968f4347c06fc95b8dc2c561ddd65b14ff85",
      "transactionType": "CALL",
      "contractName": null,
      "contractAddress": "0x60cec0218b501cf4e045cbdba3ef021374e1afac",
      "function": "exactInput((address,uint256,uint256,uint256,uint256,address,uint256))",
      "arguments": [
        "(0x79E516819DC8c06D79615A2f2F1914c646649369, 2, 0, 1000000000000000000000, 0, 0xb29e1ddDfc73E00dEE3EaA7EA102990ADca78b39, 1776242298)"
      ],
      "transaction": {
        "from": "0xb29e1dddfc73e00dee3eaa7ea102990adca78b39",
        "to": "0x60cec0218b501cf4e045cbdba3ef021374e1afac",
        "gas": "0xb0691",
        "value": "0x0",
        "input": "0xde6b497c00000000000000000000000079e516819dc8c06d79615a2f2f1914c6466493690000000000000000000000000000000000000000000000000000000000000002000000000000000000000000000000000000000000000000000000000000000000000000000000000000000000000000000000000000003635c9adc5dea000000000000000000000000000000000000000000000000000000000000000000000000000000000000000000000b29e1dddfc73e00dee3eaa7ea102990adca78b390000000000000000000000000000000000000000000000000000000069df4e7a",
        "nonce": "0x4f",
        "chainId": "0x14a34"
      },
      "additionalContracts": [],
      "isFixedGasLimit": false
    },
    {
      "hash": "0x7ea414b7dbdad82a080a58cc97738b059bf9fca4a26a35b0bd36e085814c6962",
      "transactionType": "CALL",
      "contractName": null,
      "contractAddress": "0x60cec0218b501cf4e045cbdba3ef021374e1afac",
      "function": "exactInput((address,uint256,uint256,uint256,uint256,address,uint256))",
      "arguments": [
        "(0x79E516819DC8c06D79615A2f2F1914c646649369, 0, 3, 1000000000000000000000, 0, 0xb29e1ddDfc73E00dEE3EaA7EA102990ADca78b39, 1776242298)"
      ],
      "transaction": {
        "from": "0xb29e1dddfc73e00dee3eaa7ea102990adca78b39",
        "to": "0x60cec0218b501cf4e045cbdba3ef021374e1afac",
        "gas": "0x9d3a0",
        "value": "0x0",
        "input": "0xde6b497c00000000000000000000000079e516819dc8c06d79615a2f2f1914c6466493690000000000000000000000000000000000000000000000000000000000000000000000000000000000000000000000000000000000000000000000000000000300000000000000000000000000000000000000000000003635c9adc5dea000000000000000000000000000000000000000000000000000000000000000000000000000000000000000000000b29e1dddfc73e00dee3eaa7ea102990adca78b390000000000000000000000000000000000000000000000000000000069df4e7a",
        "nonce": "0x50",
        "chainId": "0x14a34"
      },
      "additionalContracts": [],
      "isFixedGasLimit": false
    },
    {
      "hash": "0x83a8fe86c89d23d6dd025ff8111f0069c3612943e5e03793547864f1d13583e2",
      "transactionType": "CALL",
      "contractName": null,
      "contractAddress": "0x60cec0218b501cf4e045cbdba3ef021374e1afac",
      "function": "exactInput((address,uint256,uint256,uint256,uint256,address,uint256))",
      "arguments": [
        "(0x79E516819DC8c06D79615A2f2F1914c646649369, 3, 0, 1000000000000000000000, 0, 0xb29e1ddDfc73E00dEE3EaA7EA102990ADca78b39, 1776242298)"
      ],
      "transaction": {
        "from": "0xb29e1dddfc73e00dee3eaa7ea102990adca78b39",
        "to": "0x60cec0218b501cf4e045cbdba3ef021374e1afac",
        "gas": "0xb10c5",
        "value": "0x0",
        "input": "0xde6b497c00000000000000000000000079e516819dc8c06d79615a2f2f1914c6466493690000000000000000000000000000000000000000000000000000000000000003000000000000000000000000000000000000000000000000000000000000000000000000000000000000000000000000000000000000003635c9adc5dea000000000000000000000000000000000000000000000000000000000000000000000000000000000000000000000b29e1dddfc73e00dee3eaa7ea102990adca78b390000000000000000000000000000000000000000000000000000000069df4e7a",
        "nonce": "0x51",
        "chainId": "0x14a34"
      },
      "additionalContracts": [],
      "isFixedGasLimit": false
    },
    {
      "hash": "0x5e7d0359943fe7b4790016cfe88e2b9cf63274b910dbf8826cf5f5d94ac510d1",
      "transactionType": "CALL",
      "contractName": null,
      "contractAddress": "0x60cec0218b501cf4e045cbdba3ef021374e1afac",
      "function": "exactInput((address,uint256,uint256,uint256,uint256,address,uint256))",
      "arguments": [
        "(0x79E516819DC8c06D79615A2f2F1914c646649369, 1, 2, 1000000000000000000000, 0, 0xb29e1ddDfc73E00dEE3EaA7EA102990ADca78b39, 1776242298)"
      ],
      "transaction": {
        "from": "0xb29e1dddfc73e00dee3eaa7ea102990adca78b39",
        "to": "0x60cec0218b501cf4e045cbdba3ef021374e1afac",
        "gas": "0xa67ac",
        "value": "0x0",
        "input": "0xde6b497c00000000000000000000000079e516819dc8c06d79615a2f2f1914c6466493690000000000000000000000000000000000000000000000000000000000000001000000000000000000000000000000000000000000000000000000000000000200000000000000000000000000000000000000000000003635c9adc5dea000000000000000000000000000000000000000000000000000000000000000000000000000000000000000000000b29e1dddfc73e00dee3eaa7ea102990adca78b390000000000000000000000000000000000000000000000000000000069df4e7a",
        "nonce": "0x52",
        "chainId": "0x14a34"
      },
      "additionalContracts": [],
      "isFixedGasLimit": false
    },
    {
      "hash": "0xbe2f61f54770e0ca9fe6e765108b71a5598e35abf18c28c9f0f67a1bb55bf5db",
      "transactionType": "CALL",
      "contractName": null,
      "contractAddress": "0x60cec0218b501cf4e045cbdba3ef021374e1afac",
      "function": "exactInput((address,uint256,uint256,uint256,uint256,address,uint256))",
      "arguments": [
        "(0x79E516819DC8c06D79615A2f2F1914c646649369, 2, 1, 1000000000000000000000, 0, 0xb29e1ddDfc73E00dEE3EaA7EA102990ADca78b39, 1776242298)"
      ],
      "transaction": {
        "from": "0xb29e1dddfc73e00dee3eaa7ea102990adca78b39",
        "to": "0x60cec0218b501cf4e045cbdba3ef021374e1afac",
        "gas": "0x9c269",
        "value": "0x0",
        "input": "0xde6b497c00000000000000000000000079e516819dc8c06d79615a2f2f1914c6466493690000000000000000000000000000000000000000000000000000000000000002000000000000000000000000000000000000000000000000000000000000000100000000000000000000000000000000000000000000003635c9adc5dea000000000000000000000000000000000000000000000000000000000000000000000000000000000000000000000b29e1dddfc73e00dee3eaa7ea102990adca78b390000000000000000000000000000000000000000000000000000000069df4e7a",
        "nonce": "0x53",
        "chainId": "0x14a34"
      },
      "additionalContracts": [],
      "isFixedGasLimit": false
    },
    {
      "hash": "0xaa198f13080d874591fcd2eba6e961d27d959e2b10192070f1a38e51ca27b160",
      "transactionType": "CALL",
      "contractName": null,
      "contractAddress": "0x60cec0218b501cf4e045cbdba3ef021374e1afac",
      "function": "exactInput((address,uint256,uint256,uint256,uint256,address,uint256))",
      "arguments": [
        "(0x79E516819DC8c06D79615A2f2F1914c646649369, 1, 3, 1000000000000000000000, 0, 0xb29e1ddDfc73E00dEE3EaA7EA102990ADca78b39, 1776242298)"
      ],
      "transaction": {
        "from": "0xb29e1dddfc73e00dee3eaa7ea102990adca78b39",
        "to": "0x60cec0218b501cf4e045cbdba3ef021374e1afac",
        "gas": "0x9d3b6",
        "value": "0x0",
        "input": "0xde6b497c00000000000000000000000079e516819dc8c06d79615a2f2f1914c6466493690000000000000000000000000000000000000000000000000000000000000001000000000000000000000000000000000000000000000000000000000000000300000000000000000000000000000000000000000000003635c9adc5dea000000000000000000000000000000000000000000000000000000000000000000000000000000000000000000000b29e1dddfc73e00dee3eaa7ea102990adca78b390000000000000000000000000000000000000000000000000000000069df4e7a",
        "nonce": "0x54",
        "chainId": "0x14a34"
      },
      "additionalContracts": [],
      "isFixedGasLimit": false
    },
    {
      "hash": "0x6eb037f95b130e7e01e84079f05396e31aeec90b872e0f64ee78a65df5a5f9aa",
      "transactionType": "CALL",
      "contractName": null,
      "contractAddress": "0x60cec0218b501cf4e045cbdba3ef021374e1afac",
      "function": "exactInput((address,uint256,uint256,uint256,uint256,address,uint256))",
      "arguments": [
        "(0x79E516819DC8c06D79615A2f2F1914c646649369, 3, 1, 1000000000000000000000, 0, 0xb29e1ddDfc73E00dEE3EaA7EA102990ADca78b39, 1776242298)"
      ],
      "transaction": {
        "from": "0xb29e1dddfc73e00dee3eaa7ea102990adca78b39",
        "to": "0x60cec0218b501cf4e045cbdba3ef021374e1afac",
        "gas": "0xaf65d",
        "value": "0x0",
        "input": "0xde6b497c00000000000000000000000079e516819dc8c06d79615a2f2f1914c6466493690000000000000000000000000000000000000000000000000000000000000003000000000000000000000000000000000000000000000000000000000000000100000000000000000000000000000000000000000000003635c9adc5dea000000000000000000000000000000000000000000000000000000000000000000000000000000000000000000000b29e1dddfc73e00dee3eaa7ea102990adca78b390000000000000000000000000000000000000000000000000000000069df4e7a",
        "nonce": "0x55",
        "chainId": "0x14a34"
      },
      "additionalContracts": [],
      "isFixedGasLimit": false
    },
    {
      "hash": "0xaa44374d45c9bef1896de70985db6fcff8c638e7cb3e0927e9de5b800f598ba3",
      "transactionType": "CALL",
      "contractName": null,
      "contractAddress": "0x60cec0218b501cf4e045cbdba3ef021374e1afac",
      "function": "exactInput((address,uint256,uint256,uint256,uint256,address,uint256))",
      "arguments": [
        "(0x79E516819DC8c06D79615A2f2F1914c646649369, 2, 3, 1000000000000000000000, 0, 0xb29e1ddDfc73E00dEE3EaA7EA102990ADca78b39, 1776242298)"
      ],
      "transaction": {
        "from": "0xb29e1dddfc73e00dee3eaa7ea102990adca78b39",
        "to": "0x60cec0218b501cf4e045cbdba3ef021374e1afac",
        "gas": "0x9d3b6",
        "value": "0x0",
        "input": "0xde6b497c00000000000000000000000079e516819dc8c06d79615a2f2f1914c6466493690000000000000000000000000000000000000000000000000000000000000002000000000000000000000000000000000000000000000000000000000000000300000000000000000000000000000000000000000000003635c9adc5dea000000000000000000000000000000000000000000000000000000000000000000000000000000000000000000000b29e1dddfc73e00dee3eaa7ea102990adca78b390000000000000000000000000000000000000000000000000000000069df4e7a",
        "nonce": "0x56",
        "chainId": "0x14a34"
      },
      "additionalContracts": [],
      "isFixedGasLimit": false
    },
    {
      "hash": "0x38a1ad399e080b34e3ef44c16cc5c0e1ccf49d3f05ae68c732e46d55b612d27e",
      "transactionType": "CALL",
      "contractName": null,
      "contractAddress": "0x60cec0218b501cf4e045cbdba3ef021374e1afac",
      "function": "exactInput((address,uint256,uint256,uint256,uint256,address,uint256))",
      "arguments": [
        "(0x79E516819DC8c06D79615A2f2F1914c646649369, 3, 2, 1000000000000000000000, 0, 0xb29e1ddDfc73E00dEE3EaA7EA102990ADca78b39, 1776242298)"
      ],
      "transaction": {
        "from": "0xb29e1dddfc73e00dee3eaa7ea102990adca78b39",
        "to": "0x60cec0218b501cf4e045cbdba3ef021374e1afac",
        "gas": "0x9c269",
        "value": "0x0",
        "input": "0xde6b497c00000000000000000000000079e516819dc8c06d79615a2f2f1914c6466493690000000000000000000000000000000000000000000000000000000000000003000000000000000000000000000000000000000000000000000000000000000200000000000000000000000000000000000000000000003635c9adc5dea000000000000000000000000000000000000000000000000000000000000000000000000000000000000000000000b29e1dddfc73e00dee3eaa7ea102990adca78b390000000000000000000000000000000000000000000000000000000069df4e7a",
        "nonce": "0x57",
        "chainId": "0x14a34"
      },
      "additionalContracts": [],
      "isFixedGasLimit": false
    },
    {
      "hash": "0x39f83e5e53ab539f991134bce34889c755bafb0f1cca4560d5bcecb39d76ed41",
      "transactionType": "CALL",
      "contractName": null,
      "contractAddress": "0x60cec0218b501cf4e045cbdba3ef021374e1afac",
      "function": "exactInput((address,uint256,uint256,uint256,uint256,address,uint256))",
      "arguments": [
        "(0x79E516819DC8c06D79615A2f2F1914c646649369, 0, 1, 1000000000000000000000, 0, 0xb29e1ddDfc73E00dEE3EaA7EA102990ADca78b39, 1776242298)"
      ],
      "transaction": {
        "from": "0xb29e1dddfc73e00dee3eaa7ea102990adca78b39",
        "to": "0x60cec0218b501cf4e045cbdba3ef021374e1afac",
        "gas": "0xa67a1",
        "value": "0x0",
        "input": "0xde6b497c00000000000000000000000079e516819dc8c06d79615a2f2f1914c6466493690000000000000000000000000000000000000000000000000000000000000000000000000000000000000000000000000000000000000000000000000000000100000000000000000000000000000000000000000000003635c9adc5dea000000000000000000000000000000000000000000000000000000000000000000000000000000000000000000000b29e1dddfc73e00dee3eaa7ea102990adca78b390000000000000000000000000000000000000000000000000000000069df4e7a",
        "nonce": "0x58",
        "chainId": "0x14a34"
      },
      "additionalContracts": [],
      "isFixedGasLimit": false
    },
    {
      "hash": "0x3f7b56341fa0c36b74399ed9912afd039aba1de5bb8f722ee81fe6b5310da638",
      "transactionType": "CALL",
      "contractName": null,
      "contractAddress": "0x60cec0218b501cf4e045cbdba3ef021374e1afac",
      "function": "exactInput((address,uint256,uint256,uint256,uint256,address,uint256))",
      "arguments": [
        "(0x79E516819DC8c06D79615A2f2F1914c646649369, 1, 2, 1000000000000000000000, 0, 0xb29e1ddDfc73E00dEE3EaA7EA102990ADca78b39, 1776242298)"
      ],
      "transaction": {
        "from": "0xb29e1dddfc73e00dee3eaa7ea102990adca78b39",
        "to": "0x60cec0218b501cf4e045cbdba3ef021374e1afac",
        "gas": "0x97468",
        "value": "0x0",
        "input": "0xde6b497c00000000000000000000000079e516819dc8c06d79615a2f2f1914c6466493690000000000000000000000000000000000000000000000000000000000000001000000000000000000000000000000000000000000000000000000000000000200000000000000000000000000000000000000000000003635c9adc5dea000000000000000000000000000000000000000000000000000000000000000000000000000000000000000000000b29e1dddfc73e00dee3eaa7ea102990adca78b390000000000000000000000000000000000000000000000000000000069df4e7a",
        "nonce": "0x59",
        "chainId": "0x14a34"
      },
      "additionalContracts": [],
      "isFixedGasLimit": false
    },
    {
      "hash": "0x765ef3a4d8b0ce6b4d9efcca06231dd0bbeae3af620b7c77d716f30d2f5d1972",
      "transactionType": "CALL",
      "contractName": null,
      "contractAddress": "0x60cec0218b501cf4e045cbdba3ef021374e1afac",
      "function": "exactInput((address,uint256,uint256,uint256,uint256,address,uint256))",
      "arguments": [
        "(0x79E516819DC8c06D79615A2f2F1914c646649369, 2, 3, 1000000000000000000000, 0, 0xb29e1ddDfc73E00dEE3EaA7EA102990ADca78b39, 1776242298)"
      ],
      "transaction": {
        "from": "0xb29e1dddfc73e00dee3eaa7ea102990adca78b39",
        "to": "0x60cec0218b501cf4e045cbdba3ef021374e1afac",
        "gas": "0x97375",
        "value": "0x0",
        "input": "0xde6b497c00000000000000000000000079e516819dc8c06d79615a2f2f1914c6466493690000000000000000000000000000000000000000000000000000000000000002000000000000000000000000000000000000000000000000000000000000000300000000000000000000000000000000000000000000003635c9adc5dea000000000000000000000000000000000000000000000000000000000000000000000000000000000000000000000b29e1dddfc73e00dee3eaa7ea102990adca78b390000000000000000000000000000000000000000000000000000000069df4e7a",
        "nonce": "0x5a",
        "chainId": "0x14a34"
      },
      "additionalContracts": [],
      "isFixedGasLimit": false
    },
    {
      "hash": "0x68dda64acf37dd993586f9b102e32948e242f2873b2b2a989991fb635a82c0b7",
      "transactionType": "CALL",
      "contractName": null,
      "contractAddress": "0x60cec0218b501cf4e045cbdba3ef021374e1afac",
      "function": "exactInput((address,uint256,uint256,uint256,uint256,address,uint256))",
      "arguments": [
        "(0x79E516819DC8c06D79615A2f2F1914c646649369, 3, 0, 1000000000000000000000, 0, 0xb29e1ddDfc73E00dEE3EaA7EA102990ADca78b39, 1776242298)"
      ],
      "transaction": {
        "from": "0xb29e1dddfc73e00dee3eaa7ea102990adca78b39",
        "to": "0x60cec0218b501cf4e045cbdba3ef021374e1afac",
        "gas": "0xa5a24",
        "value": "0x0",
        "input": "0xde6b497c00000000000000000000000079e516819dc8c06d79615a2f2f1914c6466493690000000000000000000000000000000000000000000000000000000000000003000000000000000000000000000000000000000000000000000000000000000000000000000000000000000000000000000000000000003635c9adc5dea000000000000000000000000000000000000000000000000000000000000000000000000000000000000000000000b29e1dddfc73e00dee3eaa7ea102990adca78b390000000000000000000000000000000000000000000000000000000069df4e7a",
        "nonce": "0x5b",
        "chainId": "0x14a34"
      },
      "additionalContracts": [],
      "isFixedGasLimit": false
    },
    {
      "hash": "0x1255e74c9ebc1c3128225fec83b32f5e8928996dc39a45fbf1d8fdecc0e74685",
      "transactionType": "CALL",
      "contractName": null,
      "contractAddress": "0x60cec0218b501cf4e045cbdba3ef021374e1afac",
      "function": "exactInput((address,uint256,uint256,uint256,uint256,address,uint256))",
      "arguments": [
        "(0x79E516819DC8c06D79615A2f2F1914c646649369, 0, 2, 1000000000000000000000, 0, 0xb29e1ddDfc73E00dEE3EaA7EA102990ADca78b39, 1776242298)"
      ],
      "transaction": {
        "from": "0xb29e1dddfc73e00dee3eaa7ea102990adca78b39",
        "to": "0x60cec0218b501cf4e045cbdba3ef021374e1afac",
        "gas": "0xa67a1",
        "value": "0x0",
        "input": "0xde6b497c00000000000000000000000079e516819dc8c06d79615a2f2f1914c6466493690000000000000000000000000000000000000000000000000000000000000000000000000000000000000000000000000000000000000000000000000000000200000000000000000000000000000000000000000000003635c9adc5dea000000000000000000000000000000000000000000000000000000000000000000000000000000000000000000000b29e1dddfc73e00dee3eaa7ea102990adca78b390000000000000000000000000000000000000000000000000000000069df4e7a",
        "nonce": "0x5c",
        "chainId": "0x14a34"
      },
      "additionalContracts": [],
      "isFixedGasLimit": false
    },
    {
      "hash": "0x02b9b7bcb8f8298e04d353b792e1d40d324763c0f96af1b0b65b758f719e8c83",
      "transactionType": "CALL",
      "contractName": null,
      "contractAddress": "0x60cec0218b501cf4e045cbdba3ef021374e1afac",
      "function": "exactInput((address,uint256,uint256,uint256,uint256,address,uint256))",
      "arguments": [
        "(0x79E516819DC8c06D79615A2f2F1914c646649369, 1, 3, 1000000000000000000000, 0, 0xb29e1ddDfc73E00dEE3EaA7EA102990ADca78b39, 1776242298)"
      ],
      "transaction": {
        "from": "0xb29e1dddfc73e00dee3eaa7ea102990adca78b39",
        "to": "0x60cec0218b501cf4e045cbdba3ef021374e1afac",
        "gas": "0x9dc42",
        "value": "0x0",
        "input": "0xde6b497c00000000000000000000000079e516819dc8c06d79615a2f2f1914c6466493690000000000000000000000000000000000000000000000000000000000000001000000000000000000000000000000000000000000000000000000000000000300000000000000000000000000000000000000000000003635c9adc5dea000000000000000000000000000000000000000000000000000000000000000000000000000000000000000000000b29e1dddfc73e00dee3eaa7ea102990adca78b390000000000000000000000000000000000000000000000000000000069df4e7a",
        "nonce": "0x5d",
        "chainId": "0x14a34"
      },
      "additionalContracts": [],
      "isFixedGasLimit": false
    },
    {
      "hash": "0x05b93e5309cf3936119362d29c43cf618cf6a500a9db0a6d2d54a6a1a8f95c76",
      "transactionType": "CALL",
      "contractName": null,
      "contractAddress": "0x60cec0218b501cf4e045cbdba3ef021374e1afac",
      "function": "exactInput((address,uint256,uint256,uint256,uint256,address,uint256))",
      "arguments": [
        "(0x79E516819DC8c06D79615A2f2F1914c646649369, 2, 0, 1000000000000000000000, 0, 0xb29e1ddDfc73E00dEE3EaA7EA102990ADca78b39, 1776242298)"
      ],
      "transaction": {
        "from": "0xb29e1dddfc73e00dee3eaa7ea102990adca78b39",
        "to": "0x60cec0218b501cf4e045cbdba3ef021374e1afac",
        "gas": "0xaa342",
        "value": "0x0",
        "input": "0xde6b497c00000000000000000000000079e516819dc8c06d79615a2f2f1914c6466493690000000000000000000000000000000000000000000000000000000000000002000000000000000000000000000000000000000000000000000000000000000000000000000000000000000000000000000000000000003635c9adc5dea000000000000000000000000000000000000000000000000000000000000000000000000000000000000000000000b29e1dddfc73e00dee3eaa7ea102990adca78b390000000000000000000000000000000000000000000000000000000069df4e7a",
        "nonce": "0x5e",
        "chainId": "0x14a34"
      },
      "additionalContracts": [],
      "isFixedGasLimit": false
    },
    {
      "hash": "0x180ab5da3546ce17d4eabe05656655a7055eab4d56c4ddea665bcf9c2a4c3a6c",
      "transactionType": "CALL",
      "contractName": null,
      "contractAddress": "0x60cec0218b501cf4e045cbdba3ef021374e1afac",
      "function": "exactInput((address,uint256,uint256,uint256,uint256,address,uint256))",
      "arguments": [
        "(0x79E516819DC8c06D79615A2f2F1914c646649369, 3, 1, 1000000000000000000000, 0, 0xb29e1ddDfc73E00dEE3EaA7EA102990ADca78b39, 1776242298)"
      ],
      "transaction": {
        "from": "0xb29e1dddfc73e00dee3eaa7ea102990adca78b39",
        "to": "0x60cec0218b501cf4e045cbdba3ef021374e1afac",
        "gas": "0xa63b4",
        "value": "0x0",
        "input": "0xde6b497c00000000000000000000000079e516819dc8c06d79615a2f2f1914c6466493690000000000000000000000000000000000000000000000000000000000000003000000000000000000000000000000000000000000000000000000000000000100000000000000000000000000000000000000000000003635c9adc5dea000000000000000000000000000000000000000000000000000000000000000000000000000000000000000000000b29e1dddfc73e00dee3eaa7ea102990adca78b390000000000000000000000000000000000000000000000000000000069df4e7a",
        "nonce": "0x5f",
        "chainId": "0x14a34"
      },
      "additionalContracts": [],
      "isFixedGasLimit": false
    }
  ],
  "receipts": [
    {
      "type": "0x2",
      "status": "0x1",
      "cumulativeGasUsed": "0xe1f0c",
      "logs": [
        {
          "address": "0x44406ad771b05827f5fd95b002189e51eebedc91",
          "topics": [
            "0xddf252ad1be2c89b69c2b068fc378daa952ba7f163c4a11628f55a4df523b3ef",
            "0x0000000000000000000000000000000000000000000000000000000000000000",
            "0x000000000000000000000000b29e1dddfc73e00dee3eaa7ea102990adca78b39"
          ],
          "data": "0x00000000000000000000000000000000000000000000d3c21bcecceda1000000",
          "blockHash": "0x0000000000000000000000000000000000000000000000000000000000000000",
          "blockNumber": "0x265f6b8",
          "blockTimestamp": "0x69df4c50",
          "transactionHash": "0x4c5ee751454770993cc2f2455e2e9da595aec7040078c0bf8a19e8b305c30db6",
          "transactionIndex": "0x3",
          "logIndex": "0xd",
          "removed": false
        }
      ],
      "logsBloom": "0x00000000000000000000000000000000000010000000000000000000000000000000000000000000000000000000000000000100000000000000000000000000000000000000000000000008000000000000000000000000000000000000000000000000020000000000000000000800000000000000000000000010000000000000000000000000000000000000000000000001000000000000000000000000000000000000000000000000000000000000000000000000000000000000000000000002000000000000000000000000004000000000000000000100000020000000000000000000000000000000000000000000000000000400000000000000",
      "transactionHash": "0x4c5ee751454770993cc2f2455e2e9da595aec7040078c0bf8a19e8b305c30db6",
      "transactionIndex": "0x3",
      "blockHash": "0x0000000000000000000000000000000000000000000000000000000000000000",
      "blockNumber": "0x265f6b8",
      "gasUsed": "0x10a24",
      "effectiveGasPrice": "0x5b8d80",
      "blobGasUsed": "0x39d0",
      "from": "0xb29e1dddfc73e00dee3eaa7ea102990adca78b39",
      "to": "0x44406ad771b05827f5fd95b002189e51eebedc91",
      "contractAddress": null,
      "l1GasPrice": "0x369b74096",
      "l1GasUsed": "0x640",
      "l1Fee": "0x70463e1f5e",
      "l1BaseFeeScalar": "0x44d",
      "l1BlobBaseFee": "0x3848f92a",
      "l1BlobBaseFeeScalar": "0xa118b",
      "daFootprintGasScalar": "0x94"
    },
    {
      "type": "0x2",
      "status": "0x1",
      "cumulativeGasUsed": "0xf2930",
      "logs": [
        {
          "address": "0x168deb69184ea184aadb8a626dc4d3013dc08fe8",
          "topics": [
            "0xddf252ad1be2c89b69c2b068fc378daa952ba7f163c4a11628f55a4df523b3ef",
            "0x0000000000000000000000000000000000000000000000000000000000000000",
            "0x000000000000000000000000b29e1dddfc73e00dee3eaa7ea102990adca78b39"
          ],
          "data": "0x00000000000000000000000000000000000000000000d3c21bcecceda1000000",
          "blockHash": "0x0000000000000000000000000000000000000000000000000000000000000000",
          "blockNumber": "0x265f6b8",
          "blockTimestamp": "0x69df4c50",
          "transactionHash": "0xb20e68a7050e46c4c3c6abf7cac9646750745b4cca4c14ceec9ee42f97fe7e50",
          "transactionIndex": "0x4",
          "logIndex": "0xe",
          "removed": false
        }
      ],
      "logsBloom": "0x00000000000000000000000000000000000800000000000000000000000000000000000000000002000000000000000000000000000000000000000000000000000000010000000000000008000000000000000000000000000000000000000000000000020000000000000000000800000000000000000000000010000000000000000000000000000000000000000000000001000000000000000000000000000000000000000000000000000000000000000000000000000000000000000000000002000000000000000000000000004000000000000000000000000020000000000000000000000000000000000000000000000000000400000000000000",
      "transactionHash": "0xb20e68a7050e46c4c3c6abf7cac9646750745b4cca4c14ceec9ee42f97fe7e50",
      "transactionIndex": "0x4",
      "blockHash": "0x0000000000000000000000000000000000000000000000000000000000000000",
      "blockNumber": "0x265f6b8",
      "gasUsed": "0x10a24",
      "effectiveGasPrice": "0x5b8d80",
      "blobGasUsed": "0x39d0",
      "from": "0xb29e1dddfc73e00dee3eaa7ea102990adca78b39",
      "to": "0x168deb69184ea184aadb8a626dc4d3013dc08fe8",
      "contractAddress": null,
      "l1GasPrice": "0x369b74096",
      "l1GasUsed": "0x640",
      "l1Fee": "0x70463e1f5e",
      "l1BaseFeeScalar": "0x44d",
      "l1BlobBaseFee": "0x3848f92a",
      "l1BlobBaseFeeScalar": "0xa118b",
      "daFootprintGasScalar": "0x94"
    },
    {
      "type": "0x2",
      "status": "0x1",
      "cumulativeGasUsed": "0x103354",
      "logs": [
        {
          "address": "0x60cb112631ce92f9fe164878d690fac1fd1c295d",
          "topics": [
            "0xddf252ad1be2c89b69c2b068fc378daa952ba7f163c4a11628f55a4df523b3ef",
            "0x0000000000000000000000000000000000000000000000000000000000000000",
            "0x000000000000000000000000b29e1dddfc73e00dee3eaa7ea102990adca78b39"
          ],
          "data": "0x00000000000000000000000000000000000000000000d3c21bcecceda1000000",
          "blockHash": "0x0000000000000000000000000000000000000000000000000000000000000000",
          "blockNumber": "0x265f6b8",
          "blockTimestamp": "0x69df4c50",
          "transactionHash": "0x63416651d7012065e319d6f7414ad721a4d75ed41ce796db37dd9eef278a1c3b",
          "transactionIndex": "0x5",
          "logIndex": "0xf",
          "removed": false
        }
      ],
      "logsBloom": "0x00000000000000000000000000000000000000000004000000000000000000000000000000000000000000000000000000000000000000000000000000000000000000000000000000000008000000000000002000000001000000000000000000000000020000000000000000000800000000000000000000000010000000000000000000000000000000000000000000000001000000000000000000000000000000000000000000000000000000000000000000000000000000000000000000000002000000000000000000000000004000000000000000000000000020000000000000000000000000000000000000000000000000000400000000000000",
      "transactionHash": "0x63416651d7012065e319d6f7414ad721a4d75ed41ce796db37dd9eef278a1c3b",
      "transactionIndex": "0x5",
      "blockHash": "0x0000000000000000000000000000000000000000000000000000000000000000",
      "blockNumber": "0x265f6b8",
      "gasUsed": "0x10a24",
      "effectiveGasPrice": "0x5b8d80",
      "blobGasUsed": "0x39d0",
      "from": "0xb29e1dddfc73e00dee3eaa7ea102990adca78b39",
      "to": "0x60cb112631ce92f9fe164878d690fac1fd1c295d",
      "contractAddress": null,
      "l1GasPrice": "0x369b74096",
      "l1GasUsed": "0x640",
      "l1Fee": "0x70463e1f5e",
      "l1BaseFeeScalar": "0x44d",
      "l1BlobBaseFee": "0x3848f92a",
      "l1BlobBaseFeeScalar": "0xa118b",
      "daFootprintGasScalar": "0x94"
    },
    {
      "type": "0x2",
      "status": "0x1",
      "cumulativeGasUsed": "0x113d78",
      "logs": [
        {
          "address": "0x39855b7de333de50a7b2e97a3a3e2ec1cf0411a9",
          "topics": [
            "0xddf252ad1be2c89b69c2b068fc378daa952ba7f163c4a11628f55a4df523b3ef",
            "0x0000000000000000000000000000000000000000000000000000000000000000",
            "0x000000000000000000000000b29e1dddfc73e00dee3eaa7ea102990adca78b39"
          ],
          "data": "0x00000000000000000000000000000000000000000000d3c21bcecceda1000000",
          "blockHash": "0x0000000000000000000000000000000000000000000000000000000000000000",
          "blockNumber": "0x265f6b8",
          "blockTimestamp": "0x69df4c50",
          "transactionHash": "0x661cd4064345e6008a248d80796e85e625ae831c7a75a9c448c7dca006ad38da",
          "transactionIndex": "0x6",
          "logIndex": "0x10",
          "removed": false
        }
      ],
      "logsBloom": "0x00000000000000000000000000000000000000000000000000000000000000000000100000000000000000000000000000000000000000000000000000000000000000000000000000000008000000000000000000000000000000000000000000000000020000000000000000000800000000000000010000000010000000000000000000000000000000000000000000000001000000000000000000000000000000000000000000000000000000000000000000000000000000000000000000000002000000000000000000000000004000000000000000000000000020000000000000000000000000000000000000000000000000008400000000000000",
      "transactionHash": "0x661cd4064345e6008a248d80796e85e625ae831c7a75a9c448c7dca006ad38da",
      "transactionIndex": "0x6",
      "blockHash": "0x0000000000000000000000000000000000000000000000000000000000000000",
      "blockNumber": "0x265f6b8",
      "gasUsed": "0x10a24",
      "effectiveGasPrice": "0x5b8d80",
      "blobGasUsed": "0x39d0",
      "from": "0xb29e1dddfc73e00dee3eaa7ea102990adca78b39",
      "to": "0x39855b7de333de50a7b2e97a3a3e2ec1cf0411a9",
      "contractAddress": null,
      "l1GasPrice": "0x369b74096",
      "l1GasUsed": "0x640",
      "l1Fee": "0x70463e1f5e",
      "l1BaseFeeScalar": "0x44d",
      "l1BlobBaseFee": "0x3848f92a",
      "l1BlobBaseFeeScalar": "0xa118b",
      "daFootprintGasScalar": "0x94"
    },
    {
      "type": "0x2",
      "status": "0x1",
      "cumulativeGasUsed": "0x11f243",
      "logs": [
        {
          "address": "0x44406ad771b05827f5fd95b002189e51eebedc91",
          "topics": [
            "0x8c5be1e5ebec7d5bd14f71427d1e84f3dd0314c0f7b2291e5b200ac8c7c3b925",
            "0x000000000000000000000000b29e1dddfc73e00dee3eaa7ea102990adca78b39",
            "0x00000000000000000000000008ac49be269f1c6c2821d56c4c729c9843152ee3"
          ],
          "data": "0xffffffffffffffffffffffffffffffffffffffffffffffffffffffffffffffff",
          "blockHash": "0x0000000000000000000000000000000000000000000000000000000000000000",
          "blockNumber": "0x265f6b8",
          "blockTimestamp": "0x69df4c50",
          "transactionHash": "0x3353a343c6d39c69f8e58510eade4991c8d5448227b13ee52bfd09448cd79fac",
          "transactionIndex": "0x7",
          "logIndex": "0x11",
          "removed": false
        }
      ],
      "logsBloom": "0x00000000000000000000000000000000020010000000000000000000000000000000000000000000000000000000000000000100000000000000000000200000000000000000000000000000000000000000000000000000000000000000000000000000000000000040000000000000000000000000000000000000000000000000000008000000000000000000000000000001000000000000000000000000020000000000000000000000000000000000000000000000000000000000000000000000000000000000000000000000004000000000000000000100000000000010000000000000000000000000000000000000000000000400000000000000",
      "transactionHash": "0x3353a343c6d39c69f8e58510eade4991c8d5448227b13ee52bfd09448cd79fac",
      "transactionIndex": "0x7",
      "blockHash": "0x0000000000000000000000000000000000000000000000000000000000000000",
      "blockNumber": "0x265f6b8",
      "gasUsed": "0xb4cb",
      "effectiveGasPrice": "0x5b8d80",
      "blobGasUsed": "0x39d0",
      "from": "0xb29e1dddfc73e00dee3eaa7ea102990adca78b39",
      "to": "0x44406ad771b05827f5fd95b002189e51eebedc91",
      "contractAddress": null,
      "l1GasPrice": "0x369b74096",
      "l1GasUsed": "0x640",
      "l1Fee": "0x70463e1f5e",
      "l1BaseFeeScalar": "0x44d",
      "l1BlobBaseFee": "0x3848f92a",
      "l1BlobBaseFeeScalar": "0xa118b",
      "daFootprintGasScalar": "0x94"
    },
    {
      "type": "0x2",
      "status": "0x1",
      "cumulativeGasUsed": "0x12a70e",
      "logs": [
        {
          "address": "0x44406ad771b05827f5fd95b002189e51eebedc91",
          "topics": [
            "0x8c5be1e5ebec7d5bd14f71427d1e84f3dd0314c0f7b2291e5b200ac8c7c3b925",
            "0x000000000000000000000000b29e1dddfc73e00dee3eaa7ea102990adca78b39",
            "0x00000000000000000000000060cec0218b501cf4e045cbdba3ef021374e1afac"
          ],
          "data": "0xffffffffffffffffffffffffffffffffffffffffffffffffffffffffffffffff",
          "blockHash": "0x0000000000000000000000000000000000000000000000000000000000000000",
          "blockNumber": "0x265f6b8",
          "blockTimestamp": "0x69df4c50",
          "transactionHash": "0x83a8fe86c89d23d6dd025ff8111f0069c3612943e5e03793547864f1d13583e2",
          "transactionIndex": "0x8",
          "logIndex": "0x12",
          "removed": false
        }
      ],
      "logsBloom": "0x00000000000000000000000000000000000010000000000000000000000000000000000000000000000000000000000000000100000000000000000000200000000000000000000000000000000000000000000000000000000000000000000000000000000000000000000000000000000000000000000000000000000000000000000000000000000000000000000000000001000000000000000000000000020000000000000000000000000000000000000000000000000000000000000800000000000000000000000000000000004000000000000000000104000000100010000000000000000000000000000000000000000000000400000000000000",
      "transactionHash": "0x83a8fe86c89d23d6dd025ff8111f0069c3612943e5e03793547864f1d13583e2",
      "transactionIndex": "0x8",
      "blockHash": "0x0000000000000000000000000000000000000000000000000000000000000000",
      "blockNumber": "0x265f6b8",
      "gasUsed": "0xb4cb",
      "effectiveGasPrice": "0x5b8d80",
      "blobGasUsed": "0x39d0",
      "from": "0xb29e1dddfc73e00dee3eaa7ea102990adca78b39",
      "to": "0x44406ad771b05827f5fd95b002189e51eebedc91",
      "contractAddress": null,
      "l1GasPrice": "0x369b74096",
      "l1GasUsed": "0x640",
      "l1Fee": "0x70463e1f5e",
      "l1BaseFeeScalar": "0x44d",
      "l1BlobBaseFee": "0x3848f92a",
      "l1BlobBaseFeeScalar": "0xa118b",
      "daFootprintGasScalar": "0x94"
    },
    {
      "type": "0x2",
      "status": "0x1",
      "cumulativeGasUsed": "0x135bd9",
      "logs": [
        {
          "address": "0x168deb69184ea184aadb8a626dc4d3013dc08fe8",
          "topics": [
            "0x8c5be1e5ebec7d5bd14f71427d1e84f3dd0314c0f7b2291e5b200ac8c7c3b925",
            "0x000000000000000000000000b29e1dddfc73e00dee3eaa7ea102990adca78b39",
            "0x00000000000000000000000008ac49be269f1c6c2821d56c4c729c9843152ee3"
          ],
          "data": "0xffffffffffffffffffffffffffffffffffffffffffffffffffffffffffffffff",
          "blockHash": "0x0000000000000000000000000000000000000000000000000000000000000000",
          "blockNumber": "0x265f6b8",
          "blockTimestamp": "0x69df4c50",
          "transactionHash": "0x1b5fd7be1dff5849dcdeea5bada1a7786e223040985b67d710eff9fdfc605524",
          "transactionIndex": "0x9",
          "logIndex": "0x13",
          "removed": false
        }
      ],
      "logsBloom": "0x00000000000000000000000000000000020800000000000000000000000000000000000000000002000000000000000000000000000000000000000000200000000000010000000000000000000000000000000000000000000000000000000000000000000000000040000000000000000000000000000000000000000000000000000008000000000000000000000000000001000000000000000000000000020000000000000000000000000000000000000000000000000000000000000000000000000000000000000000000000004000000000000000000000000000000010000000000000000000000000000000000000000000000400000000000000",
      "transactionHash": "0x1b5fd7be1dff5849dcdeea5bada1a7786e223040985b67d710eff9fdfc605524",
      "transactionIndex": "0x9",
      "blockHash": "0x0000000000000000000000000000000000000000000000000000000000000000",
      "blockNumber": "0x265f6b8",
      "gasUsed": "0xb4cb",
      "effectiveGasPrice": "0x5b8d80",
      "blobGasUsed": "0x39d0",
      "from": "0xb29e1dddfc73e00dee3eaa7ea102990adca78b39",
      "to": "0x168deb69184ea184aadb8a626dc4d3013dc08fe8",
      "contractAddress": null,
      "l1GasPrice": "0x369b74096",
      "l1GasUsed": "0x640",
      "l1Fee": "0x70463e1f5e",
      "l1BaseFeeScalar": "0x44d",
      "l1BlobBaseFee": "0x3848f92a",
      "l1BlobBaseFeeScalar": "0xa118b",
      "daFootprintGasScalar": "0x94"
    },
    {
      "type": "0x2",
      "status": "0x1",
      "cumulativeGasUsed": "0x1410a4",
      "logs": [
        {
          "address": "0x168deb69184ea184aadb8a626dc4d3013dc08fe8",
          "topics": [
            "0x8c5be1e5ebec7d5bd14f71427d1e84f3dd0314c0f7b2291e5b200ac8c7c3b925",
            "0x000000000000000000000000b29e1dddfc73e00dee3eaa7ea102990adca78b39",
            "0x00000000000000000000000060cec0218b501cf4e045cbdba3ef021374e1afac"
          ],
          "data": "0xffffffffffffffffffffffffffffffffffffffffffffffffffffffffffffffff",
          "blockHash": "0x0000000000000000000000000000000000000000000000000000000000000000",
          "blockNumber": "0x265f6b8",
          "blockTimestamp": "0x69df4c50",
          "transactionHash": "0xf0e186bc1d7f7fc5a98220c64f3700d2d00ff672090c3675cab313f7f9918002",
          "transactionIndex": "0xa",
          "logIndex": "0x14",
          "removed": false
        }
      ],
      "logsBloom": "0x00000000000000000000000000000000000800000000000000000000000000000000000000000002000000000000000000000000000000000000000000200000000000010000000000000000000000000000000000000000000000000000000000000000000000000000000000000000000000000000000000000000000000000000000000000000000000000000000000000001000000000000000000000000020000000000000000000000000000000000000000000000000000000000000800000000000000000000000000000000004000000000000000000004000000100010000000000000000000000000000000000000000000000400000000000000",
      "transactionHash": "0xf0e186bc1d7f7fc5a98220c64f3700d2d00ff672090c3675cab313f7f9918002",
      "transactionIndex": "0xa",
      "blockHash": "0x0000000000000000000000000000000000000000000000000000000000000000",
      "blockNumber": "0x265f6b8",
      "gasUsed": "0xb4cb",
      "effectiveGasPrice": "0x5b8d80",
      "blobGasUsed": "0x39d0",
      "from": "0xb29e1dddfc73e00dee3eaa7ea102990adca78b39",
      "to": "0x168deb69184ea184aadb8a626dc4d3013dc08fe8",
      "contractAddress": null,
      "l1GasPrice": "0x369b74096",
      "l1GasUsed": "0x640",
      "l1Fee": "0x70463e1f5e",
      "l1BaseFeeScalar": "0x44d",
      "l1BlobBaseFee": "0x3848f92a",
      "l1BlobBaseFeeScalar": "0xa118b",
      "daFootprintGasScalar": "0x94"
    },
    {
      "type": "0x2",
      "status": "0x1",
      "cumulativeGasUsed": "0x14c56f",
      "logs": [
        {
          "address": "0x60cb112631ce92f9fe164878d690fac1fd1c295d",
          "topics": [
            "0x8c5be1e5ebec7d5bd14f71427d1e84f3dd0314c0f7b2291e5b200ac8c7c3b925",
            "0x000000000000000000000000b29e1dddfc73e00dee3eaa7ea102990adca78b39",
            "0x00000000000000000000000008ac49be269f1c6c2821d56c4c729c9843152ee3"
          ],
          "data": "0xffffffffffffffffffffffffffffffffffffffffffffffffffffffffffffffff",
          "blockHash": "0x0000000000000000000000000000000000000000000000000000000000000000",
          "blockNumber": "0x265f6b8",
          "blockTimestamp": "0x69df4c50",
          "transactionHash": "0xe6d8022193ba615f98b2725535e3e04781bed43a0ba93a6a6014181e2b00bcc8",
          "transactionIndex": "0xb",
          "logIndex": "0x15",
          "removed": false
        }
      ],
      "logsBloom": "0x00000000000000000000000000000000020000000004000000000000000000000000000000000000000000000000000000000000000000000000000000200000000000000000000000000000000000000000002000000001000000000000000000000000000000000040000000000000000000000000000000000000000000000000000008000000000000000000000000000001000000000000000000000000020000000000000000000000000000000000000000000000000000000000000000000000000000000000000000000000004000000000000000000000000000000010000000000000000000000000000000000000000000000400000000000000",
      "transactionHash": "0xe6d8022193ba615f98b2725535e3e04781bed43a0ba93a6a6014181e2b00bcc8",
      "transactionIndex": "0xb",
      "blockHash": "0x0000000000000000000000000000000000000000000000000000000000000000",
      "blockNumber": "0x265f6b8",
      "gasUsed": "0xb4cb",
      "effectiveGasPrice": "0x5b8d80",
      "blobGasUsed": "0x39d0",
      "from": "0xb29e1dddfc73e00dee3eaa7ea102990adca78b39",
      "to": "0x60cb112631ce92f9fe164878d690fac1fd1c295d",
      "contractAddress": null,
      "l1GasPrice": "0x369b74096",
      "l1GasUsed": "0x640",
      "l1Fee": "0x70463e1f5e",
      "l1BaseFeeScalar": "0x44d",
      "l1BlobBaseFee": "0x3848f92a",
      "l1BlobBaseFeeScalar": "0xa118b",
      "daFootprintGasScalar": "0x94"
    },
    {
      "type": "0x2",
      "status": "0x1",
      "cumulativeGasUsed": "0x410612",
      "logs": [
        {
          "address": "0x60cb112631ce92f9fe164878d690fac1fd1c295d",
          "topics": [
            "0x8c5be1e5ebec7d5bd14f71427d1e84f3dd0314c0f7b2291e5b200ac8c7c3b925",
            "0x000000000000000000000000b29e1dddfc73e00dee3eaa7ea102990adca78b39",
            "0x00000000000000000000000060cec0218b501cf4e045cbdba3ef021374e1afac"
          ],
          "data": "0xffffffffffffffffffffffffffffffffffffffffffffffffffffffffffffffff",
          "blockHash": "0xd72f43d18be3e04b5921dfaa8de2e3fcce664a8e42581f5c34e6b3e20b627b9b",
          "blockNumber": "0x265f6b8",
          "blockTimestamp": "0x69df4c50",
          "transactionHash": "0xaa44374d45c9bef1896de70985db6fcff8c638e7cb3e0927e9de5b800f598ba3",
          "transactionIndex": "0x12",
          "logIndex": "0x7e",
          "removed": false
        }
      ],
      "logsBloom": "0x00000000000000000000000000000000000000000004000000000000000000000000000000000000000000000000000000000000000000000000000000200000000000000000000000000000000000000000002000000001000000000000000000000000000000000000000000000000000000000000000000000000000000000000000000000000000000000000000000000001000000000000000000000000020000000000000000000000000000000000000000000000000000000000000800000000000000000000000000000000004000000000000000000004000000100010000000000000000000000000000000000000000000000400000000000000",
      "transactionHash": "0xaa44374d45c9bef1896de70985db6fcff8c638e7cb3e0927e9de5b800f598ba3",
      "transactionIndex": "0x12",
      "blockHash": "0xd72f43d18be3e04b5921dfaa8de2e3fcce664a8e42581f5c34e6b3e20b627b9b",
      "blockNumber": "0x265f6b8",
      "gasUsed": "0xb4cb",
      "effectiveGasPrice": "0x5b8d80",
      "blobGasUsed": "0x39d0",
      "from": "0xb29e1dddfc73e00dee3eaa7ea102990adca78b39",
      "to": "0x60cb112631ce92f9fe164878d690fac1fd1c295d",
      "contractAddress": null,
      "l1GasPrice": "0x369b74096",
      "l1GasUsed": "0x640",
      "l1Fee": "0x14851cd26a",
      "l1BaseFeeScalar": "0x44d",
      "l1BlobBaseFee": "0x3848f92a",
      "l1BlobBaseFeeScalar": "0xa118b",
      "daFootprintGasScalar": "0x94"
    },
    {
      "type": "0x2",
      "status": "0x1",
      "cumulativeGasUsed": "0x41badd",
      "logs": [
        {
          "address": "0x39855b7de333de50a7b2e97a3a3e2ec1cf0411a9",
          "topics": [
            "0x8c5be1e5ebec7d5bd14f71427d1e84f3dd0314c0f7b2291e5b200ac8c7c3b925",
            "0x000000000000000000000000b29e1dddfc73e00dee3eaa7ea102990adca78b39",
            "0x00000000000000000000000008ac49be269f1c6c2821d56c4c729c9843152ee3"
          ],
          "data": "0xffffffffffffffffffffffffffffffffffffffffffffffffffffffffffffffff",
          "blockHash": "0xd72f43d18be3e04b5921dfaa8de2e3fcce664a8e42581f5c34e6b3e20b627b9b",
          "blockNumber": "0x265f6b8",
          "blockTimestamp": "0x69df4c50",
          "transactionHash": "0x6eb037f95b130e7e01e84079f05396e31aeec90b872e0f64ee78a65df5a5f9aa",
          "transactionIndex": "0x13",
          "logIndex": "0x7f",
          "removed": false
        }
      ],
      "logsBloom": "0x00000000000000000000000000000000020000000000000000000000000000000000100000000000000000000000000000000000000000000000000000200000000000000000000000000000000000000000000000000000000000000000000000000000000000000040000000000000000000000000010000000000000000000000000008000000000000000000000000000001000000000000000000000000020000000000000000000000000000000000000000000000000000000000000000000000000000000000000000000000004000000000000000000000000000000010000000000000000000000000000000000000000000008400000000000000",
      "transactionHash": "0x6eb037f95b130e7e01e84079f05396e31aeec90b872e0f64ee78a65df5a5f9aa",
      "transactionIndex": "0x13",
      "blockHash": "0xd72f43d18be3e04b5921dfaa8de2e3fcce664a8e42581f5c34e6b3e20b627b9b",
      "blockNumber": "0x265f6b8",
      "gasUsed": "0xb4cb",
      "effectiveGasPrice": "0x5b8d80",
      "blobGasUsed": "0x39d0",
      "from": "0xb29e1dddfc73e00dee3eaa7ea102990adca78b39",
      "to": "0x39855b7de333de50a7b2e97a3a3e2ec1cf0411a9",
      "contractAddress": null,
      "l1GasPrice": "0x369b74096",
      "l1GasUsed": "0x640",
      "l1Fee": "0x14851cd26a",
      "l1BaseFeeScalar": "0x44d",
      "l1BlobBaseFee": "0x3848f92a",
      "l1BlobBaseFeeScalar": "0xa118b",
      "daFootprintGasScalar": "0x94"
    },
    {
      "type": "0x2",
      "status": "0x1",
      "cumulativeGasUsed": "0x426fa8",
      "logs": [
        {
          "address": "0x39855b7de333de50a7b2e97a3a3e2ec1cf0411a9",
          "topics": [
            "0x8c5be1e5ebec7d5bd14f71427d1e84f3dd0314c0f7b2291e5b200ac8c7c3b925",
            "0x000000000000000000000000b29e1dddfc73e00dee3eaa7ea102990adca78b39",
            "0x00000000000000000000000060cec0218b501cf4e045cbdba3ef021374e1afac"
          ],
          "data": "0xffffffffffffffffffffffffffffffffffffffffffffffffffffffffffffffff",
          "blockHash": "0xd72f43d18be3e04b5921dfaa8de2e3fcce664a8e42581f5c34e6b3e20b627b9b",
          "blockNumber": "0x265f6b8",
          "blockTimestamp": "0x69df4c50",
          "transactionHash": "0x38a1ad399e080b34e3ef44c16cc5c0e1ccf49d3f05ae68c732e46d55b612d27e",
          "transactionIndex": "0x14",
          "logIndex": "0x80",
          "removed": false
        }
      ],
      "logsBloom": "0x00000000000000000000000000000000000000000000000000000000000000000000100000000000000000000000000000000000000000000000000000200000000000000000000000000000000000000000000000000000000000000000000000000000000000000000000000000000000000000000010000000000000000000000000000000000000000000000000000000001000000000000000000000000020000000000000000000000000000000000000000000000000000000000000800000000000000000000000000000000004000000000000000000004000000100010000000000000000000000000000000000000000000008400000000000000",
      "transactionHash": "0x38a1ad399e080b34e3ef44c16cc5c0e1ccf49d3f05ae68c732e46d55b612d27e",
      "transactionIndex": "0x14",
      "blockHash": "0xd72f43d18be3e04b5921dfaa8de2e3fcce664a8e42581f5c34e6b3e20b627b9b",
      "blockNumber": "0x265f6b8",
      "gasUsed": "0xb4cb",
      "effectiveGasPrice": "0x5b8d80",
      "blobGasUsed": "0x39d0",
      "from": "0xb29e1dddfc73e00dee3eaa7ea102990adca78b39",
      "to": "0x39855b7de333de50a7b2e97a3a3e2ec1cf0411a9",
      "contractAddress": null,
      "l1GasPrice": "0x369b74096",
      "l1GasUsed": "0x640",
      "l1Fee": "0x14851cd26a",
      "l1BaseFeeScalar": "0x44d",
      "l1BlobBaseFee": "0x3848f92a",
      "l1BlobBaseFeeScalar": "0xa118b",
      "daFootprintGasScalar": "0x94"
    },
    {
      "type": "0x2",
      "status": "0x1",
      "cumulativeGasUsed": "0x4d7df0",
      "logs": [
        {
          "address": "0x168deb69184ea184aadb8a626dc4d3013dc08fe8",
          "topics": [
            "0xddf252ad1be2c89b69c2b068fc378daa952ba7f163c4a11628f55a4df523b3ef",
            "0x000000000000000000000000b29e1dddfc73e00dee3eaa7ea102990adca78b39",
            "0x00000000000000000000000079e516819dc8c06d79615a2f2f1914c646649369"
          ],
          "data": "0x000000000000000000000000000000000000000000002a5a058fc295ed000000",
          "blockHash": "0x0000000000000000000000000000000000000000000000000000000000000000",
          "blockNumber": "0x265f6b8",
          "blockTimestamp": "0x69df4c50",
          "transactionHash": "0xbb735b37a08435186b3659fc0570fa363e96b615ae89c88f021b898109fbcd07",
          "transactionIndex": "0x15",
          "logIndex": "0x81",
          "removed": false
        },
        {
          "address": "0x39855b7de333de50a7b2e97a3a3e2ec1cf0411a9",
          "topics": [
            "0xddf252ad1be2c89b69c2b068fc378daa952ba7f163c4a11628f55a4df523b3ef",
            "0x000000000000000000000000b29e1dddfc73e00dee3eaa7ea102990adca78b39",
            "0x00000000000000000000000079e516819dc8c06d79615a2f2f1914c646649369"
          ],
          "data": "0x000000000000000000000000000000000000000000002a5a058fc295ed000000",
          "blockHash": "0x0000000000000000000000000000000000000000000000000000000000000000",
          "blockNumber": "0x265f6b8",
          "blockTimestamp": "0x69df4c50",
          "transactionHash": "0xbb735b37a08435186b3659fc0570fa363e96b615ae89c88f021b898109fbcd07",
          "transactionIndex": "0x15",
          "logIndex": "0x82",
          "removed": false
        },
        {
          "address": "0x44406ad771b05827f5fd95b002189e51eebedc91",
          "topics": [
            "0xddf252ad1be2c89b69c2b068fc378daa952ba7f163c4a11628f55a4df523b3ef",
            "0x000000000000000000000000b29e1dddfc73e00dee3eaa7ea102990adca78b39",
            "0x00000000000000000000000079e516819dc8c06d79615a2f2f1914c646649369"
          ],
          "data": "0x000000000000000000000000000000000000000000002a5a058fc295ed000000",
          "blockHash": "0x0000000000000000000000000000000000000000000000000000000000000000",
          "blockNumber": "0x265f6b8",
          "blockTimestamp": "0x69df4c50",
          "transactionHash": "0xbb735b37a08435186b3659fc0570fa363e96b615ae89c88f021b898109fbcd07",
          "transactionIndex": "0x15",
          "logIndex": "0x83",
          "removed": false
        },
        {
          "address": "0x60cb112631ce92f9fe164878d690fac1fd1c295d",
          "topics": [
            "0xddf252ad1be2c89b69c2b068fc378daa952ba7f163c4a11628f55a4df523b3ef",
            "0x000000000000000000000000b29e1dddfc73e00dee3eaa7ea102990adca78b39",
            "0x00000000000000000000000079e516819dc8c06d79615a2f2f1914c646649369"
          ],
          "data": "0x000000000000000000000000000000000000000000002a5a058fc295ed000000",
          "blockHash": "0x0000000000000000000000000000000000000000000000000000000000000000",
          "blockNumber": "0x265f6b8",
          "blockTimestamp": "0x69df4c50",
          "transactionHash": "0xbb735b37a08435186b3659fc0570fa363e96b615ae89c88f021b898109fbcd07",
          "transactionIndex": "0x15",
          "logIndex": "0x84",
          "removed": false
        },
        {
          "address": "0x79e516819dc8c06d79615a2f2f1914c646649369",
          "topics": [
            "0xa1f137c5ae158726e83083553b9082ce64d0180e2e71939290985b94816211d3",
            "0x00000000000000000000000008ac49be269f1c6c2821d56c4c729c9843152ee3"
          ],
          "data": "0x0000000000000000000000000000000000000000000058f03ee118a13e8000000000000000000000000000000000000000000000000054b40b1f852bda00000000000000000000000000000000000000000000000000000000000000000000600000000000000000000000000000000000000000000000000000000000000004000000000000000000000000000000000000000000002a5a058fc295ed000000000000000000000000000000000000000000000000002a5a058fc295ed000000000000000000000000000000000000000000000000002a5a058fc295ed000000000000000000000000000000000000000000000000002a5a058fc295ed000000",
          "blockHash": "0x0000000000000000000000000000000000000000000000000000000000000000",
          "blockNumber": "0x265f6b8",
          "blockTimestamp": "0x69df4c50",
          "transactionHash": "0xbb735b37a08435186b3659fc0570fa363e96b615ae89c88f021b898109fbcd07",
          "transactionIndex": "0x15",
          "logIndex": "0x85",
          "removed": false
        },
        {
          "address": "0x08ac49be269f1c6c2821d56c4c729c9843152ee3",
          "topics": [
            "0xddf252ad1be2c89b69c2b068fc378daa952ba7f163c4a11628f55a4df523b3ef",
            "0x0000000000000000000000000000000000000000000000000000000000000000",
            "0x000000000000000000000000b29e1dddfc73e00dee3eaa7ea102990adca78b39",
            "0x0000000000000000000000000000000000000000000000000000000000000001"
          ],
          "data": "0x",
          "blockHash": "0x0000000000000000000000000000000000000000000000000000000000000000",
          "blockNumber": "0x265f6b8",
          "blockTimestamp": "0x69df4c50",
          "transactionHash": "0xbb735b37a08435186b3659fc0570fa363e96b615ae89c88f021b898109fbcd07",
          "transactionIndex": "0x15",
          "logIndex": "0x86",
          "removed": false
        }
      ],
      "logsBloom": "0x00000000000000000000000000000000120810000004000000000010000000000000100000000002000000000000000000000100000044000000000001040000000000010000000000000008000000000000002000040001000000000000000000000000020000000040000000000800000000000000010000000010000000000000000008000000000000000000000020000001000000000000000000000000000000000000000000000000000000000020000000000000000000000000000000000002000020000400000000000080004000000000000000000100000060000000010000000000000000000000000000000000000000008400000100000000",
      "transactionHash": "0xbb735b37a08435186b3659fc0570fa363e96b615ae89c88f021b898109fbcd07",
      "transactionIndex": "0x15",
      "blockHash": "0x0000000000000000000000000000000000000000000000000000000000000000",
      "blockNumber": "0x265f6b8",
      "gasUsed": "0xb0e48",
      "effectiveGasPrice": "0x5b8d80",
      "blobGasUsed": "0x5ac4",
      "from": "0xb29e1dddfc73e00dee3eaa7ea102990adca78b39",
      "to": "0x08ac49be269f1c6c2821d56c4c729c9843152ee3",
      "contractAddress": null,
      "l1GasPrice": "0x369b74096",
      "l1GasUsed": "0x9d5",
      "l1Fee": "0x14851cd26a",
      "l1BaseFeeScalar": "0x44d",
      "l1BlobBaseFee": "0x3848f92a",
      "l1BlobBaseFeeScalar": "0xa118b",
      "daFootprintGasScalar": "0x94"
    },
    {
      "type": "0x2",
      "status": "0x1",
      "cumulativeGasUsed": "0x55ca3f",
      "logs": [
        {
          "address": "0x168deb69184ea184aadb8a626dc4d3013dc08fe8",
          "topics": [
            "0xddf252ad1be2c89b69c2b068fc378daa952ba7f163c4a11628f55a4df523b3ef",
            "0x000000000000000000000000b29e1dddfc73e00dee3eaa7ea102990adca78b39",
            "0x00000000000000000000000079e516819dc8c06d79615a2f2f1914c646649369"
          ],
          "data": "0x00000000000000000000000000000000000000000000250ec4ddca432f600000",
          "blockHash": "0xd72f43d18be3e04b5921dfaa8de2e3fcce664a8e42581f5c34e6b3e20b627b9b",
          "blockNumber": "0x265f6b8",
          "blockTimestamp": "0x69df4c50",
          "transactionHash": "0x39f83e5e53ab539f991134bce34889c755bafb0f1cca4560d5bcecb39d76ed41",
          "transactionIndex": "0x16",
          "logIndex": "0x87",
          "removed": false
        },
        {
          "address": "0x39855b7de333de50a7b2e97a3a3e2ec1cf0411a9",
          "topics": [
            "0xddf252ad1be2c89b69c2b068fc378daa952ba7f163c4a11628f55a4df523b3ef",
            "0x000000000000000000000000b29e1dddfc73e00dee3eaa7ea102990adca78b39",
            "0x00000000000000000000000079e516819dc8c06d79615a2f2f1914c646649369"
          ],
          "data": "0x00000000000000000000000000000000000000000000250ec4ddca432f600000",
          "blockHash": "0xd72f43d18be3e04b5921dfaa8de2e3fcce664a8e42581f5c34e6b3e20b627b9b",
          "blockNumber": "0x265f6b8",
          "blockTimestamp": "0x69df4c50",
          "transactionHash": "0x39f83e5e53ab539f991134bce34889c755bafb0f1cca4560d5bcecb39d76ed41",
          "transactionIndex": "0x16",
          "logIndex": "0x88",
          "removed": false
        },
        {
          "address": "0x44406ad771b05827f5fd95b002189e51eebedc91",
          "topics": [
            "0xddf252ad1be2c89b69c2b068fc378daa952ba7f163c4a11628f55a4df523b3ef",
            "0x000000000000000000000000b29e1dddfc73e00dee3eaa7ea102990adca78b39",
            "0x00000000000000000000000079e516819dc8c06d79615a2f2f1914c646649369"
          ],
          "data": "0x00000000000000000000000000000000000000000000250ec4ddca432f600000",
          "blockHash": "0xd72f43d18be3e04b5921dfaa8de2e3fcce664a8e42581f5c34e6b3e20b627b9b",
          "blockNumber": "0x265f6b8",
          "blockTimestamp": "0x69df4c50",
          "transactionHash": "0x39f83e5e53ab539f991134bce34889c755bafb0f1cca4560d5bcecb39d76ed41",
          "transactionIndex": "0x16",
          "logIndex": "0x89",
          "removed": false
        },
        {
          "address": "0x60cb112631ce92f9fe164878d690fac1fd1c295d",
          "topics": [
            "0xddf252ad1be2c89b69c2b068fc378daa952ba7f163c4a11628f55a4df523b3ef",
            "0x000000000000000000000000b29e1dddfc73e00dee3eaa7ea102990adca78b39",
            "0x00000000000000000000000079e516819dc8c06d79615a2f2f1914c646649369"
          ],
          "data": "0x00000000000000000000000000000000000000000000250ec4ddca432f600000",
          "blockHash": "0xd72f43d18be3e04b5921dfaa8de2e3fcce664a8e42581f5c34e6b3e20b627b9b",
          "blockNumber": "0x265f6b8",
          "blockTimestamp": "0x69df4c50",
          "transactionHash": "0x39f83e5e53ab539f991134bce34889c755bafb0f1cca4560d5bcecb39d76ed41",
          "transactionIndex": "0x16",
          "logIndex": "0x8a",
          "removed": false
        },
        {
          "address": "0x79e516819dc8c06d79615a2f2f1914c646649369",
          "topics": [
            "0xa1f137c5ae158726e83083553b9082ce64d0180e2e71939290985b94816211d3",
            "0x00000000000000000000000008ac49be269f1c6c2821d56c4c729c9843152ee3"
          ],
          "data": "0x00000000000000000000000000000000000000000000553b9197b79a86900000000000000000000000000000000000000000000000004a1d89bb94865ec000000000000000000000000000000000000000000000000000000000000000000060000000000000000000000000000000000000000000000000000000000000000400000000000000000000000000000000000000000000250ec4ddca432f60000000000000000000000000000000000000000000000000250ec4ddca432f60000000000000000000000000000000000000000000000000250ec4ddca432f60000000000000000000000000000000000000000000000000250ec4ddca432f600000",
          "blockHash": "0xd72f43d18be3e04b5921dfaa8de2e3fcce664a8e42581f5c34e6b3e20b627b9b",
          "blockNumber": "0x265f6b8",
          "blockTimestamp": "0x69df4c50",
          "transactionHash": "0x39f83e5e53ab539f991134bce34889c755bafb0f1cca4560d5bcecb39d76ed41",
          "transactionIndex": "0x16",
          "logIndex": "0x8b",
          "removed": false
        },
        {
          "address": "0x08ac49be269f1c6c2821d56c4c729c9843152ee3",
          "topics": [
            "0xddf252ad1be2c89b69c2b068fc378daa952ba7f163c4a11628f55a4df523b3ef",
            "0x0000000000000000000000000000000000000000000000000000000000000000",
            "0x000000000000000000000000b29e1dddfc73e00dee3eaa7ea102990adca78b39",
            "0x0000000000000000000000000000000000000000000000000000000000000002"
          ],
          "data": "0x",
          "blockHash": "0xd72f43d18be3e04b5921dfaa8de2e3fcce664a8e42581f5c34e6b3e20b627b9b",
          "blockNumber": "0x265f6b8",
          "blockTimestamp": "0x69df4c50",
          "transactionHash": "0x39f83e5e53ab539f991134bce34889c755bafb0f1cca4560d5bcecb39d76ed41",
          "transactionIndex": "0x16",
          "logIndex": "0x8c",
          "removed": false
        }
      ],
      "logsBloom": "0x04000000000000000000000000000000120810000004000000000010000000000000100000000002000000000000000000000100000044000000000001000000000000010000000000000008000000000000002000000001000000000000000000000000020000000040000000000800000000000000010000000010000000000000000008000000000000000000000020000001000000000000000000000000000000000000000000000100000000000020000000000000000000000000000000000002000020000400000000000080004000000000000000000100000020000000010000000000000000000000000000000000008000008400000100000000",
      "transactionHash": "0x39f83e5e53ab539f991134bce34889c755bafb0f1cca4560d5bcecb39d76ed41",
      "transactionIndex": "0x16",
      "blockHash": "0xd72f43d18be3e04b5921dfaa8de2e3fcce664a8e42581f5c34e6b3e20b627b9b",
      "blockNumber": "0x265f6b8",
      "gasUsed": "0x84c4f",
      "effectiveGasPrice": "0x5b8d80",
      "blobGasUsed": "0x5a30",
      "from": "0xb29e1dddfc73e00dee3eaa7ea102990adca78b39",
      "to": "0x08ac49be269f1c6c2821d56c4c729c9843152ee3",
      "contractAddress": null,
      "l1GasPrice": "0x369b74096",
      "l1GasUsed": "0x9c8",
      "l1Fee": "0x201d31da7e",
      "l1BaseFeeScalar": "0x44d",
      "l1BlobBaseFee": "0x3848f92a",
      "l1BlobBaseFeeScalar": "0xa118b",
      "daFootprintGasScalar": "0x94"
    },
    {
      "type": "0x2",
      "status": "0x1",
      "cumulativeGasUsed": "0x5e472a",
      "logs": [
        {
          "address": "0x168deb69184ea184aadb8a626dc4d3013dc08fe8",
          "topics": [
            "0xddf252ad1be2c89b69c2b068fc378daa952ba7f163c4a11628f55a4df523b3ef",
            "0x000000000000000000000000b29e1dddfc73e00dee3eaa7ea102990adca78b39",
            "0x00000000000000000000000079e516819dc8c06d79615a2f2f1914c646649369"
          ],
          "data": "0x00000000000000000000000000000000000000000000152d02c7e14af6800000",
          "blockHash": "0x0000000000000000000000000000000000000000000000000000000000000000",
          "blockNumber": "0x265f6b8",
          "blockTimestamp": "0x69df4c50",
          "transactionHash": "0x36a1fa4b87a8670442f739d1883bb81c47a119272c0f8c2b07158df03e685b48",
          "transactionIndex": "0x17",
          "logIndex": "0x8d",
          "removed": false
        },
        {
          "address": "0x39855b7de333de50a7b2e97a3a3e2ec1cf0411a9",
          "topics": [
            "0xddf252ad1be2c89b69c2b068fc378daa952ba7f163c4a11628f55a4df523b3ef",
            "0x000000000000000000000000b29e1dddfc73e00dee3eaa7ea102990adca78b39",
            "0x00000000000000000000000079e516819dc8c06d79615a2f2f1914c646649369"
          ],
          "data": "0x00000000000000000000000000000000000000000000152d02c7e14af6800000",
          "blockHash": "0x0000000000000000000000000000000000000000000000000000000000000000",
          "blockNumber": "0x265f6b8",
          "blockTimestamp": "0x69df4c50",
          "transactionHash": "0x36a1fa4b87a8670442f739d1883bb81c47a119272c0f8c2b07158df03e685b48",
          "transactionIndex": "0x17",
          "logIndex": "0x8e",
          "removed": false
        },
        {
          "address": "0x44406ad771b05827f5fd95b002189e51eebedc91",
          "topics": [
            "0xddf252ad1be2c89b69c2b068fc378daa952ba7f163c4a11628f55a4df523b3ef",
            "0x000000000000000000000000b29e1dddfc73e00dee3eaa7ea102990adca78b39",
            "0x00000000000000000000000079e516819dc8c06d79615a2f2f1914c646649369"
          ],
          "data": "0x00000000000000000000000000000000000000000000152d02c7e14af6800000",
          "blockHash": "0x0000000000000000000000000000000000000000000000000000000000000000",
          "blockNumber": "0x265f6b8",
          "blockTimestamp": "0x69df4c50",
          "transactionHash": "0x36a1fa4b87a8670442f739d1883bb81c47a119272c0f8c2b07158df03e685b48",
          "transactionIndex": "0x17",
          "logIndex": "0x8f",
          "removed": false
        },
        {
          "address": "0x60cb112631ce92f9fe164878d690fac1fd1c295d",
          "topics": [
            "0xddf252ad1be2c89b69c2b068fc378daa952ba7f163c4a11628f55a4df523b3ef",
            "0x000000000000000000000000b29e1dddfc73e00dee3eaa7ea102990adca78b39",
            "0x00000000000000000000000079e516819dc8c06d79615a2f2f1914c646649369"
          ],
          "data": "0x00000000000000000000000000000000000000000000152d02c7e14af6800000",
          "blockHash": "0x0000000000000000000000000000000000000000000000000000000000000000",
          "blockNumber": "0x265f6b8",
          "blockTimestamp": "0x69df4c50",
          "transactionHash": "0x36a1fa4b87a8670442f739d1883bb81c47a119272c0f8c2b07158df03e685b48",
          "transactionIndex": "0x17",
          "logIndex": "0x90",
          "removed": false
        },
        {
          "address": "0x79e516819dc8c06d79615a2f2f1914c646649369",
          "topics": [
            "0xa1f137c5ae158726e83083553b9082ce64d0180e2e71939290985b94816211d3",
            "0x00000000000000000000000008ac49be269f1c6c2821d56c4c729c9843152ee3"
          ],
          "data": "0x0000000000000000000000000000000000000000000035ff93e41818c1600000000000000000000000000000000000000000000000002a5a058fc295ed0000000000000000000000000000000000000000000000000000000000000000000060000000000000000000000000000000000000000000000000000000000000000400000000000000000000000000000000000000000000152d02c7e14af680000000000000000000000000000000000000000000000000152d02c7e14af680000000000000000000000000000000000000000000000000152d02c7e14af680000000000000000000000000000000000000000000000000152d02c7e14af6800000",
          "blockHash": "0x0000000000000000000000000000000000000000000000000000000000000000",
          "blockNumber": "0x265f6b8",
          "blockTimestamp": "0x69df4c50",
          "transactionHash": "0x36a1fa4b87a8670442f739d1883bb81c47a119272c0f8c2b07158df03e685b48",
          "transactionIndex": "0x17",
          "logIndex": "0x91",
          "removed": false
        },
        {
          "address": "0x08ac49be269f1c6c2821d56c4c729c9843152ee3",
          "topics": [
            "0xddf252ad1be2c89b69c2b068fc378daa952ba7f163c4a11628f55a4df523b3ef",
            "0x0000000000000000000000000000000000000000000000000000000000000000",
            "0x000000000000000000000000b29e1dddfc73e00dee3eaa7ea102990adca78b39",
            "0x0000000000000000000000000000000000000000000000000000000000000003"
          ],
          "data": "0x",
          "blockHash": "0x0000000000000000000000000000000000000000000000000000000000000000",
          "blockNumber": "0x265f6b8",
          "blockTimestamp": "0x69df4c50",
          "transactionHash": "0x36a1fa4b87a8670442f739d1883bb81c47a119272c0f8c2b07158df03e685b48",
          "transactionIndex": "0x17",
          "logIndex": "0x92",
          "removed": false
        }
      ],
      "logsBloom": "0x00000000000000000000000000000000120810000004000000000010000000000000100000000002000000000000000000000100020044000000000001000000000000010000000000000008000000000000002000000001000000000000000000000000020000000040000000000800000000000000010000000010000000000000000008000000000000000000000020000001000000000000000000000000000000000000000000000000000000000020000000800000000000000000400000000002000020000400000000000080004000000000000000000100000020000000010000000000000000000000000000000000000000008400000100000000",
      "transactionHash": "0x36a1fa4b87a8670442f739d1883bb81c47a119272c0f8c2b07158df03e685b48",
      "transactionIndex": "0x17",
      "blockHash": "0x0000000000000000000000000000000000000000000000000000000000000000",
      "blockNumber": "0x265f6b8",
      "gasUsed": "0x87ceb",
      "effectiveGasPrice": "0x5b8d80",
      "blobGasUsed": "0x5ac4",
      "from": "0xb29e1dddfc73e00dee3eaa7ea102990adca78b39",
      "to": "0x08ac49be269f1c6c2821d56c4c729c9843152ee3",
      "contractAddress": null,
      "l1GasPrice": "0x369b74096",
      "l1GasUsed": "0x9d5",
      "l1Fee": "0x14851cd26a",
      "l1BaseFeeScalar": "0x44d",
      "l1BlobBaseFee": "0x3848f92a",
      "l1BlobBaseFeeScalar": "0xa118b",
      "daFootprintGasScalar": "0x94"
    },
    {
      "type": "0x2",
      "status": "0x1",
      "cumulativeGasUsed": "0x66f4ca",
      "logs": [
        {
          "address": "0x168deb69184ea184aadb8a626dc4d3013dc08fe8",
          "topics": [
            "0xddf252ad1be2c89b69c2b068fc378daa952ba7f163c4a11628f55a4df523b3ef",
            "0x000000000000000000000000b29e1dddfc73e00dee3eaa7ea102990adca78b39",
            "0x00000000000000000000000079e516819dc8c06d79615a2f2f1914c646649369"
          ],
          "data": "0x00000000000000000000000000000000000000000000054b40b1f852bda00000",
          "blockHash": "0x0000000000000000000000000000000000000000000000000000000000000000",
          "blockNumber": "0x265f6b8",
          "blockTimestamp": "0x69df4c50",
          "transactionHash": "0x916140a80dc3657edb81f2a7862914e07c4645da0cd2784d2304c0c255b27113",
          "transactionIndex": "0x18",
          "logIndex": "0x93",
          "removed": false
        },
        {
          "address": "0x39855b7de333de50a7b2e97a3a3e2ec1cf0411a9",
          "topics": [
            "0xddf252ad1be2c89b69c2b068fc378daa952ba7f163c4a11628f55a4df523b3ef",
            "0x000000000000000000000000b29e1dddfc73e00dee3eaa7ea102990adca78b39",
            "0x00000000000000000000000079e516819dc8c06d79615a2f2f1914c646649369"
          ],
          "data": "0x00000000000000000000000000000000000000000000054b40b1f852bda00000",
          "blockHash": "0x0000000000000000000000000000000000000000000000000000000000000000",
          "blockNumber": "0x265f6b8",
          "blockTimestamp": "0x69df4c50",
          "transactionHash": "0x916140a80dc3657edb81f2a7862914e07c4645da0cd2784d2304c0c255b27113",
          "transactionIndex": "0x18",
          "logIndex": "0x94",
          "removed": false
        },
        {
          "address": "0x44406ad771b05827f5fd95b002189e51eebedc91",
          "topics": [
            "0xddf252ad1be2c89b69c2b068fc378daa952ba7f163c4a11628f55a4df523b3ef",
            "0x000000000000000000000000b29e1dddfc73e00dee3eaa7ea102990adca78b39",
            "0x00000000000000000000000079e516819dc8c06d79615a2f2f1914c646649369"
          ],
          "data": "0x00000000000000000000000000000000000000000000054b40b1f852bda00000",
          "blockHash": "0x0000000000000000000000000000000000000000000000000000000000000000",
          "blockNumber": "0x265f6b8",
          "blockTimestamp": "0x69df4c50",
          "transactionHash": "0x916140a80dc3657edb81f2a7862914e07c4645da0cd2784d2304c0c255b27113",
          "transactionIndex": "0x18",
          "logIndex": "0x95",
          "removed": false
        },
        {
          "address": "0x60cb112631ce92f9fe164878d690fac1fd1c295d",
          "topics": [
            "0xddf252ad1be2c89b69c2b068fc378daa952ba7f163c4a11628f55a4df523b3ef",
            "0x000000000000000000000000b29e1dddfc73e00dee3eaa7ea102990adca78b39",
            "0x00000000000000000000000079e516819dc8c06d79615a2f2f1914c646649369"
          ],
          "data": "0x00000000000000000000000000000000000000000000054b40b1f852bda00000",
          "blockHash": "0x0000000000000000000000000000000000000000000000000000000000000000",
          "blockNumber": "0x265f6b8",
          "blockTimestamp": "0x69df4c50",
          "transactionHash": "0x916140a80dc3657edb81f2a7862914e07c4645da0cd2784d2304c0c255b27113",
          "transactionIndex": "0x18",
          "logIndex": "0x96",
          "removed": false
        },
        {
          "address": "0x79e516819dc8c06d79615a2f2f1914c646649369",
          "topics": [
            "0xa1f137c5ae158726e83083553b9082ce64d0180e2e71939290985b94816211d3",
            "0x00000000000000000000000008ac49be269f1c6c2821d56c4c729c9843152ee3"
          ],
          "data": "0x000000000000000000000000000000000000000000000e8ef1e96ae389780000000000000000000000000000000000000000000000000a968163f0a57b4000000000000000000000000000000000000000000000000000000000000000000060000000000000000000000000000000000000000000000000000000000000000400000000000000000000000000000000000000000000054b40b1f852bda0000000000000000000000000000000000000000000000000054b40b1f852bda0000000000000000000000000000000000000000000000000054b40b1f852bda0000000000000000000000000000000000000000000000000054b40b1f852bda00000",
          "blockHash": "0x0000000000000000000000000000000000000000000000000000000000000000",
          "blockNumber": "0x265f6b8",
          "blockTimestamp": "0x69df4c50",
          "transactionHash": "0x916140a80dc3657edb81f2a7862914e07c4645da0cd2784d2304c0c255b27113",
          "transactionIndex": "0x18",
          "logIndex": "0x97",
          "removed": false
        },
        {
          "address": "0x08ac49be269f1c6c2821d56c4c729c9843152ee3",
          "topics": [
            "0xddf252ad1be2c89b69c2b068fc378daa952ba7f163c4a11628f55a4df523b3ef",
            "0x0000000000000000000000000000000000000000000000000000000000000000",
            "0x000000000000000000000000b29e1dddfc73e00dee3eaa7ea102990adca78b39",
            "0x0000000000000000000000000000000000000000000000000000000000000004"
          ],
          "data": "0x",
          "blockHash": "0x0000000000000000000000000000000000000000000000000000000000000000",
          "blockNumber": "0x265f6b8",
          "blockTimestamp": "0x69df4c50",
          "transactionHash": "0x916140a80dc3657edb81f2a7862914e07c4645da0cd2784d2304c0c255b27113",
          "transactionIndex": "0x18",
          "logIndex": "0x98",
          "removed": false
        }
      ],
      "logsBloom": "0x00000000000000000000000000000000120810000004000000000010000000000000100000000002000000000000000000000100000044000000000001000000000000010000000000000008000000000000002000000001000000000000000008000000020000000040000000000800000000000000010000000010000000000000000008000000000000000000000020000001000000000000000000000000000000000000000000000000000000000020000000000000002000000000000000000002000020000400000000000080004000008000000000000100000020000000010000000000000000000000000000000000000000008400000100000000",
      "transactionHash": "0x916140a80dc3657edb81f2a7862914e07c4645da0cd2784d2304c0c255b27113",
      "transactionIndex": "0x18",
      "blockHash": "0x0000000000000000000000000000000000000000000000000000000000000000",
      "blockNumber": "0x265f6b8",
      "gasUsed": "0x8ada0",
      "effectiveGasPrice": "0x5b8d80",
      "blobGasUsed": "0x5b58",
      "from": "0xb29e1dddfc73e00dee3eaa7ea102990adca78b39",
      "to": "0x08ac49be269f1c6c2821d56c4c729c9843152ee3",
      "contractAddress": null,
      "l1GasPrice": "0x369b74096",
      "l1GasUsed": "0x9e2",
      "l1Fee": "0x14851cd26a",
      "l1BaseFeeScalar": "0x44d",
      "l1BlobBaseFee": "0x3848f92a",
      "l1BlobBaseFeeScalar": "0xa118b",
      "daFootprintGasScalar": "0x94"
    },
    {
      "type": "0x2",
      "status": "0x1",
      "cumulativeGasUsed": "0x6f457f",
      "logs": [
        {
          "address": "0x39855b7de333de50a7b2e97a3a3e2ec1cf0411a9",
          "topics": [
            "0xddf252ad1be2c89b69c2b068fc378daa952ba7f163c4a11628f55a4df523b3ef",
            "0x00000000000000000000000079e516819dc8c06d79615a2f2f1914c646649369",
            "0x000000000000000000000000b29e1dddfc73e00dee3eaa7ea102990adca78b39"
          ],
          "data": "0x000000000000000000000000000000000000000000000035f09eb86ab725fa21",
          "blockHash": "0xd72f43d18be3e04b5921dfaa8de2e3fcce664a8e42581f5c34e6b3e20b627b9b",
          "blockNumber": "0x265f6b8",
          "blockTimestamp": "0x69df4c50",
          "transactionHash": "0x765ef3a4d8b0ce6b4d9efcca06231dd0bbeae3af620b7c77d716f30d2f5d1972",
          "transactionIndex": "0x19",
          "logIndex": "0x99",
          "removed": false
        },
        {
          "address": "0x168deb69184ea184aadb8a626dc4d3013dc08fe8",
          "topics": [
            "0xddf252ad1be2c89b69c2b068fc378daa952ba7f163c4a11628f55a4df523b3ef",
            "0x000000000000000000000000b29e1dddfc73e00dee3eaa7ea102990adca78b39",
            "0x00000000000000000000000079e516819dc8c06d79615a2f2f1914c646649369"
          ],
          "data": "0x00000000000000000000000000000000000000000000003635c9adc5dea00000",
          "blockHash": "0xd72f43d18be3e04b5921dfaa8de2e3fcce664a8e42581f5c34e6b3e20b627b9b",
          "blockNumber": "0x265f6b8",
          "blockTimestamp": "0x69df4c50",
          "transactionHash": "0x765ef3a4d8b0ce6b4d9efcca06231dd0bbeae3af620b7c77d716f30d2f5d1972",
          "transactionIndex": "0x19",
          "logIndex": "0x9a",
          "removed": false
        },
        {
          "address": "0x79e516819dc8c06d79615a2f2f1914c646649369",
          "topics": [
            "0xb3e2773606abfd36b5bd91394b3a54d1398336c65005baf7bf7a05efeffaf75b",
            "0x00000000000000000000000060cec0218b501cf4e045cbdba3ef021374e1afac",
            "0x000000000000000000000000b29e1dddfc73e00dee3eaa7ea102990adca78b39"
          ],
          "data": "0x0000000000000000000000000000000000000000000000000000000000000000000000000000000000000000000000000000000000000000000000000000000100000000000000000000000000000000000000000000003635c9adc5dea00000000000000000000000000000000000000000000000000035f09eb86ab725fa21",
          "blockHash": "0xd72f43d18be3e04b5921dfaa8de2e3fcce664a8e42581f5c34e6b3e20b627b9b",
          "blockNumber": "0x265f6b8",
          "blockTimestamp": "0x69df4c50",
          "transactionHash": "0x765ef3a4d8b0ce6b4d9efcca06231dd0bbeae3af620b7c77d716f30d2f5d1972",
          "transactionIndex": "0x19",
          "logIndex": "0x9b",
          "removed": false
        }
      ],
      "logsBloom": "0x00000000000000000000000000000000100800000000000000000010000000000400100000000002000000000000000000000000000044000000000000000000000000010000000000000008000000000080000000000000000000000000000000000000000000000000000000000000000000000000010000000010000000000000000000000000000000000000000000000001000000000000000000000000000000000000000000000000000000000000000000000000000000000000000800000002000000000000000000000000004000000000000000000004000000100000010100000000000000000000000000000000000000008400000100000000",
      "transactionHash": "0x765ef3a4d8b0ce6b4d9efcca06231dd0bbeae3af620b7c77d716f30d2f5d1972",
      "transactionIndex": "0x19",
      "blockHash": "0xd72f43d18be3e04b5921dfaa8de2e3fcce664a8e42581f5c34e6b3e20b627b9b",
      "blockNumber": "0x265f6b8",
      "gasUsed": "0x850b5",
      "effectiveGasPrice": "0x5b8d80",
      "blobGasUsed": "0x48d8",
      "from": "0xb29e1dddfc73e00dee3eaa7ea102990adca78b39",
      "to": "0x60cec0218b501cf4e045cbdba3ef021374e1afac",
      "contractAddress": null,
      "l1GasPrice": "0x369b74096",
      "l1GasUsed": "0x7e6",
      "l1Fee": "0x19ef45bd10",
      "l1BaseFeeScalar": "0x44d",
      "l1BlobBaseFee": "0x3848f92a",
      "l1BlobBaseFeeScalar": "0xa118b",
      "daFootprintGasScalar": "0x94"
    },
    {
      "type": "0x2",
      "status": "0x1",
      "cumulativeGasUsed": "0x77393f",
      "logs": [
        {
          "address": "0x168deb69184ea184aadb8a626dc4d3013dc08fe8",
          "topics": [
            "0xddf252ad1be2c89b69c2b068fc378daa952ba7f163c4a11628f55a4df523b3ef",
            "0x00000000000000000000000079e516819dc8c06d79615a2f2f1914c646649369",
            "0x000000000000000000000000b29e1dddfc73e00dee3eaa7ea102990adca78b39"
          ],
          "data": "0x00000000000000000000000000000000000000000000003627b053c206419538",
          "blockHash": "0xd72f43d18be3e04b5921dfaa8de2e3fcce664a8e42581f5c34e6b3e20b627b9b",
          "blockNumber": "0x265f6b8",
          "blockTimestamp": "0x69df4c50",
          "transactionHash": "0x3f7b56341fa0c36b74399ed9912afd039aba1de5bb8f722ee81fe6b5310da638",
          "transactionIndex": "0x1a",
          "logIndex": "0x9c",
          "removed": false
        },
        {
          "address": "0x39855b7de333de50a7b2e97a3a3e2ec1cf0411a9",
          "topics": [
            "0xddf252ad1be2c89b69c2b068fc378daa952ba7f163c4a11628f55a4df523b3ef",
            "0x000000000000000000000000b29e1dddfc73e00dee3eaa7ea102990adca78b39",
            "0x00000000000000000000000079e516819dc8c06d79615a2f2f1914c646649369"
          ],
          "data": "0x00000000000000000000000000000000000000000000003635c9adc5dea00000",
          "blockHash": "0xd72f43d18be3e04b5921dfaa8de2e3fcce664a8e42581f5c34e6b3e20b627b9b",
          "blockNumber": "0x265f6b8",
          "blockTimestamp": "0x69df4c50",
          "transactionHash": "0x3f7b56341fa0c36b74399ed9912afd039aba1de5bb8f722ee81fe6b5310da638",
          "transactionIndex": "0x1a",
          "logIndex": "0x9d",
          "removed": false
        },
        {
          "address": "0x79e516819dc8c06d79615a2f2f1914c646649369",
          "topics": [
            "0xb3e2773606abfd36b5bd91394b3a54d1398336c65005baf7bf7a05efeffaf75b",
            "0x00000000000000000000000060cec0218b501cf4e045cbdba3ef021374e1afac",
            "0x000000000000000000000000b29e1dddfc73e00dee3eaa7ea102990adca78b39"
          ],
          "data": "0x0000000000000000000000000000000000000000000000000000000000000001000000000000000000000000000000000000000000000000000000000000000000000000000000000000000000000000000000000000003635c9adc5dea0000000000000000000000000000000000000000000000000003627b053c206419538",
          "blockHash": "0xd72f43d18be3e04b5921dfaa8de2e3fcce664a8e42581f5c34e6b3e20b627b9b",
          "blockNumber": "0x265f6b8",
          "blockTimestamp": "0x69df4c50",
          "transactionHash": "0x3f7b56341fa0c36b74399ed9912afd039aba1de5bb8f722ee81fe6b5310da638",
          "transactionIndex": "0x1a",
          "logIndex": "0x9e",
          "removed": false
        }
      ],
      "logsBloom": "0x00000000000000000000000000000000100800000000000000000010000000000400100000000002000000000000000000000000000044000000000000000000000000010000000000000008000000000080000000000000000000000000000000000000000000000000000000000000000000000000010000000010000000000000000000000000000000000000000000000001000000000000000000000000000000000000000000000000000000000000000000000000000000000000000800000002000000000000000000000000004000000000000000000004000000100000010100000000000000000000000000000000000000008400000100000000",
      "transactionHash": "0x3f7b56341fa0c36b74399ed9912afd039aba1de5bb8f722ee81fe6b5310da638",
      "transactionIndex": "0x1a",
      "blockHash": "0xd72f43d18be3e04b5921dfaa8de2e3fcce664a8e42581f5c34e6b3e20b627b9b",
      "blockNumber": "0x265f6b8",
      "gasUsed": "0x7f3c0",
      "effectiveGasPrice": "0x5b8d80",
      "blobGasUsed": "0x4a94",
      "from": "0xb29e1dddfc73e00dee3eaa7ea102990adca78b39",
      "to": "0x60cec0218b501cf4e045cbdba3ef021374e1afac",
      "contractAddress": null,
      "l1GasPrice": "0x369b74096",
      "l1GasUsed": "0x81b",
      "l1Fee": "0x1a9f0aa3e3",
      "l1BaseFeeScalar": "0x44d",
      "l1BlobBaseFee": "0x3848f92a",
      "l1BlobBaseFeeScalar": "0xa118b",
      "daFootprintGasScalar": "0x94"
    },
    {
      "type": "0x2",
      "status": "0x1",
      "cumulativeGasUsed": "0x7e5684",
      "logs": [
        {
          "address": "0x44406ad771b05827f5fd95b002189e51eebedc91",
          "topics": [
            "0xddf252ad1be2c89b69c2b068fc378daa952ba7f163c4a11628f55a4df523b3ef",
            "0x00000000000000000000000079e516819dc8c06d79615a2f2f1914c646649369",
            "0x000000000000000000000000b29e1dddfc73e00dee3eaa7ea102990adca78b39"
          ],
          "data": "0x000000000000000000000000000000000000000000000035f0acbf6c82642cc2",
          "blockHash": "0x0000000000000000000000000000000000000000000000000000000000000000",
          "blockNumber": "0x265f6b8",
          "blockTimestamp": "0x69df4c50",
          "transactionHash": "0x8c7d081fc5b981837eff203202bea46ab1b2f85e167071e1799eeab2846bfe23",
          "transactionIndex": "0x1b",
          "logIndex": "0x9f",
          "removed": false
        },
        {
          "address": "0x168deb69184ea184aadb8a626dc4d3013dc08fe8",
          "topics": [
            "0xddf252ad1be2c89b69c2b068fc378daa952ba7f163c4a11628f55a4df523b3ef",
            "0x000000000000000000000000b29e1dddfc73e00dee3eaa7ea102990adca78b39",
            "0x00000000000000000000000079e516819dc8c06d79615a2f2f1914c646649369"
          ],
          "data": "0x00000000000000000000000000000000000000000000003635c9adc5dea00000",
          "blockHash": "0x0000000000000000000000000000000000000000000000000000000000000000",
          "blockNumber": "0x265f6b8",
          "blockTimestamp": "0x69df4c50",
          "transactionHash": "0x8c7d081fc5b981837eff203202bea46ab1b2f85e167071e1799eeab2846bfe23",
          "transactionIndex": "0x1b",
          "logIndex": "0xa0",
          "removed": false
        },
        {
          "address": "0x79e516819dc8c06d79615a2f2f1914c646649369",
          "topics": [
            "0xb3e2773606abfd36b5bd91394b3a54d1398336c65005baf7bf7a05efeffaf75b",
            "0x00000000000000000000000060cec0218b501cf4e045cbdba3ef021374e1afac",
            "0x000000000000000000000000b29e1dddfc73e00dee3eaa7ea102990adca78b39"
          ],
          "data": "0x0000000000000000000000000000000000000000000000000000000000000000000000000000000000000000000000000000000000000000000000000000000200000000000000000000000000000000000000000000003635c9adc5dea00000000000000000000000000000000000000000000000000035f0acbf6c82642cc2",
          "blockHash": "0x0000000000000000000000000000000000000000000000000000000000000000",
          "blockNumber": "0x265f6b8",
          "blockTimestamp": "0x69df4c50",
          "transactionHash": "0x8c7d081fc5b981837eff203202bea46ab1b2f85e167071e1799eeab2846bfe23",
          "transactionIndex": "0x1b",
          "logIndex": "0xa1",
          "removed": false
        }
      ],
      "logsBloom": "0x00000000000000000000000000000000100810000000000000000010000000000400000000000002000000000000000000000100000044000000000000000000000000010000000000000008000000000080000000000000000000000000000000000000000000000000000000000000000000000000000000000010000000000000000000000000000000000000000000000001000000000000000000000000000000000000000000000000000000000000000000000000000000000000000800000002000000000000000000000000004000000000000000000104000000100000010100000000000000000000000000000000000000000400000100000000",
      "transactionHash": "0x8c7d081fc5b981837eff203202bea46ab1b2f85e167071e1799eeab2846bfe23",
      "transactionIndex": "0x1b",
      "blockHash": "0x0000000000000000000000000000000000000000000000000000000000000000",
      "blockNumber": "0x265f6b8",
      "gasUsed": "0x71d45",
      "effectiveGasPrice": "0x5b8d80",
      "blobGasUsed": "0x48d8",
      "from": "0xb29e1dddfc73e00dee3eaa7ea102990adca78b39",
      "to": "0x60cec0218b501cf4e045cbdba3ef021374e1afac",
      "contractAddress": null,
      "l1GasPrice": "0x369b74096",
      "l1GasUsed": "0x7e6",
      "l1Fee": "0x14851cd26a",
      "l1BaseFeeScalar": "0x44d",
      "l1BlobBaseFee": "0x3848f92a",
      "l1BlobBaseFeeScalar": "0xa118b",
      "daFootprintGasScalar": "0x94"
    },
    {
      "type": "0x2",
      "status": "0x1",
      "cumulativeGasUsed": "0x865202",
      "logs": [
        {
          "address": "0x168deb69184ea184aadb8a626dc4d3013dc08fe8",
          "topics": [
            "0xddf252ad1be2c89b69c2b068fc378daa952ba7f163c4a11628f55a4df523b3ef",
            "0x00000000000000000000000079e516819dc8c06d79615a2f2f1914c646649369",
            "0x000000000000000000000000b29e1dddfc73e00dee3eaa7ea102990adca78b39"
          ],
          "data": "0x00000000000000000000000000000000000000000000003627a245a21cc9fbf9",
          "blockHash": "0xd72f43d18be3e04b5921dfaa8de2e3fcce664a8e42581f5c34e6b3e20b627b9b",
          "blockNumber": "0x265f6b8",
          "blockTimestamp": "0x69df4c50",
          "transactionHash": "0x5e7d0359943fe7b4790016cfe88e2b9cf63274b910dbf8826cf5f5d94ac510d1",
          "transactionIndex": "0x1c",
          "logIndex": "0xa2",
          "removed": false
        },
        {
          "address": "0x44406ad771b05827f5fd95b002189e51eebedc91",
          "topics": [
            "0xddf252ad1be2c89b69c2b068fc378daa952ba7f163c4a11628f55a4df523b3ef",
            "0x000000000000000000000000b29e1dddfc73e00dee3eaa7ea102990adca78b39",
            "0x00000000000000000000000079e516819dc8c06d79615a2f2f1914c646649369"
          ],
          "data": "0x00000000000000000000000000000000000000000000003635c9adc5dea00000",
          "blockHash": "0xd72f43d18be3e04b5921dfaa8de2e3fcce664a8e42581f5c34e6b3e20b627b9b",
          "blockNumber": "0x265f6b8",
          "blockTimestamp": "0x69df4c50",
          "transactionHash": "0x5e7d0359943fe7b4790016cfe88e2b9cf63274b910dbf8826cf5f5d94ac510d1",
          "transactionIndex": "0x1c",
          "logIndex": "0xa3",
          "removed": false
        },
        {
          "address": "0x79e516819dc8c06d79615a2f2f1914c646649369",
          "topics": [
            "0xb3e2773606abfd36b5bd91394b3a54d1398336c65005baf7bf7a05efeffaf75b",
            "0x00000000000000000000000060cec0218b501cf4e045cbdba3ef021374e1afac",
            "0x000000000000000000000000b29e1dddfc73e00dee3eaa7ea102990adca78b39"
          ],
          "data": "0x0000000000000000000000000000000000000000000000000000000000000002000000000000000000000000000000000000000000000000000000000000000000000000000000000000000000000000000000000000003635c9adc5dea0000000000000000000000000000000000000000000000000003627a245a21cc9fbf9",
          "blockHash": "0xd72f43d18be3e04b5921dfaa8de2e3fcce664a8e42581f5c34e6b3e20b627b9b",
          "blockNumber": "0x265f6b8",
          "blockTimestamp": "0x69df4c50",
          "transactionHash": "0x5e7d0359943fe7b4790016cfe88e2b9cf63274b910dbf8826cf5f5d94ac510d1",
          "transactionIndex": "0x1c",
          "logIndex": "0xa4",
          "removed": false
        }
      ],
      "logsBloom": "0x00000000000000000000000000000000100810000000000000000010000000000400000000000002000000000000000000000100000044000000000000000000000000010000000000000008000000000080000000000000000000000000000000000000000000000000000000000000000000000000000000000010000000000000000000000000000000000000000000000001000000000000000000000000000000000000000000000000000000000000000000000000000000000000000800000002000000000000000000000000004000000000000000000104000000100000010100000000000000000000000000000000000000000400000100000000",
      "transactionHash": "0x5e7d0359943fe7b4790016cfe88e2b9cf63274b910dbf8826cf5f5d94ac510d1",
      "transactionIndex": "0x1c",
      "blockHash": "0xd72f43d18be3e04b5921dfaa8de2e3fcce664a8e42581f5c34e6b3e20b627b9b",
      "blockNumber": "0x265f6b8",
      "gasUsed": "0x7fb7e",
      "effectiveGasPrice": "0x5b8d80",
      "blobGasUsed": "0x4a94",
      "from": "0xb29e1dddfc73e00dee3eaa7ea102990adca78b39",
      "to": "0x60cec0218b501cf4e045cbdba3ef021374e1afac",
      "contractAddress": null,
      "l1GasPrice": "0x369b74096",
      "l1GasUsed": "0x81b",
      "l1Fee": "0x1a9f0aa3e3",
      "l1BaseFeeScalar": "0x44d",
      "l1BlobBaseFee": "0x3848f92a",
      "l1BlobBaseFeeScalar": "0xa118b",
      "daFootprintGasScalar": "0x94"
    },
    {
      "type": "0x2",
      "status": "0x1",
      "cumulativeGasUsed": "0x9f4115",
      "logs": [
        {
          "address": "0x60cb112631ce92f9fe164878d690fac1fd1c295d",
          "topics": [
            "0xddf252ad1be2c89b69c2b068fc378daa952ba7f163c4a11628f55a4df523b3ef",
            "0x00000000000000000000000079e516819dc8c06d79615a2f2f1914c646649369",
            "0x000000000000000000000000b29e1dddfc73e00dee3eaa7ea102990adca78b39"
          ],
          "data": "0x000000000000000000000000000000000000000000000035f0babf453b157aa9",
          "blockHash": "0x0000000000000000000000000000000000000000000000000000000000000000",
          "blockNumber": "0x265f6b8",
          "blockTimestamp": "0x69df4c50",
          "transactionHash": "0x98160923e81efb523262bc029613968f4347c06fc95b8dc2c561ddd65b14ff85",
          "transactionIndex": "0x23",
          "logIndex": "0xb9",
          "removed": false
        },
        {
          "address": "0x168deb69184ea184aadb8a626dc4d3013dc08fe8",
          "topics": [
            "0xddf252ad1be2c89b69c2b068fc378daa952ba7f163c4a11628f55a4df523b3ef",
            "0x000000000000000000000000b29e1dddfc73e00dee3eaa7ea102990adca78b39",
            "0x00000000000000000000000079e516819dc8c06d79615a2f2f1914c646649369"
          ],
          "data": "0x00000000000000000000000000000000000000000000003635c9adc5dea00000",
          "blockHash": "0x0000000000000000000000000000000000000000000000000000000000000000",
          "blockNumber": "0x265f6b8",
          "blockTimestamp": "0x69df4c50",
          "transactionHash": "0x98160923e81efb523262bc029613968f4347c06fc95b8dc2c561ddd65b14ff85",
          "transactionIndex": "0x23",
          "logIndex": "0xba",
          "removed": false
        },
        {
          "address": "0x79e516819dc8c06d79615a2f2f1914c646649369",
          "topics": [
            "0xb3e2773606abfd36b5bd91394b3a54d1398336c65005baf7bf7a05efeffaf75b",
            "0x00000000000000000000000060cec0218b501cf4e045cbdba3ef021374e1afac",
            "0x000000000000000000000000b29e1dddfc73e00dee3eaa7ea102990adca78b39"
          ],
          "data": "0x0000000000000000000000000000000000000000000000000000000000000000000000000000000000000000000000000000000000000000000000000000000300000000000000000000000000000000000000000000003635c9adc5dea00000000000000000000000000000000000000000000000000035f0babf453b157aa9",
          "blockHash": "0x0000000000000000000000000000000000000000000000000000000000000000",
          "blockNumber": "0x265f6b8",
          "blockTimestamp": "0x69df4c50",
          "transactionHash": "0x98160923e81efb523262bc029613968f4347c06fc95b8dc2c561ddd65b14ff85",
          "transactionIndex": "0x23",
          "logIndex": "0xbb",
          "removed": false
        }
      ],
      "logsBloom": "0x00000000000000000000000000000000100800000004000000000010000000000400000000000002000000000000000000000000000044000000000000000000000000010000000000000008000000000080002000000001000000000000000000000000000000000000000000000000000000000000000000000010000000000000000000000000000000000000000000000001000000000000000000000000000000000000000000000000000000000000000000000000000000000000000800000002000000000000000000000000004000000000000000000004000000100000010100000000000000000000000000000000000000000400000100000000",
      "transactionHash": "0x98160923e81efb523262bc029613968f4347c06fc95b8dc2c561ddd65b14ff85",
      "transactionIndex": "0x23",
      "blockHash": "0x0000000000000000000000000000000000000000000000000000000000000000",
      "blockNumber": "0x265f6b8",
      "gasUsed": "0x71d45",
      "effectiveGasPrice": "0x5b8d80",
      "blobGasUsed": "0x48d8",
      "from": "0xb29e1dddfc73e00dee3eaa7ea102990adca78b39",
      "to": "0x60cec0218b501cf4e045cbdba3ef021374e1afac",
      "contractAddress": null,
      "l1GasPrice": "0x369b74096",
      "l1GasUsed": "0x7e6",
      "l1Fee": "0x1a1b36f6c5",
      "l1BaseFeeScalar": "0x44d",
      "l1BlobBaseFee": "0x3848f92a",
      "l1BlobBaseFeeScalar": "0xa118b",
      "daFootprintGasScalar": "0x94"
    },
    {
      "type": "0x2",
      "status": "0x1",
      "cumulativeGasUsed": "0xa743f5",
      "logs": [
        {
          "address": "0x168deb69184ea184aadb8a626dc4d3013dc08fe8",
          "topics": [
            "0xddf252ad1be2c89b69c2b068fc378daa952ba7f163c4a11628f55a4df523b3ef",
            "0x00000000000000000000000079e516819dc8c06d79615a2f2f1914c646649369",
            "0x000000000000000000000000b29e1dddfc73e00dee3eaa7ea102990adca78b39"
          ],
          "data": "0x00000000000000000000000000000000000000000000003627943eb62e13ff19",
          "blockHash": "0x0000000000000000000000000000000000000000000000000000000000000000",
          "blockNumber": "0x265f6b8",
          "blockTimestamp": "0x69df4c50",
          "transactionHash": "0x4ab4255f631d84dd64c6b5ef83ef7e92c5d362e77101431e55014b7ec9b5c6bc",
          "transactionIndex": "0x24",
          "logIndex": "0xbc",
          "removed": false
        },
        {
          "address": "0x60cb112631ce92f9fe164878d690fac1fd1c295d",
          "topics": [
            "0xddf252ad1be2c89b69c2b068fc378daa952ba7f163c4a11628f55a4df523b3ef",
            "0x000000000000000000000000b29e1dddfc73e00dee3eaa7ea102990adca78b39",
            "0x00000000000000000000000079e516819dc8c06d79615a2f2f1914c646649369"
          ],
          "data": "0x00000000000000000000000000000000000000000000003635c9adc5dea00000",
          "blockHash": "0x0000000000000000000000000000000000000000000000000000000000000000",
          "blockNumber": "0x265f6b8",
          "blockTimestamp": "0x69df4c50",
          "transactionHash": "0x4ab4255f631d84dd64c6b5ef83ef7e92c5d362e77101431e55014b7ec9b5c6bc",
          "transactionIndex": "0x24",
          "logIndex": "0xbd",
          "removed": false
        },
        {
          "address": "0x79e516819dc8c06d79615a2f2f1914c646649369",
          "topics": [
            "0xb3e2773606abfd36b5bd91394b3a54d1398336c65005baf7bf7a05efeffaf75b",
            "0x00000000000000000000000060cec0218b501cf4e045cbdba3ef021374e1afac",
            "0x000000000000000000000000b29e1dddfc73e00dee3eaa7ea102990adca78b39"
          ],
          "data": "0x0000000000000000000000000000000000000000000000000000000000000003000000000000000000000000000000000000000000000000000000000000000000000000000000000000000000000000000000000000003635c9adc5dea0000000000000000000000000000000000000000000000000003627943eb62e13ff19",
          "blockHash": "0x0000000000000000000000000000000000000000000000000000000000000000",
          "blockNumber": "0x265f6b8",
          "blockTimestamp": "0x69df4c50",
          "transactionHash": "0x4ab4255f631d84dd64c6b5ef83ef7e92c5d362e77101431e55014b7ec9b5c6bc",
          "transactionIndex": "0x24",
          "logIndex": "0xbe",
          "removed": false
        }
      ],
      "logsBloom": "0x00000000000000000000000000000000100800000004000000000010000000000400000000000002000000000000000000000000000044000000000000000000000000010000000000000008000000000080002000000001000000000000000000000000000000000000000000000000000000000000000000000010000000000000000000000000000000000000000000000001000000000000000000000000000000000000000000000000000000000000000000000000000000000000000800000002000000000000000000000000004000000000000000000004000000100000010100000000000000000000000000000000000000000400000100000000",
      "transactionHash": "0x4ab4255f631d84dd64c6b5ef83ef7e92c5d362e77101431e55014b7ec9b5c6bc",
      "transactionIndex": "0x24",
      "blockHash": "0x0000000000000000000000000000000000000000000000000000000000000000",
      "blockNumber": "0x265f6b8",
      "gasUsed": "0x802e0",
      "effectiveGasPrice": "0x5b8d80",
      "blobGasUsed": "0x4a94",
      "from": "0xb29e1dddfc73e00dee3eaa7ea102990adca78b39",
      "to": "0x60cec0218b501cf4e045cbdba3ef021374e1afac",
      "contractAddress": null,
      "l1GasPrice": "0x369b74096",
      "l1GasUsed": "0x81b",
      "l1Fee": "0x1a1b36f6c5",
      "l1BaseFeeScalar": "0x44d",
      "l1BlobBaseFee": "0x3848f92a",
      "l1BlobBaseFeeScalar": "0xa118b",
      "daFootprintGasScalar": "0x94"
    },
    {
      "type": "0x2",
      "status": "0x1",
      "cumulativeGasUsed": "0xae6146",
      "logs": [
        {
          "address": "0x44406ad771b05827f5fd95b002189e51eebedc91",
          "topics": [
            "0xddf252ad1be2c89b69c2b068fc378daa952ba7f163c4a11628f55a4df523b3ef",
            "0x00000000000000000000000079e516819dc8c06d79615a2f2f1914c646649369",
            "0x000000000000000000000000b29e1dddfc73e00dee3eaa7ea102990adca78b39"
          ],
          "data": "0x000000000000000000000000000000000000000000000035f09eaa2375ac8835",
          "blockHash": "0xd72f43d18be3e04b5921dfaa8de2e3fcce664a8e42581f5c34e6b3e20b627b9b",
          "blockNumber": "0x265f6b8",
          "blockTimestamp": "0x69df4c50",
          "transactionHash": "0x68dda64acf37dd993586f9b102e32948e242f2873b2b2a989991fb635a82c0b7",
          "transactionIndex": "0x25",
          "logIndex": "0xbf",
          "removed": false
        },
        {
          "address": "0x39855b7de333de50a7b2e97a3a3e2ec1cf0411a9",
          "topics": [
            "0xddf252ad1be2c89b69c2b068fc378daa952ba7f163c4a11628f55a4df523b3ef",
            "0x000000000000000000000000b29e1dddfc73e00dee3eaa7ea102990adca78b39",
            "0x00000000000000000000000079e516819dc8c06d79615a2f2f1914c646649369"
          ],
          "data": "0x00000000000000000000000000000000000000000000003635c9adc5dea00000",
          "blockHash": "0xd72f43d18be3e04b5921dfaa8de2e3fcce664a8e42581f5c34e6b3e20b627b9b",
          "blockNumber": "0x265f6b8",
          "blockTimestamp": "0x69df4c50",
          "transactionHash": "0x68dda64acf37dd993586f9b102e32948e242f2873b2b2a989991fb635a82c0b7",
          "transactionIndex": "0x25",
          "logIndex": "0xc0",
          "removed": false
        },
        {
          "address": "0x79e516819dc8c06d79615a2f2f1914c646649369",
          "topics": [
            "0xb3e2773606abfd36b5bd91394b3a54d1398336c65005baf7bf7a05efeffaf75b",
            "0x00000000000000000000000060cec0218b501cf4e045cbdba3ef021374e1afac",
            "0x000000000000000000000000b29e1dddfc73e00dee3eaa7ea102990adca78b39"
          ],
          "data": "0x0000000000000000000000000000000000000000000000000000000000000001000000000000000000000000000000000000000000000000000000000000000200000000000000000000000000000000000000000000003635c9adc5dea00000000000000000000000000000000000000000000000000035f09eaa2375ac8835",
          "blockHash": "0xd72f43d18be3e04b5921dfaa8de2e3fcce664a8e42581f5c34e6b3e20b627b9b",
          "blockNumber": "0x265f6b8",
          "blockTimestamp": "0x69df4c50",
          "transactionHash": "0x68dda64acf37dd993586f9b102e32948e242f2873b2b2a989991fb635a82c0b7",
          "transactionIndex": "0x25",
          "logIndex": "0xc1",
          "removed": false
        }
      ],
      "logsBloom": "0x00000000000000000000000000000000100010000000000000000010000000000400100000000000000000000000000000000100000044000000000000000000000000000000000000000008000000000080000000000000000000000000000000000000000000000000000000000000000000000000010000000010000000000000000000000000000000000000000000000001000000000000000000000000000000000000000000000000000000000000000000000000000000000000000800000002000000000000000000000000004000000000000000000104000000100000010100000000000000000000000000000000000000008400000100000000",
      "transactionHash": "0x68dda64acf37dd993586f9b102e32948e242f2873b2b2a989991fb635a82c0b7",
      "transactionIndex": "0x25",
      "blockHash": "0xd72f43d18be3e04b5921dfaa8de2e3fcce664a8e42581f5c34e6b3e20b627b9b",
      "blockNumber": "0x265f6b8",
      "gasUsed": "0x71d51",
      "effectiveGasPrice": "0x5b8d80",
      "blobGasUsed": "0x4ce4",
      "from": "0xb29e1dddfc73e00dee3eaa7ea102990adca78b39",
      "to": "0x60cec0218b501cf4e045cbdba3ef021374e1afac",
      "contractAddress": null,
      "l1GasPrice": "0x369b74096",
      "l1GasUsed": "0x85e",
      "l1Fee": "0x1b7ac0c46b",
      "l1BaseFeeScalar": "0x44d",
      "l1BlobBaseFee": "0x3848f92a",
      "l1BlobBaseFeeScalar": "0xa118b",
      "daFootprintGasScalar": "0x94"
    },
    {
      "type": "0x2",
      "status": "0x1",
      "cumulativeGasUsed": "0xb50d97",
      "logs": [
        {
          "address": "0x39855b7de333de50a7b2e97a3a3e2ec1cf0411a9",
          "topics": [
            "0xddf252ad1be2c89b69c2b068fc378daa952ba7f163c4a11628f55a4df523b3ef",
            "0x00000000000000000000000079e516819dc8c06d79615a2f2f1914c646649369",
            "0x000000000000000000000000b29e1dddfc73e00dee3eaa7ea102990adca78b39"
          ],
          "data": "0x00000000000000000000000000000000000000000000003627b0620ce44f7cb8",
          "blockHash": "0x0000000000000000000000000000000000000000000000000000000000000000",
          "blockNumber": "0x265f6b8",
          "blockTimestamp": "0x69df4c50",
          "transactionHash": "0x8f1094a23d5d75477c0cac498b34d664923cced201f7d8f750830b11624e5a6f",
          "transactionIndex": "0x26",
          "logIndex": "0xc2",
          "removed": false
        },
        {
          "address": "0x44406ad771b05827f5fd95b002189e51eebedc91",
          "topics": [
            "0xddf252ad1be2c89b69c2b068fc378daa952ba7f163c4a11628f55a4df523b3ef",
            "0x000000000000000000000000b29e1dddfc73e00dee3eaa7ea102990adca78b39",
            "0x00000000000000000000000079e516819dc8c06d79615a2f2f1914c646649369"
          ],
          "data": "0x00000000000000000000000000000000000000000000003635c9adc5dea00000",
          "blockHash": "0x0000000000000000000000000000000000000000000000000000000000000000",
          "blockNumber": "0x265f6b8",
          "blockTimestamp": "0x69df4c50",
          "transactionHash": "0x8f1094a23d5d75477c0cac498b34d664923cced201f7d8f750830b11624e5a6f",
          "transactionIndex": "0x26",
          "logIndex": "0xc3",
          "removed": false
        },
        {
          "address": "0x79e516819dc8c06d79615a2f2f1914c646649369",
          "topics": [
            "0xb3e2773606abfd36b5bd91394b3a54d1398336c65005baf7bf7a05efeffaf75b",
            "0x00000000000000000000000060cec0218b501cf4e045cbdba3ef021374e1afac",
            "0x000000000000000000000000b29e1dddfc73e00dee3eaa7ea102990adca78b39"
          ],
          "data": "0x0000000000000000000000000000000000000000000000000000000000000002000000000000000000000000000000000000000000000000000000000000000100000000000000000000000000000000000000000000003635c9adc5dea0000000000000000000000000000000000000000000000000003627b0620ce44f7cb8",
          "blockHash": "0x0000000000000000000000000000000000000000000000000000000000000000",
          "blockNumber": "0x265f6b8",
          "blockTimestamp": "0x69df4c50",
          "transactionHash": "0x8f1094a23d5d75477c0cac498b34d664923cced201f7d8f750830b11624e5a6f",
          "transactionIndex": "0x26",
          "logIndex": "0xc4",
          "removed": false
        }
      ],
      "logsBloom": "0x00000000000000000000000000000000100010000000000000000010000000000400100000000000000000000000000000000100000044000000000000000000000000000000000000000008000000000080000000000000000000000000000000000000000000000000000000000000000000000000010000000010000000000000000000000000000000000000000000000001000000000000000000000000000000000000000000000000000000000000000000000000000000000000000800000002000000000000000000000000004000000000000000000104000000100000010100000000000000000000000000000000000000008400000100000000",
      "transactionHash": "0x8f1094a23d5d75477c0cac498b34d664923cced201f7d8f750830b11624e5a6f",
      "transactionIndex": "0x26",
      "blockHash": "0x0000000000000000000000000000000000000000000000000000000000000000",
      "blockNumber": "0x265f6b8",
      "gasUsed": "0x6ac51",
      "effectiveGasPrice": "0x5b8d80",
      "blobGasUsed": "0x4ce4",
      "from": "0xb29e1dddfc73e00dee3eaa7ea102990adca78b39",
      "to": "0x60cec0218b501cf4e045cbdba3ef021374e1afac",
      "contractAddress": null,
      "l1GasPrice": "0x369b74096",
      "l1GasUsed": "0x85e",
      "l1Fee": "0x1a1b36f6c5",
      "l1BaseFeeScalar": "0x44d",
      "l1BlobBaseFee": "0x3848f92a",
      "l1BlobBaseFeeScalar": "0xa118b",
      "daFootprintGasScalar": "0x94"
    },
    {
      "type": "0x2",
      "status": "0x1",
      "cumulativeGasUsed": "0xbc2aec",
      "logs": [
        {
          "address": "0x60cb112631ce92f9fe164878d690fac1fd1c295d",
          "topics": [
            "0xddf252ad1be2c89b69c2b068fc378daa952ba7f163c4a11628f55a4df523b3ef",
            "0x00000000000000000000000079e516819dc8c06d79615a2f2f1914c646649369",
            "0x000000000000000000000000b29e1dddfc73e00dee3eaa7ea102990adca78b39"
          ],
          "data": "0x000000000000000000000000000000000000000000000035f0acaa11feffedef",
          "blockHash": "0xd72f43d18be3e04b5921dfaa8de2e3fcce664a8e42581f5c34e6b3e20b627b9b",
          "blockNumber": "0x265f6b8",
          "blockTimestamp": "0x69df4c50",
          "transactionHash": "0xaa198f13080d874591fcd2eba6e961d27d959e2b10192070f1a38e51ca27b160",
          "transactionIndex": "0x27",
          "logIndex": "0xc5",
          "removed": false
        },
        {
          "address": "0x39855b7de333de50a7b2e97a3a3e2ec1cf0411a9",
          "topics": [
            "0xddf252ad1be2c89b69c2b068fc378daa952ba7f163c4a11628f55a4df523b3ef",
            "0x000000000000000000000000b29e1dddfc73e00dee3eaa7ea102990adca78b39",
            "0x00000000000000000000000079e516819dc8c06d79615a2f2f1914c646649369"
          ],
          "data": "0x00000000000000000000000000000000000000000000003635c9adc5dea00000",
          "blockHash": "0xd72f43d18be3e04b5921dfaa8de2e3fcce664a8e42581f5c34e6b3e20b627b9b",
          "blockNumber": "0x265f6b8",
          "blockTimestamp": "0x69df4c50",
          "transactionHash": "0xaa198f13080d874591fcd2eba6e961d27d959e2b10192070f1a38e51ca27b160",
          "transactionIndex": "0x27",
          "logIndex": "0xc6",
          "removed": false
        },
        {
          "address": "0x79e516819dc8c06d79615a2f2f1914c646649369",
          "topics": [
            "0xb3e2773606abfd36b5bd91394b3a54d1398336c65005baf7bf7a05efeffaf75b",
            "0x00000000000000000000000060cec0218b501cf4e045cbdba3ef021374e1afac",
            "0x000000000000000000000000b29e1dddfc73e00dee3eaa7ea102990adca78b39"
          ],
          "data": "0x0000000000000000000000000000000000000000000000000000000000000001000000000000000000000000000000000000000000000000000000000000000300000000000000000000000000000000000000000000003635c9adc5dea00000000000000000000000000000000000000000000000000035f0acaa11feffedef",
          "blockHash": "0xd72f43d18be3e04b5921dfaa8de2e3fcce664a8e42581f5c34e6b3e20b627b9b",
          "blockNumber": "0x265f6b8",
          "blockTimestamp": "0x69df4c50",
          "transactionHash": "0xaa198f13080d874591fcd2eba6e961d27d959e2b10192070f1a38e51ca27b160",
          "transactionIndex": "0x27",
          "logIndex": "0xc7",
          "removed": false
        }
      ],
      "logsBloom": "0x00000000000000000000000000000000100000000004000000000010000000000400100000000000000000000000000000000000000044000000000000000000000000000000000000000008000000000080002000000001000000000000000000000000000000000000000000000000000000000000010000000010000000000000000000000000000000000000000000000001000000000000000000000000000000000000000000000000000000000000000000000000000000000000000800000002000000000000000000000000004000000000000000000004000000100000010100000000000000000000000000000000000000008400000100000000",
      "transactionHash": "0xaa198f13080d874591fcd2eba6e961d27d959e2b10192070f1a38e51ca27b160",
      "transactionIndex": "0x27",
      "blockHash": "0xd72f43d18be3e04b5921dfaa8de2e3fcce664a8e42581f5c34e6b3e20b627b9b",
      "blockNumber": "0x265f6b8",
      "gasUsed": "0x71d55",
      "effectiveGasPrice": "0x5b8d80",
      "blobGasUsed": "0x4ce4",
      "from": "0xb29e1dddfc73e00dee3eaa7ea102990adca78b39",
      "to": "0x60cec0218b501cf4e045cbdba3ef021374e1afac",
      "contractAddress": null,
      "l1GasPrice": "0x369b74096",
      "l1GasUsed": "0x85e",
      "l1Fee": "0x1b7ac0c46b",
      "l1BaseFeeScalar": "0x44d",
      "l1BlobBaseFee": "0x3848f92a",
      "l1BlobBaseFeeScalar": "0xa118b",
      "daFootprintGasScalar": "0x94"
    },
    {
      "type": "0x2",
      "status": "0x1",
      "cumulativeGasUsed": "0xc3a9ce",
      "logs": [
        {
          "address": "0x39855b7de333de50a7b2e97a3a3e2ec1cf0411a9",
          "topics": [
            "0xddf252ad1be2c89b69c2b068fc378daa952ba7f163c4a11628f55a4df523b3ef",
            "0x00000000000000000000000079e516819dc8c06d79615a2f2f1914c646649369",
            "0x000000000000000000000000b29e1dddfc73e00dee3eaa7ea102990adca78b39"
          ],
          "data": "0x00000000000000000000000000000000000000000000003627a25b03ce484736",
          "blockHash": "0xd72f43d18be3e04b5921dfaa8de2e3fcce664a8e42581f5c34e6b3e20b627b9b",
          "blockNumber": "0x265f6b8",
          "blockTimestamp": "0x69df4c50",
          "transactionHash": "0x7ea414b7dbdad82a080a58cc97738b059bf9fca4a26a35b0bd36e085814c6962",
          "transactionIndex": "0x28",
          "logIndex": "0xc8",
          "removed": false
        },
        {
          "address": "0x60cb112631ce92f9fe164878d690fac1fd1c295d",
          "topics": [
            "0xddf252ad1be2c89b69c2b068fc378daa952ba7f163c4a11628f55a4df523b3ef",
            "0x000000000000000000000000b29e1dddfc73e00dee3eaa7ea102990adca78b39",
            "0x00000000000000000000000079e516819dc8c06d79615a2f2f1914c646649369"
          ],
          "data": "0x00000000000000000000000000000000000000000000003635c9adc5dea00000",
          "blockHash": "0xd72f43d18be3e04b5921dfaa8de2e3fcce664a8e42581f5c34e6b3e20b627b9b",
          "blockNumber": "0x265f6b8",
          "blockTimestamp": "0x69df4c50",
          "transactionHash": "0x7ea414b7dbdad82a080a58cc97738b059bf9fca4a26a35b0bd36e085814c6962",
          "transactionIndex": "0x28",
          "logIndex": "0xc9",
          "removed": false
        },
        {
          "address": "0x79e516819dc8c06d79615a2f2f1914c646649369",
          "topics": [
            "0xb3e2773606abfd36b5bd91394b3a54d1398336c65005baf7bf7a05efeffaf75b",
            "0x00000000000000000000000060cec0218b501cf4e045cbdba3ef021374e1afac",
            "0x000000000000000000000000b29e1dddfc73e00dee3eaa7ea102990adca78b39"
          ],
          "data": "0x0000000000000000000000000000000000000000000000000000000000000003000000000000000000000000000000000000000000000000000000000000000100000000000000000000000000000000000000000000003635c9adc5dea0000000000000000000000000000000000000000000000000003627a25b03ce484736",
          "blockHash": "0xd72f43d18be3e04b5921dfaa8de2e3fcce664a8e42581f5c34e6b3e20b627b9b",
          "blockNumber": "0x265f6b8",
          "blockTimestamp": "0x69df4c50",
          "transactionHash": "0x7ea414b7dbdad82a080a58cc97738b059bf9fca4a26a35b0bd36e085814c6962",
          "transactionIndex": "0x28",
          "logIndex": "0xca",
          "removed": false
        }
      ],
      "logsBloom": "0x00000000000000000000000000000000100000000004000000000010000000000400100000000000000000000000000000000000000044000000000000000000000000000000000000000008000000000080002000000001000000000000000000000000000000000000000000000000000000000000010000000010000000000000000000000000000000000000000000000001000000000000000000000000000000000000000000000000000000000000000000000000000000000000000800000002000000000000000000000000004000000000000000000004000000100000010100000000000000000000000000000000000000008400000100000000",
      "transactionHash": "0x7ea414b7dbdad82a080a58cc97738b059bf9fca4a26a35b0bd36e085814c6962",
      "transactionIndex": "0x28",
      "blockHash": "0xd72f43d18be3e04b5921dfaa8de2e3fcce664a8e42581f5c34e6b3e20b627b9b",
      "blockNumber": "0x265f6b8",
      "gasUsed": "0x77ee2",
      "effectiveGasPrice": "0x5b8d80",
      "blobGasUsed": "0x4ce4",
      "from": "0xb29e1dddfc73e00dee3eaa7ea102990adca78b39",
      "to": "0x60cec0218b501cf4e045cbdba3ef021374e1afac",
      "contractAddress": null,
      "l1GasPrice": "0x369b74096",
      "l1GasUsed": "0x85e",
      "l1Fee": "0x1b7ac0c46b",
      "l1BaseFeeScalar": "0x44d",
      "l1BlobBaseFee": "0x3848f92a",
      "l1BlobBaseFeeScalar": "0xa118b",
      "daFootprintGasScalar": "0x94"
    },
    {
      "type": "0x2",
      "status": "0x1",
      "cumulativeGasUsed": "0xcac723",
      "logs": [
        {
          "address": "0x60cb112631ce92f9fe164878d690fac1fd1c295d",
          "topics": [
            "0xddf252ad1be2c89b69c2b068fc378daa952ba7f163c4a11628f55a4df523b3ef",
            "0x00000000000000000000000079e516819dc8c06d79615a2f2f1914c646649369",
            "0x000000000000000000000000b29e1dddfc73e00dee3eaa7ea102990adca78b39"
          ],
          "data": "0x000000000000000000000000000000000000000000000035f09e9be70a0caf39",
          "blockHash": "0x0000000000000000000000000000000000000000000000000000000000000000",
          "blockNumber": "0x265f6b8",
          "blockTimestamp": "0x69df4c50",
          "transactionHash": "0x99cdbf344097e92c3196a917ce1fdf74e42a8791f32d18084cdf499686524c50",
          "transactionIndex": "0x29",
          "logIndex": "0xcb",
          "removed": false
        },
        {
          "address": "0x44406ad771b05827f5fd95b002189e51eebedc91",
          "topics": [
            "0xddf252ad1be2c89b69c2b068fc378daa952ba7f163c4a11628f55a4df523b3ef",
            "0x000000000000000000000000b29e1dddfc73e00dee3eaa7ea102990adca78b39",
            "0x00000000000000000000000079e516819dc8c06d79615a2f2f1914c646649369"
          ],
          "data": "0x00000000000000000000000000000000000000000000003635c9adc5dea00000",
          "blockHash": "0x0000000000000000000000000000000000000000000000000000000000000000",
          "blockNumber": "0x265f6b8",
          "blockTimestamp": "0x69df4c50",
          "transactionHash": "0x99cdbf344097e92c3196a917ce1fdf74e42a8791f32d18084cdf499686524c50",
          "transactionIndex": "0x29",
          "logIndex": "0xcc",
          "removed": false
        },
        {
          "address": "0x79e516819dc8c06d79615a2f2f1914c646649369",
          "topics": [
            "0xb3e2773606abfd36b5bd91394b3a54d1398336c65005baf7bf7a05efeffaf75b",
            "0x00000000000000000000000060cec0218b501cf4e045cbdba3ef021374e1afac",
            "0x000000000000000000000000b29e1dddfc73e00dee3eaa7ea102990adca78b39"
          ],
          "data": "0x0000000000000000000000000000000000000000000000000000000000000002000000000000000000000000000000000000000000000000000000000000000300000000000000000000000000000000000000000000003635c9adc5dea00000000000000000000000000000000000000000000000000035f09e9be70a0caf39",
          "blockHash": "0x0000000000000000000000000000000000000000000000000000000000000000",
          "blockNumber": "0x265f6b8",
          "blockTimestamp": "0x69df4c50",
          "transactionHash": "0x99cdbf344097e92c3196a917ce1fdf74e42a8791f32d18084cdf499686524c50",
          "transactionIndex": "0x29",
          "logIndex": "0xcd",
          "removed": false
        }
      ],
      "logsBloom": "0x00000000000000000000000000000000100010000004000000000010000000000400000000000000000000000000000000000100000044000000000000000000000000000000000000000008000000000080002000000001000000000000000000000000000000000000000000000000000000000000000000000010000000000000000000000000000000000000000000000001000000000000000000000000000000000000000000000000000000000000000000000000000000000000000800000002000000000000000000000000004000000000000000000104000000100000010100000000000000000000000000000000000000000400000100000000",
      "transactionHash": "0x99cdbf344097e92c3196a917ce1fdf74e42a8791f32d18084cdf499686524c50",
      "transactionIndex": "0x29",
      "blockHash": "0x0000000000000000000000000000000000000000000000000000000000000000",
      "blockNumber": "0x265f6b8",
      "gasUsed": "0x71d55",
      "effectiveGasPrice": "0x5b8d80",
      "blobGasUsed": "0x4ce4",
      "from": "0xb29e1dddfc73e00dee3eaa7ea102990adca78b39",
      "to": "0x60cec0218b501cf4e045cbdba3ef021374e1afac",
      "contractAddress": null,
      "l1GasPrice": "0x369b74096",
      "l1GasUsed": "0x85e",
      "l1Fee": "0x1a1b36f6c5",
      "l1BaseFeeScalar": "0x44d",
      "l1BlobBaseFee": "0x3848f92a",
      "l1BlobBaseFeeScalar": "0xa118b",
      "daFootprintGasScalar": "0x94"
    },
    {
      "type": "0x2",
      "status": "0x1",
      "cumulativeGasUsed": "0xd17374",
      "logs": [
        {
          "address": "0x44406ad771b05827f5fd95b002189e51eebedc91",
          "topics": [
            "0xddf252ad1be2c89b69c2b068fc378daa952ba7f163c4a11628f55a4df523b3ef",
            "0x00000000000000000000000079e516819dc8c06d79615a2f2f1914c646649369",
            "0x000000000000000000000000b29e1dddfc73e00dee3eaa7ea102990adca78b39"
          ],
          "data": "0x00000000000000000000000000000000000000000000003627b0704ce8dc4284",
          "blockHash": "0xd72f43d18be3e04b5921dfaa8de2e3fcce664a8e42581f5c34e6b3e20b627b9b",
          "blockNumber": "0x265f6b8",
          "blockTimestamp": "0x69df4c50",
          "transactionHash": "0x1255e74c9ebc1c3128225fec83b32f5e8928996dc39a45fbf1d8fdecc0e74685",
          "transactionIndex": "0x2a",
          "logIndex": "0xce",
          "removed": false
        },
        {
          "address": "0x60cb112631ce92f9fe164878d690fac1fd1c295d",
          "topics": [
            "0xddf252ad1be2c89b69c2b068fc378daa952ba7f163c4a11628f55a4df523b3ef",
            "0x000000000000000000000000b29e1dddfc73e00dee3eaa7ea102990adca78b39",
            "0x00000000000000000000000079e516819dc8c06d79615a2f2f1914c646649369"
          ],
          "data": "0x00000000000000000000000000000000000000000000003635c9adc5dea00000",
          "blockHash": "0xd72f43d18be3e04b5921dfaa8de2e3fcce664a8e42581f5c34e6b3e20b627b9b",
          "blockNumber": "0x265f6b8",
          "blockTimestamp": "0x69df4c50",
          "transactionHash": "0x1255e74c9ebc1c3128225fec83b32f5e8928996dc39a45fbf1d8fdecc0e74685",
          "transactionIndex": "0x2a",
          "logIndex": "0xcf",
          "removed": false
        },
        {
          "address": "0x79e516819dc8c06d79615a2f2f1914c646649369",
          "topics": [
            "0xb3e2773606abfd36b5bd91394b3a54d1398336c65005baf7bf7a05efeffaf75b",
            "0x00000000000000000000000060cec0218b501cf4e045cbdba3ef021374e1afac",
            "0x000000000000000000000000b29e1dddfc73e00dee3eaa7ea102990adca78b39"
          ],
          "data": "0x0000000000000000000000000000000000000000000000000000000000000003000000000000000000000000000000000000000000000000000000000000000200000000000000000000000000000000000000000000003635c9adc5dea0000000000000000000000000000000000000000000000000003627b0704ce8dc4284",
          "blockHash": "0xd72f43d18be3e04b5921dfaa8de2e3fcce664a8e42581f5c34e6b3e20b627b9b",
          "blockNumber": "0x265f6b8",
          "blockTimestamp": "0x69df4c50",
          "transactionHash": "0x1255e74c9ebc1c3128225fec83b32f5e8928996dc39a45fbf1d8fdecc0e74685",
          "transactionIndex": "0x2a",
          "logIndex": "0xd0",
          "removed": false
        }
      ],
      "logsBloom": "0x00000000000000000000000000000000100010000004000000000010000000000400000000000000000000000000000000000100000044000000000000000000000000000000000000000008000000000080002000000001000000000000000000000000000000000000000000000000000000000000000000000010000000000000000000000000000000000000000000000001000000000000000000000000000000000000000000000000000000000000000000000000000000000000000800000002000000000000000000000000004000000000000000000104000000100000010100000000000000000000000000000000000000000400000100000000",
      "transactionHash": "0x1255e74c9ebc1c3128225fec83b32f5e8928996dc39a45fbf1d8fdecc0e74685",
      "transactionIndex": "0x2a",
      "blockHash": "0xd72f43d18be3e04b5921dfaa8de2e3fcce664a8e42581f5c34e6b3e20b627b9b",
      "blockNumber": "0x265f6b8",
      "gasUsed": "0x6ac51",
      "effectiveGasPrice": "0x5b8d80",
      "blobGasUsed": "0x4ce4",
      "from": "0xb29e1dddfc73e00dee3eaa7ea102990adca78b39",
      "to": "0x60cec0218b501cf4e045cbdba3ef021374e1afac",
      "contractAddress": null,
      "l1GasPrice": "0x369b74096",
      "l1GasUsed": "0x85e",
      "l1Fee": "0x1b7ac0c46b",
      "l1BaseFeeScalar": "0x44d",
      "l1BlobBaseFee": "0x3848f92a",
      "l1BlobBaseFeeScalar": "0xa118b",
      "daFootprintGasScalar": "0x94"
    },
    {
      "type": "0x2",
      "status": "0x1",
      "cumulativeGasUsed": "0xd890bd",
      "logs": [
        {
          "address": "0x39855b7de333de50a7b2e97a3a3e2ec1cf0411a9",
          "topics": [
            "0xddf252ad1be2c89b69c2b068fc378daa952ba7f163c4a11628f55a4df523b3ef",
            "0x00000000000000000000000079e516819dc8c06d79615a2f2f1914c646649369",
            "0x000000000000000000000000b29e1dddfc73e00dee3eaa7ea102990adca78b39"
          ],
          "data": "0x000000000000000000000000000000000000000000000035f0babf2bddae79bc",
          "blockHash": "0x0000000000000000000000000000000000000000000000000000000000000000",
          "blockNumber": "0x265f6b8",
          "blockTimestamp": "0x69df4c50",
          "transactionHash": "0x93616f4b6e0f2e6a486f1e19885b7c1ef5f7f05f5851788dbb90a8a7882b6382",
          "transactionIndex": "0x2b",
          "logIndex": "0xd1",
          "removed": false
        },
        {
          "address": "0x168deb69184ea184aadb8a626dc4d3013dc08fe8",
          "topics": [
            "0xddf252ad1be2c89b69c2b068fc378daa952ba7f163c4a11628f55a4df523b3ef",
            "0x000000000000000000000000b29e1dddfc73e00dee3eaa7ea102990adca78b39",
            "0x00000000000000000000000079e516819dc8c06d79615a2f2f1914c646649369"
          ],
          "data": "0x00000000000000000000000000000000000000000000003635c9adc5dea00000",
          "blockHash": "0x0000000000000000000000000000000000000000000000000000000000000000",
          "blockNumber": "0x265f6b8",
          "blockTimestamp": "0x69df4c50",
          "transactionHash": "0x93616f4b6e0f2e6a486f1e19885b7c1ef5f7f05f5851788dbb90a8a7882b6382",
          "transactionIndex": "0x2b",
          "logIndex": "0xd2",
          "removed": false
        },
        {
          "address": "0x79e516819dc8c06d79615a2f2f1914c646649369",
          "topics": [
            "0xb3e2773606abfd36b5bd91394b3a54d1398336c65005baf7bf7a05efeffaf75b",
            "0x00000000000000000000000060cec0218b501cf4e045cbdba3ef021374e1afac",
            "0x000000000000000000000000b29e1dddfc73e00dee3eaa7ea102990adca78b39"
          ],
          "data": "0x0000000000000000000000000000000000000000000000000000000000000000000000000000000000000000000000000000000000000000000000000000000100000000000000000000000000000000000000000000003635c9adc5dea00000000000000000000000000000000000000000000000000035f0babf2bddae79bc",
          "blockHash": "0x0000000000000000000000000000000000000000000000000000000000000000",
          "blockNumber": "0x265f6b8",
          "blockTimestamp": "0x69df4c50",
          "transactionHash": "0x93616f4b6e0f2e6a486f1e19885b7c1ef5f7f05f5851788dbb90a8a7882b6382",
          "transactionIndex": "0x2b",
          "logIndex": "0xd3",
          "removed": false
        }
      ],
      "logsBloom": "0x00000000000000000000000000000000100800000000000000000010000000000400100000000002000000000000000000000000000044000000000000000000000000010000000000000008000000000080000000000000000000000000000000000000000000000000000000000000000000000000010000000010000000000000000000000000000000000000000000000001000000000000000000000000000000000000000000000000000000000000000000000000000000000000000800000002000000000000000000000000004000000000000000000004000000100000010100000000000000000000000000000000000000008400000100000000",
      "transactionHash": "0x93616f4b6e0f2e6a486f1e19885b7c1ef5f7f05f5851788dbb90a8a7882b6382",
      "transactionIndex": "0x2b",
      "blockHash": "0x0000000000000000000000000000000000000000000000000000000000000000",
      "blockNumber": "0x265f6b8",
      "gasUsed": "0x71d49",
      "effectiveGasPrice": "0x5b8d80",
      "blobGasUsed": "0x48d8",
      "from": "0xb29e1dddfc73e00dee3eaa7ea102990adca78b39",
      "to": "0x60cec0218b501cf4e045cbdba3ef021374e1afac",
      "contractAddress": null,
      "l1GasPrice": "0x369b74096",
      "l1GasUsed": "0x7e6",
      "l1Fee": "0x1a1b36f6c5",
      "l1BaseFeeScalar": "0x44d",
      "l1BlobBaseFee": "0x3848f92a",
      "l1BlobBaseFeeScalar": "0xa118b",
      "daFootprintGasScalar": "0x94"
    },
    {
      "type": "0x2",
      "status": "0x1",
      "cumulativeGasUsed": "0xdf6912",
      "logs": [
        {
          "address": "0x44406ad771b05827f5fd95b002189e51eebedc91",
          "topics": [
            "0xddf252ad1be2c89b69c2b068fc378daa952ba7f163c4a11628f55a4df523b3ef",
            "0x00000000000000000000000079e516819dc8c06d79615a2f2f1914c646649369",
            "0x000000000000000000000000b29e1dddfc73e00dee3eaa7ea102990adca78b39"
          ],
          "data": "0x0000000000000000000000000000000000000000000000360c3590b0470a1e2b",
          "blockHash": "0xd72f43d18be3e04b5921dfaa8de2e3fcce664a8e42581f5c34e6b3e20b627b9b",
          "blockNumber": "0x265f6b8",
          "blockTimestamp": "0x69df4c50",
          "transactionHash": "0xbe2f61f54770e0ca9fe6e765108b71a5598e35abf18c28c9f0f67a1bb55bf5db",
          "transactionIndex": "0x2c",
          "logIndex": "0xd4",
          "removed": false
        },
        {
          "address": "0x39855b7de333de50a7b2e97a3a3e2ec1cf0411a9",
          "topics": [
            "0xddf252ad1be2c89b69c2b068fc378daa952ba7f163c4a11628f55a4df523b3ef",
            "0x000000000000000000000000b29e1dddfc73e00dee3eaa7ea102990adca78b39",
            "0x00000000000000000000000079e516819dc8c06d79615a2f2f1914c646649369"
          ],
          "data": "0x00000000000000000000000000000000000000000000003635c9adc5dea00000",
          "blockHash": "0xd72f43d18be3e04b5921dfaa8de2e3fcce664a8e42581f5c34e6b3e20b627b9b",
          "blockNumber": "0x265f6b8",
          "blockTimestamp": "0x69df4c50",
          "transactionHash": "0xbe2f61f54770e0ca9fe6e765108b71a5598e35abf18c28c9f0f67a1bb55bf5db",
          "transactionIndex": "0x2c",
          "logIndex": "0xd5",
          "removed": false
        },
        {
          "address": "0x79e516819dc8c06d79615a2f2f1914c646649369",
          "topics": [
            "0xb3e2773606abfd36b5bd91394b3a54d1398336c65005baf7bf7a05efeffaf75b",
            "0x00000000000000000000000060cec0218b501cf4e045cbdba3ef021374e1afac",
            "0x000000000000000000000000b29e1dddfc73e00dee3eaa7ea102990adca78b39"
          ],
          "data": "0x0000000000000000000000000000000000000000000000000000000000000001000000000000000000000000000000000000000000000000000000000000000200000000000000000000000000000000000000000000003635c9adc5dea000000000000000000000000000000000000000000000000000360c3590b0470a1e2b",
          "blockHash": "0xd72f43d18be3e04b5921dfaa8de2e3fcce664a8e42581f5c34e6b3e20b627b9b",
          "blockNumber": "0x265f6b8",
          "blockTimestamp": "0x69df4c50",
          "transactionHash": "0xbe2f61f54770e0ca9fe6e765108b71a5598e35abf18c28c9f0f67a1bb55bf5db",
          "transactionIndex": "0x2c",
          "logIndex": "0xd6",
          "removed": false
        }
      ],
      "logsBloom": "0x00000000000000000000000000000000100010000000000000000010000000000400100000000000000000000000000000000100000044000000000000000000000000000000000000000008000000000080000000000000000000000000000000000000000000000000000000000000000000000000010000000010000000000000000000000000000000000000000000000001000000000000000000000000000000000000000000000000000000000000000000000000000000000000000800000002000000000000000000000000004000000000000000000104000000100000010100000000000000000000000000000000000000008400000100000000",
      "transactionHash": "0xbe2f61f54770e0ca9fe6e765108b71a5598e35abf18c28c9f0f67a1bb55bf5db",
      "transactionIndex": "0x2c",
      "blockHash": "0xd72f43d18be3e04b5921dfaa8de2e3fcce664a8e42581f5c34e6b3e20b627b9b",
      "blockNumber": "0x265f6b8",
      "gasUsed": "0x6d855",
      "effectiveGasPrice": "0x5b8d80",
      "blobGasUsed": "0x4ce4",
      "from": "0xb29e1dddfc73e00dee3eaa7ea102990adca78b39",
      "to": "0x60cec0218b501cf4e045cbdba3ef021374e1afac",
      "contractAddress": null,
      "l1GasPrice": "0x369b74096",
      "l1GasUsed": "0x85e",
      "l1Fee": "0x1b7ac0c46b",
      "l1BaseFeeScalar": "0x44d",
      "l1BlobBaseFee": "0x3848f92a",
      "l1BlobBaseFeeScalar": "0xa118b",
      "daFootprintGasScalar": "0x94"
    },
    {
      "type": "0x2",
      "status": "0x1",
      "cumulativeGasUsed": "0xe640b7",
      "logs": [
        {
          "address": "0x60cb112631ce92f9fe164878d690fac1fd1c295d",
          "topics": [
            "0xddf252ad1be2c89b69c2b068fc378daa952ba7f163c4a11628f55a4df523b3ef",
            "0x00000000000000000000000079e516819dc8c06d79615a2f2f1914c646649369",
            "0x000000000000000000000000b29e1dddfc73e00dee3eaa7ea102990adca78b39"
          ],
          "data": "0x0000000000000000000000000000000000000000000000360c4390bf87a2f074",
          "blockHash": "0x0000000000000000000000000000000000000000000000000000000000000000",
          "blockNumber": "0x265f6b8",
          "blockTimestamp": "0x69df4c50",
          "transactionHash": "0xb1e0977687242ae9c2d0b4542d81d3a18a132feb888182b4d6fcde68b22b9b09",
          "transactionIndex": "0x2d",
          "logIndex": "0xd7",
          "removed": false
        },
        {
          "address": "0x44406ad771b05827f5fd95b002189e51eebedc91",
          "topics": [
            "0xddf252ad1be2c89b69c2b068fc378daa952ba7f163c4a11628f55a4df523b3ef",
            "0x000000000000000000000000b29e1dddfc73e00dee3eaa7ea102990adca78b39",
            "0x00000000000000000000000079e516819dc8c06d79615a2f2f1914c646649369"
          ],
          "data": "0x00000000000000000000000000000000000000000000003635c9adc5dea00000",
          "blockHash": "0x0000000000000000000000000000000000000000000000000000000000000000",
          "blockNumber": "0x265f6b8",
          "blockTimestamp": "0x69df4c50",
          "transactionHash": "0xb1e0977687242ae9c2d0b4542d81d3a18a132feb888182b4d6fcde68b22b9b09",
          "transactionIndex": "0x2d",
          "logIndex": "0xd8",
          "removed": false
        },
        {
          "address": "0x79e516819dc8c06d79615a2f2f1914c646649369",
          "topics": [
            "0xb3e2773606abfd36b5bd91394b3a54d1398336c65005baf7bf7a05efeffaf75b",
            "0x00000000000000000000000060cec0218b501cf4e045cbdba3ef021374e1afac",
            "0x000000000000000000000000b29e1dddfc73e00dee3eaa7ea102990adca78b39"
          ],
          "data": "0x0000000000000000000000000000000000000000000000000000000000000002000000000000000000000000000000000000000000000000000000000000000300000000000000000000000000000000000000000000003635c9adc5dea000000000000000000000000000000000000000000000000000360c4390bf87a2f074",
          "blockHash": "0x0000000000000000000000000000000000000000000000000000000000000000",
          "blockNumber": "0x265f6b8",
          "blockTimestamp": "0x69df4c50",
          "transactionHash": "0xb1e0977687242ae9c2d0b4542d81d3a18a132feb888182b4d6fcde68b22b9b09",
          "transactionIndex": "0x2d",
          "logIndex": "0xd9",
          "removed": false
        }
      ],
      "logsBloom": "0x00000000000000000000000000000000100010000004000000000010000000000400000000000000000000000000000000000100000044000000000000000000000000000000000000000008000000000080002000000001000000000000000000000000000000000000000000000000000000000000000000000010000000000000000000000000000000000000000000000001000000000000000000000000000000000000000000000000000000000000000000000000000000000000000800000002000000000000000000000000004000000000000000000104000000100000010100000000000000000000000000000000000000000400000100000000",
      "transactionHash": "0xb1e0977687242ae9c2d0b4542d81d3a18a132feb888182b4d6fcde68b22b9b09",
      "transactionIndex": "0x2d",
      "blockHash": "0x0000000000000000000000000000000000000000000000000000000000000000",
      "blockNumber": "0x265f6b8",
      "gasUsed": "0x6d7a5",
      "effectiveGasPrice": "0x5b8d80",
      "blobGasUsed": "0x4ce4",
      "from": "0xb29e1dddfc73e00dee3eaa7ea102990adca78b39",
      "to": "0x60cec0218b501cf4e045cbdba3ef021374e1afac",
      "contractAddress": null,
      "l1GasPrice": "0x369b74096",
      "l1GasUsed": "0x85e",
      "l1Fee": "0x1a1b36f6c5",
      "l1BaseFeeScalar": "0x44d",
      "l1BlobBaseFee": "0x3848f92a",
      "l1BlobBaseFeeScalar": "0xa118b",
      "daFootprintGasScalar": "0x94"
    },
    {
      "type": "0x2",
      "status": "0x1",
      "cumulativeGasUsed": "0xedbf5f",
      "logs": [
        {
          "address": "0x168deb69184ea184aadb8a626dc4d3013dc08fe8",
          "topics": [
            "0xddf252ad1be2c89b69c2b068fc378daa952ba7f163c4a11628f55a4df523b3ef",
            "0x00000000000000000000000079e516819dc8c06d79615a2f2f1914c646649369",
            "0x000000000000000000000000b29e1dddfc73e00dee3eaa7ea102990adca78b39"
          ],
          "data": "0x000000000000000000000000000000000000000000000036276a30fe493de56b",
          "blockHash": "0xd72f43d18be3e04b5921dfaa8de2e3fcce664a8e42581f5c34e6b3e20b627b9b",
          "blockNumber": "0x265f6b8",
          "blockTimestamp": "0x69df4c50",
          "transactionHash": "0x05b93e5309cf3936119362d29c43cf618cf6a500a9db0a6d2d54a6a1a8f95c76",
          "transactionIndex": "0x2e",
          "logIndex": "0xda",
          "removed": false
        },
        {
          "address": "0x60cb112631ce92f9fe164878d690fac1fd1c295d",
          "topics": [
            "0xddf252ad1be2c89b69c2b068fc378daa952ba7f163c4a11628f55a4df523b3ef",
            "0x000000000000000000000000b29e1dddfc73e00dee3eaa7ea102990adca78b39",
            "0x00000000000000000000000079e516819dc8c06d79615a2f2f1914c646649369"
          ],
          "data": "0x00000000000000000000000000000000000000000000003635c9adc5dea00000",
          "blockHash": "0xd72f43d18be3e04b5921dfaa8de2e3fcce664a8e42581f5c34e6b3e20b627b9b",
          "blockNumber": "0x265f6b8",
          "blockTimestamp": "0x69df4c50",
          "transactionHash": "0x05b93e5309cf3936119362d29c43cf618cf6a500a9db0a6d2d54a6a1a8f95c76",
          "transactionIndex": "0x2e",
          "logIndex": "0xdb",
          "removed": false
        },
        {
          "address": "0x79e516819dc8c06d79615a2f2f1914c646649369",
          "topics": [
            "0xb3e2773606abfd36b5bd91394b3a54d1398336c65005baf7bf7a05efeffaf75b",
            "0x00000000000000000000000060cec0218b501cf4e045cbdba3ef021374e1afac",
            "0x000000000000000000000000b29e1dddfc73e00dee3eaa7ea102990adca78b39"
          ],
          "data": "0x0000000000000000000000000000000000000000000000000000000000000003000000000000000000000000000000000000000000000000000000000000000000000000000000000000000000000000000000000000003635c9adc5dea00000000000000000000000000000000000000000000000000036276a30fe493de56b",
          "blockHash": "0xd72f43d18be3e04b5921dfaa8de2e3fcce664a8e42581f5c34e6b3e20b627b9b",
          "blockNumber": "0x265f6b8",
          "blockTimestamp": "0x69df4c50",
          "transactionHash": "0x05b93e5309cf3936119362d29c43cf618cf6a500a9db0a6d2d54a6a1a8f95c76",
          "transactionIndex": "0x2e",
          "logIndex": "0xdc",
          "removed": false
        }
      ],
      "logsBloom": "0x00000000000000000000000000000000100800000004000000000010000000000400000000000002000000000000000000000000000044000000000000000000000000010000000000000008000000000080002000000001000000000000000000000000000000000000000000000000000000000000000000000010000000000000000000000000000000000000000000000001000000000000000000000000000000000000000000000000000000000000000000000000000000000000000800000002000000000000000000000000004000000000000000000004000000100000010100000000000000000000000000000000000000000400000100000000",
      "transactionHash": "0x05b93e5309cf3936119362d29c43cf618cf6a500a9db0a6d2d54a6a1a8f95c76",
      "transactionIndex": "0x2e",
      "blockHash": "0xd72f43d18be3e04b5921dfaa8de2e3fcce664a8e42581f5c34e6b3e20b627b9b",
      "blockNumber": "0x265f6b8",
      "gasUsed": "0x77ea8",
      "effectiveGasPrice": "0x5b8d80",
      "blobGasUsed": "0x4a94",
      "from": "0xb29e1dddfc73e00dee3eaa7ea102990adca78b39",
      "to": "0x60cec0218b501cf4e045cbdba3ef021374e1afac",
      "contractAddress": null,
      "l1GasPrice": "0x369b74096",
      "l1GasUsed": "0x81b",
      "l1Fee": "0x1a9f0aa3e3",
      "l1BaseFeeScalar": "0x44d",
      "l1BlobBaseFee": "0x3848f92a",
      "l1BlobBaseFeeScalar": "0xa118b",
      "daFootprintGasScalar": "0x94"
    },
    {
      "type": "0x2",
      "status": "0x1",
      "cumulativeGasUsed": "0xf4dca8",
      "logs": [
        {
          "address": "0x44406ad771b05827f5fd95b002189e51eebedc91",
          "topics": [
            "0xddf252ad1be2c89b69c2b068fc378daa952ba7f163c4a11628f55a4df523b3ef",
            "0x00000000000000000000000079e516819dc8c06d79615a2f2f1914c646649369",
            "0x000000000000000000000000b29e1dddfc73e00dee3eaa7ea102990adca78b39"
          ],
          "data": "0x000000000000000000000000000000000000000000000035f0e48cea11dd68a2",
          "blockHash": "0xd72f43d18be3e04b5921dfaa8de2e3fcce664a8e42581f5c34e6b3e20b627b9b",
          "blockNumber": "0x265f6b8",
          "blockTimestamp": "0x69df4c50",
          "transactionHash": "0x180ab5da3546ce17d4eabe05656655a7055eab4d56c4ddea665bcf9c2a4c3a6c",
          "transactionIndex": "0x2f",
          "logIndex": "0xdd",
          "removed": false
        },
        {
          "address": "0x168deb69184ea184aadb8a626dc4d3013dc08fe8",
          "topics": [
            "0xddf252ad1be2c89b69c2b068fc378daa952ba7f163c4a11628f55a4df523b3ef",
            "0x000000000000000000000000b29e1dddfc73e00dee3eaa7ea102990adca78b39",
            "0x00000000000000000000000079e516819dc8c06d79615a2f2f1914c646649369"
          ],
          "data": "0x00000000000000000000000000000000000000000000003635c9adc5dea00000",
          "blockHash": "0xd72f43d18be3e04b5921dfaa8de2e3fcce664a8e42581f5c34e6b3e20b627b9b",
          "blockNumber": "0x265f6b8",
          "blockTimestamp": "0x69df4c50",
          "transactionHash": "0x180ab5da3546ce17d4eabe05656655a7055eab4d56c4ddea665bcf9c2a4c3a6c",
          "transactionIndex": "0x2f",
          "logIndex": "0xde",
          "removed": false
        },
        {
          "address": "0x79e516819dc8c06d79615a2f2f1914c646649369",
          "topics": [
            "0xb3e2773606abfd36b5bd91394b3a54d1398336c65005baf7bf7a05efeffaf75b",
            "0x00000000000000000000000060cec0218b501cf4e045cbdba3ef021374e1afac",
            "0x000000000000000000000000b29e1dddfc73e00dee3eaa7ea102990adca78b39"
          ],
          "data": "0x0000000000000000000000000000000000000000000000000000000000000000000000000000000000000000000000000000000000000000000000000000000200000000000000000000000000000000000000000000003635c9adc5dea00000000000000000000000000000000000000000000000000035f0e48cea11dd68a2",
          "blockHash": "0xd72f43d18be3e04b5921dfaa8de2e3fcce664a8e42581f5c34e6b3e20b627b9b",
          "blockNumber": "0x265f6b8",
          "blockTimestamp": "0x69df4c50",
          "transactionHash": "0x180ab5da3546ce17d4eabe05656655a7055eab4d56c4ddea665bcf9c2a4c3a6c",
          "transactionIndex": "0x2f",
          "logIndex": "0xdf",
          "removed": false
        }
      ],
      "logsBloom": "0x00000000000000000000000000000000100810000000000000000010000000000400000000000002000000000000000000000100000044000000000000000000000000010000000000000008000000000080000000000000000000000000000000000000000000000000000000000000000000000000000000000010000000000000000000000000000000000000000000000001000000000000000000000000000000000000000000000000000000000000000000000000000000000000000800000002000000000000000000000000004000000000000000000104000000100000010100000000000000000000000000000000000000000400000100000000",
      "transactionHash": "0x180ab5da3546ce17d4eabe05656655a7055eab4d56c4ddea665bcf9c2a4c3a6c",
      "transactionIndex": "0x2f",
      "blockHash": "0xd72f43d18be3e04b5921dfaa8de2e3fcce664a8e42581f5c34e6b3e20b627b9b",
      "blockNumber": "0x265f6b8",
      "gasUsed": "0x71d49",
      "effectiveGasPrice": "0x5b8d80",
      "blobGasUsed": "0x48d8",
      "from": "0xb29e1dddfc73e00dee3eaa7ea102990adca78b39",
      "to": "0x60cec0218b501cf4e045cbdba3ef021374e1afac",
      "contractAddress": null,
      "l1GasPrice": "0x369b74096",
      "l1GasUsed": "0x7e6",
      "l1Fee": "0x19ef45bd10",
      "l1BaseFeeScalar": "0x44d",
      "l1BlobBaseFee": "0x3848f92a",
      "l1BlobBaseFeeScalar": "0xa118b",
      "daFootprintGasScalar": "0x94"
    },
    {
      "type": "0x2",
      "status": "0x1",
      "cumulativeGasUsed": "0xfc002d",
      "logs": [
        {
          "address": "0x60cb112631ce92f9fe164878d690fac1fd1c295d",
          "topics": [
            "0xddf252ad1be2c89b69c2b068fc378daa952ba7f163c4a11628f55a4df523b3ef",
            "0x00000000000000000000000079e516819dc8c06d79615a2f2f1914c646649369",
            "0x000000000000000000000000b29e1dddfc73e00dee3eaa7ea102990adca78b39"
          ],
          "data": "0x000000000000000000000000000000000000000000000035f0c89bcbb8194707",
          "blockHash": "0xd72f43d18be3e04b5921dfaa8de2e3fcce664a8e42581f5c34e6b3e20b627b9b",
          "blockNumber": "0x265f6b8",
          "blockTimestamp": "0x69df4c50",
          "transactionHash": "0x02b9b7bcb8f8298e04d353b792e1d40d324763c0f96af1b0b65b758f719e8c83",
          "transactionIndex": "0x30",
          "logIndex": "0xe0",
          "removed": false
        },
        {
          "address": "0x39855b7de333de50a7b2e97a3a3e2ec1cf0411a9",
          "topics": [
            "0xddf252ad1be2c89b69c2b068fc378daa952ba7f163c4a11628f55a4df523b3ef",
            "0x000000000000000000000000b29e1dddfc73e00dee3eaa7ea102990adca78b39",
            "0x00000000000000000000000079e516819dc8c06d79615a2f2f1914c646649369"
          ],
          "data": "0x00000000000000000000000000000000000000000000003635c9adc5dea00000",
          "blockHash": "0xd72f43d18be3e04b5921dfaa8de2e3fcce664a8e42581f5c34e6b3e20b627b9b",
          "blockNumber": "0x265f6b8",
          "blockTimestamp": "0x69df4c50",
          "transactionHash": "0x02b9b7bcb8f8298e04d353b792e1d40d324763c0f96af1b0b65b758f719e8c83",
          "transactionIndex": "0x30",
          "logIndex": "0xe1",
          "removed": false
        },
        {
          "address": "0x79e516819dc8c06d79615a2f2f1914c646649369",
          "topics": [
            "0xb3e2773606abfd36b5bd91394b3a54d1398336c65005baf7bf7a05efeffaf75b",
            "0x00000000000000000000000060cec0218b501cf4e045cbdba3ef021374e1afac",
            "0x000000000000000000000000b29e1dddfc73e00dee3eaa7ea102990adca78b39"
          ],
          "data": "0x0000000000000000000000000000000000000000000000000000000000000001000000000000000000000000000000000000000000000000000000000000000300000000000000000000000000000000000000000000003635c9adc5dea00000000000000000000000000000000000000000000000000035f0c89bcbb8194707",
          "blockHash": "0xd72f43d18be3e04b5921dfaa8de2e3fcce664a8e42581f5c34e6b3e20b627b9b",
          "blockNumber": "0x265f6b8",
          "blockTimestamp": "0x69df4c50",
          "transactionHash": "0x02b9b7bcb8f8298e04d353b792e1d40d324763c0f96af1b0b65b758f719e8c83",
          "transactionIndex": "0x30",
          "logIndex": "0xe2",
          "removed": false
        }
      ],
      "logsBloom": "0x00000000000000000000000000000000100000000004000000000010000000000400100000000000000000000000000000000000000044000000000000000000000000000000000000000008000000000080002000000001000000000000000000000000000000000000000000000000000000000000010000000010000000000000000000000000000000000000000000000001000000000000000000000000000000000000000000000000000000000000000000000000000000000000000800000002000000000000000000000000004000000000000000000004000000100000010100000000000000000000000000000000000000008400000100000000",
      "transactionHash": "0x02b9b7bcb8f8298e04d353b792e1d40d324763c0f96af1b0b65b758f719e8c83",
      "transactionIndex": "0x30",
      "blockHash": "0xd72f43d18be3e04b5921dfaa8de2e3fcce664a8e42581f5c34e6b3e20b627b9b",
      "blockNumber": "0x265f6b8",
      "gasUsed": "0x72385",
      "effectiveGasPrice": "0x5b8d80",
      "blobGasUsed": "0x4ce4",
      "from": "0xb29e1dddfc73e00dee3eaa7ea102990adca78b39",
      "to": "0x60cec0218b501cf4e045cbdba3ef021374e1afac",
      "contractAddress": null,
      "l1GasPrice": "0x369b74096",
      "l1GasUsed": "0x85e",
      "l1Fee": "0x1b7ac0c46b",
      "l1BaseFeeScalar": "0x44d",
      "l1BlobBaseFee": "0x3848f92a",
      "l1BlobBaseFeeScalar": "0xa118b",
      "daFootprintGasScalar": "0x94"
    },
    {
      "type": "0x2",
      "status": "0x1",
      "cumulativeGasUsed": "0x103b3c5",
      "logs": [
        {
          "address": "0x168deb69184ea184aadb8a626dc4d3013dc08fe8",
          "topics": [
            "0xddf252ad1be2c89b69c2b068fc378daa952ba7f163c4a11628f55a4df523b3ef",
            "0x00000000000000000000000079e516819dc8c06d79615a2f2f1914c646649369",
            "0x000000000000000000000000b29e1dddfc73e00dee3eaa7ea102990adca78b39"
          ],
          "data": "0x000000000000000000000000000000000000000000000036276a5c189098605c",
          "blockHash": "0x0000000000000000000000000000000000000000000000000000000000000000",
          "blockNumber": "0x265f6b8",
          "blockTimestamp": "0x69df4c50",
          "transactionHash": "0x25826fb2083e9e68830e80dc351d04a4fce2818af0ee31cbd3c5659d1aee8145",
          "transactionIndex": "0x31",
          "logIndex": "0xe3",
          "removed": false
        },
        {
          "address": "0x44406ad771b05827f5fd95b002189e51eebedc91",
          "topics": [
            "0xddf252ad1be2c89b69c2b068fc378daa952ba7f163c4a11628f55a4df523b3ef",
            "0x000000000000000000000000b29e1dddfc73e00dee3eaa7ea102990adca78b39",
            "0x00000000000000000000000079e516819dc8c06d79615a2f2f1914c646649369"
          ],
          "data": "0x00000000000000000000000000000000000000000000003635c9adc5dea00000",
          "blockHash": "0x0000000000000000000000000000000000000000000000000000000000000000",
          "blockNumber": "0x265f6b8",
          "blockTimestamp": "0x69df4c50",
          "transactionHash": "0x25826fb2083e9e68830e80dc351d04a4fce2818af0ee31cbd3c5659d1aee8145",
          "transactionIndex": "0x31",
          "logIndex": "0xe4",
          "removed": false
        },
        {
          "address": "0x79e516819dc8c06d79615a2f2f1914c646649369",
          "topics": [
            "0xb3e2773606abfd36b5bd91394b3a54d1398336c65005baf7bf7a05efeffaf75b",
            "0x00000000000000000000000060cec0218b501cf4e045cbdba3ef021374e1afac",
            "0x000000000000000000000000b29e1dddfc73e00dee3eaa7ea102990adca78b39"
          ],
          "data": "0x0000000000000000000000000000000000000000000000000000000000000002000000000000000000000000000000000000000000000000000000000000000000000000000000000000000000000000000000000000003635c9adc5dea00000000000000000000000000000000000000000000000000036276a5c189098605c",
          "blockHash": "0x0000000000000000000000000000000000000000000000000000000000000000",
          "blockNumber": "0x265f6b8",
          "blockTimestamp": "0x69df4c50",
          "transactionHash": "0x25826fb2083e9e68830e80dc351d04a4fce2818af0ee31cbd3c5659d1aee8145",
          "transactionIndex": "0x31",
          "logIndex": "0xe5",
          "removed": false
        }
      ],
      "logsBloom": "0x00000000000000000000000000000000100810000000000000000010000000000400000000000002000000000000000000000100000044000000000000000000000000010000000000000008000000000080000000000000000000000000000000000000000000000000000000000000000000000000000000000010000000000000000000000000000000000000000000000001000000000000000000000000000000000000000000000000000000000000000000000000000000000000000800000002000000000000000000000000004000000000000000000104000000100000010100000000000000000000000000000000000000000400000100000000",
      "transactionHash": "0x25826fb2083e9e68830e80dc351d04a4fce2818af0ee31cbd3c5659d1aee8145",
      "transactionIndex": "0x31",
      "blockHash": "0x0000000000000000000000000000000000000000000000000000000000000000",
      "blockNumber": "0x265f6b8",
      "gasUsed": "0x7b398",
      "effectiveGasPrice": "0x5b8d80",
      "blobGasUsed": "0x4a94",
      "from": "0xb29e1dddfc73e00dee3eaa7ea102990adca78b39",
      "to": "0x60cec0218b501cf4e045cbdba3ef021374e1afac",
      "contractAddress": null,
      "l1GasPrice": "0x369b74096",
      "l1GasUsed": "0x81b",
      "l1Fee": "0x1a1b36f6c5",
      "l1BaseFeeScalar": "0x44d",
      "l1BlobBaseFee": "0x3848f92a",
      "l1BlobBaseFeeScalar": "0xa118b",
      "daFootprintGasScalar": "0x94"
    },
    {
      "type": "0x2",
      "status": "0x1",
      "cumulativeGasUsed": "0x10b3959",
      "logs": [
        {
          "address": "0x39855b7de333de50a7b2e97a3a3e2ec1cf0411a9",
          "topics": [
            "0xddf252ad1be2c89b69c2b068fc378daa952ba7f163c4a11628f55a4df523b3ef",
            "0x00000000000000000000000079e516819dc8c06d79615a2f2f1914c646649369",
            "0x000000000000000000000000b29e1dddfc73e00dee3eaa7ea102990adca78b39"
          ],
          "data": "0x00000000000000000000000000000000000000000000003627865b2aa067469d",
          "blockHash": "0x0000000000000000000000000000000000000000000000000000000000000000",
          "blockNumber": "0x265f6b8",
          "blockTimestamp": "0x69df4c50",
          "transactionHash": "0x7bd80b16724df543753ab1133ce72de742eb7eaa7b2d14dc7ec589976e0031a1",
          "transactionIndex": "0x32",
          "logIndex": "0xe6",
          "removed": false
        },
        {
          "address": "0x60cb112631ce92f9fe164878d690fac1fd1c295d",
          "topics": [
            "0xddf252ad1be2c89b69c2b068fc378daa952ba7f163c4a11628f55a4df523b3ef",
            "0x000000000000000000000000b29e1dddfc73e00dee3eaa7ea102990adca78b39",
            "0x00000000000000000000000079e516819dc8c06d79615a2f2f1914c646649369"
          ],
          "data": "0x00000000000000000000000000000000000000000000003635c9adc5dea00000",
          "blockHash": "0x0000000000000000000000000000000000000000000000000000000000000000",
          "blockNumber": "0x265f6b8",
          "blockTimestamp": "0x69df4c50",
          "transactionHash": "0x7bd80b16724df543753ab1133ce72de742eb7eaa7b2d14dc7ec589976e0031a1",
          "transactionIndex": "0x32",
          "logIndex": "0xe7",
          "removed": false
        },
        {
          "address": "0x79e516819dc8c06d79615a2f2f1914c646649369",
          "topics": [
            "0xb3e2773606abfd36b5bd91394b3a54d1398336c65005baf7bf7a05efeffaf75b",
            "0x00000000000000000000000060cec0218b501cf4e045cbdba3ef021374e1afac",
            "0x000000000000000000000000b29e1dddfc73e00dee3eaa7ea102990adca78b39"
          ],
          "data": "0x0000000000000000000000000000000000000000000000000000000000000003000000000000000000000000000000000000000000000000000000000000000100000000000000000000000000000000000000000000003635c9adc5dea0000000000000000000000000000000000000000000000000003627865b2aa067469d",
          "blockHash": "0x0000000000000000000000000000000000000000000000000000000000000000",
          "blockNumber": "0x265f6b8",
          "blockTimestamp": "0x69df4c50",
          "transactionHash": "0x7bd80b16724df543753ab1133ce72de742eb7eaa7b2d14dc7ec589976e0031a1",
          "transactionIndex": "0x32",
          "logIndex": "0xe8",
          "removed": false
        }
      ],
      "logsBloom": "0x00000000000000000000000000000000100000000004000000000010000000000400100000000000000000000000000000000000000044000000000000000000000000000000000000000008000000000080002000000001000000000000000000000000000000000000000000000000000000000000010000000010000000000000000000000000000000000000000000000001000000000000000000000000000000000000000000000000000000000000000000000000000000000000000800000002000000000000000000000000004000000000000000000004000000100000010100000000000000000000000000000000000000008400000100000000",
      "transactionHash": "0x7bd80b16724df543753ab1133ce72de742eb7eaa7b2d14dc7ec589976e0031a1",
      "transactionIndex": "0x32",
      "blockHash": "0x0000000000000000000000000000000000000000000000000000000000000000",
      "blockNumber": "0x265f6b8",
      "gasUsed": "0x78594",
      "effectiveGasPrice": "0x5b8d80",
      "blobGasUsed": "0x4ce4",
      "from": "0xb29e1dddfc73e00dee3eaa7ea102990adca78b39",
      "to": "0x60cec0218b501cf4e045cbdba3ef021374e1afac",
      "contractAddress": null,
      "l1GasPrice": "0x369b74096",
      "l1GasUsed": "0x85e",
      "l1Fee": "0x1a1b36f6c5",
      "l1BaseFeeScalar": "0x44d",
      "l1BlobBaseFee": "0x3848f92a",
      "l1BlobBaseFeeScalar": "0xa118b",
      "daFootprintGasScalar": "0x94"
    }
  ],
  "libraries": [],
  "pending": [],
  "returns": {},
  "timestamp": 1776241744844,
  "chain": 84532,
  "commit": "32285a2"
}