{
  "transactions": [
    {
      "hash": "0xe9465dc5cde7d30032642a8adcb35fb9ce223a39891845aab72638030c579a99",
      "transactionType": "CALL",
      "contractName": null,
      "contractAddress": "0x44406ad771b05827f5fd95b002189e51eebedc91",
      "function": "mint(address,uint256)",
      "arguments": [
        "0xb29e1ddDfc73E00dEE3EaA7EA102990ADca78b39",
        "1000000000000000000000000"
      ],
      "transaction": {
        "from": "0xb29e1dddfc73e00dee3eaa7ea102990adca78b39",
        "to": "0x44406ad771b05827f5fd95b002189e51eebedc91",
        "gas": "0xb713",
        "value": "0x0",
        "input": "0x40c10f19000000000000000000000000b29e1dddfc73e00dee3eaa7ea102990adca78b3900000000000000000000000000000000000000000000d3c21bcecceda1000000",
        "nonce": "0x62",
        "chainId": "0x14a34"
      },
      "additionalContracts": [],
      "isFixedGasLimit": false
    },
    {
      "hash": "0x4480f1b16ea1ec89b0f8f969aa0361dfe01688604878b4519cb999533d6d2981",
      "transactionType": "CALL",
      "contractName": null,
      "contractAddress": "0x168deb69184ea184aadb8a626dc4d3013dc08fe8",
      "function": "mint(address,uint256)",
      "arguments": [
        "0xb29e1ddDfc73E00dEE3EaA7EA102990ADca78b39",
        "1000000000000000000000000"
      ],
      "transaction": {
        "from": "0xb29e1dddfc73e00dee3eaa7ea102990adca78b39",
        "to": "0x168deb69184ea184aadb8a626dc4d3013dc08fe8",
        "gas": "0xb713",
        "value": "0x0",
        "input": "0x40c10f19000000000000000000000000b29e1dddfc73e00dee3eaa7ea102990adca78b3900000000000000000000000000000000000000000000d3c21bcecceda1000000",
        "nonce": "0x63",
        "chainId": "0x14a34"
      },
      "additionalContracts": [],
      "isFixedGasLimit": false
    },
    {
      "hash": "0x0318792a4ef3432b030c7d7f3fbb9e3252f2486383530732b15a2c06ff742529",
      "transactionType": "CALL",
      "contractName": null,
      "contractAddress": "0x60cb112631ce92f9fe164878d690fac1fd1c295d",
      "function": "mint(address,uint256)",
      "arguments": [
        "0xb29e1ddDfc73E00dEE3EaA7EA102990ADca78b39",
        "1000000000000000000000000"
      ],
      "transaction": {
        "from": "0xb29e1dddfc73e00dee3eaa7ea102990adca78b39",
        "to": "0x60cb112631ce92f9fe164878d690fac1fd1c295d",
        "gas": "0xb713",
        "value": "0x0",
        "input": "0x40c10f19000000000000000000000000b29e1dddfc73e00dee3eaa7ea102990adca78b3900000000000000000000000000000000000000000000d3c21bcecceda1000000",
        "nonce": "0x64",
        "chainId": "0x14a34"
      },
      "additionalContracts": [],
      "isFixedGasLimit": false
    },
    {
      "hash": "0xfa64bdcf936a46f6af8700b7687a4727a3657c0e8c60f0773b204ac0e1b83f41",
      "transactionType": "CALL",
      "contractName": null,
      "contractAddress": "0x39855b7de333de50a7b2e97a3a3e2ec1cf0411a9",
      "function": "mint(address,uint256)",
      "arguments": [
        "0xb29e1ddDfc73E00dEE3EaA7EA102990ADca78b39",
        "1000000000000000000000000"
      ],
      "transaction": {
        "from": "0xb29e1dddfc73e00dee3eaa7ea102990adca78b39",
        "to": "0x39855b7de333de50a7b2e97a3a3e2ec1cf0411a9",
        "gas": "0xb713",
        "value": "0x0",
        "input": "0x40c10f19000000000000000000000000b29e1dddfc73e00dee3eaa7ea102990adca78b3900000000000000000000000000000000000000000000d3c21bcecceda1000000",
        "nonce": "0x65",
        "chainId": "0x14a34"
      },
      "additionalContracts": [],
      "isFixedGasLimit": false
    },
    {
      "hash": "0x23fbfe61e903c95c156c6d8aaebee3ef0ab0d69c2806c3b75341f05414863857",
      "transactionType": "CALL",
      "contractName": null,
      "contractAddress": "0x44406ad771b05827f5fd95b002189e51eebedc91",
      "function": "approve(address,uint256)",
      "arguments": [
        "0x08AC49be269F1c6C2821D56c4C729C9843152EE3",
        "115792089237316195423570985008687907853269984665640564039457584007913129639935"
      ],
      "transaction": {
        "from": "0xb29e1dddfc73e00dee3eaa7ea102990adca78b39",
        "to": "0x44406ad771b05827f5fd95b002189e51eebedc91",
        "gas": "0x8e58",
        "value": "0x0",
        "input": "0x095ea7b300000000000000000000000008ac49be269f1c6c2821d56c4c729c9843152ee3ffffffffffffffffffffffffffffffffffffffffffffffffffffffffffffffff",
        "nonce": "0x66",
        "chainId": "0x14a34"
      },
      "additionalContracts": [],
      "isFixedGasLimit": false
    },
    {
      "hash": "0x035ac5fcb6a75ead881e1c2e62e5571c3c877cc0184f68e6be86a2c018698795",
      "transactionType": "CALL",
      "contractName": null,
      "contractAddress": "0x44406ad771b05827f5fd95b002189e51eebedc91",
      "function": "approve(address,uint256)",
      "arguments": [
        "0x60CEC0218b501Cf4E045CbDbA3eF021374e1aFAc",
        "115792089237316195423570985008687907853269984665640564039457584007913129639935"
      ],
      "transaction": {
        "from": "0xb29e1dddfc73e00dee3eaa7ea102990adca78b39",
        "to": "0x44406ad771b05827f5fd95b002189e51eebedc91",
        "gas": "0x8e58",
        "value": "0x0",
        "input": "0x095ea7b300000000000000000000000060cec0218b501cf4e045cbdba3ef021374e1afacffffffffffffffffffffffffffffffffffffffffffffffffffffffffffffffff",
        "nonce": "0x67",
        "chainId": "0x14a34"
      },
      "additionalContracts": [],
      "isFixedGasLimit": false
    },
    {
      "hash": "0x33d6be35bc4874578e5bbfbf0f168e8a55778085c1c13f84be726eb3b9441e9d",
      "transactionType": "CALL",
      "contractName": null,
      "contractAddress": "0x168deb69184ea184aadb8a626dc4d3013dc08fe8",
      "function": "approve(address,uint256)",
      "arguments": [
        "0x08AC49be269F1c6C2821D56c4C729C9843152EE3",
        "115792089237316195423570985008687907853269984665640564039457584007913129639935"
      ],
      "transaction": {
        "from": "0xb29e1dddfc73e00dee3eaa7ea102990adca78b39",
        "to": "0x168deb69184ea184aadb8a626dc4d3013dc08fe8",
        "gas": "0x8e58",
        "value": "0x0",
        "input": "0x095ea7b300000000000000000000000008ac49be269f1c6c2821d56c4c729c9843152ee3ffffffffffffffffffffffffffffffffffffffffffffffffffffffffffffffff",
        "nonce": "0x68",
        "chainId": "0x14a34"
      },
      "additionalContracts": [],
      "isFixedGasLimit": false
    },
    {
      "hash": "0xe56837cfa78277399954a1607fa140d11ec5523297f41fc3db8fb045cf64a2d3",
      "transactionType": "CALL",
      "contractName": null,
      "contractAddress": "0x168deb69184ea184aadb8a626dc4d3013dc08fe8",
      "function": "approve(address,uint256)",
      "arguments": [
        "0x60CEC0218b501Cf4E045CbDbA3eF021374e1aFAc",
        "115792089237316195423570985008687907853269984665640564039457584007913129639935"
      ],
      "transaction": {
        "from": "0xb29e1dddfc73e00dee3eaa7ea102990adca78b39",
        "to": "0x168deb69184ea184aadb8a626dc4d3013dc08fe8",
        "gas": "0x8e58",
        "value": "0x0",
        "input": "0x095ea7b300000000000000000000000060cec0218b501cf4e045cbdba3ef021374e1afacffffffffffffffffffffffffffffffffffffffffffffffffffffffffffffffff",
        "nonce": "0x69",
        "chainId": "0x14a34"
      },
      "additionalContracts": [],
      "isFixedGasLimit": false
    },
    {
      "hash": "0x14b4b8d8e06afba937812c76987a94719c7fccaf661f2c827e50eed710f7793e",
      "transactionType": "CALL",
      "contractName": null,
      "contractAddress": "0x60cb112631ce92f9fe164878d690fac1fd1c295d",
      "function": "approve(address,uint256)",
      "arguments": [
        "0x08AC49be269F1c6C2821D56c4C729C9843152EE3",
        "115792089237316195423570985008687907853269984665640564039457584007913129639935"
      ],
      "transaction": {
        "from": "0xb29e1dddfc73e00dee3eaa7ea102990adca78b39",
        "to": "0x60cb112631ce92f9fe164878d690fac1fd1c295d",
        "gas": "0x8e58",
        "value": "0x0",
        "input": "0x095ea7b300000000000000000000000008ac49be269f1c6c2821d56c4c729c9843152ee3ffffffffffffffffffffffffffffffffffffffffffffffffffffffffffffffff",
        "nonce": "0x6a",
        "chainId": "0x14a34"
      },
      "additionalContracts": [],
      "isFixedGasLimit": false
    },
    {
      "hash": "0x3335058e9b2a78772081ab62be07469b76205a24bdb1cd98780a6bbde981b761",
      "transactionType": "CALL",
      "contractName": null,
      "contractAddress": "0x60cb112631ce92f9fe164878d690fac1fd1c295d",
      "function": "approve(address,uint256)",
      "arguments": [
        "0x60CEC0218b501Cf4E045CbDbA3eF021374e1aFAc",
        "115792089237316195423570985008687907853269984665640564039457584007913129639935"
      ],
      "transaction": {
        "from": "0xb29e1dddfc73e00dee3eaa7ea102990adca78b39",
        "to": "0x60cb112631ce92f9fe164878d690fac1fd1c295d",
        "gas": "0x8e58",
        "value": "0x0",
        "input": "0x095ea7b300000000000000000000000060cec0218b501cf4e045cbdba3ef021374e1afacffffffffffffffffffffffffffffffffffffffffffffffffffffffffffffffff",
        "nonce": "0x6b",
        "chainId": "0x14a34"
      },
      "additionalContracts": [],
      "isFixedGasLimit": false
    },
    {
      "hash": "0xac2c61d2a3ee7775ea1d8d19d1e75ead4cbfbfb2fda5842cecd0d3cd839d5125",
      "transactionType": "CALL",
      "contractName": null,
      "contractAddress": "0x39855b7de333de50a7b2e97a3a3e2ec1cf0411a9",
      "function": "approve(address,uint256)",
      "arguments": [
        "0x08AC49be269F1c6C2821D56c4C729C9843152EE3",
        "115792089237316195423570985008687907853269984665640564039457584007913129639935"
      ],
      "transaction": {
        "from": "0xb29e1dddfc73e00dee3eaa7ea102990adca78b39",
        "to": "0x39855b7de333de50a7b2e97a3a3e2ec1cf0411a9",
        "gas": "0x8e58",
        "value": "0x0",
        "input": "0x095ea7b300000000000000000000000008ac49be269f1c6c2821d56c4c729c9843152ee3ffffffffffffffffffffffffffffffffffffffffffffffffffffffffffffffff",
        "nonce": "0x6c",
        "chainId": "0x14a34"
      },
      "additionalContracts": [],
      "isFixedGasLimit": false
    },
    {
      "hash": "0xf96aa4cfdbf50a4eb7988060531537ad946127c21ecb26a55d94a78502fe9740",
      "transactionType": "CALL",
      "contractName": null,
      "contractAddress": "0x39855b7de333de50a7b2e97a3a3e2ec1cf0411a9",
      "function": "approve(address,uint256)",
      "arguments": [
        "0x60CEC0218b501Cf4E045CbDbA3eF021374e1aFAc",
        "115792089237316195423570985008687907853269984665640564039457584007913129639935"
      ],
      "transaction": {
        "from": "0xb29e1dddfc73e00dee3eaa7ea102990adca78b39",
        "to": "0x39855b7de333de50a7b2e97a3a3e2ec1cf0411a9",
        "gas": "0x8e58",
        "value": "0x0",
        "input": "0x095ea7b300000000000000000000000060cec0218b501cf4e045cbdba3ef021374e1afacffffffffffffffffffffffffffffffffffffffffffffffffffffffffffffffff",
        "nonce": "0x6d",
        "chainId": "0x14a34"
      },
      "additionalContracts": [],
      "isFixedGasLimit": false
    },
    {
      "hash": "0x0a62a6f1b445052f74f41d9361f0792a0109e2fe291c6fbdd4f81f079595243d",
      "transactionType": "CALL",
      "contractName": null,
      "contractAddress": "0x08ac49be269f1c6c2821d56c4c729c9843152ee3",
      "function": "mint((address,uint256,uint256,uint256[],address,uint256))",
      "arguments": [
        "(0x285398F9Ac1D317Bca922691316BDf5B1493dA71, 420000000000000000000000, 400000000000000000000000, [0, 0, 0, 0], 0xb29e1ddDfc73E00dEE3EaA7EA102990ADca78b39, 1776427196)"
      ],
      "transaction": {
        "from": "0xb29e1dddfc73e00dee3eaa7ea102990adca78b39",
        "to": "0x08ac49be269f1c6c2821d56c4c729c9843152ee3",
        "gas": "0xee90f",
        "value": "0x0",
        "input": "0xb771f9510000000000000000000000000000000000000000000000000000000000000020000000000000000000000000285398f9ac1d317bca922691316bdf5b1493da710000000000000000000000000000000000000000000058f03ee118a13e8000000000000000000000000000000000000000000000000054b40b1f852bda00000000000000000000000000000000000000000000000000000000000000000000c0000000000000000000000000b29e1dddfc73e00dee3eaa7ea102990adca78b390000000000000000000000000000000000000000000000000000000069e220bc00000000000000000000000000000000000000000000000000000000000000040000000000000000000000000000000000000000000000000000000000000000000000000000000000000000000000000000000000000000000000000000000000000000000000000000000000000000000000000000000000000000000000000000000000000000000000000000000000000000000000000000000000000000",
        "nonce": "0x6e",
        "chainId": "0x14a34"
      },
      "additionalContracts": [],
      "isFixedGasLimit": false
    },
    {
      "hash": "0x5b0333ecf6024beaa6f518842ada7918d78efd73aa22393e5ecb5f1de270863c",
      "transactionType": "CALL",
      "contractName": null,
      "contractAddress": "0x08ac49be269f1c6c2821d56c4c729c9843152ee3",
      "function": "mint((address,uint256,uint256,uint256[],address,uint256))",
      "arguments": [
        "(0x285398F9Ac1D317Bca922691316BDf5B1493dA71, 402500000000000000000000, 350000000000000000000000, [0, 0, 0, 0], 0xb29e1ddDfc73E00dEE3EaA7EA102990ADca78b39, 1776427196)"
      ],
      "transaction": {
        "from": "0xb29e1dddfc73e00dee3eaa7ea102990adca78b39",
        "to": "0x08ac49be269f1c6c2821d56c4c729c9843152ee3",
        "gas": "0xb7632",
        "value": "0x0",
        "input": "0xb771f9510000000000000000000000000000000000000000000000000000000000000020000000000000000000000000285398f9ac1d317bca922691316bdf5b1493da7100000000000000000000000000000000000000000000553b9197b79a86900000000000000000000000000000000000000000000000004a1d89bb94865ec0000000000000000000000000000000000000000000000000000000000000000000c0000000000000000000000000b29e1dddfc73e00dee3eaa7ea102990adca78b390000000000000000000000000000000000000000000000000000000069e220bc00000000000000000000000000000000000000000000000000000000000000040000000000000000000000000000000000000000000000000000000000000000000000000000000000000000000000000000000000000000000000000000000000000000000000000000000000000000000000000000000000000000000000000000000000000000000000000000000000000000000000000000000000000000",
        "nonce": "0x6f",
        "chainId": "0x14a34"
      },
      "additionalContracts": [],
      "isFixedGasLimit": false
    },
    {
      "hash": "0x5fbff3a6c846182354081698ad65b8c013492103c152d8e3157640f567684b3c",
      "transactionType": "CALL",
      "contractName": null,
      "contractAddress": "0x08ac49be269f1c6c2821d56c4c729c9843152ee3",
      "function": "mint((address,uint256,uint256,uint256[],address,uint256))",
      "arguments": [
        "(0x285398F9Ac1D317Bca922691316BDf5B1493dA71, 255000000000000000000000, 200000000000000000000000, [0, 0, 0, 0], 0xb29e1ddDfc73E00dEE3EaA7EA102990ADca78b39, 1776427196)"
      ],
      "transaction": {
        "from": "0xb29e1dddfc73e00dee3eaa7ea102990adca78b39",
        "to": "0x08ac49be269f1c6c2821d56c4c729c9843152ee3",
        "gas": "0xc69e4",
        "value": "0x0",
        "input": "0xb771f9510000000000000000000000000000000000000000000000000000000000000020000000000000000000000000285398f9ac1d317bca922691316bdf5b1493da710000000000000000000000000000000000000000000035ff93e41818c1600000000000000000000000000000000000000000000000002a5a058fc295ed00000000000000000000000000000000000000000000000000000000000000000000c0000000000000000000000000b29e1dddfc73e00dee3eaa7ea102990adca78b390000000000000000000000000000000000000000000000000000000069e220bc00000000000000000000000000000000000000000000000000000000000000040000000000000000000000000000000000000000000000000000000000000000000000000000000000000000000000000000000000000000000000000000000000000000000000000000000000000000000000000000000000000000000000000000000000000000000000000000000000000000000000000000000000000000",
        "nonce": "0x70",
        "chainId": "0x14a34"
      },
      "additionalContracts": [],
      "isFixedGasLimit": false
    },
    {
      "hash": "0xe8fb86b592564983c0270742454474ee2fc052dd57d8179cbe684ad47d3cbd0b",
      "transactionType": "CALL",
      "contractName": null,
      "contractAddress": "0x08ac49be269f1c6c2821d56c4c729c9843152ee3",
      "function": "mint((address,uint256,uint256,uint256[],address,uint256))",
      "arguments": [
        "(0x285398F9Ac1D317Bca922691316BDf5B1493dA71, 68750000000000000000000, 50000000000000000000000, [0, 0, 0, 0], 0xb29e1ddDfc73E00dEE3EaA7EA102990ADca78b39, 1776427196)"
      ],
      "transaction": {
        "from": "0xb29e1dddfc73e00dee3eaa7ea102990adca78b39",
        "to": "0x08ac49be269f1c6c2821d56c4c729c9843152ee3",
        "gas": "0xbfc9e",
        "value": "0x0",
        "input": "0xb771f9510000000000000000000000000000000000000000000000000000000000000020000000000000000000000000285398f9ac1d317bca922691316bdf5b1493da71000000000000000000000000000000000000000000000e8ef1e96ae389780000000000000000000000000000000000000000000000000a968163f0a57b40000000000000000000000000000000000000000000000000000000000000000000c0000000000000000000000000b29e1dddfc73e00dee3eaa7ea102990adca78b390000000000000000000000000000000000000000000000000000000069e220bc00000000000000000000000000000000000000000000000000000000000000040000000000000000000000000000000000000000000000000000000000000000000000000000000000000000000000000000000000000000000000000000000000000000000000000000000000000000000000000000000000000000000000000000000000000000000000000000000000000000000000000000000000000000",
        "nonce": "0x71",
        "chainId": "0x14a34"
      },
      "additionalContracts": [],
      "isFixedGasLimit": false
    },
    {
      "hash": "0x057d78cdfc3fef8c1f468d5e9590607d9527d06fb1d3c65c87ccdb47a858d9f0",
      "transactionType": "CALL",
      "contractName": null,
      "contractAddress": "0x60cec0218b501cf4e045cbdba3ef021374e1afac",
      "function": "exactInput((address,uint256,uint256,uint256,uint256,address,uint256))",
      "arguments": [
        "(0x285398F9Ac1D317Bca922691316BDf5B1493dA71, 0, 1, 1000000000000000000000, 0, 0xb29e1ddDfc73E00dEE3EaA7EA102990ADca78b39, 1776427196)"
      ],
      "transaction": {
        "from": "0xb29e1dddfc73e00dee3eaa7ea102990adca78b39",
        "to": "0x60cec0218b501cf4e045cbdba3ef021374e1afac",
        "gas": "0xc2834",
        "value": "0x0",
        "input": "0xde6b497c000000000000000000000000285398f9ac1d317bca922691316bdf5b1493da710000000000000000000000000000000000000000000000000000000000000000000000000000000000000000000000000000000000000000000000000000000100000000000000000000000000000000000000000000003635c9adc5dea000000000000000000000000000000000000000000000000000000000000000000000000000000000000000000000b29e1dddfc73e00dee3eaa7ea102990adca78b390000000000000000000000000000000000000000000000000000000069e220bc",
        "nonce": "0x72",
        "chainId": "0x14a34"
      },
      "additionalContracts": [],
      "isFixedGasLimit": false
    },
    {
      "hash": "0x06eaa8e4873a06ff53dcb1aa2c3b07d08c1744d71bbfda70868552af7d83ef49",
      "transactionType": "CALL",
      "contractName": null,
      "contractAddress": "0x60cec0218b501cf4e045cbdba3ef021374e1afac",
      "function": "exactInput((address,uint256,uint256,uint256,uint256,address,uint256))",
      "arguments": [
        "(0x285398F9Ac1D317Bca922691316BDf5B1493dA71, 1, 0, 1000000000000000000000, 0, 0xb29e1ddDfc73E00dEE3EaA7EA102990ADca78b39, 1776427196)"
      ],
      "transaction": {
        "from": "0xb29e1dddfc73e00dee3eaa7ea102990adca78b39",
        "to": "0x60cec0218b501cf4e045cbdba3ef021374e1afac",
        "gas": "0xafc1f",
        "value": "0x0",
        "input": "0xde6b497c000000000000000000000000285398f9ac1d317bca922691316bdf5b1493da710000000000000000000000000000000000000000000000000000000000000001000000000000000000000000000000000000000000000000000000000000000000000000000000000000000000000000000000000000003635c9adc5dea000000000000000000000000000000000000000000000000000000000000000000000000000000000000000000000b29e1dddfc73e00dee3eaa7ea102990adca78b390000000000000000000000000000000000000000000000000000000069e220bc",
        "nonce": "0x73",
        "chainId": "0x14a34"
      },
      "additionalContracts": [],
      "isFixedGasLimit": false
    },
    {
      "hash": "0x7e8050684f36bccb60947b015cca9d43c5fca4c3b17a038e378f2dba68181429",
      "transactionType": "CALL",
      "contractName": null,
      "contractAddress": "0x60cec0218b501cf4e045cbdba3ef021374e1afac",
      "function": "exactInput((address,uint256,uint256,uint256,uint256,address,uint256))",
      "arguments": [
        "(0x285398F9Ac1D317Bca922691316BDf5B1493dA71, 0, 2, 1000000000000000000000, 0, 0xb29e1ddDfc73E00dEE3EaA7EA102990ADca78b39, 1776427196)"
      ],
      "transaction": {
        "from": "0xb29e1dddfc73e00dee3eaa7ea102990adca78b39",
        "to": "0x60cec0218b501cf4e045cbdba3ef021374e1afac",
        "gas": "0xa67a1",
        "value": "0x0",
        "input": "0xde6b497c000000000000000000000000285398f9ac1d317bca922691316bdf5b1493da710000000000000000000000000000000000000000000000000000000000000000000000000000000000000000000000000000000000000000000000000000000200000000000000000000000000000000000000000000003635c9adc5dea000000000000000000000000000000000000000000000000000000000000000000000000000000000000000000000b29e1dddfc73e00dee3eaa7ea102990adca78b390000000000000000000000000000000000000000000000000000000069e220bc",
        "nonce": "0x74",
        "chainId": "0x14a34"
      },
      "additionalContracts": [],
      "isFixedGasLimit": false
    },
    {
      "hash": "0x86dc178d35cf9f0ce3f53d82a17b1b3396303f32975a099c4024d408c08ccd76",
      "transactionType": "CALL",
      "contractName": null,
      "contractAddress": "0x60cec0218b501cf4e045cbdba3ef021374e1afac",
      "function": "exactInput((address,uint256,uint256,uint256,uint256,address,uint256))",
      "arguments": [
        "(0x285398F9Ac1D317Bca922691316BDf5B1493dA71, 2, 0, 1000000000000000000000, 0, 0xb29e1ddDfc73E00dEE3EaA7EA102990ADca78b39, 1776427196)"
      ],
      "transaction": {
        "from": "0xb29e1dddfc73e00dee3eaa7ea102990adca78b39",
        "to": "0x60cec0218b501cf4e045cbdba3ef021374e1afac",
        "gas": "0xb0658",
        "value": "0x0",
        "input": "0xde6b497c000000000000000000000000285398f9ac1d317bca922691316bdf5b1493da710000000000000000000000000000000000000000000000000000000000000002000000000000000000000000000000000000000000000000000000000000000000000000000000000000000000000000000000000000003635c9adc5dea000000000000000000000000000000000000000000000000000000000000000000000000000000000000000000000b29e1dddfc73e00dee3eaa7ea102990adca78b390000000000000000000000000000000000000000000000000000000069e220bc",
        "nonce": "0x75",
        "chainId": "0x14a34"
      },
      "additionalContracts": [],
      "isFixedGasLimit": false
    },
    {
      "hash": "0x934037e3bc343718dd9d9637891117c21bcc403088667c6a1c9abe604f6be6ea",
      "transactionType": "CALL",
      "contractName": null,
      "contractAddress": "0x60cec0218b501cf4e045cbdba3ef021374e1afac",
      "function": "exactInput((address,uint256,uint256,uint256,uint256,address,uint256))",
      "arguments": [
        "(0x285398F9Ac1D317Bca922691316BDf5B1493dA71, 0, 3, 1000000000000000000000, 0, 0xb29e1ddDfc73E00dEE3EaA7EA102990ADca78b39, 1776427196)"
      ],
      "transaction": {
        "from": "0xb29e1dddfc73e00dee3eaa7ea102990adca78b39",
        "to": "0x60cec0218b501cf4e045cbdba3ef021374e1afac",
        "gas": "0x9d3a0",
        "value": "0x0",
        "input": "0xde6b497c000000000000000000000000285398f9ac1d317bca922691316bdf5b1493da710000000000000000000000000000000000000000000000000000000000000000000000000000000000000000000000000000000000000000000000000000000300000000000000000000000000000000000000000000003635c9adc5dea000000000000000000000000000000000000000000000000000000000000000000000000000000000000000000000b29e1dddfc73e00dee3eaa7ea102990adca78b390000000000000000000000000000000000000000000000000000000069e220bc",
        "nonce": "0x76",
        "chainId": "0x14a34"
      },
      "additionalContracts": [],
      "isFixedGasLimit": false
    },
    {
      "hash": "0x8c48ebd2cc3dddb63c249a526977ad883990d9e5dbc23a1cc1e7fd2efee347fe",
      "transactionType": "CALL",
      "contractName": null,
      "contractAddress": "0x60cec0218b501cf4e045cbdba3ef021374e1afac",
      "function": "exactInput((address,uint256,uint256,uint256,uint256,address,uint256))",
      "arguments": [
        "(0x285398F9Ac1D317Bca922691316BDf5B1493dA71, 3, 0, 1000000000000000000000, 0, 0xb29e1ddDfc73E00dEE3EaA7EA102990ADca78b39, 1776427196)"
      ],
      "transaction": {
        "from": "0xb29e1dddfc73e00dee3eaa7ea102990adca78b39",
        "to": "0x60cec0218b501cf4e045cbdba3ef021374e1afac",
        "gas": "0xb10c5",
        "value": "0x0",
        "input": "0xde6b497c000000000000000000000000285398f9ac1d317bca922691316bdf5b1493da710000000000000000000000000000000000000000000000000000000000000003000000000000000000000000000000000000000000000000000000000000000000000000000000000000000000000000000000000000003635c9adc5dea000000000000000000000000000000000000000000000000000000000000000000000000000000000000000000000b29e1dddfc73e00dee3eaa7ea102990adca78b390000000000000000000000000000000000000000000000000000000069e220bc",
        "nonce": "0x77",
        "chainId": "0x14a34"
      },
      "additionalContracts": [],
      "isFixedGasLimit": false
    },
    {
      "hash": "0xbe5006df0c421ac0cb358afd3f5f5a55bac16ab6bcc1bdfab1cb1ce733a5bc64",
      "transactionType": "CALL",
      "contractName": null,
      "contractAddress": "0x60cec0218b501cf4e045cbdba3ef021374e1afac",
      "function": "exactInput((address,uint256,uint256,uint256,uint256,address,uint256))",
      "arguments": [
        "(0x285398F9Ac1D317Bca922691316BDf5B1493dA71, 1, 2, 1000000000000000000000, 0, 0xb29e1ddDfc73E00dEE3EaA7EA102990ADca78b39, 1776427196)"
      ],
      "transaction": {
        "from": "0xb29e1dddfc73e00dee3eaa7ea102990adca78b39",
        "to": "0x60cec0218b501cf4e045cbdba3ef021374e1afac",
        "gas": "0x9d3b6",
        "value": "0x0",
        "input": "0xde6b497c000000000000000000000000285398f9ac1d317bca922691316bdf5b1493da710000000000000000000000000000000000000000000000000000000000000001000000000000000000000000000000000000000000000000000000000000000200000000000000000000000000000000000000000000003635c9adc5dea000000000000000000000000000000000000000000000000000000000000000000000000000000000000000000000b29e1dddfc73e00dee3eaa7ea102990adca78b390000000000000000000000000000000000000000000000000000000069e220bc",
        "nonce": "0x78",
        "chainId": "0x14a34"
      },
      "additionalContracts": [],
      "isFixedGasLimit": false
    },
    {
      "hash": "0x2067a4c1ac4f05fc7ffff73aa02edf70041a2caea6659d808e0a7767c2f79f3b",
      "transactionType": "CALL",
      "contractName": null,
      "contractAddress": "0x60cec0218b501cf4e045cbdba3ef021374e1afac",
      "function": "exactInput((address,uint256,uint256,uint256,uint256,address,uint256))",
      "arguments": [
        "(0x285398F9Ac1D317Bca922691316BDf5B1493dA71, 2, 1, 1000000000000000000000, 0, 0xb29e1ddDfc73E00dEE3EaA7EA102990ADca78b39, 1776427196)"
      ],
      "transaction": {
        "from": "0xb29e1dddfc73e00dee3eaa7ea102990adca78b39",
        "to": "0x60cec0218b501cf4e045cbdba3ef021374e1afac",
        "gas": "0x937a1",
        "value": "0x0",
        "input": "0xde6b497c000000000000000000000000285398f9ac1d317bca922691316bdf5b1493da710000000000000000000000000000000000000000000000000000000000000002000000000000000000000000000000000000000000000000000000000000000100000000000000000000000000000000000000000000003635c9adc5dea000000000000000000000000000000000000000000000000000000000000000000000000000000000000000000000b29e1dddfc73e00dee3eaa7ea102990adca78b390000000000000000000000000000000000000000000000000000000069e220bc",
        "nonce": "0x79",
        "chainId": "0x14a34"
      },
      "additionalContracts": [],
      "isFixedGasLimit": false
    },
    {
      "hash": "0xaabcf2ee44f274cf49465adbc77fc0e39cc9cb3a8be8da0ea95f19796237dfc6",
      "transactionType": "CALL",
      "contractName": null,
      "contractAddress": "0x60cec0218b501cf4e045cbdba3ef021374e1afac",
      "function": "exactInput((address,uint256,uint256,uint256,uint256,address,uint256))",
      "arguments": [
        "(0x285398F9Ac1D317Bca922691316BDf5B1493dA71, 1, 3, 1000000000000000000000, 0, 0xb29e1ddDfc73E00dEE3EaA7EA102990ADca78b39, 1776427196)"
      ],
      "transaction": {
        "from": "0xb29e1dddfc73e00dee3eaa7ea102990adca78b39",
        "to": "0x60cec0218b501cf4e045cbdba3ef021374e1afac",
        "gas": "0xa67ac",
        "value": "0x0",
        "input": "0xde6b497c000000000000000000000000285398f9ac1d317bca922691316bdf5b1493da710000000000000000000000000000000000000000000000000000000000000001000000000000000000000000000000000000000000000000000000000000000300000000000000000000000000000000000000000000003635c9adc5dea000000000000000000000000000000000000000000000000000000000000000000000000000000000000000000000b29e1dddfc73e00dee3eaa7ea102990adca78b390000000000000000000000000000000000000000000000000000000069e220bc",
        "nonce": "0x7a",
        "chainId": "0x14a34"
      },
      "additionalContracts": [],
      "isFixedGasLimit": false
    },
    {
      "hash": "0x149b992fc78c98d25df0d7ceaa4ca71ce9a5c515d011e57d4b3a0adc01322d74",
      "transactionType": "CALL",
      "contractName": null,
      "contractAddress": "0x60cec0218b501cf4e045cbdba3ef021374e1afac",
      "function": "exactInput((address,uint256,uint256,uint256,uint256,address,uint256))",
      "arguments": [
        "(0x285398F9Ac1D317Bca922691316BDf5B1493dA71, 3, 1, 1000000000000000000000, 0, 0xb29e1ddDfc73E00dEE3EaA7EA102990ADca78b39, 1776427196)"
      ],
      "transaction": {
        "from": "0xb29e1dddfc73e00dee3eaa7ea102990adca78b39",
        "to": "0x60cec0218b501cf4e045cbdba3ef021374e1afac",
        "gas": "0xa5a3a",
        "value": "0x0",
        "input": "0xde6b497c000000000000000000000000285398f9ac1d317bca922691316bdf5b1493da710000000000000000000000000000000000000000000000000000000000000003000000000000000000000000000000000000000000000000000000000000000100000000000000000000000000000000000000000000003635c9adc5dea000000000000000000000000000000000000000000000000000000000000000000000000000000000000000000000b29e1dddfc73e00dee3eaa7ea102990adca78b390000000000000000000000000000000000000000000000000000000069e220bc",
        "nonce": "0x7b",
        "chainId": "0x14a34"
      },
      "additionalContracts": [],
      "isFixedGasLimit": false
    },
    {
      "hash": "0x37fbc311489b358b8c28a20d4879da84c37e3d734084ef1f77e5f84b1ba99260",
      "transactionType": "CALL",
      "contractName": null,
      "contractAddress": "0x60cec0218b501cf4e045cbdba3ef021374e1afac",
      "function": "exactInput((address,uint256,uint256,uint256,uint256,address,uint256))",
      "arguments": [
        "(0x285398F9Ac1D317Bca922691316BDf5B1493dA71, 2, 3, 1000000000000000000000, 0, 0xb29e1ddDfc73E00dEE3EaA7EA102990ADca78b39, 1776427196)"
      ],
      "transaction": {
        "from": "0xb29e1dddfc73e00dee3eaa7ea102990adca78b39",
        "to": "0x60cec0218b501cf4e045cbdba3ef021374e1afac",
        "gas": "0xa68ae",
        "value": "0x0",
        "input": "0xde6b497c000000000000000000000000285398f9ac1d317bca922691316bdf5b1493da710000000000000000000000000000000000000000000000000000000000000002000000000000000000000000000000000000000000000000000000000000000300000000000000000000000000000000000000000000003635c9adc5dea000000000000000000000000000000000000000000000000000000000000000000000000000000000000000000000b29e1dddfc73e00dee3eaa7ea102990adca78b390000000000000000000000000000000000000000000000000000000069e220bc",
        "nonce": "0x7c",
        "chainId": "0x14a34"
      },
      "additionalContracts": [],
      "isFixedGasLimit": false
    },
    {
      "hash": "0x7447c9103993623747b4762dac805b8fa9181cea1ff446fff96a7ad563de9f42",
      "transactionType": "CALL",
      "contractName": null,
      "contractAddress": "0x60cec0218b501cf4e045cbdba3ef021374e1afac",
      "function": "exactInput((address,uint256,uint256,uint256,uint256,address,uint256))",
      "arguments": [
        "(0x285398F9Ac1D317Bca922691316BDf5B1493dA71, 3, 2, 1000000000000000000000, 0, 0xb29e1ddDfc73E00dEE3EaA7EA102990ADca78b39, 1776427196)"
      ],
      "transaction": {
        "from": "0xb29e1dddfc73e00dee3eaa7ea102990adca78b39",
        "to": "0x60cec0218b501cf4e045cbdba3ef021374e1afac",
        "gas": "0x937a1",
        "value": "0x0",
        "input": "0xde6b497c000000000000000000000000285398f9ac1d317bca922691316bdf5b1493da710000000000000000000000000000000000000000000000000000000000000003000000000000000000000000000000000000000000000000000000000000000200000000000000000000000000000000000000000000003635c9adc5dea000000000000000000000000000000000000000000000000000000000000000000000000000000000000000000000b29e1dddfc73e00dee3eaa7ea102990adca78b390000000000000000000000000000000000000000000000000000000069e220bc",
        "nonce": "0x7d",
        "chainId": "0x14a34"
      },
      "additionalContracts": [],
      "isFixedGasLimit": false
    },
    {
      "hash": "0x2f93a1b404e50cc9472800dcd8bd418748ae52e09a67e3dbae47c3cb2f6c0fc2",
      "transactionType": "CALL",
      "contractName": null,
      "contractAddress": "0x60cec0218b501cf4e045cbdba3ef021374e1afac",
      "function": "exactInput((address,uint256,uint256,uint256,uint256,address,uint256))",
      "arguments": [
        "(0x285398F9Ac1D317Bca922691316BDf5B1493dA71, 0, 1, 1000000000000000000000, 0, 0xb29e1ddDfc73E00dEE3EaA7EA102990ADca78b39, 1776427196)"
      ],
      "transaction": {
        "from": "0xb29e1dddfc73e00dee3eaa7ea102990adca78b39",
        "to": "0x60cec0218b501cf4e045cbdba3ef021374e1afac",
        "gas": "0xa67a1",
        "value": "0x0",
        "input": "0xde6b497c000000000000000000000000285398f9ac1d317bca922691316bdf5b1493da710000000000000000000000000000000000000000000000000000000000000000000000000000000000000000000000000000000000000000000000000000000100000000000000000000000000000000000000000000003635c9adc5dea000000000000000000000000000000000000000000000000000000000000000000000000000000000000000000000b29e1dddfc73e00dee3eaa7ea102990adca78b390000000000000000000000000000000000000000000000000000000069e220bc",
        "nonce": "0x7e",
        "chainId": "0x14a34"
      },
      "additionalContracts": [],
      "isFixedGasLimit": false
    },
    {
      "hash": "0x0d923846c0beabe4a3b94559be6661a436ce4cc433c5199863e1148fe6ebaa3b",
      "transactionType": "CALL",
      "contractName": null,
      "contractAddress": "0x60cec0218b501cf4e045cbdba3ef021374e1afac",
      "function": "exactInput((address,uint256,uint256,uint256,uint256,address,uint256))",
      "arguments": [
        "(0x285398F9Ac1D317Bca922691316BDf5B1493dA71, 1, 2, 1000000000000000000000, 0, 0xb29e1ddDfc73E00dEE3EaA7EA102990ADca78b39, 1776427196)"
      ],
      "transaction": {
        "from": "0xb29e1dddfc73e00dee3eaa7ea102990adca78b39",
        "to": "0x60cec0218b501cf4e045cbdba3ef021374e1afac",
        "gas": "0xa01c1",
        "value": "0x0",
        "input": "0xde6b497c000000000000000000000000285398f9ac1d317bca922691316bdf5b1493da710000000000000000000000000000000000000000000000000000000000000001000000000000000000000000000000000000000000000000000000000000000200000000000000000000000000000000000000000000003635c9adc5dea000000000000000000000000000000000000000000000000000000000000000000000000000000000000000000000b29e1dddfc73e00dee3eaa7ea102990adca78b390000000000000000000000000000000000000000000000000000000069e220bc",
        "nonce": "0x7f",
        "chainId": "0x14a34"
      },
      "additionalContracts": [],
      "isFixedGasLimit": false
    },
    {
      "hash": "0xc5f3fc51efa4f7aefe2eb6c35404c1766bc6d96ab3a4954d90ae54e07973b1e1",
      "transactionType": "CALL",
      "contractName": null,
      "contractAddress": "0x60cec0218b501cf4e045cbdba3ef021374e1afac",
      "function": "exactInput((address,uint256,uint256,uint256,uint256,address,uint256))",
      "arguments": [
        "(0x285398F9Ac1D317Bca922691316BDf5B1493dA71, 2, 3, 1000000000000000000000, 0, 0xb29e1ddDfc73E00dEE3EaA7EA102990ADca78b39, 1776427196)"
      ],
      "transaction": {
        "from": "0xb29e1dddfc73e00dee3eaa7ea102990adca78b39",
        "to": "0x60cec0218b501cf4e045cbdba3ef021374e1afac",
        "gas": "0xa01c1",
        "value": "0x0",
        "input": "0xde6b497c000000000000000000000000285398f9ac1d317bca922691316bdf5b1493da710000000000000000000000000000000000000000000000000000000000000002000000000000000000000000000000000000000000000000000000000000000300000000000000000000000000000000000000000000003635c9adc5dea000000000000000000000000000000000000000000000000000000000000000000000000000000000000000000000b29e1dddfc73e00dee3eaa7ea102990adca78b390000000000000000000000000000000000000000000000000000000069e220bc",
        "nonce": "0x80",
        "chainId": "0x14a34"
      },
      "additionalContracts": [],
      "isFixedGasLimit": false
    },
    {
      "hash": "0x7b78b6b1a41091f9544db187d165529be75a56cf3635505ae650ccbc9de96d67",
      "transactionType": "CALL",
      "contractName": null,
      "contractAddress": "0x60cec0218b501cf4e045cbdba3ef021374e1afac",
      "function": "exactInput((address,uint256,uint256,uint256,uint256,address,uint256))",
      "arguments": [
        "(0x285398F9Ac1D317Bca922691316BDf5B1493dA71, 3, 0, 1000000000000000000000, 0, 0xb29e1ddDfc73E00dEE3EaA7EA102990ADca78b39, 1776427196)"
      ],
      "transaction": {
        "from": "0xb29e1dddfc73e00dee3eaa7ea102990adca78b39",
        "to": "0x60cec0218b501cf4e045cbdba3ef021374e1afac",
        "gas": "0xa5a29",
        "value": "0x0",
        "input": "0xde6b497c000000000000000000000000285398f9ac1d317bca922691316bdf5b1493da710000000000000000000000000000000000000000000000000000000000000003000000000000000000000000000000000000000000000000000000000000000000000000000000000000000000000000000000000000003635c9adc5dea000000000000000000000000000000000000000000000000000000000000000000000000000000000000000000000b29e1dddfc73e00dee3eaa7ea102990adca78b390000000000000000000000000000000000000000000000000000000069e220bc",
        "nonce": "0x81",
        "chainId": "0x14a34"
      },
      "additionalContracts": [],
      "isFixedGasLimit": false
    },
    {
      "hash": "0xff0ae3485d2cf5df63a868c6bc82620e2ede2fe8e41ecab2bc8bb56e30fc50ac",
      "transactionType": "CALL",
      "contractName": null,
      "contractAddress": "0x60cec0218b501cf4e045cbdba3ef021374e1afac",
      "function": "exactInput((address,uint256,uint256,uint256,uint256,address,uint256))",
      "arguments": [
        "(0x285398F9Ac1D317Bca922691316BDf5B1493dA71, 0, 2, 1000000000000000000000, 0, 0xb29e1ddDfc73E00dEE3EaA7EA102990ADca78b39, 1776427196)"
      ],
      "transaction": {
        "from": "0xb29e1dddfc73e00dee3eaa7ea102990adca78b39",
        "to": "0x60cec0218b501cf4e045cbdba3ef021374e1afac",
        "gas": "0x9d3a0",
        "value": "0x0",
        "input": "0xde6b497c000000000000000000000000285398f9ac1d317bca922691316bdf5b1493da710000000000000000000000000000000000000000000000000000000000000000000000000000000000000000000000000000000000000000000000000000000200000000000000000000000000000000000000000000003635c9adc5dea000000000000000000000000000000000000000000000000000000000000000000000000000000000000000000000b29e1dddfc73e00dee3eaa7ea102990adca78b390000000000000000000000000000000000000000000000000000000069e220bc",
        "nonce": "0x82",
        "chainId": "0x14a34"
      },
      "additionalContracts": [],
      "isFixedGasLimit": false
    },
    {
      "hash": "0xe791bec96fd13a21f6442c8641c2237dd3486211d6caf3a5e215c8e369729810",
      "transactionType": "CALL",
      "contractName": null,
      "contractAddress": "0x60cec0218b501cf4e045cbdba3ef021374e1afac",
      "function": "exactInput((address,uint256,uint256,uint256,uint256,address,uint256))",
      "arguments": [
        "(0x285398F9Ac1D317Bca922691316BDf5B1493dA71, 1, 3, 1000000000000000000000, 0, 0xb29e1ddDfc73E00dEE3EaA7EA102990ADca78b39, 1776427196)"
      ],
      "transaction": {
        "from": "0xb29e1dddfc73e00dee3eaa7ea102990adca78b39",
        "to": "0x60cec0218b501cf4e045cbdba3ef021374e1afac",
        "gas": "0xa70b9",
        "value": "0x0",
        "input": "0xde6b497c000000000000000000000000285398f9ac1d317bca922691316bdf5b1493da710000000000000000000000000000000000000000000000000000000000000001000000000000000000000000000000000000000000000000000000000000000300000000000000000000000000000000000000000000003635c9adc5dea000000000000000000000000000000000000000000000000000000000000000000000000000000000000000000000b29e1dddfc73e00dee3eaa7ea102990adca78b390000000000000000000000000000000000000000000000000000000069e220bc",
        "nonce": "0x83",
        "chainId": "0x14a34"
      },
      "additionalContracts": [],
      "isFixedGasLimit": false
    },
    {
      "hash": "0x6800aa67597417224eb92bed5bccdbd40b255034ebb63a5902248b2a5ff107c2",
      "transactionType": "CALL",
      "contractName": null,
      "contractAddress": "0x60cec0218b501cf4e045cbdba3ef021374e1afac",
      "function": "exactInput((address,uint256,uint256,uint256,uint256,address,uint256))",
      "arguments": [
        "(0x285398F9Ac1D317Bca922691316BDf5B1493dA71, 2, 0, 1000000000000000000000, 0, 0xb29e1ddDfc73E00dEE3EaA7EA102990ADca78b39, 1776427196)"
      ],
      "transaction": {
        "from": "0xb29e1dddfc73e00dee3eaa7ea102990adca78b39",
        "to": "0x60cec0218b501cf4e045cbdba3ef021374e1afac",
        "gas": "0xaa382",
        "value": "0x0",
        "input": "0xde6b497c000000000000000000000000285398f9ac1d317bca922691316bdf5b1493da710000000000000000000000000000000000000000000000000000000000000002000000000000000000000000000000000000000000000000000000000000000000000000000000000000000000000000000000000000003635c9adc5dea000000000000000000000000000000000000000000000000000000000000000000000000000000000000000000000b29e1dddfc73e00dee3eaa7ea102990adca78b390000000000000000000000000000000000000000000000000000000069e220bc",
        "nonce": "0x84",
        "chainId": "0x14a34"
      },
      "additionalContracts": [],
      "isFixedGasLimit": false
    },
    {
      "hash": "0x9dae9e4e28f4b5bb37930806484cf6a45cd83dec7f70c36f8cb334a58f7c5c3c",
      "transactionType": "CALL",
      "contractName": null,
      "contractAddress": "0x60cec0218b501cf4e045cbdba3ef021374e1afac",
      "function": "exactInput((address,uint256,uint256,uint256,uint256,address,uint256))",
      "arguments": [
        "(0x285398F9Ac1D317Bca922691316BDf5B1493dA71, 3, 1, 1000000000000000000000, 0, 0xb29e1ddDfc73E00dEE3EaA7EA102990ADca78b39, 1776427196)"
      ],
      "transaction": {
        "from": "0xb29e1dddfc73e00dee3eaa7ea102990adca78b39",
        "to": "0x60cec0218b501cf4e045cbdba3ef021374e1afac",
        "gas": "0xa64a7",
        "value": "0x0",
        "input": "0xde6b497c000000000000000000000000285398f9ac1d317bca922691316bdf5b1493da710000000000000000000000000000000000000000000000000000000000000003000000000000000000000000000000000000000000000000000000000000000100000000000000000000000000000000000000000000003635c9adc5dea000000000000000000000000000000000000000000000000000000000000000000000000000000000000000000000b29e1dddfc73e00dee3eaa7ea102990adca78b390000000000000000000000000000000000000000000000000000000069e220bc",
        "nonce": "0x85",
        "chainId": "0x14a34"
      },
      "additionalContracts": [],
      "isFixedGasLimit": false
    }
  ],
  "receipts": [
    {
      "type": "0x2",
      "status": "0x1",
      "cumulativeGasUsed": "0x338b23",
      "logs": [
        {
          "address": "0x44406ad771b05827f5fd95b002189e51eebedc91",
          "topics": [
            "0xddf252ad1be2c89b69c2b068fc378daa952ba7f163c4a11628f55a4df523b3ef",
            "0x0000000000000000000000000000000000000000000000000000000000000000",
            "0x000000000000000000000000b29e1dddfc73e00dee3eaa7ea102990adca78b39"
          ],
          "data": "0x00000000000000000000000000000000000000000000d3c21bcecceda1000000",
          "blockHash": "0xf9828c9320f41f0269b7bcab25a85023c1c8c15427d5c7f29807a52d2d7683c2",
          "blockNumber": "0x2675fe1",
          "blockTimestamp": "0x69e21ea2",
          "transactionHash": "0x4480f1b16ea1ec89b0f8f969aa0361dfe01688604878b4519cb999533d6d2981",
          "transactionIndex": "0x9",
          "logIndex": "0x31",
          "removed": false
        }
      ],
      "logsBloom": "0x00000000000000000000000000000000000010000000000000000000000000000000000000000000000000000000000000000100000000000000000000000000000000000000000000000008000000000000000000000000000000000000000000000000020000000000000000000800000000000000000000000010000000000000000000000000000000000000000000000001000000000000000000000000000000000000000000000000000000000000000000000000000000000000000000000002000000000000000000000000004000000000000000000100000020000000000000000000000000000000000000000000000000000400000000000000",
      "transactionHash": "0x4480f1b16ea1ec89b0f8f969aa0361dfe01688604878b4519cb999533d6d2981",
      "transactionIndex": "0x9",
      "blockHash": "0xf9828c9320f41f0269b7bcab25a85023c1c8c15427d5c7f29807a52d2d7683c2",
      "blockNumber": "0x2675fe1",
      "gasUsed": "0x848c",
      "effectiveGasPrice": "0x5b8d80",
      "blobGasUsed": "0x39d0",
      "from": "0xb29e1dddfc73e00dee3eaa7ea102990adca78b39",
      "to": "0x44406ad771b05827f5fd95b002189e51eebedc91",
      "contractAddress": null,
      "l1GasPrice": "0x1881bfd",
      "l1GasUsed": "0x640",
      "l1Fee": "0x8155903",
      "l1BaseFeeScalar": "0x44d",
      "l1BlobBaseFee": "0x14e489",
      "l1BlobBaseFeeScalar": "0xa118b",
      "daFootprintGasScalar": "0x94"
    },
    {
      "type": "0x2",
      "status": "0x1",
      "cumulativeGasUsed": "0x340faf",
      "logs": [
        {
          "address": "0x168deb69184ea184aadb8a626dc4d3013dc08fe8",
          "topics": [
            "0xddf252ad1be2c89b69c2b068fc378daa952ba7f163c4a11628f55a4df523b3ef",
            "0x0000000000000000000000000000000000000000000000000000000000000000",
            "0x000000000000000000000000b29e1dddfc73e00dee3eaa7ea102990adca78b39"
          ],
          "data": "0x00000000000000000000000000000000000000000000d3c21bcecceda1000000",
          "blockHash": "0xf9828c9320f41f0269b7bcab25a85023c1c8c15427d5c7f29807a52d2d7683c2",
          "blockNumber": "0x2675fe1",
          "blockTimestamp": "0x69e21ea2",
          "transactionHash": "0x0318792a4ef3432b030c7d7f3fbb9e3252f2486383530732b15a2c06ff742529",
          "transactionIndex": "0xa",
          "logIndex": "0x32",
          "removed": false
        }
      ],
      "logsBloom": "0x00000000000000000000000000000000000800000000000000000000000000000000000000000002000000000000000000000000000000000000000000000000000000010000000000000008000000000000000000000000000000000000000000000000020000000000000000000800000000000000000000000010000000000000000000000000000000000000000000000001000000000000000000000000000000000000000000000000000000000000000000000000000000000000000000000002000000000000000000000000004000000000000000000000000020000000000000000000000000000000000000000000000000000400000000000000",
      "transactionHash": "0x0318792a4ef3432b030c7d7f3fbb9e3252f2486383530732b15a2c06ff742529",
      "transactionIndex": "0xa",
      "blockHash": "0xf9828c9320f41f0269b7bcab25a85023c1c8c15427d5c7f29807a52d2d7683c2",
      "blockNumber": "0x2675fe1",
      "gasUsed": "0x848c",
      "effectiveGasPrice": "0x5b8d80",
      "blobGasUsed": "0x39d0",
      "from": "0xb29e1dddfc73e00dee3eaa7ea102990adca78b39",
      "to": "0x168deb69184ea184aadb8a626dc4d3013dc08fe8",
      "contractAddress": null,
      "l1GasPrice": "0x1881bfd",
      "l1GasUsed": "0x640",
      "l1Fee": "0x8155903",
      "l1BaseFeeScalar": "0x44d",
      "l1BlobBaseFee": "0x14e489",
      "l1BlobBaseFeeScalar": "0xa118b",
      "daFootprintGasScalar": "0x94"
    },
    {
      "type": "0x2",
      "status": "0x1",
      "cumulativeGasUsed": "0x34943b",
      "logs": [
        {
          "address": "0x60cb112631ce92f9fe164878d690fac1fd1c295d",
          "topics": [
            "0xddf252ad1be2c89b69c2b068fc378daa952ba7f163c4a11628f55a4df523b3ef",
            "0x0000000000000000000000000000000000000000000000000000000000000000",
            "0x000000000000000000000000b29e1dddfc73e00dee3eaa7ea102990adca78b39"
          ],
          "data": "0x00000000000000000000000000000000000000000000d3c21bcecceda1000000",
          "blockHash": "0xf9828c9320f41f0269b7bcab25a85023c1c8c15427d5c7f29807a52d2d7683c2",
          "blockNumber": "0x2675fe1",
          "blockTimestamp": "0x69e21ea2",
          "transactionHash": "0xe9465dc5cde7d30032642a8adcb35fb9ce223a39891845aab72638030c579a99",
          "transactionIndex": "0xb",
          "logIndex": "0x33",
          "removed": false
        }
      ],
      "logsBloom": "0x00000000000000000000000000000000000000000004000000000000000000000000000000000000000000000000000000000000000000000000000000000000000000000000000000000008000000000000002000000001000000000000000000000000020000000000000000000800000000000000000000000010000000000000000000000000000000000000000000000001000000000000000000000000000000000000000000000000000000000000000000000000000000000000000000000002000000000000000000000000004000000000000000000000000020000000000000000000000000000000000000000000000000000400000000000000",
      "transactionHash": "0xe9465dc5cde7d30032642a8adcb35fb9ce223a39891845aab72638030c579a99",
      "transactionIndex": "0xb",
      "blockHash": "0xf9828c9320f41f0269b7bcab25a85023c1c8c15427d5c7f29807a52d2d7683c2",
      "blockNumber": "0x2675fe1",
      "gasUsed": "0x848c",
      "effectiveGasPrice": "0x5b8d80",
      "blobGasUsed": "0x39d0",
      "from": "0xb29e1dddfc73e00dee3eaa7ea102990adca78b39",
      "to": "0x60cb112631ce92f9fe164878d690fac1fd1c295d",
      "contractAddress": null,
      "l1GasPrice": "0x1881bfd",
      "l1GasUsed": "0x640",
      "l1Fee": "0x8155903",
      "l1BaseFeeScalar": "0x44d",
      "l1BlobBaseFee": "0x14e489",
      "l1BlobBaseFeeScalar": "0xa118b",
      "daFootprintGasScalar": "0x94"
    },
    {
      "type": "0x2",
      "status": "0x1",
      "cumulativeGasUsed": "0x3518c7",
      "logs": [
        {
          "address": "0x39855b7de333de50a7b2e97a3a3e2ec1cf0411a9",
          "topics": [
            "0xddf252ad1be2c89b69c2b068fc378daa952ba7f163c4a11628f55a4df523b3ef",
            "0x0000000000000000000000000000000000000000000000000000000000000000",
            "0x000000000000000000000000b29e1dddfc73e00dee3eaa7ea102990adca78b39"
          ],
          "data": "0x00000000000000000000000000000000000000000000d3c21bcecceda1000000",
          "blockHash": "0xf9828c9320f41f0269b7bcab25a85023c1c8c15427d5c7f29807a52d2d7683c2",
          "blockNumber": "0x2675fe1",
          "blockTimestamp": "0x69e21ea2",
          "transactionHash": "0xfa64bdcf936a46f6af8700b7687a4727a3657c0e8c60f0773b204ac0e1b83f41",
          "transactionIndex": "0xc",
          "logIndex": "0x34",
          "removed": false
        }
      ],
      "logsBloom": "0x00000000000000000000000000000000000000000000000000000000000000000000100000000000000000000000000000000000000000000000000000000000000000000000000000000008000000000000000000000000000000000000000000000000020000000000000000000800000000000000010000000010000000000000000000000000000000000000000000000001000000000000000000000000000000000000000000000000000000000000000000000000000000000000000000000002000000000000000000000000004000000000000000000000000020000000000000000000000000000000000000000000000000008400000000000000",
      "transactionHash": "0xfa64bdcf936a46f6af8700b7687a4727a3657c0e8c60f0773b204ac0e1b83f41",
      "transactionIndex": "0xc",
      "blockHash": "0xf9828c9320f41f0269b7bcab25a85023c1c8c15427d5c7f29807a52d2d7683c2",
      "blockNumber": "0x2675fe1",
      "gasUsed": "0x848c",
      "effectiveGasPrice": "0x5b8d80",
      "blobGasUsed": "0x39d0",
      "from": "0xb29e1dddfc73e00dee3eaa7ea102990adca78b39",
      "to": "0x39855b7de333de50a7b2e97a3a3e2ec1cf0411a9",
      "contractAddress": null,
      "l1GasPrice": "0x1881bfd",
      "l1GasUsed": "0x640",
      "l1Fee": "0x8155903",
      "l1BaseFeeScalar": "0x44d",
      "l1BlobBaseFee": "0x14e489",
      "l1BlobBaseFeeScalar": "0xa118b",
      "daFootprintGasScalar": "0x94"
    },
    {
      "type": "0x2",
      "status": "0x1",
      "cumulativeGasUsed": "0x357fd6",
      "logs": [
        {
          "address": "0x44406ad771b05827f5fd95b002189e51eebedc91",
          "topics": [
            "0x8c5be1e5ebec7d5bd14f71427d1e84f3dd0314c0f7b2291e5b200ac8c7c3b925",
            "0x000000000000000000000000b29e1dddfc73e00dee3eaa7ea102990adca78b39",
            "0x00000000000000000000000008ac49be269f1c6c2821d56c4c729c9843152ee3"
          ],
          "data": "0xffffffffffffffffffffffffffffffffffffffffffffffffffffffffffffffff",
          "blockHash": "0xf9828c9320f41f0269b7bcab25a85023c1c8c15427d5c7f29807a52d2d7683c2",
          "blockNumber": "0x2675fe1",
          "blockTimestamp": "0x69e21ea2",
          "transactionHash": "0x23fbfe61e903c95c156c6d8aaebee3ef0ab0d69c2806c3b75341f05414863857",
          "transactionIndex": "0xd",
          "logIndex": "0x35",
          "removed": false
        }
      ],
      "logsBloom": "0x00000000000000000000000000000000020010000000000000000000000000000000000000000000000000000000000000000100000000000000000000200000000000000000000000000000000000000000000000000000000000000000000000000000000000000040000000000000000000000000000000000000000000000000000008000000000000000000000000000001000000000000000000000000020000000000000000000000000000000000000000000000000000000000000000000000000000000000000000000000004000000000000000000100000000000010000000000000000000000000000000000000000000000400000000000000",
      "transactionHash": "0x23fbfe61e903c95c156c6d8aaebee3ef0ab0d69c2806c3b75341f05414863857",
      "transactionIndex": "0xd",
      "blockHash": "0xf9828c9320f41f0269b7bcab25a85023c1c8c15427d5c7f29807a52d2d7683c2",
      "blockNumber": "0x2675fe1",
      "gasUsed": "0x670f",
      "effectiveGasPrice": "0x5b8d80",
      "blobGasUsed": "0x39d0",
      "from": "0xb29e1dddfc73e00dee3eaa7ea102990adca78b39",
      "to": "0x44406ad771b05827f5fd95b002189e51eebedc91",
      "contractAddress": null,
      "l1GasPrice": "0x1881bfd",
      "l1GasUsed": "0x640",
      "l1Fee": "0x8155903",
      "l1BaseFeeScalar": "0x44d",
      "l1BlobBaseFee": "0x14e489",
      "l1BlobBaseFeeScalar": "0xa118b",
      "daFootprintGasScalar": "0x94"
    },
    {
      "type": "0x2",
      "status": "0x1",
      "cumulativeGasUsed": "0x35e6e5",
      "logs": [
        {
          "address": "0x44406ad771b05827f5fd95b002189e51eebedc91",
          "topics": [
            "0x8c5be1e5ebec7d5bd14f71427d1e84f3dd0314c0f7b2291e5b200ac8c7c3b925",
            "0x000000000000000000000000b29e1dddfc73e00dee3eaa7ea102990adca78b39",
            "0x00000000000000000000000060cec0218b501cf4e045cbdba3ef021374e1afac"
          ],
          "data": "0xffffffffffffffffffffffffffffffffffffffffffffffffffffffffffffffff",
          "blockHash": "0xf9828c9320f41f0269b7bcab25a85023c1c8c15427d5c7f29807a52d2d7683c2",
          "blockNumber": "0x2675fe1",
          "blockTimestamp": "0x69e21ea2",
          "transactionHash": "0xe56837cfa78277399954a1607fa140d11ec5523297f41fc3db8fb045cf64a2d3",
          "transactionIndex": "0xe",
          "logIndex": "0x36",
          "removed": false
        }
      ],
      "logsBloom": "0x00000000000000000000000000000000000010000000000000000000000000000000000000000000000000000000000000000100000000000000000000200000000000000000000000000000000000000000000000000000000000000000000000000000000000000000000000000000000000000000000000000000000000000000000000000000000000000000000000000001000000000000000000000000020000000000000000000000000000000000000000000000000000000000000800000000000000000000000000000000004000000000000000000104000000100010000000000000000000000000000000000000000000000400000000000000",
      "transactionHash": "0xe56837cfa78277399954a1607fa140d11ec5523297f41fc3db8fb045cf64a2d3",
      "transactionIndex": "0xe",
      "blockHash": "0xf9828c9320f41f0269b7bcab25a85023c1c8c15427d5c7f29807a52d2d7683c2",
      "blockNumber": "0x2675fe1",
      "gasUsed": "0x670f",
      "effectiveGasPrice": "0x5b8d80",
      "blobGasUsed": "0x39d0",
      "from": "0xb29e1dddfc73e00dee3eaa7ea102990adca78b39",
      "to": "0x44406ad771b05827f5fd95b002189e51eebedc91",
      "contractAddress": null,
      "l1GasPrice": "0x1881bfd",
      "l1GasUsed": "0x640",
      "l1Fee": "0x8155903",
      "l1BaseFeeScalar": "0x44d",
      "l1BlobBaseFee": "0x14e489",
      "l1BlobBaseFeeScalar": "0xa118b",
      "daFootprintGasScalar": "0x94"
    },
    {
      "type": "0x2",
      "status": "0x1",
      "cumulativeGasUsed": "0x6c36d",
      "logs": [
        {
          "address": "0x168deb69184ea184aadb8a626dc4d3013dc08fe8",
          "topics": [
            "0x8c5be1e5ebec7d5bd14f71427d1e84f3dd0314c0f7b2291e5b200ac8c7c3b925",
            "0x000000000000000000000000b29e1dddfc73e00dee3eaa7ea102990adca78b39",
            "0x00000000000000000000000008ac49be269f1c6c2821d56c4c729c9843152ee3"
          ],
          "data": "0xffffffffffffffffffffffffffffffffffffffffffffffffffffffffffffffff",
          "blockHash": "0x0000000000000000000000000000000000000000000000000000000000000000",
          "blockNumber": "0x2675fe2",
          "blockTimestamp": "0x69e21ea4",
          "transactionHash": "0x5fbff3a6c846182354081698ad65b8c013492103c152d8e3157640f567684b3c",
          "transactionIndex": "0x2",
          "logIndex": "0xb",
          "removed": false
        }
      ],
      "logsBloom": "0x00000000000000000000000000000000020800000000000000000000000000000000000000000002000000000000000000000000000000000000000000200000000000010000000000000000000000000000000000000000000000000000000000000000000000000040000000000000000000000000000000000000000000000000000008000000000000000000000000000001000000000000000000000000020000000000000000000000000000000000000000000000000000000000000000000000000000000000000000000000004000000000000000000000000000000010000000000000000000000000000000000000000000000400000000000000",
      "transactionHash": "0x5fbff3a6c846182354081698ad65b8c013492103c152d8e3157640f567684b3c",
      "transactionIndex": "0x2",
      "blockHash": "0x0000000000000000000000000000000000000000000000000000000000000000",
      "blockNumber": "0x2675fe2",
      "gasUsed": "0x670f",
      "effectiveGasPrice": "0x5b8d80",
      "blobGasUsed": "0x39d0",
      "from": "0xb29e1dddfc73e00dee3eaa7ea102990adca78b39",
      "to": "0x168deb69184ea184aadb8a626dc4d3013dc08fe8",
      "contractAddress": null,
      "l1GasPrice": "0x1881bfd",
      "l1GasUsed": "0x640",
      "l1Fee": "0x2b7bf5f9",
      "l1BaseFeeScalar": "0x44d",
      "l1BlobBaseFee": "0x14e489",
      "l1BlobBaseFeeScalar": "0xa118b",
      "daFootprintGasScalar": "0x94"
    },
    {
      "type": "0x2",
      "status": "0x1",
      "cumulativeGasUsed": "0x72a7c",
      "logs": [
        {
          "address": "0x168deb69184ea184aadb8a626dc4d3013dc08fe8",
          "topics": [
            "0x8c5be1e5ebec7d5bd14f71427d1e84f3dd0314c0f7b2291e5b200ac8c7c3b925",
            "0x000000000000000000000000b29e1dddfc73e00dee3eaa7ea102990adca78b39",
            "0x00000000000000000000000060cec0218b501cf4e045cbdba3ef021374e1afac"
          ],
          "data": "0xffffffffffffffffffffffffffffffffffffffffffffffffffffffffffffffff",
          "blockHash": "0x0000000000000000000000000000000000000000000000000000000000000000",
          "blockNumber": "0x2675fe2",
          "blockTimestamp": "0x69e21ea4",
          "transactionHash": "0x06eaa8e4873a06ff53dcb1aa2c3b07d08c1744d71bbfda70868552af7d83ef49",
          "transactionIndex": "0x3",
          "logIndex": "0xc",
          "removed": false
        }
      ],
      "logsBloom": "0x00000000000000000000000000000000000800000000000000000000000000000000000000000002000000000000000000000000000000000000000000200000000000010000000000000000000000000000000000000000000000000000000000000000000000000000000000000000000000000000000000000000000000000000000000000000000000000000000000000001000000000000000000000000020000000000000000000000000000000000000000000000000000000000000800000000000000000000000000000000004000000000000000000004000000100010000000000000000000000000000000000000000000000400000000000000",
      "transactionHash": "0x06eaa8e4873a06ff53dcb1aa2c3b07d08c1744d71bbfda70868552af7d83ef49",
      "transactionIndex": "0x3",
      "blockHash": "0x0000000000000000000000000000000000000000000000000000000000000000",
      "blockNumber": "0x2675fe2",
      "gasUsed": "0x670f",
      "effectiveGasPrice": "0x5b8d80",
      "blobGasUsed": "0x39d0",
      "from": "0xb29e1dddfc73e00dee3eaa7ea102990adca78b39",
      "to": "0x168deb69184ea184aadb8a626dc4d3013dc08fe8",
      "contractAddress": null,
      "l1GasPrice": "0x1881bfd",
      "l1GasUsed": "0x640",
      "l1Fee": "0x2b7bf5f9",
      "l1BaseFeeScalar": "0x44d",
      "l1BlobBaseFee": "0x14e489",
      "l1BlobBaseFeeScalar": "0xa118b",
      "daFootprintGasScalar": "0x94"
    },
    {
      "type": "0x2",
      "status": "0x1",
      "cumulativeGasUsed": "0x7918b",
      "logs": [
        {
          "address": "0x60cb112631ce92f9fe164878d690fac1fd1c295d",
          "topics": [
            "0x8c5be1e5ebec7d5bd14f71427d1e84f3dd0314c0f7b2291e5b200ac8c7c3b925",
            "0x000000000000000000000000b29e1dddfc73e00dee3eaa7ea102990adca78b39",
            "0x00000000000000000000000008ac49be269f1c6c2821d56c4c729c9843152ee3"
          ],
          "data": "0xffffffffffffffffffffffffffffffffffffffffffffffffffffffffffffffff",
          "blockHash": "0x0000000000000000000000000000000000000000000000000000000000000000",
          "blockNumber": "0x2675fe2",
          "blockTimestamp": "0x69e21ea4",
          "transactionHash": "0xe8fb86b592564983c0270742454474ee2fc052dd57d8179cbe684ad47d3cbd0b",
          "transactionIndex": "0x4",
          "logIndex": "0xd",
          "removed": false
        }
      ],
      "logsBloom": "0x00000000000000000000000000000000020000000004000000000000000000000000000000000000000000000000000000000000000000000000000000200000000000000000000000000000000000000000002000000001000000000000000000000000000000000040000000000000000000000000000000000000000000000000000008000000000000000000000000000001000000000000000000000000020000000000000000000000000000000000000000000000000000000000000000000000000000000000000000000000004000000000000000000000000000000010000000000000000000000000000000000000000000000400000000000000",
      "transactionHash": "0xe8fb86b592564983c0270742454474ee2fc052dd57d8179cbe684ad47d3cbd0b",
      "transactionIndex": "0x4",
      "blockHash": "0x0000000000000000000000000000000000000000000000000000000000000000",
      "blockNumber": "0x2675fe2",
      "gasUsed": "0x670f",
      "effectiveGasPrice": "0x5b8d80",
      "blobGasUsed": "0x39d0",
      "from": "0xb29e1dddfc73e00dee3eaa7ea102990adca78b39",
      "to": "0x60cb112631ce92f9fe164878d690fac1fd1c295d",
      "contractAddress": null,
      "l1GasPrice": "0x1881bfd",
      "l1GasUsed": "0x640",
      "l1Fee": "0x2b7bf5f9",
      "l1BaseFeeScalar": "0x44d",
      "l1BlobBaseFee": "0x14e489",
      "l1BlobBaseFeeScalar": "0xa118b",
      "daFootprintGasScalar": "0x94"
    },
    {
      "type": "0x2",
      "status": "0x1",
      "cumulativeGasUsed": "0x7f89a",
      "logs": [
        {
          "address": "0x60cb112631ce92f9fe164878d690fac1fd1c295d",
          "topics": [
            "0x8c5be1e5ebec7d5bd14f71427d1e84f3dd0314c0f7b2291e5b200ac8c7c3b925",
            "0x000000000000000000000000b29e1dddfc73e00dee3eaa7ea102990adca78b39",
            "0x00000000000000000000000060cec0218b501cf4e045cbdba3ef021374e1afac"
          ],
          "data": "0xffffffffffffffffffffffffffffffffffffffffffffffffffffffffffffffff",
          "blockHash": "0x0000000000000000000000000000000000000000000000000000000000000000",
          "blockNumber": "0x2675fe2",
          "blockTimestamp": "0x69e21ea4",
          "transactionHash": "0x5b0333ecf6024beaa6f518842ada7918d78efd73aa22393e5ecb5f1de270863c",
          "transactionIndex": "0x5",
          "logIndex": "0xe",
          "removed": false
        }
      ],
      "logsBloom": "0x00000000000000000000000000000000000000000004000000000000000000000000000000000000000000000000000000000000000000000000000000200000000000000000000000000000000000000000002000000001000000000000000000000000000000000000000000000000000000000000000000000000000000000000000000000000000000000000000000000001000000000000000000000000020000000000000000000000000000000000000000000000000000000000000800000000000000000000000000000000004000000000000000000004000000100010000000000000000000000000000000000000000000000400000000000000",
      "transactionHash": "0x5b0333ecf6024beaa6f518842ada7918d78efd73aa22393e5ecb5f1de270863c",
      "transactionIndex": "0x5",
      "blockHash": "0x0000000000000000000000000000000000000000000000000000000000000000",
      "blockNumber": "0x2675fe2",
      "gasUsed": "0x670f",
      "effectiveGasPrice": "0x5b8d80",
      "blobGasUsed": "0x39d0",
      "from": "0xb29e1dddfc73e00dee3eaa7ea102990adca78b39",
      "to": "0x60cb112631ce92f9fe164878d690fac1fd1c295d",
      "contractAddress": null,
      "l1GasPrice": "0x1881bfd",
      "l1GasUsed": "0x640",
      "l1Fee": "0x2b7bf5f9",
      "l1BaseFeeScalar": "0x44d",
      "l1BlobBaseFee": "0x14e489",
      "l1BlobBaseFeeScalar": "0xa118b",
      "daFootprintGasScalar": "0x94"
    },
    {
      "type": "0x2",
      "status": "0x1",
      "cumulativeGasUsed": "0x85fa9",
      "logs": [
        {
          "address": "0x39855b7de333de50a7b2e97a3a3e2ec1cf0411a9",
          "topics": [
            "0x8c5be1e5ebec7d5bd14f71427d1e84f3dd0314c0f7b2291e5b200ac8c7c3b925",
            "0x000000000000000000000000b29e1dddfc73e00dee3eaa7ea102990adca78b39",
            "0x00000000000000000000000008ac49be269f1c6c2821d56c4c729c9843152ee3"
          ],
          "data": "0xffffffffffffffffffffffffffffffffffffffffffffffffffffffffffffffff",
          "blockHash": "0x0000000000000000000000000000000000000000000000000000000000000000",
          "blockNumber": "0x2675fe2",
          "blockTimestamp": "0x69e21ea4",
          "transactionHash": "0xac2c61d2a3ee7775ea1d8d19d1e75ead4cbfbfb2fda5842cecd0d3cd839d5125",
          "transactionIndex": "0x6",
          "logIndex": "0xf",
          "removed": false
        }
      ],
      "logsBloom": "0x00000000000000000000000000000000020000000000000000000000000000000000100000000000000000000000000000000000000000000000000000200000000000000000000000000000000000000000000000000000000000000000000000000000000000000040000000000000000000000000010000000000000000000000000008000000000000000000000000000001000000000000000000000000020000000000000000000000000000000000000000000000000000000000000000000000000000000000000000000000004000000000000000000000000000000010000000000000000000000000000000000000000000008400000000000000",
      "transactionHash": "0xac2c61d2a3ee7775ea1d8d19d1e75ead4cbfbfb2fda5842cecd0d3cd839d5125",
      "transactionIndex": "0x6",
      "blockHash": "0x0000000000000000000000000000000000000000000000000000000000000000",
      "blockNumber": "0x2675fe2",
      "gasUsed": "0x670f",
      "effectiveGasPrice": "0x5b8d80",
      "blobGasUsed": "0x39d0",
      "from": "0xb29e1dddfc73e00dee3eaa7ea102990adca78b39",
      "to": "0x39855b7de333de50a7b2e97a3a3e2ec1cf0411a9",
      "contractAddress": null,
      "l1GasPrice": "0x1881bfd",
      "l1GasUsed": "0x640",
      "l1Fee": "0x2b7bf5f9",
      "l1BaseFeeScalar": "0x44d",
      "l1BlobBaseFee": "0x14e489",
      "l1BlobBaseFeeScalar": "0xa118b",
      "daFootprintGasScalar": "0x94"
    },
    {
      "type": "0x2",
      "status": "0x1",
      "cumulativeGasUsed": "0x8c6b8",
      "logs": [
        {
          "address": "0x39855b7de333de50a7b2e97a3a3e2ec1cf0411a9",
          "topics": [
            "0x8c5be1e5ebec7d5bd14f71427d1e84f3dd0314c0f7b2291e5b200ac8c7c3b925",
            "0x000000000000000000000000b29e1dddfc73e00dee3eaa7ea102990adca78b39",
            "0x00000000000000000000000060cec0218b501cf4e045cbdba3ef021374e1afac"
          ],
          "data": "0xffffffffffffffffffffffffffffffffffffffffffffffffffffffffffffffff",
          "blockHash": "0x0000000000000000000000000000000000000000000000000000000000000000",
          "blockNumber": "0x2675fe2",
          "blockTimestamp": "0x69e21ea4",
          "transactionHash": "0x33d6be35bc4874578e5bbfbf0f168e8a55778085c1c13f84be726eb3b9441e9d",
          "transactionIndex": "0x7",
          "logIndex": "0x10",
          "removed": false
        }
      ],
      "logsBloom": "0x00000000000000000000000000000000000000000000000000000000000000000000100000000000000000000000000000000000000000000000000000200000000000000000000000000000000000000000000000000000000000000000000000000000000000000000000000000000000000000000010000000000000000000000000000000000000000000000000000000001000000000000000000000000020000000000000000000000000000000000000000000000000000000000000800000000000000000000000000000000004000000000000000000004000000100010000000000000000000000000000000000000000000008400000000000000",
      "transactionHash": "0x33d6be35bc4874578e5bbfbf0f168e8a55778085c1c13f84be726eb3b9441e9d",
      "transactionIndex": "0x7",
      "blockHash": "0x0000000000000000000000000000000000000000000000000000000000000000",
      "blockNumber": "0x2675fe2",
      "gasUsed": "0x670f",
      "effectiveGasPrice": "0x5b8d80",
      "blobGasUsed": "0x39d0",
      "from": "0xb29e1dddfc73e00dee3eaa7ea102990adca78b39",
      "to": "0x39855b7de333de50a7b2e97a3a3e2ec1cf0411a9",
      "contractAddress": null,
      "l1GasPrice": "0x1881bfd",
      "l1GasUsed": "0x640",
      "l1Fee": "0x2b7bf5f9",
      "l1BaseFeeScalar": "0x44d",
      "l1BlobBaseFee": "0x14e489",
      "l1BlobBaseFeeScalar": "0xa118b",
      "daFootprintGasScalar": "0x94"
    },
    {
      "type": "0x2",
      "status": "0x1",
      "cumulativeGasUsed": "0x139234",
      "logs": [
        {
          "address": "0x168deb69184ea184aadb8a626dc4d3013dc08fe8",
          "topics": [
            "0xddf252ad1be2c89b69c2b068fc378daa952ba7f163c4a11628f55a4df523b3ef",
            "0x000000000000000000000000b29e1dddfc73e00dee3eaa7ea102990adca78b39",
            "0x000000000000000000000000285398f9ac1d317bca922691316bdf5b1493da71"
          ],
          "data": "0x000000000000000000000000000000000000000000002a5a058fc295ed000000",
          "blockHash": "0x0000000000000000000000000000000000000000000000000000000000000000",
          "blockNumber": "0x2675fe2",
          "blockTimestamp": "0x69e21ea4",
          "transactionHash": "0x057d78cdfc3fef8c1f468d5e9590607d9527d06fb1d3c65c87ccdb47a858d9f0",
          "transactionIndex": "0x8",
          "logIndex": "0x11",
          "removed": false
        },
        {
          "address": "0x39855b7de333de50a7b2e97a3a3e2ec1cf0411a9",
          "topics": [
            "0xddf252ad1be2c89b69c2b068fc378daa952ba7f163c4a11628f55a4df523b3ef",
            "0x000000000000000000000000b29e1dddfc73e00dee3eaa7ea102990adca78b39",
            "0x000000000000000000000000285398f9ac1d317bca922691316bdf5b1493da71"
          ],
          "data": "0x000000000000000000000000000000000000000000002a5a058fc295ed000000",
          "blockHash": "0x0000000000000000000000000000000000000000000000000000000000000000",
          "blockNumber": "0x2675fe2",
          "blockTimestamp": "0x69e21ea4",
          "transactionHash": "0x057d78cdfc3fef8c1f468d5e9590607d9527d06fb1d3c65c87ccdb47a858d9f0",
          "transactionIndex": "0x8",
          "logIndex": "0x12",
          "removed": false
        },
        {
          "address": "0x44406ad771b05827f5fd95b002189e51eebedc91",
          "topics": [
            "0xddf252ad1be2c89b69c2b068fc378daa952ba7f163c4a11628f55a4df523b3ef",
            "0x000000000000000000000000b29e1dddfc73e00dee3eaa7ea102990adca78b39",
            "0x000000000000000000000000285398f9ac1d317bca922691316bdf5b1493da71"
          ],
          "data": "0x000000000000000000000000000000000000000000002a5a058fc295ed000000",
          "blockHash": "0x0000000000000000000000000000000000000000000000000000000000000000",
          "blockNumber": "0x2675fe2",
          "blockTimestamp": "0x69e21ea4",
          "transactionHash": "0x057d78cdfc3fef8c1f468d5e9590607d9527d06fb1d3c65c87ccdb47a858d9f0",
          "transactionIndex": "0x8",
          "logIndex": "0x13",
          "removed": false
        },
        {
          "address": "0x60cb112631ce92f9fe164878d690fac1fd1c295d",
          "topics": [
            "0xddf252ad1be2c89b69c2b068fc378daa952ba7f163c4a11628f55a4df523b3ef",
            "0x000000000000000000000000b29e1dddfc73e00dee3eaa7ea102990adca78b39",
            "0x000000000000000000000000285398f9ac1d317bca922691316bdf5b1493da71"
          ],
          "data": "0x000000000000000000000000000000000000000000002a5a058fc295ed000000",
          "blockHash": "0x0000000000000000000000000000000000000000000000000000000000000000",
          "blockNumber": "0x2675fe2",
          "blockTimestamp": "0x69e21ea4",
          "transactionHash": "0x057d78cdfc3fef8c1f468d5e9590607d9527d06fb1d3c65c87ccdb47a858d9f0",
          "transactionIndex": "0x8",
          "logIndex": "0x14",
          "removed": false
        },
        {
          "address": "0x285398f9ac1d317bca922691316bdf5b1493da71",
          "topics": [
            "0xa1f137c5ae158726e83083553b9082ce64d0180e2e71939290985b94816211d3",
            "0x00000000000000000000000008ac49be269f1c6c2821d56c4c729c9843152ee3"
          ],
          "data": "0x0000000000000000000000000000000000000000000058f03ee118a13e8000000000000000000000000000000000000000000000000054b40b1f852bda00000000000000000000000000000000000000000000000000000000000000000000600000000000000000000000000000000000000000000000000000000000000004000000000000000000000000000000000000000000002a5a058fc295ed000000000000000000000000000000000000000000000000002a5a058fc295ed000000000000000000000000000000000000000000000000002a5a058fc295ed000000000000000000000000000000000000000000000000002a5a058fc295ed000000",
          "blockHash": "0x0000000000000000000000000000000000000000000000000000000000000000",
          "blockNumber": "0x2675fe2",
          "blockTimestamp": "0x69e21ea4",
          "transactionHash": "0x057d78cdfc3fef8c1f468d5e9590607d9527d06fb1d3c65c87ccdb47a858d9f0",
          "transactionIndex": "0x8",
          "logIndex": "0x15",
          "removed": false
        },
        {
          "address": "0x08ac49be269f1c6c2821d56c4c729c9843152ee3",
          "topics": [
            "0xddf252ad1be2c89b69c2b068fc378daa952ba7f163c4a11628f55a4df523b3ef",
            "0x0000000000000000000000000000000000000000000000000000000000000000",
            "0x000000000000000000000000b29e1dddfc73e00dee3eaa7ea102990adca78b39",
            "0x0000000000000000000000000000000000000000000000000000000000000005"
          ],
          "data": "0x",
          "blockHash": "0x0000000000000000000000000000000000000000000000000000000000000000",
          "blockNumber": "0x2675fe2",
          "blockTimestamp": "0x69e21ea4",
          "transactionHash": "0x057d78cdfc3fef8c1f468d5e9590607d9527d06fb1d3c65c87ccdb47a858d9f0",
          "transactionIndex": "0x8",
          "logIndex": "0x16",
          "removed": false
        }
      ],
      "logsBloom": "0x40000000000000000000000000000000020810000004000000000000000000000000100000000002000000000000000000000100000000000000000001000000000010010000000000000008000000000000002000000001000000000000000000000000020000000440000000000800000000000000010000000010000000000000000008000000000000000000009020000801000000000000000000000000000000000000000000000000000000000020000000000000000000000000000000000002000020000400000000000080004000000000000000000100000020000000020000400000000000000000000000000000000000008400001000000000",
      "transactionHash": "0x057d78cdfc3fef8c1f468d5e9590607d9527d06fb1d3c65c87ccdb47a858d9f0",
      "transactionIndex": "0x8",
      "blockHash": "0x0000000000000000000000000000000000000000000000000000000000000000",
      "blockNumber": "0x2675fe2",
      "gasUsed": "0xacb7c",
      "effectiveGasPrice": "0x5b8d80",
      "blobGasUsed": "0x5ac4",
      "from": "0xb29e1dddfc73e00dee3eaa7ea102990adca78b39",
      "to": "0x08ac49be269f1c6c2821d56c4c729c9843152ee3",
      "contractAddress": null,
      "l1GasPrice": "0x1881bfd",
      "l1GasUsed": "0x9d5",
      "l1Fee": "0x2b7bf5f9",
      "l1BaseFeeScalar": "0x44d",
      "l1BlobBaseFee": "0x14e489",
      "l1BlobBaseFeeScalar": "0xa118b",
      "daFootprintGasScalar": "0x94"
    },
    {
      "type": "0x2",
      "status": "0x1",
      "cumulativeGasUsed": "0x1bde83",
      "logs": [
        {
          "address": "0x168deb69184ea184aadb8a626dc4d3013dc08fe8",
          "topics": [
            "0xddf252ad1be2c89b69c2b068fc378daa952ba7f163c4a11628f55a4df523b3ef",
            "0x000000000000000000000000b29e1dddfc73e00dee3eaa7ea102990adca78b39",
            "0x000000000000000000000000285398f9ac1d317bca922691316bdf5b1493da71"
          ],
          "data": "0x00000000000000000000000000000000000000000000250ec4ddca432f600000",
          "blockHash": "0x0000000000000000000000000000000000000000000000000000000000000000",
          "blockNumber": "0x2675fe2",
          "blockTimestamp": "0x69e21ea4",
          "transactionHash": "0x14b4b8d8e06afba937812c76987a94719c7fccaf661f2c827e50eed710f7793e",
          "transactionIndex": "0x9",
          "logIndex": "0x17",
          "removed": false
        },
        {
          "address": "0x39855b7de333de50a7b2e97a3a3e2ec1cf0411a9",
          "topics": [
            "0xddf252ad1be2c89b69c2b068fc378daa952ba7f163c4a11628f55a4df523b3ef",
            "0x000000000000000000000000b29e1dddfc73e00dee3eaa7ea102990adca78b39",
            "0x000000000000000000000000285398f9ac1d317bca922691316bdf5b1493da71"
          ],
          "data": "0x00000000000000000000000000000000000000000000250ec4ddca432f600000",
          "blockHash": "0x0000000000000000000000000000000000000000000000000000000000000000",
          "blockNumber": "0x2675fe2",
          "blockTimestamp": "0x69e21ea4",
          "transactionHash": "0x14b4b8d8e06afba937812c76987a94719c7fccaf661f2c827e50eed710f7793e",
          "transactionIndex": "0x9",
          "logIndex": "0x18",
          "removed": false
        },
        {
          "address": "0x44406ad771b05827f5fd95b002189e51eebedc91",
          "topics": [
            "0xddf252ad1be2c89b69c2b068fc378daa952ba7f163c4a11628f55a4df523b3ef",
            "0x000000000000000000000000b29e1dddfc73e00dee3eaa7ea102990adca78b39",
            "0x000000000000000000000000285398f9ac1d317bca922691316bdf5b1493da71"
          ],
          "data": "0x00000000000000000000000000000000000000000000250ec4ddca432f600000",
          "blockHash": "0x0000000000000000000000000000000000000000000000000000000000000000",
          "blockNumber": "0x2675fe2",
          "blockTimestamp": "0x69e21ea4",
          "transactionHash": "0x14b4b8d8e06afba937812c76987a94719c7fccaf661f2c827e50eed710f7793e",
          "transactionIndex": "0x9",
          "logIndex": "0x19",
          "removed": false
        },
        {
          "address": "0x60cb112631ce92f9fe164878d690fac1fd1c295d",
          "topics": [
            "0xddf252ad1be2c89b69c2b068fc378daa952ba7f163c4a11628f55a4df523b3ef",
            "0x000000000000000000000000b29e1dddfc73e00dee3eaa7ea102990adca78b39",
            "0x000000000000000000000000285398f9ac1d317bca922691316bdf5b1493da71"
          ],
          "data": "0x00000000000000000000000000000000000000000000250ec4ddca432f600000",
          "blockHash": "0x0000000000000000000000000000000000000000000000000000000000000000",
          "blockNumber": "0x2675fe2",
          "blockTimestamp": "0x69e21ea4",
          "transactionHash": "0x14b4b8d8e06afba937812c76987a94719c7fccaf661f2c827e50eed710f7793e",
          "transactionIndex": "0x9",
          "logIndex": "0x1a",
          "removed": false
        },
        {
          "address": "0x285398f9ac1d317bca922691316bdf5b1493da71",
          "topics": [
            "0xa1f137c5ae158726e83083553b9082ce64d0180e2e71939290985b94816211d3",
            "0x00000000000000000000000008ac49be269f1c6c2821d56c4c729c9843152ee3"
          ],
          "data": "0x00000000000000000000000000000000000000000000553b9197b79a86900000000000000000000000000000000000000000000000004a1d89bb94865ec000000000000000000000000000000000000000000000000000000000000000000060000000000000000000000000000000000000000000000000000000000000000400000000000000000000000000000000000000000000250ec4ddca432f60000000000000000000000000000000000000000000000000250ec4ddca432f60000000000000000000000000000000000000000000000000250ec4ddca432f60000000000000000000000000000000000000000000000000250ec4ddca432f600000",
          "blockHash": "0x0000000000000000000000000000000000000000000000000000000000000000",
          "blockNumber": "0x2675fe2",
          "blockTimestamp": "0x69e21ea4",
          "transactionHash": "0x14b4b8d8e06afba937812c76987a94719c7fccaf661f2c827e50eed710f7793e",
          "transactionIndex": "0x9",
          "logIndex": "0x1b",
          "removed": false
        },
        {
          "address": "0x08ac49be269f1c6c2821d56c4c729c9843152ee3",
          "topics": [
            "0xddf252ad1be2c89b69c2b068fc378daa952ba7f163c4a11628f55a4df523b3ef",
            "0x0000000000000000000000000000000000000000000000000000000000000000",
            "0x000000000000000000000000b29e1dddfc73e00dee3eaa7ea102990adca78b39",
            "0x0000000000000000000000000000000000000000000000000000000000000006"
          ],
          "data": "0x",
          "blockHash": "0x0000000000000000000000000000000000000000000000000000000000000000",
          "blockNumber": "0x2675fe2",
          "blockTimestamp": "0x69e21ea4",
          "transactionHash": "0x14b4b8d8e06afba937812c76987a94719c7fccaf661f2c827e50eed710f7793e",
          "transactionIndex": "0x9",
          "logIndex": "0x1c",
          "removed": false
        }
      ],
      "logsBloom": "0x40000000000000000000000000000000020810000004000000000000000000000000100000000002000000000000000000000100000400000000000001000000000000010000000000000008000000000000002000000001000000000000000000000000020000000440000000000800000000000000010000000010000000000000000408000000000000000000008020000001000000000000000000000000000000000000000000000000000000000020000000000000000000080000000000000002000020000400000000000080004000000000000000000100000020000000020000400000000000000000000000000000000000008400001000000000",
      "transactionHash": "0x14b4b8d8e06afba937812c76987a94719c7fccaf661f2c827e50eed710f7793e",
      "transactionIndex": "0x9",
      "blockHash": "0x0000000000000000000000000000000000000000000000000000000000000000",
      "blockNumber": "0x2675fe2",
      "gasUsed": "0x84c4f",
      "effectiveGasPrice": "0x5b8d80",
      "blobGasUsed": "0x5a30",
      "from": "0xb29e1dddfc73e00dee3eaa7ea102990adca78b39",
      "to": "0x08ac49be269f1c6c2821d56c4c729c9843152ee3",
      "contractAddress": null,
      "l1GasPrice": "0x1881bfd",
      "l1GasUsed": "0x9c8",
      "l1Fee": "0x2b7bf5f9",
      "l1BaseFeeScalar": "0x44d",
      "l1BlobBaseFee": "0x14e489",
      "l1BlobBaseFeeScalar": "0xa118b",
      "daFootprintGasScalar": "0x94"
    },
    {
      "type": "0x2",
      "status": "0x1",
      "cumulativeGasUsed": "0x245b6e",
      "logs": [
        {
          "address": "0x168deb69184ea184aadb8a626dc4d3013dc08fe8",
          "topics": [
            "0xddf252ad1be2c89b69c2b068fc378daa952ba7f163c4a11628f55a4df523b3ef",
            "0x000000000000000000000000b29e1dddfc73e00dee3eaa7ea102990adca78b39",
            "0x000000000000000000000000285398f9ac1d317bca922691316bdf5b1493da71"
          ],
          "data": "0x00000000000000000000000000000000000000000000152d02c7e14af6800000",
          "blockHash": "0x0000000000000000000000000000000000000000000000000000000000000000",
          "blockNumber": "0x2675fe2",
          "blockTimestamp": "0x69e21ea4",
          "transactionHash": "0x0a62a6f1b445052f74f41d9361f0792a0109e2fe291c6fbdd4f81f079595243d",
          "transactionIndex": "0xa",
          "logIndex": "0x1d",
          "removed": false
        },
        {
          "address": "0x39855b7de333de50a7b2e97a3a3e2ec1cf0411a9",
          "topics": [
            "0xddf252ad1be2c89b69c2b068fc378daa952ba7f163c4a11628f55a4df523b3ef",
            "0x000000000000000000000000b29e1dddfc73e00dee3eaa7ea102990adca78b39",
            "0x000000000000000000000000285398f9ac1d317bca922691316bdf5b1493da71"
          ],
          "data": "0x00000000000000000000000000000000000000000000152d02c7e14af6800000",
          "blockHash": "0x0000000000000000000000000000000000000000000000000000000000000000",
          "blockNumber": "0x2675fe2",
          "blockTimestamp": "0x69e21ea4",
          "transactionHash": "0x0a62a6f1b445052f74f41d9361f0792a0109e2fe291c6fbdd4f81f079595243d",
          "transactionIndex": "0xa",
          "logIndex": "0x1e",
          "removed": false
        },
        {
          "address": "0x44406ad771b05827f5fd95b002189e51eebedc91",
          "topics": [
            "0xddf252ad1be2c89b69c2b068fc378daa952ba7f163c4a11628f55a4df523b3ef",
            "0x000000000000000000000000b29e1dddfc73e00dee3eaa7ea102990adca78b39",
            "0x000000000000000000000000285398f9ac1d317bca922691316bdf5b1493da71"
          ],
          "data": "0x00000000000000000000000000000000000000000000152d02c7e14af6800000",
          "blockHash": "0x0000000000000000000000000000000000000000000000000000000000000000",
          "blockNumber": "0x2675fe2",
          "blockTimestamp": "0x69e21ea4",
          "transactionHash": "0x0a62a6f1b445052f74f41d9361f0792a0109e2fe291c6fbdd4f81f079595243d",
          "transactionIndex": "0xa",
          "logIndex": "0x1f",
          "removed": false
        },
        {
          "address": "0x60cb112631ce92f9fe164878d690fac1fd1c295d",
          "topics": [
            "0xddf252ad1be2c89b69c2b068fc378daa952ba7f163c4a11628f55a4df523b3ef",
            "0x000000000000000000000000b29e1dddfc73e00dee3eaa7ea102990adca78b39",
            "0x000000000000000000000000285398f9ac1d317bca922691316bdf5b1493da71"
          ],
          "data": "0x00000000000000000000000000000000000000000000152d02c7e14af6800000",
          "blockHash": "0x0000000000000000000000000000000000000000000000000000000000000000",
          "blockNumber": "0x2675fe2",
          "blockTimestamp": "0x69e21ea4",
          "transactionHash": "0x0a62a6f1b445052f74f41d9361f0792a0109e2fe291c6fbdd4f81f079595243d",
          "transactionIndex": "0xa",
          "logIndex": "0x20",
          "removed": false
        },
        {
          "address": "0x285398f9ac1d317bca922691316bdf5b1493da71",
          "topics": [
            "0xa1f137c5ae158726e83083553b9082ce64d0180e2e71939290985b94816211d3",
            "0x00000000000000000000000008ac49be269f1c6c2821d56c4c729c9843152ee3"
          ],
          "data": "0x0000000000000000000000000000000000000000000035ff93e41818c1600000000000000000000000000000000000000000000000002a5a058fc295ed0000000000000000000000000000000000000000000000000000000000000000000060000000000000000000000000000000000000000000000000000000000000000400000000000000000000000000000000000000000000152d02c7e14af680000000000000000000000000000000000000000000000000152d02c7e14af680000000000000000000000000000000000000000000000000152d02c7e14af680000000000000000000000000000000000000000000000000152d02c7e14af6800000",
          "blockHash": "0x0000000000000000000000000000000000000000000000000000000000000000",
          "blockNumber": "0x2675fe2",
          "blockTimestamp": "0x69e21ea4",
          "transactionHash": "0x0a62a6f1b445052f74f41d9361f0792a0109e2fe291c6fbdd4f81f079595243d",
          "transactionIndex": "0xa",
          "logIndex": "0x21",
          "removed": false
        },
        {
          "address": "0x08ac49be269f1c6c2821d56c4c729c9843152ee3",
          "topics": [
            "0xddf252ad1be2c89b69c2b068fc378daa952ba7f163c4a11628f55a4df523b3ef",
            "0x0000000000000000000000000000000000000000000000000000000000000000",
            "0x000000000000000000000000b29e1dddfc73e00dee3eaa7ea102990adca78b39",
            "0x0000000000000000000000000000000000000000000000000000000000000007"
          ],
          "data": "0x",
          "blockHash": "0x0000000000000000000000000000000000000000000000000000000000000000",
          "blockNumber": "0x2675fe2",
          "blockTimestamp": "0x69e21ea4",
          "transactionHash": "0x0a62a6f1b445052f74f41d9361f0792a0109e2fe291c6fbdd4f81f079595243d",
          "transactionIndex": "0xa",
          "logIndex": "0x22",
          "removed": false
        }
      ],
      "logsBloom": "0x40000000000000000000000000000000020810000004000000000000000000000000100000000002000000000000000000001100000000000000000001000000000020010000000000000008000000000000002000000001000000000000000000000000020000000440000000000800000000000000010000000010000000000000000008000000000000000000008020000001000000000000000000000000000000000000000000000000000000000020000000000000000000000000000000000002000020000400000000000080004000000000000000000100000020000000020000400000000000000000000000000000000000008400001000000000",
      "transactionHash": "0x0a62a6f1b445052f74f41d9361f0792a0109e2fe291c6fbdd4f81f079595243d",
      "transactionIndex": "0xa",
      "blockHash": "0x0000000000000000000000000000000000000000000000000000000000000000",
      "blockNumber": "0x2675fe2",
      "gasUsed": "0x87ceb",
      "effectiveGasPrice": "0x5b8d80",
      "blobGasUsed": "0x5ac4",
      "from": "0xb29e1dddfc73e00dee3eaa7ea102990adca78b39",
      "to": "0x08ac49be269f1c6c2821d56c4c729c9843152ee3",
      "contractAddress": null,
      "l1GasPrice": "0x1881bfd",
      "l1GasUsed": "0x9d5",
      "l1Fee": "0x2b7bf5f9",
      "l1BaseFeeScalar": "0x44d",
      "l1BlobBaseFee": "0x14e489",
      "l1BlobBaseFeeScalar": "0xa118b",
      "daFootprintGasScalar": "0x94"
    },
    {
      "type": "0x2",
      "status": "0x1",
      "cumulativeGasUsed": "0x2d090e",
      "logs": [
        {
          "address": "0x168deb69184ea184aadb8a626dc4d3013dc08fe8",
          "topics": [
            "0xddf252ad1be2c89b69c2b068fc378daa952ba7f163c4a11628f55a4df523b3ef",
            "0x000000000000000000000000b29e1dddfc73e00dee3eaa7ea102990adca78b39",
            "0x000000000000000000000000285398f9ac1d317bca922691316bdf5b1493da71"
          ],
          "data": "0x00000000000000000000000000000000000000000000054b40b1f852bda00000",
          "blockHash": "0x0000000000000000000000000000000000000000000000000000000000000000",
          "blockNumber": "0x2675fe2",
          "blockTimestamp": "0x69e21ea4",
          "transactionHash": "0x934037e3bc343718dd9d9637891117c21bcc403088667c6a1c9abe604f6be6ea",
          "transactionIndex": "0xb",
          "logIndex": "0x23",
          "removed": false
        },
        {
          "address": "0x39855b7de333de50a7b2e97a3a3e2ec1cf0411a9",
          "topics": [
            "0xddf252ad1be2c89b69c2b068fc378daa952ba7f163c4a11628f55a4df523b3ef",
            "0x000000000000000000000000b29e1dddfc73e00dee3eaa7ea102990adca78b39",
            "0x000000000000000000000000285398f9ac1d317bca922691316bdf5b1493da71"
          ],
          "data": "0x00000000000000000000000000000000000000000000054b40b1f852bda00000",
          "blockHash": "0x0000000000000000000000000000000000000000000000000000000000000000",
          "blockNumber": "0x2675fe2",
          "blockTimestamp": "0x69e21ea4",
          "transactionHash": "0x934037e3bc343718dd9d9637891117c21bcc403088667c6a1c9abe604f6be6ea",
          "transactionIndex": "0xb",
          "logIndex": "0x24",
          "removed": false
        },
        {
          "address": "0x44406ad771b05827f5fd95b002189e51eebedc91",
          "topics": [
            "0xddf252ad1be2c89b69c2b068fc378daa952ba7f163c4a11628f55a4df523b3ef",
            "0x000000000000000000000000b29e1dddfc73e00dee3eaa7ea102990adca78b39",
            "0x000000000000000000000000285398f9ac1d317bca922691316bdf5b1493da71"
          ],
          "data": "0x00000000000000000000000000000000000000000000054b40b1f852bda00000",
          "blockHash": "0x0000000000000000000000000000000000000000000000000000000000000000",
          "blockNumber": "0x2675fe2",
          "blockTimestamp": "0x69e21ea4",
          "transactionHash": "0x934037e3bc343718dd9d9637891117c21bcc403088667c6a1c9abe604f6be6ea",
          "transactionIndex": "0xb",
          "logIndex": "0x25",
          "removed": false
        },
        {
          "address": "0x60cb112631ce92f9fe164878d690fac1fd1c295d",
          "topics": [
            "0xddf252ad1be2c89b69c2b068fc378daa952ba7f163c4a11628f55a4df523b3ef",
            "0x000000000000000000000000b29e1dddfc73e00dee3eaa7ea102990adca78b39",
            "0x000000000000000000000000285398f9ac1d317bca922691316bdf5b1493da71"
          ],
          "data": "0x00000000000000000000000000000000000000000000054b40b1f852bda00000",
          "blockHash": "0x0000000000000000000000000000000000000000000000000000000000000000",
          "blockNumber": "0x2675fe2",
          "blockTimestamp": "0x69e21ea4",
          "transactionHash": "0x934037e3bc343718dd9d9637891117c21bcc403088667c6a1c9abe604f6be6ea",
          "transactionIndex": "0xb",
          "logIndex": "0x26",
          "removed": false
        },
        {
          "address": "0x285398f9ac1d317bca922691316bdf5b1493da71",
          "topics": [
            "0xa1f137c5ae158726e83083553b9082ce64d0180e2e71939290985b94816211d3",
            "0x00000000000000000000000008ac49be269f1c6c2821d56c4c729c9843152ee3"
          ],
          "data": "0x000000000000000000000000000000000000000000000e8ef1e96ae389780000000000000000000000000000000000000000000000000a968163f0a57b4000000000000000000000000000000000000000000000000000000000000000000060000000000000000000000000000000000000000000000000000000000000000400000000000000000000000000000000000000000000054b40b1f852bda0000000000000000000000000000000000000000000000000054b40b1f852bda0000000000000000000000000000000000000000000000000054b40b1f852bda0000000000000000000000000000000000000000000000000054b40b1f852bda00000",
          "blockHash": "0x0000000000000000000000000000000000000000000000000000000000000000",
          "blockNumber": "0x2675fe2",
          "blockTimestamp": "0x69e21ea4",
          "transactionHash": "0x934037e3bc343718dd9d9637891117c21bcc403088667c6a1c9abe604f6be6ea",
          "transactionIndex": "0xb",
          "logIndex": "0x27",
          "removed": false
        },
        {
          "address": "0x08ac49be269f1c6c2821d56c4c729c9843152ee3",
          "topics": [
            "0xddf252ad1be2c89b69c2b068fc378daa952ba7f163c4a11628f55a4df523b3ef",
            "0x0000000000000000000000000000000000000000000000000000000000000000",
            "0x000000000000000000000000b29e1dddfc73e00dee3eaa7ea102990adca78b39",
            "0x0000000000000000000000000000000000000000000000000000000000000008"
          ],
          "data": "0x",
          "blockHash": "0x0000000000000000000000000000000000000000000000000000000000000000",
          "blockNumber": "0x2675fe2",
          "blockTimestamp": "0x69e21ea4",
          "transactionHash": "0x934037e3bc343718dd9d9637891117c21bcc403088667c6a1c9abe604f6be6ea",
          "transactionIndex": "0xb",
          "logIndex": "0x28",
          "removed": false
        }
      ],
      "logsBloom": "0x40000000000000000000000000000000020810000004000000000000000000000000100000000002000000000000000000000100000080000000000001000000000000010000000000000008000000000000002000000001000000000000000000000000020000000440000000000800000000000000010000000010000000000080000008000000000000000000008020000001000000000000000000000000000000000000000000000000000000000020000000000000000000000000000040000002000020000400000000000080004000000000000000000100000020000000020000400000000000000000000000000000000000008400001000000000",
      "transactionHash": "0x934037e3bc343718dd9d9637891117c21bcc403088667c6a1c9abe604f6be6ea",
      "transactionIndex": "0xb",
      "blockHash": "0x0000000000000000000000000000000000000000000000000000000000000000",
      "blockNumber": "0x2675fe2",
      "gasUsed": "0x8ada0",
      "effectiveGasPrice": "0x5b8d80",
      "blobGasUsed": "0x5b58",
      "from": "0xb29e1dddfc73e00dee3eaa7ea102990adca78b39",
      "to": "0x08ac49be269f1c6c2821d56c4c729c9843152ee3",
      "contractAddress": null,
      "l1GasPrice": "0x1881bfd",
      "l1GasUsed": "0x9e2",
      "l1Fee": "0x2b7bf5f9",
      "l1BaseFeeScalar": "0x44d",
      "l1BlobBaseFee": "0x14e489",
      "l1BlobBaseFeeScalar": "0xa118b",
      "daFootprintGasScalar": "0x94"
    },
    {
      "type": "0x2",
      "status": "0x1",
      "cumulativeGasUsed": "0x35590f",
      "logs": [
        {
          "address": "0x39855b7de333de50a7b2e97a3a3e2ec1cf0411a9",
          "topics": [
            "0xddf252ad1be2c89b69c2b068fc378daa952ba7f163c4a11628f55a4df523b3ef",
            "0x000000000000000000000000285398f9ac1d317bca922691316bdf5b1493da71",
            "0x000000000000000000000000b29e1dddfc73e00dee3eaa7ea102990adca78b39"
          ],
          "data": "0x000000000000000000000000000000000000000000000036132d2538c4cd37f5",
          "blockHash": "0x0000000000000000000000000000000000000000000000000000000000000000",
          "blockNumber": "0x2675fe2",
          "blockTimestamp": "0x69e21ea4",
          "transactionHash": "0xf96aa4cfdbf50a4eb7988060531537ad946127c21ecb26a55d94a78502fe9740",
          "transactionIndex": "0xc",
          "logIndex": "0x29",
          "removed": false
        },
        {
          "address": "0x168deb69184ea184aadb8a626dc4d3013dc08fe8",
          "topics": [
            "0xddf252ad1be2c89b69c2b068fc378daa952ba7f163c4a11628f55a4df523b3ef",
            "0x000000000000000000000000b29e1dddfc73e00dee3eaa7ea102990adca78b39",
            "0x000000000000000000000000285398f9ac1d317bca922691316bdf5b1493da71"
          ],
          "data": "0x00000000000000000000000000000000000000000000003635c9adc5dea00000",
          "blockHash": "0x0000000000000000000000000000000000000000000000000000000000000000",
          "blockNumber": "0x2675fe2",
          "blockTimestamp": "0x69e21ea4",
          "transactionHash": "0xf96aa4cfdbf50a4eb7988060531537ad946127c21ecb26a55d94a78502fe9740",
          "transactionIndex": "0xc",
          "logIndex": "0x2a",
          "removed": false
        },
        {
          "address": "0x285398f9ac1d317bca922691316bdf5b1493da71",
          "topics": [
            "0xb3e2773606abfd36b5bd91394b3a54d1398336c65005baf7bf7a05efeffaf75b",
            "0x00000000000000000000000060cec0218b501cf4e045cbdba3ef021374e1afac",
            "0x000000000000000000000000b29e1dddfc73e00dee3eaa7ea102990adca78b39"
          ],
          "data": "0x0000000000000000000000000000000000000000000000000000000000000000000000000000000000000000000000000000000000000000000000000000000100000000000000000000000000000000000000000000003635c9adc5dea00000000000000000000000000000000000000000000000000036132d2538c4cd37f5",
          "blockHash": "0x0000000000000000000000000000000000000000000000000000000000000000",
          "blockNumber": "0x2675fe2",
          "blockTimestamp": "0x69e21ea4",
          "transactionHash": "0xf96aa4cfdbf50a4eb7988060531537ad946127c21ecb26a55d94a78502fe9740",
          "transactionIndex": "0xc",
          "logIndex": "0x2b",
          "removed": false
        }
      ],
      "logsBloom": "0x40000000000000000000000000000000000800000000000000000000000000000400100000000002000000000000000000000000000000000000000000000000000000010000000000000008000000000080000000000000000000000000000000000000000000000400000000000000000000000000010000000010000000000000000000000000000000000000008000000001000000000000000000000000000000000000000000000000000000000000000000000000000000000000000800000002000000000000000000000000004000000000000000000004000000100000020100400000000000000000000000000000000000008400001000000000",
      "transactionHash": "0xf96aa4cfdbf50a4eb7988060531537ad946127c21ecb26a55d94a78502fe9740",
      "transactionIndex": "0xc",
      "blockHash": "0x0000000000000000000000000000000000000000000000000000000000000000",
      "blockNumber": "0x2675fe2",
      "gasUsed": "0x85001",
      "effectiveGasPrice": "0x5b8d80",
      "blobGasUsed": "0x48d8",
      "from": "0xb29e1dddfc73e00dee3eaa7ea102990adca78b39",
      "to": "0x60cec0218b501cf4e045cbdba3ef021374e1afac",
      "contractAddress": null,
      "l1GasPrice": "0x1881bfd",
      "l1GasUsed": "0x7e6",
      "l1Fee": "0x2b7bf5f9",
      "l1BaseFeeScalar": "0x44d",
      "l1BlobBaseFee": "0x14e489",
      "l1BlobBaseFeeScalar": "0xa118b",
      "daFootprintGasScalar": "0x94"
    },
    {
      "type": "0x2",
      "status": "0x1",
      "cumulativeGasUsed": "0x3d4cfd",
      "logs": [
        {
          "address": "0x168deb69184ea184aadb8a626dc4d3013dc08fe8",
          "topics": [
            "0xddf252ad1be2c89b69c2b068fc378daa952ba7f163c4a11628f55a4df523b3ef",
            "0x000000000000000000000000285398f9ac1d317bca922691316bdf5b1493da71",
            "0x000000000000000000000000b29e1dddfc73e00dee3eaa7ea102990adca78b39"
          ],
          "data": "0x0000000000000000000000000000000000000000000000364a857863cdc20527",
          "blockHash": "0x0000000000000000000000000000000000000000000000000000000000000000",
          "blockNumber": "0x2675fe2",
          "blockTimestamp": "0x69e21ea4",
          "transactionHash": "0x7e8050684f36bccb60947b015cca9d43c5fca4c3b17a038e378f2dba68181429",
          "transactionIndex": "0xd",
          "logIndex": "0x2c",
          "removed": false
        },
        {
          "address": "0x39855b7de333de50a7b2e97a3a3e2ec1cf0411a9",
          "topics": [
            "0xddf252ad1be2c89b69c2b068fc378daa952ba7f163c4a11628f55a4df523b3ef",
            "0x000000000000000000000000b29e1dddfc73e00dee3eaa7ea102990adca78b39",
            "0x000000000000000000000000285398f9ac1d317bca922691316bdf5b1493da71"
          ],
          "data": "0x00000000000000000000000000000000000000000000003635c9adc5dea00000",
          "blockHash": "0x0000000000000000000000000000000000000000000000000000000000000000",
          "blockNumber": "0x2675fe2",
          "blockTimestamp": "0x69e21ea4",
          "transactionHash": "0x7e8050684f36bccb60947b015cca9d43c5fca4c3b17a038e378f2dba68181429",
          "transactionIndex": "0xd",
          "logIndex": "0x2d",
          "removed": false
        },
        {
          "address": "0x285398f9ac1d317bca922691316bdf5b1493da71",
          "topics": [
            "0xb3e2773606abfd36b5bd91394b3a54d1398336c65005baf7bf7a05efeffaf75b",
            "0x00000000000000000000000060cec0218b501cf4e045cbdba3ef021374e1afac",
            "0x000000000000000000000000b29e1dddfc73e00dee3eaa7ea102990adca78b39"
          ],
          "data": "0x0000000000000000000000000000000000000000000000000000000000000001000000000000000000000000000000000000000000000000000000000000000000000000000000000000000000000000000000000000003635c9adc5dea000000000000000000000000000000000000000000000000000364a857863cdc20527",
          "blockHash": "0x0000000000000000000000000000000000000000000000000000000000000000",
          "blockNumber": "0x2675fe2",
          "blockTimestamp": "0x69e21ea4",
          "transactionHash": "0x7e8050684f36bccb60947b015cca9d43c5fca4c3b17a038e378f2dba68181429",
          "transactionIndex": "0xd",
          "logIndex": "0x2e",
          "removed": false
        }
      ],
      "logsBloom": "0x40000000000000000000000000000000000800000000000000000000000000000400100000000002000000000000000000000000000000000000000000000000000000010000000000000008000000000080000000000000000000000000000000000000000000000400000000000000000000000000010000000010000000000000000000000000000000000000008000000001000000000000000000000000000000000000000000000000000000000000000000000000000000000000000800000002000000000000000000000000004000000000000000000004000000100000020100400000000000000000000000000000000000008400001000000000",
      "transactionHash": "0x7e8050684f36bccb60947b015cca9d43c5fca4c3b17a038e378f2dba68181429",
      "transactionIndex": "0xd",
      "blockHash": "0x0000000000000000000000000000000000000000000000000000000000000000",
      "blockNumber": "0x2675fe2",
      "gasUsed": "0x7f3ee",
      "effectiveGasPrice": "0x5b8d80",
      "blobGasUsed": "0x4a94",
      "from": "0xb29e1dddfc73e00dee3eaa7ea102990adca78b39",
      "to": "0x60cec0218b501cf4e045cbdba3ef021374e1afac",
      "contractAddress": null,
      "l1GasPrice": "0x1881bfd",
      "l1GasUsed": "0x81b",
      "l1Fee": "0x2b7bf5f9",
      "l1BaseFeeScalar": "0x44d",
      "l1BlobBaseFee": "0x14e489",
      "l1BlobBaseFeeScalar": "0xa118b",
      "daFootprintGasScalar": "0x94"
    },
    {
      "type": "0x2",
      "status": "0x1",
      "cumulativeGasUsed": "0x446a46",
      "logs": [
        {
          "address": "0x44406ad771b05827f5fd95b002189e51eebedc91",
          "topics": [
            "0xddf252ad1be2c89b69c2b068fc378daa952ba7f163c4a11628f55a4df523b3ef",
            "0x000000000000000000000000285398f9ac1d317bca922691316bdf5b1493da71",
            "0x000000000000000000000000b29e1dddfc73e00dee3eaa7ea102990adca78b39"
          ],
          "data": "0x000000000000000000000000000000000000000000000036133b474629c02161",
          "blockHash": "0x0000000000000000000000000000000000000000000000000000000000000000",
          "blockNumber": "0x2675fe2",
          "blockTimestamp": "0x69e21ea4",
          "transactionHash": "0x86dc178d35cf9f0ce3f53d82a17b1b3396303f32975a099c4024d408c08ccd76",
          "transactionIndex": "0xe",
          "logIndex": "0x2f",
          "removed": false
        },
        {
          "address": "0x168deb69184ea184aadb8a626dc4d3013dc08fe8",
          "topics": [
            "0xddf252ad1be2c89b69c2b068fc378daa952ba7f163c4a11628f55a4df523b3ef",
            "0x000000000000000000000000b29e1dddfc73e00dee3eaa7ea102990adca78b39",
            "0x000000000000000000000000285398f9ac1d317bca922691316bdf5b1493da71"
          ],
          "data": "0x00000000000000000000000000000000000000000000003635c9adc5dea00000",
          "blockHash": "0x0000000000000000000000000000000000000000000000000000000000000000",
          "blockNumber": "0x2675fe2",
          "blockTimestamp": "0x69e21ea4",
          "transactionHash": "0x86dc178d35cf9f0ce3f53d82a17b1b3396303f32975a099c4024d408c08ccd76",
          "transactionIndex": "0xe",
          "logIndex": "0x30",
          "removed": false
        },
        {
          "address": "0x285398f9ac1d317bca922691316bdf5b1493da71",
          "topics": [
            "0xb3e2773606abfd36b5bd91394b3a54d1398336c65005baf7bf7a05efeffaf75b",
            "0x00000000000000000000000060cec0218b501cf4e045cbdba3ef021374e1afac",
            "0x000000000000000000000000b29e1dddfc73e00dee3eaa7ea102990adca78b39"
          ],
          "data": "0x0000000000000000000000000000000000000000000000000000000000000000000000000000000000000000000000000000000000000000000000000000000200000000000000000000000000000000000000000000003635c9adc5dea00000000000000000000000000000000000000000000000000036133b474629c02161",
          "blockHash": "0x0000000000000000000000000000000000000000000000000000000000000000",
          "blockNumber": "0x2675fe2",
          "blockTimestamp": "0x69e21ea4",
          "transactionHash": "0x86dc178d35cf9f0ce3f53d82a17b1b3396303f32975a099c4024d408c08ccd76",
          "transactionIndex": "0xe",
          "logIndex": "0x31",
          "removed": false
        }
      ],
      "logsBloom": "0x40000000000000000000000000000000000810000000000000000000000000000400000000000002000000000000000000000100000000000000000000000000000000010000000000000008000000000080000000000000000000000000000000000000000000000400000000000000000000000000000000000010000000000000000000000000000000000000008000000001000000000000000000000000000000000000000000000000000000000000000000000000000000000000000800000002000000000000000000000000004000000000000000000104000000100000020100400000000000000000000000000000000000000400001000000000",
      "transactionHash": "0x86dc178d35cf9f0ce3f53d82a17b1b3396303f32975a099c4024d408c08ccd76",
      "transactionIndex": "0xe",
      "blockHash": "0x0000000000000000000000000000000000000000000000000000000000000000",
      "blockNumber": "0x2675fe2",
      "gasUsed": "0x71d49",
      "effectiveGasPrice": "0x5b8d80",
      "blobGasUsed": "0x48d8",
      "from": "0xb29e1dddfc73e00dee3eaa7ea102990adca78b39",
      "to": "0x60cec0218b501cf4e045cbdba3ef021374e1afac",
      "contractAddress": null,
      "l1GasPrice": "0x1881bfd",
      "l1GasUsed": "0x7e6",
      "l1Fee": "0x2b7bf5f9",
      "l1BaseFeeScalar": "0x44d",
      "l1BlobBaseFee": "0x14e489",
      "l1BlobBaseFeeScalar": "0xa118b",
      "daFootprintGasScalar": "0x94"
    },
    {
      "type": "0x2",
      "status": "0x1",
      "cumulativeGasUsed": "0x4c659a",
      "logs": [
        {
          "address": "0x168deb69184ea184aadb8a626dc4d3013dc08fe8",
          "topics": [
            "0xddf252ad1be2c89b69c2b068fc378daa952ba7f163c4a11628f55a4df523b3ef",
            "0x000000000000000000000000285398f9ac1d317bca922691316bdf5b1493da71",
            "0x000000000000000000000000b29e1dddfc73e00dee3eaa7ea102990adca78b39"
          ],
          "data": "0x0000000000000000000000000000000000000000000000364a774f25fe1a1087",
          "blockHash": "0x0000000000000000000000000000000000000000000000000000000000000000",
          "blockNumber": "0x2675fe2",
          "blockTimestamp": "0x69e21ea4",
          "transactionHash": "0x035ac5fcb6a75ead881e1c2e62e5571c3c877cc0184f68e6be86a2c018698795",
          "transactionIndex": "0xf",
          "logIndex": "0x32",
          "removed": false
        },
        {
          "address": "0x44406ad771b05827f5fd95b002189e51eebedc91",
          "topics": [
            "0xddf252ad1be2c89b69c2b068fc378daa952ba7f163c4a11628f55a4df523b3ef",
            "0x000000000000000000000000b29e1dddfc73e00dee3eaa7ea102990adca78b39",
            "0x000000000000000000000000285398f9ac1d317bca922691316bdf5b1493da71"
          ],
          "data": "0x00000000000000000000000000000000000000000000003635c9adc5dea00000",
          "blockHash": "0x0000000000000000000000000000000000000000000000000000000000000000",
          "blockNumber": "0x2675fe2",
          "blockTimestamp": "0x69e21ea4",
          "transactionHash": "0x035ac5fcb6a75ead881e1c2e62e5571c3c877cc0184f68e6be86a2c018698795",
          "transactionIndex": "0xf",
          "logIndex": "0x33",
          "removed": false
        },
        {
          "address": "0x285398f9ac1d317bca922691316bdf5b1493da71",
          "topics": [
            "0xb3e2773606abfd36b5bd91394b3a54d1398336c65005baf7bf7a05efeffaf75b",
            "0x00000000000000000000000060cec0218b501cf4e045cbdba3ef021374e1afac",
            "0x000000000000000000000000b29e1dddfc73e00dee3eaa7ea102990adca78b39"
          ],
          "data": "0x0000000000000000000000000000000000000000000000000000000000000002000000000000000000000000000000000000000000000000000000000000000000000000000000000000000000000000000000000000003635c9adc5dea000000000000000000000000000000000000000000000000000364a774f25fe1a1087",
          "blockHash": "0x0000000000000000000000000000000000000000000000000000000000000000",
          "blockNumber": "0x2675fe2",
          "blockTimestamp": "0x69e21ea4",
          "transactionHash": "0x035ac5fcb6a75ead881e1c2e62e5571c3c877cc0184f68e6be86a2c018698795",
          "transactionIndex": "0xf",
          "logIndex": "0x34",
          "removed": false
        }
      ],
      "logsBloom": "0x40000000000000000000000000000000000810000000000000000000000000000400000000000002000000000000000000000100000000000000000000000000000000010000000000000008000000000080000000000000000000000000000000000000000000000400000000000000000000000000000000000010000000000000000000000000000000000000008000000001000000000000000000000000000000000000000000000000000000000000000000000000000000000000000800000002000000000000000000000000004000000000000000000104000000100000020100400000000000000000000000000000000000000400001000000000",
      "transactionHash": "0x035ac5fcb6a75ead881e1c2e62e5571c3c877cc0184f68e6be86a2c018698795",
      "transactionIndex": "0xf",
      "blockHash": "0x0000000000000000000000000000000000000000000000000000000000000000",
      "blockNumber": "0x2675fe2",
      "gasUsed": "0x7fb54",
      "effectiveGasPrice": "0x5b8d80",
      "blobGasUsed": "0x4a94",
      "from": "0xb29e1dddfc73e00dee3eaa7ea102990adca78b39",
      "to": "0x60cec0218b501cf4e045cbdba3ef021374e1afac",
      "contractAddress": null,
      "l1GasPrice": "0x1881bfd",
      "l1GasUsed": "0x81b",
      "l1Fee": "0x2b7bf5f9",
      "l1BaseFeeScalar": "0x44d",
      "l1BlobBaseFee": "0x14e489",
      "l1BlobBaseFeeScalar": "0xa118b",
      "daFootprintGasScalar": "0x94"
    },
    {
      "type": "0x2",
      "status": "0x1",
      "cumulativeGasUsed": "0x5382df",
      "logs": [
        {
          "address": "0x60cb112631ce92f9fe164878d690fac1fd1c295d",
          "topics": [
            "0xddf252ad1be2c89b69c2b068fc378daa952ba7f163c4a11628f55a4df523b3ef",
            "0x000000000000000000000000285398f9ac1d317bca922691316bdf5b1493da71",
            "0x000000000000000000000000b29e1dddfc73e00dee3eaa7ea102990adca78b39"
          ],
          "data": "0x000000000000000000000000000000000000000000000036134962180c5d8633",
          "blockHash": "0x0000000000000000000000000000000000000000000000000000000000000000",
          "blockNumber": "0x2675fe2",
          "blockTimestamp": "0x69e21ea4",
          "transactionHash": "0x8c48ebd2cc3dddb63c249a526977ad883990d9e5dbc23a1cc1e7fd2efee347fe",
          "transactionIndex": "0x10",
          "logIndex": "0x35",
          "removed": false
        },
        {
          "address": "0x168deb69184ea184aadb8a626dc4d3013dc08fe8",
          "topics": [
            "0xddf252ad1be2c89b69c2b068fc378daa952ba7f163c4a11628f55a4df523b3ef",
            "0x000000000000000000000000b29e1dddfc73e00dee3eaa7ea102990adca78b39",
            "0x000000000000000000000000285398f9ac1d317bca922691316bdf5b1493da71"
          ],
          "data": "0x00000000000000000000000000000000000000000000003635c9adc5dea00000",
          "blockHash": "0x0000000000000000000000000000000000000000000000000000000000000000",
          "blockNumber": "0x2675fe2",
          "blockTimestamp": "0x69e21ea4",
          "transactionHash": "0x8c48ebd2cc3dddb63c249a526977ad883990d9e5dbc23a1cc1e7fd2efee347fe",
          "transactionIndex": "0x10",
          "logIndex": "0x36",
          "removed": false
        },
        {
          "address": "0x285398f9ac1d317bca922691316bdf5b1493da71",
          "topics": [
            "0xb3e2773606abfd36b5bd91394b3a54d1398336c65005baf7bf7a05efeffaf75b",
            "0x00000000000000000000000060cec0218b501cf4e045cbdba3ef021374e1afac",
            "0x000000000000000000000000b29e1dddfc73e00dee3eaa7ea102990adca78b39"
          ],
          "data": "0x0000000000000000000000000000000000000000000000000000000000000000000000000000000000000000000000000000000000000000000000000000000300000000000000000000000000000000000000000000003635c9adc5dea00000000000000000000000000000000000000000000000000036134962180c5d8633",
          "blockHash": "0x0000000000000000000000000000000000000000000000000000000000000000",
          "blockNumber": "0x2675fe2",
          "blockTimestamp": "0x69e21ea4",
          "transactionHash": "0x8c48ebd2cc3dddb63c249a526977ad883990d9e5dbc23a1cc1e7fd2efee347fe",
          "transactionIndex": "0x10",
          "logIndex": "0x37",
          "removed": false
        }
      ],
      "logsBloom": "0x40000000000000000000000000000000000800000004000000000000000000000400000000000002000000000000000000000000000000000000000000000000000000010000000000000008000000000080002000000001000000000000000000000000000000000400000000000000000000000000000000000010000000000000000000000000000000000000008000000001000000000000000000000000000000000000000000000000000000000000000000000000000000000000000800000002000000000000000000000000004000000000000000000004000000100000020100400000000000000000000000000000000000000400001000000000",
      "transactionHash": "0x8c48ebd2cc3dddb63c249a526977ad883990d9e5dbc23a1cc1e7fd2efee347fe",
      "transactionIndex": "0x10",
      "blockHash": "0x0000000000000000000000000000000000000000000000000000000000000000",
      "blockNumber": "0x2675fe2",
      "gasUsed": "0x71d45",
      "effectiveGasPrice": "0x5b8d80",
      "blobGasUsed": "0x48d8",
      "from": "0xb29e1dddfc73e00dee3eaa7ea102990adca78b39",
      "to": "0x60cec0218b501cf4e045cbdba3ef021374e1afac",
      "contractAddress": null,
      "l1GasPrice": "0x1881bfd",
      "l1GasUsed": "0x7e6",
      "l1Fee": "0x2b7bf5f9",
      "l1BaseFeeScalar": "0x44d",
      "l1BlobBaseFee": "0x14e489",
      "l1BlobBaseFeeScalar": "0xa118b",
      "daFootprintGasScalar": "0x94"
    },
    {
      "type": "0x2",
      "status": "0x1",
      "cumulativeGasUsed": "0x5b85bf",
      "logs": [
        {
          "address": "0x168deb69184ea184aadb8a626dc4d3013dc08fe8",
          "topics": [
            "0xddf252ad1be2c89b69c2b068fc378daa952ba7f163c4a11628f55a4df523b3ef",
            "0x000000000000000000000000285398f9ac1d317bca922691316bdf5b1493da71",
            "0x000000000000000000000000b29e1dddfc73e00dee3eaa7ea102990adca78b39"
          ],
          "data": "0x0000000000000000000000000000000000000000000000364a692d2ebc1a6324",
          "blockHash": "0x0000000000000000000000000000000000000000000000000000000000000000",
          "blockNumber": "0x2675fe2",
          "blockTimestamp": "0x69e21ea4",
          "transactionHash": "0xbe5006df0c421ac0cb358afd3f5f5a55bac16ab6bcc1bdfab1cb1ce733a5bc64",
          "transactionIndex": "0x11",
          "logIndex": "0x38",
          "removed": false
        },
        {
          "address": "0x60cb112631ce92f9fe164878d690fac1fd1c295d",
          "topics": [
            "0xddf252ad1be2c89b69c2b068fc378daa952ba7f163c4a11628f55a4df523b3ef",
            "0x000000000000000000000000b29e1dddfc73e00dee3eaa7ea102990adca78b39",
            "0x000000000000000000000000285398f9ac1d317bca922691316bdf5b1493da71"
          ],
          "data": "0x00000000000000000000000000000000000000000000003635c9adc5dea00000",
          "blockHash": "0x0000000000000000000000000000000000000000000000000000000000000000",
          "blockNumber": "0x2675fe2",
          "blockTimestamp": "0x69e21ea4",
          "transactionHash": "0xbe5006df0c421ac0cb358afd3f5f5a55bac16ab6bcc1bdfab1cb1ce733a5bc64",
          "transactionIndex": "0x11",
          "logIndex": "0x39",
          "removed": false
        },
        {
          "address": "0x285398f9ac1d317bca922691316bdf5b1493da71",
          "topics": [
            "0xb3e2773606abfd36b5bd91394b3a54d1398336c65005baf7bf7a05efeffaf75b",
            "0x00000000000000000000000060cec0218b501cf4e045cbdba3ef021374e1afac",
            "0x000000000000000000000000b29e1dddfc73e00dee3eaa7ea102990adca78b39"
          ],
          "data": "0x0000000000000000000000000000000000000000000000000000000000000003000000000000000000000000000000000000000000000000000000000000000000000000000000000000000000000000000000000000003635c9adc5dea000000000000000000000000000000000000000000000000000364a692d2ebc1a6324",
          "blockHash": "0x0000000000000000000000000000000000000000000000000000000000000000",
          "blockNumber": "0x2675fe2",
          "blockTimestamp": "0x69e21ea4",
          "transactionHash": "0xbe5006df0c421ac0cb358afd3f5f5a55bac16ab6bcc1bdfab1cb1ce733a5bc64",
          "transactionIndex": "0x11",
          "logIndex": "0x3a",
          "removed": false
        }
      ],
      "logsBloom": "0x40000000000000000000000000000000000800000004000000000000000000000400000000000002000000000000000000000000000000000000000000000000000000010000000000000008000000000080002000000001000000000000000000000000000000000400000000000000000000000000000000000010000000000000000000000000000000000000008000000001000000000000000000000000000000000000000000000000000000000000000000000000000000000000000800000002000000000000000000000000004000000000000000000004000000100000020100400000000000000000000000000000000000000400001000000000",
      "transactionHash": "0xbe5006df0c421ac0cb358afd3f5f5a55bac16ab6bcc1bdfab1cb1ce733a5bc64",
      "transactionIndex": "0x11",
      "blockHash": "0x0000000000000000000000000000000000000000000000000000000000000000",
      "blockNumber": "0x2675fe2",
      "gasUsed": "0x802e0",
      "effectiveGasPrice": "0x5b8d80",
      "blobGasUsed": "0x4a94",
      "from": "0xb29e1dddfc73e00dee3eaa7ea102990adca78b39",
      "to": "0x60cec0218b501cf4e045cbdba3ef021374e1afac",
      "contractAddress": null,
      "l1GasPrice": "0x1881bfd",
      "l1GasUsed": "0x81b",
      "l1Fee": "0x2b7bf5f9",
      "l1BaseFeeScalar": "0x44d",
      "l1BlobBaseFee": "0x14e489",
      "l1BlobBaseFeeScalar": "0xa118b",
      "daFootprintGasScalar": "0x94"
    },
    {
      "type": "0x2",
      "status": "0x1",
      "cumulativeGasUsed": "0x62a314",
      "logs": [
        {
          "address": "0x44406ad771b05827f5fd95b002189e51eebedc91",
          "topics": [
            "0xddf252ad1be2c89b69c2b068fc378daa952ba7f163c4a11628f55a4df523b3ef",
            "0x000000000000000000000000285398f9ac1d317bca922691316bdf5b1493da71",
            "0x000000000000000000000000b29e1dddfc73e00dee3eaa7ea102990adca78b39"
          ],
          "data": "0x000000000000000000000000000000000000000000000036132d16ccc6cee27d",
          "blockHash": "0x0000000000000000000000000000000000000000000000000000000000000000",
          "blockNumber": "0x2675fe2",
          "blockTimestamp": "0x69e21ea4",
          "transactionHash": "0x2067a4c1ac4f05fc7ffff73aa02edf70041a2caea6659d808e0a7767c2f79f3b",
          "transactionIndex": "0x12",
          "logIndex": "0x3b",
          "removed": false
        },
        {
          "address": "0x39855b7de333de50a7b2e97a3a3e2ec1cf0411a9",
          "topics": [
            "0xddf252ad1be2c89b69c2b068fc378daa952ba7f163c4a11628f55a4df523b3ef",
            "0x000000000000000000000000b29e1dddfc73e00dee3eaa7ea102990adca78b39",
            "0x000000000000000000000000285398f9ac1d317bca922691316bdf5b1493da71"
          ],
          "data": "0x00000000000000000000000000000000000000000000003635c9adc5dea00000",
          "blockHash": "0x0000000000000000000000000000000000000000000000000000000000000000",
          "blockNumber": "0x2675fe2",
          "blockTimestamp": "0x69e21ea4",
          "transactionHash": "0x2067a4c1ac4f05fc7ffff73aa02edf70041a2caea6659d808e0a7767c2f79f3b",
          "transactionIndex": "0x12",
          "logIndex": "0x3c",
          "removed": false
        },
        {
          "address": "0x285398f9ac1d317bca922691316bdf5b1493da71",
          "topics": [
            "0xb3e2773606abfd36b5bd91394b3a54d1398336c65005baf7bf7a05efeffaf75b",
            "0x00000000000000000000000060cec0218b501cf4e045cbdba3ef021374e1afac",
            "0x000000000000000000000000b29e1dddfc73e00dee3eaa7ea102990adca78b39"
          ],
          "data": "0x0000000000000000000000000000000000000000000000000000000000000001000000000000000000000000000000000000000000000000000000000000000200000000000000000000000000000000000000000000003635c9adc5dea00000000000000000000000000000000000000000000000000036132d16ccc6cee27d",
          "blockHash": "0x0000000000000000000000000000000000000000000000000000000000000000",
          "blockNumber": "0x2675fe2",
          "blockTimestamp": "0x69e21ea4",
          "transactionHash": "0x2067a4c1ac4f05fc7ffff73aa02edf70041a2caea6659d808e0a7767c2f79f3b",
          "transactionIndex": "0x12",
          "logIndex": "0x3d",
          "removed": false
        }
      ],
      "logsBloom": "0x40000000000000000000000000000000000010000000000000000000000000000400100000000000000000000000000000000100000000000000000000000000000000000000000000000008000000000080000000000000000000000000000000000000000000000400000000000000000000000000010000000010000000000000000000000000000000000000008000000001000000000000000000000000000000000000000000000000000000000000000000000000000000000000000800000002000000000000000000000000004000000000000000000104000000100000020100400000000000000000000000000000000000008400001000000000",
      "transactionHash": "0x2067a4c1ac4f05fc7ffff73aa02edf70041a2caea6659d808e0a7767c2f79f3b",
      "transactionIndex": "0x12",
      "blockHash": "0x0000000000000000000000000000000000000000000000000000000000000000",
      "blockNumber": "0x2675fe2",
      "gasUsed": "0x71d55",
      "effectiveGasPrice": "0x5b8d80",
      "blobGasUsed": "0x4ce4",
      "from": "0xb29e1dddfc73e00dee3eaa7ea102990adca78b39",
      "to": "0x60cec0218b501cf4e045cbdba3ef021374e1afac",
      "contractAddress": null,
      "l1GasPrice": "0x1881bfd",
      "l1GasUsed": "0x85e",
      "l1Fee": "0x2b7bf5f9",
      "l1BaseFeeScalar": "0x44d",
      "l1BlobBaseFee": "0x14e489",
      "l1BlobBaseFeeScalar": "0xa118b",
      "daFootprintGasScalar": "0x94"
    },
    {
      "type": "0x2",
      "status": "0x1",
      "cumulativeGasUsed": "0x694f69",
      "logs": [
        {
          "address": "0x39855b7de333de50a7b2e97a3a3e2ec1cf0411a9",
          "topics": [
            "0xddf252ad1be2c89b69c2b068fc378daa952ba7f163c4a11628f55a4df523b3ef",
            "0x000000000000000000000000285398f9ac1d317bca922691316bdf5b1493da71",
            "0x000000000000000000000000b29e1dddfc73e00dee3eaa7ea102990adca78b39"
          ],
          "data": "0x0000000000000000000000000000000000000000000000364a8586d373f1b1d8",
          "blockHash": "0x0000000000000000000000000000000000000000000000000000000000000000",
          "blockNumber": "0x2675fe2",
          "blockTimestamp": "0x69e21ea4",
          "transactionHash": "0xaabcf2ee44f274cf49465adbc77fc0e39cc9cb3a8be8da0ea95f19796237dfc6",
          "transactionIndex": "0x13",
          "logIndex": "0x3e",
          "removed": false
        },
        {
          "address": "0x44406ad771b05827f5fd95b002189e51eebedc91",
          "topics": [
            "0xddf252ad1be2c89b69c2b068fc378daa952ba7f163c4a11628f55a4df523b3ef",
            "0x000000000000000000000000b29e1dddfc73e00dee3eaa7ea102990adca78b39",
            "0x000000000000000000000000285398f9ac1d317bca922691316bdf5b1493da71"
          ],
          "data": "0x00000000000000000000000000000000000000000000003635c9adc5dea00000",
          "blockHash": "0x0000000000000000000000000000000000000000000000000000000000000000",
          "blockNumber": "0x2675fe2",
          "blockTimestamp": "0x69e21ea4",
          "transactionHash": "0xaabcf2ee44f274cf49465adbc77fc0e39cc9cb3a8be8da0ea95f19796237dfc6",
          "transactionIndex": "0x13",
          "logIndex": "0x3f",
          "removed": false
        },
        {
          "address": "0x285398f9ac1d317bca922691316bdf5b1493da71",
          "topics": [
            "0xb3e2773606abfd36b5bd91394b3a54d1398336c65005baf7bf7a05efeffaf75b",
            "0x00000000000000000000000060cec0218b501cf4e045cbdba3ef021374e1afac",
            "0x000000000000000000000000b29e1dddfc73e00dee3eaa7ea102990adca78b39"
          ],
          "data": "0x0000000000000000000000000000000000000000000000000000000000000002000000000000000000000000000000000000000000000000000000000000000100000000000000000000000000000000000000000000003635c9adc5dea000000000000000000000000000000000000000000000000000364a8586d373f1b1d8",
          "blockHash": "0x0000000000000000000000000000000000000000000000000000000000000000",
          "blockNumber": "0x2675fe2",
          "blockTimestamp": "0x69e21ea4",
          "transactionHash": "0xaabcf2ee44f274cf49465adbc77fc0e39cc9cb3a8be8da0ea95f19796237dfc6",
          "transactionIndex": "0x13",
          "logIndex": "0x40",
          "removed": false
        }
      ],
      "logsBloom": "0x40000000000000000000000000000000000010000000000000000000000000000400100000000000000000000000000000000100000000000000000000000000000000000000000000000008000000000080000000000000000000000000000000000000000000000400000000000000000000000000010000000010000000000000000000000000000000000000008000000001000000000000000000000000000000000000000000000000000000000000000000000000000000000000000800000002000000000000000000000000004000000000000000000104000000100000020100400000000000000000000000000000000000008400001000000000",
      "transactionHash": "0xaabcf2ee44f274cf49465adbc77fc0e39cc9cb3a8be8da0ea95f19796237dfc6",
      "transactionIndex": "0x13",
      "blockHash": "0x0000000000000000000000000000000000000000000000000000000000000000",
      "blockNumber": "0x2675fe2",
      "gasUsed": "0x6ac55",
      "effectiveGasPrice": "0x5b8d80",
      "blobGasUsed": "0x4ce4",
      "from": "0xb29e1dddfc73e00dee3eaa7ea102990adca78b39",
      "to": "0x60cec0218b501cf4e045cbdba3ef021374e1afac",
      "contractAddress": null,
      "l1GasPrice": "0x1881bfd",
      "l1GasUsed": "0x85e",
      "l1Fee": "0x2b7bf5f9",
      "l1BaseFeeScalar": "0x44d",
      "l1BlobBaseFee": "0x14e489",
      "l1BlobBaseFeeScalar": "0xa118b",
      "daFootprintGasScalar": "0x94"
    },
    {
      "type": "0x2",
      "status": "0x1",
      "cumulativeGasUsed": "0x706cba",
      "logs": [
        {
          "address": "0x60cb112631ce92f9fe164878d690fac1fd1c295d",
          "topics": [
            "0xddf252ad1be2c89b69c2b068fc378daa952ba7f163c4a11628f55a4df523b3ef",
            "0x000000000000000000000000285398f9ac1d317bca922691316bdf5b1493da71",
            "0x000000000000000000000000b29e1dddfc73e00dee3eaa7ea102990adca78b39"
          ],
          "data": "0x000000000000000000000000000000000000000000000036133b31b4c04b7527",
          "blockHash": "0x0000000000000000000000000000000000000000000000000000000000000000",
          "blockNumber": "0x2675fe2",
          "blockTimestamp": "0x69e21ea4",
          "transactionHash": "0x37fbc311489b358b8c28a20d4879da84c37e3d734084ef1f77e5f84b1ba99260",
          "transactionIndex": "0x14",
          "logIndex": "0x41",
          "removed": false
        },
        {
          "address": "0x39855b7de333de50a7b2e97a3a3e2ec1cf0411a9",
          "topics": [
            "0xddf252ad1be2c89b69c2b068fc378daa952ba7f163c4a11628f55a4df523b3ef",
            "0x000000000000000000000000b29e1dddfc73e00dee3eaa7ea102990adca78b39",
            "0x000000000000000000000000285398f9ac1d317bca922691316bdf5b1493da71"
          ],
          "data": "0x00000000000000000000000000000000000000000000003635c9adc5dea00000",
          "blockHash": "0x0000000000000000000000000000000000000000000000000000000000000000",
          "blockNumber": "0x2675fe2",
          "blockTimestamp": "0x69e21ea4",
          "transactionHash": "0x37fbc311489b358b8c28a20d4879da84c37e3d734084ef1f77e5f84b1ba99260",
          "transactionIndex": "0x14",
          "logIndex": "0x42",
          "removed": false
        },
        {
          "address": "0x285398f9ac1d317bca922691316bdf5b1493da71",
          "topics": [
            "0xb3e2773606abfd36b5bd91394b3a54d1398336c65005baf7bf7a05efeffaf75b",
            "0x00000000000000000000000060cec0218b501cf4e045cbdba3ef021374e1afac",
            "0x000000000000000000000000b29e1dddfc73e00dee3eaa7ea102990adca78b39"
          ],
          "data": "0x0000000000000000000000000000000000000000000000000000000000000001000000000000000000000000000000000000000000000000000000000000000300000000000000000000000000000000000000000000003635c9adc5dea00000000000000000000000000000000000000000000000000036133b31b4c04b7527",
          "blockHash": "0x0000000000000000000000000000000000000000000000000000000000000000",
          "blockNumber": "0x2675fe2",
          "blockTimestamp": "0x69e21ea4",
          "transactionHash": "0x37fbc311489b358b8c28a20d4879da84c37e3d734084ef1f77e5f84b1ba99260",
          "transactionIndex": "0x14",
          "logIndex": "0x43",
          "removed": false
        }
      ],
      "logsBloom": "0x40000000000000000000000000000000000000000004000000000000000000000400100000000000000000000000000000000000000000000000000000000000000000000000000000000008000000000080002000000001000000000000000000000000000000000400000000000000000000000000010000000010000000000000000000000000000000000000008000000001000000000000000000000000000000000000000000000000000000000000000000000000000000000000000800000002000000000000000000000000004000000000000000000004000000100000020100400000000000000000000000000000000000008400001000000000",
      "transactionHash": "0x37fbc311489b358b8c28a20d4879da84c37e3d734084ef1f77e5f84b1ba99260",
      "transactionIndex": "0x14",
      "blockHash": "0x0000000000000000000000000000000000000000000000000000000000000000",
      "blockNumber": "0x2675fe2",
      "gasUsed": "0x71d51",
      "effectiveGasPrice": "0x5b8d80",
      "blobGasUsed": "0x4ce4",
      "from": "0xb29e1dddfc73e00dee3eaa7ea102990adca78b39",
      "to": "0x60cec0218b501cf4e045cbdba3ef021374e1afac",
      "contractAddress": null,
      "l1GasPrice": "0x1881bfd",
      "l1GasUsed": "0x85e",
      "l1Fee": "0x2b7bf5f9",
      "l1BaseFeeScalar": "0x44d",
      "l1BlobBaseFee": "0x14e489",
      "l1BlobBaseFeeScalar": "0xa118b",
      "daFootprintGasScalar": "0x94"
    },
    {
      "type": "0x2",
      "status": "0x1",
      "cumulativeGasUsed": "0x77eb72",
      "logs": [
        {
          "address": "0x39855b7de333de50a7b2e97a3a3e2ec1cf0411a9",
          "topics": [
            "0xddf252ad1be2c89b69c2b068fc378daa952ba7f163c4a11628f55a4df523b3ef",
            "0x000000000000000000000000285398f9ac1d317bca922691316bdf5b1493da71",
            "0x000000000000000000000000b29e1dddfc73e00dee3eaa7ea102990adca78b39"
          ],
          "data": "0x0000000000000000000000000000000000000000000000364a7764beacb7ceab",
          "blockHash": "0x0000000000000000000000000000000000000000000000000000000000000000",
          "blockNumber": "0x2675fe2",
          "blockTimestamp": "0x69e21ea4",
          "transactionHash": "0x7b78b6b1a41091f9544db187d165529be75a56cf3635505ae650ccbc9de96d67",
          "transactionIndex": "0x15",
          "logIndex": "0x44",
          "removed": false
        },
        {
          "address": "0x60cb112631ce92f9fe164878d690fac1fd1c295d",
          "topics": [
            "0xddf252ad1be2c89b69c2b068fc378daa952ba7f163c4a11628f55a4df523b3ef",
            "0x000000000000000000000000b29e1dddfc73e00dee3eaa7ea102990adca78b39",
            "0x000000000000000000000000285398f9ac1d317bca922691316bdf5b1493da71"
          ],
          "data": "0x00000000000000000000000000000000000000000000003635c9adc5dea00000",
          "blockHash": "0x0000000000000000000000000000000000000000000000000000000000000000",
          "blockNumber": "0x2675fe2",
          "blockTimestamp": "0x69e21ea4",
          "transactionHash": "0x7b78b6b1a41091f9544db187d165529be75a56cf3635505ae650ccbc9de96d67",
          "transactionIndex": "0x15",
          "logIndex": "0x45",
          "removed": false
        },
        {
          "address": "0x285398f9ac1d317bca922691316bdf5b1493da71",
          "topics": [
            "0xb3e2773606abfd36b5bd91394b3a54d1398336c65005baf7bf7a05efeffaf75b",
            "0x00000000000000000000000060cec0218b501cf4e045cbdba3ef021374e1afac",
            "0x000000000000000000000000b29e1dddfc73e00dee3eaa7ea102990adca78b39"
          ],
          "data": "0x0000000000000000000000000000000000000000000000000000000000000003000000000000000000000000000000000000000000000000000000000000000100000000000000000000000000000000000000000000003635c9adc5dea000000000000000000000000000000000000000000000000000364a7764beacb7ceab",
          "blockHash": "0x0000000000000000000000000000000000000000000000000000000000000000",
          "blockNumber": "0x2675fe2",
          "blockTimestamp": "0x69e21ea4",
          "transactionHash": "0x7b78b6b1a41091f9544db187d165529be75a56cf3635505ae650ccbc9de96d67",
          "transactionIndex": "0x15",
          "logIndex": "0x46",
          "removed": false
        }
      ],
      "logsBloom": "0x40000000000000000000000000000000000000000004000000000000000000000400100000000000000000000000000000000000000000000000000000000000000000000000000000000008000000000080002000000001000000000000000000000000000000000400000000000000000000000000010000000010000000000000000000000000000000000000008000000001000000000000000000000000000000000000000000000000000000000000000000000000000000000000000800000002000000000000000000000000004000000000000000000004000000100000020100400000000000000000000000000000000000008400001000000000",
      "transactionHash": "0x7b78b6b1a41091f9544db187d165529be75a56cf3635505ae650ccbc9de96d67",
      "transactionIndex": "0x15",
      "blockHash": "0x0000000000000000000000000000000000000000000000000000000000000000",
      "blockNumber": "0x2675fe2",
      "gasUsed": "0x77eb8",
      "effectiveGasPrice": "0x5b8d80",
      "blobGasUsed": "0x4ce4",
      "from": "0xb29e1dddfc73e00dee3eaa7ea102990adca78b39",
      "to": "0x60cec0218b501cf4e045cbdba3ef021374e1afac",
      "contractAddress": null,
      "l1GasPrice": "0x1881bfd",
      "l1GasUsed": "0x85e",
      "l1Fee": "0x2b7bf5f9",
      "l1BaseFeeScalar": "0x44d",
      "l1BlobBaseFee": "0x14e489",
      "l1BlobBaseFeeScalar": "0xa118b",
      "daFootprintGasScalar": "0x94"
    },
    {
      "type": "0x2",
      "status": "0x1",
      "cumulativeGasUsed": "0x7f0973",
      "logs": [
        {
          "address": "0x60cb112631ce92f9fe164878d690fac1fd1c295d",
          "topics": [
            "0xddf252ad1be2c89b69c2b068fc378daa952ba7f163c4a11628f55a4df523b3ef",
            "0x000000000000000000000000285398f9ac1d317bca922691316bdf5b1493da71",
            "0x000000000000000000000000b29e1dddfc73e00dee3eaa7ea102990adca78b39"
          ],
          "data": "0x000000000000000000000000000000000000000000000036132d086bc1814a59",
          "blockHash": "0x0000000000000000000000000000000000000000000000000000000000000000",
          "blockNumber": "0x2675fe2",
          "blockTimestamp": "0x69e21ea4",
          "transactionHash": "0x3335058e9b2a78772081ab62be07469b76205a24bdb1cd98780a6bbde981b761",
          "transactionIndex": "0x16",
          "logIndex": "0x47",
          "removed": false
        },
        {
          "address": "0x44406ad771b05827f5fd95b002189e51eebedc91",
          "topics": [
            "0xddf252ad1be2c89b69c2b068fc378daa952ba7f163c4a11628f55a4df523b3ef",
            "0x000000000000000000000000b29e1dddfc73e00dee3eaa7ea102990adca78b39",
            "0x000000000000000000000000285398f9ac1d317bca922691316bdf5b1493da71"
          ],
          "data": "0x00000000000000000000000000000000000000000000003635c9adc5dea00000",
          "blockHash": "0x0000000000000000000000000000000000000000000000000000000000000000",
          "blockNumber": "0x2675fe2",
          "blockTimestamp": "0x69e21ea4",
          "transactionHash": "0x3335058e9b2a78772081ab62be07469b76205a24bdb1cd98780a6bbde981b761",
          "transactionIndex": "0x16",
          "logIndex": "0x48",
          "removed": false
        },
        {
          "address": "0x285398f9ac1d317bca922691316bdf5b1493da71",
          "topics": [
            "0xb3e2773606abfd36b5bd91394b3a54d1398336c65005baf7bf7a05efeffaf75b",
            "0x00000000000000000000000060cec0218b501cf4e045cbdba3ef021374e1afac",
            "0x000000000000000000000000b29e1dddfc73e00dee3eaa7ea102990adca78b39"
          ],
          "data": "0x0000000000000000000000000000000000000000000000000000000000000002000000000000000000000000000000000000000000000000000000000000000300000000000000000000000000000000000000000000003635c9adc5dea00000000000000000000000000000000000000000000000000036132d086bc1814a59",
          "blockHash": "0x0000000000000000000000000000000000000000000000000000000000000000",
          "blockNumber": "0x2675fe2",
          "blockTimestamp": "0x69e21ea4",
          "transactionHash": "0x3335058e9b2a78772081ab62be07469b76205a24bdb1cd98780a6bbde981b761",
          "transactionIndex": "0x16",
          "logIndex": "0x49",
          "removed": false
        }
      ],
      "logsBloom": "0x40000000000000000000000000000000000010000004000000000000000000000400000000000000000000000000000000000100000000000000000000000000000000000000000000000008000000000080002000000001000000000000000000000000000000000400000000000000000000000000000000000010000000000000000000000000000000000000008000000001000000000000000000000000000000000000000000000000000000000000000000000000000000000000000800000002000000000000000000000000004000000000000000000104000000100000020100400000000000000000000000000000000000000400001000000000",
      "transactionHash": "0x3335058e9b2a78772081ab62be07469b76205a24bdb1cd98780a6bbde981b761",
      "transactionIndex": "0x16",
      "blockHash": "0x0000000000000000000000000000000000000000000000000000000000000000",
      "blockNumber": "0x2675fe2",
      "gasUsed": "0x71e01",
      "effectiveGasPrice": "0x5b8d80",
      "blobGasUsed": "0x4ce4",
      "from": "0xb29e1dddfc73e00dee3eaa7ea102990adca78b39",
      "to": "0x60cec0218b501cf4e045cbdba3ef021374e1afac",
      "contractAddress": null,
      "l1GasPrice": "0x1881bfd",
      "l1GasUsed": "0x85e",
      "l1Fee": "0x2b7bf5f9",
      "l1BaseFeeScalar": "0x44d",
      "l1BlobBaseFee": "0x14e489",
      "l1BlobBaseFeeScalar": "0xa118b",
      "daFootprintGasScalar": "0x94"
    },
    {
      "type": "0x2",
      "status": "0x1",
      "cumulativeGasUsed": "0x85b5c8",
      "logs": [
        {
          "address": "0x44406ad771b05827f5fd95b002189e51eebedc91",
          "topics": [
            "0xddf252ad1be2c89b69c2b068fc378daa952ba7f163c4a11628f55a4df523b3ef",
            "0x000000000000000000000000285398f9ac1d317bca922691316bdf5b1493da71",
            "0x000000000000000000000000b29e1dddfc73e00dee3eaa7ea102990adca78b39"
          ],
          "data": "0x0000000000000000000000000000000000000000000000364a8595381dbafdaa",
          "blockHash": "0x0000000000000000000000000000000000000000000000000000000000000000",
          "blockNumber": "0x2675fe2",
          "blockTimestamp": "0x69e21ea4",
          "transactionHash": "0x2f93a1b404e50cc9472800dcd8bd418748ae52e09a67e3dbae47c3cb2f6c0fc2",
          "transactionIndex": "0x17",
          "logIndex": "0x4a",
          "removed": false
        },
        {
          "address": "0x60cb112631ce92f9fe164878d690fac1fd1c295d",
          "topics": [
            "0xddf252ad1be2c89b69c2b068fc378daa952ba7f163c4a11628f55a4df523b3ef",
            "0x000000000000000000000000b29e1dddfc73e00dee3eaa7ea102990adca78b39",
            "0x000000000000000000000000285398f9ac1d317bca922691316bdf5b1493da71"
          ],
          "data": "0x00000000000000000000000000000000000000000000003635c9adc5dea00000",
          "blockHash": "0x0000000000000000000000000000000000000000000000000000000000000000",
          "blockNumber": "0x2675fe2",
          "blockTimestamp": "0x69e21ea4",
          "transactionHash": "0x2f93a1b404e50cc9472800dcd8bd418748ae52e09a67e3dbae47c3cb2f6c0fc2",
          "transactionIndex": "0x17",
          "logIndex": "0x4b",
          "removed": false
        },
        {
          "address": "0x285398f9ac1d317bca922691316bdf5b1493da71",
          "topics": [
            "0xb3e2773606abfd36b5bd91394b3a54d1398336c65005baf7bf7a05efeffaf75b",
            "0x00000000000000000000000060cec0218b501cf4e045cbdba3ef021374e1afac",
            "0x000000000000000000000000b29e1dddfc73e00dee3eaa7ea102990adca78b39"
          ],
          "data": "0x0000000000000000000000000000000000000000000000000000000000000003000000000000000000000000000000000000000000000000000000000000000200000000000000000000000000000000000000000000003635c9adc5dea000000000000000000000000000000000000000000000000000364a8595381dbafdaa",
          "blockHash": "0x0000000000000000000000000000000000000000000000000000000000000000",
          "blockNumber": "0x2675fe2",
          "blockTimestamp": "0x69e21ea4",
          "transactionHash": "0x2f93a1b404e50cc9472800dcd8bd418748ae52e09a67e3dbae47c3cb2f6c0fc2",
          "transactionIndex": "0x17",
          "logIndex": "0x4c",
          "removed": false
        }
      ],
      "logsBloom": "0x40000000000000000000000000000000000010000004000000000000000000000400000000000000000000000000000000000100000000000000000000000000000000000000000000000008000000000080002000000001000000000000000000000000000000000400000000000000000000000000000000000010000000000000000000000000000000000000008000000001000000000000000000000000000000000000000000000000000000000000000000000000000000000000000800000002000000000000000000000000004000000000000000000104000000100000020100400000000000000000000000000000000000000400001000000000",
      "transactionHash": "0x2f93a1b404e50cc9472800dcd8bd418748ae52e09a67e3dbae47c3cb2f6c0fc2",
      "transactionIndex": "0x17",
      "blockHash": "0x0000000000000000000000000000000000000000000000000000000000000000",
      "blockNumber": "0x2675fe2",
      "gasUsed": "0x6ac55",
      "effectiveGasPrice": "0x5b8d80",
      "blobGasUsed": "0x4ce4",
      "from": "0xb29e1dddfc73e00dee3eaa7ea102990adca78b39",
      "to": "0x60cec0218b501cf4e045cbdba3ef021374e1afac",
      "contractAddress": null,
      "l1GasPrice": "0x1881bfd",
      "l1GasUsed": "0x85e",
      "l1Fee": "0x2b7bf5f9",
      "l1BaseFeeScalar": "0x44d",
      "l1BlobBaseFee": "0x14e489",
      "l1BlobBaseFeeScalar": "0xa118b",
      "daFootprintGasScalar": "0x94"
    },
    {
      "type": "0x2",
      "status": "0x1",
      "cumulativeGasUsed": "0x8cd311",
      "logs": [
        {
          "address": "0x39855b7de333de50a7b2e97a3a3e2ec1cf0411a9",
          "topics": [
            "0xddf252ad1be2c89b69c2b068fc378daa952ba7f163c4a11628f55a4df523b3ef",
            "0x000000000000000000000000285398f9ac1d317bca922691316bdf5b1493da71",
            "0x000000000000000000000000b29e1dddfc73e00dee3eaa7ea102990adca78b39"
          ],
          "data": "0x000000000000000000000000000000000000000000000036134961fe5d59c252",
          "blockHash": "0x0000000000000000000000000000000000000000000000000000000000000000",
          "blockNumber": "0x2675fe2",
          "blockTimestamp": "0x69e21ea4",
          "transactionHash": "0x149b992fc78c98d25df0d7ceaa4ca71ce9a5c515d011e57d4b3a0adc01322d74",
          "transactionIndex": "0x18",
          "logIndex": "0x4d",
          "removed": false
        },
        {
          "address": "0x168deb69184ea184aadb8a626dc4d3013dc08fe8",
          "topics": [
            "0xddf252ad1be2c89b69c2b068fc378daa952ba7f163c4a11628f55a4df523b3ef",
            "0x000000000000000000000000b29e1dddfc73e00dee3eaa7ea102990adca78b39",
            "0x000000000000000000000000285398f9ac1d317bca922691316bdf5b1493da71"
          ],
          "data": "0x00000000000000000000000000000000000000000000003635c9adc5dea00000",
          "blockHash": "0x0000000000000000000000000000000000000000000000000000000000000000",
          "blockNumber": "0x2675fe2",
          "blockTimestamp": "0x69e21ea4",
          "transactionHash": "0x149b992fc78c98d25df0d7ceaa4ca71ce9a5c515d011e57d4b3a0adc01322d74",
          "transactionIndex": "0x18",
          "logIndex": "0x4e",
          "removed": false
        },
        {
          "address": "0x285398f9ac1d317bca922691316bdf5b1493da71",
          "topics": [
            "0xb3e2773606abfd36b5bd91394b3a54d1398336c65005baf7bf7a05efeffaf75b",
            "0x00000000000000000000000060cec0218b501cf4e045cbdba3ef021374e1afac",
            "0x000000000000000000000000b29e1dddfc73e00dee3eaa7ea102990adca78b39"
          ],
          "data": "0x0000000000000000000000000000000000000000000000000000000000000000000000000000000000000000000000000000000000000000000000000000000100000000000000000000000000000000000000000000003635c9adc5dea00000000000000000000000000000000000000000000000000036134961fe5d59c252",
          "blockHash": "0x0000000000000000000000000000000000000000000000000000000000000000",
          "blockNumber": "0x2675fe2",
          "blockTimestamp": "0x69e21ea4",
          "transactionHash": "0x149b992fc78c98d25df0d7ceaa4ca71ce9a5c515d011e57d4b3a0adc01322d74",
          "transactionIndex": "0x18",
          "logIndex": "0x4f",
          "removed": false
        }
      ],
      "logsBloom": "0x40000000000000000000000000000000000800000000000000000000000000000400100000000002000000000000000000000000000000000000000000000000000000010000000000000008000000000080000000000000000000000000000000000000000000000400000000000000000000000000010000000010000000000000000000000000000000000000008000000001000000000000000000000000000000000000000000000000000000000000000000000000000000000000000800000002000000000000000000000000004000000000000000000004000000100000020100400000000000000000000000000000000000008400001000000000",
      "transactionHash": "0x149b992fc78c98d25df0d7ceaa4ca71ce9a5c515d011e57d4b3a0adc01322d74",
      "transactionIndex": "0x18",
      "blockHash": "0x0000000000000000000000000000000000000000000000000000000000000000",
      "blockNumber": "0x2675fe2",
      "gasUsed": "0x71d49",
      "effectiveGasPrice": "0x5b8d80",
      "blobGasUsed": "0x48d8",
      "from": "0xb29e1dddfc73e00dee3eaa7ea102990adca78b39",
      "to": "0x60cec0218b501cf4e045cbdba3ef021374e1afac",
      "contractAddress": null,
      "l1GasPrice": "0x1881bfd",
      "l1GasUsed": "0x7e6",
      "l1Fee": "0x2b7bf5f9",
      "l1BaseFeeScalar": "0x44d",
      "l1BlobBaseFee": "0x14e489",
      "l1BlobBaseFeeScalar": "0xa118b",
      "daFootprintGasScalar": "0x94"
    },
    {
      "type": "0x2",
      "status": "0x1",
      "cumulativeGasUsed": "0x93aab2",
      "logs": [
        {
          "address": "0x44406ad771b05827f5fd95b002189e51eebedc91",
          "topics": [
            "0xddf252ad1be2c89b69c2b068fc378daa952ba7f163c4a11628f55a4df523b3ef",
            "0x000000000000000000000000285398f9ac1d317bca922691316bdf5b1493da71",
            "0x000000000000000000000000b29e1dddfc73e00dee3eaa7ea102990adca78b39"
          ],
          "data": "0x0000000000000000000000000000000000000000000000362ee7747d0eb1ffb4",
          "blockHash": "0x0000000000000000000000000000000000000000000000000000000000000000",
          "blockNumber": "0x2675fe2",
          "blockTimestamp": "0x69e21ea4",
          "transactionHash": "0x6800aa67597417224eb92bed5bccdbd40b255034ebb63a5902248b2a5ff107c2",
          "transactionIndex": "0x19",
          "logIndex": "0x50",
          "removed": false
        },
        {
          "address": "0x39855b7de333de50a7b2e97a3a3e2ec1cf0411a9",
          "topics": [
            "0xddf252ad1be2c89b69c2b068fc378daa952ba7f163c4a11628f55a4df523b3ef",
            "0x000000000000000000000000b29e1dddfc73e00dee3eaa7ea102990adca78b39",
            "0x000000000000000000000000285398f9ac1d317bca922691316bdf5b1493da71"
          ],
          "data": "0x00000000000000000000000000000000000000000000003635c9adc5dea00000",
          "blockHash": "0x0000000000000000000000000000000000000000000000000000000000000000",
          "blockNumber": "0x2675fe2",
          "blockTimestamp": "0x69e21ea4",
          "transactionHash": "0x6800aa67597417224eb92bed5bccdbd40b255034ebb63a5902248b2a5ff107c2",
          "transactionIndex": "0x19",
          "logIndex": "0x51",
          "removed": false
        },
        {
          "address": "0x285398f9ac1d317bca922691316bdf5b1493da71",
          "topics": [
            "0xb3e2773606abfd36b5bd91394b3a54d1398336c65005baf7bf7a05efeffaf75b",
            "0x00000000000000000000000060cec0218b501cf4e045cbdba3ef021374e1afac",
            "0x000000000000000000000000b29e1dddfc73e00dee3eaa7ea102990adca78b39"
          ],
          "data": "0x0000000000000000000000000000000000000000000000000000000000000001000000000000000000000000000000000000000000000000000000000000000200000000000000000000000000000000000000000000003635c9adc5dea000000000000000000000000000000000000000000000000000362ee7747d0eb1ffb4",
          "blockHash": "0x0000000000000000000000000000000000000000000000000000000000000000",
          "blockNumber": "0x2675fe2",
          "blockTimestamp": "0x69e21ea4",
          "transactionHash": "0x6800aa67597417224eb92bed5bccdbd40b255034ebb63a5902248b2a5ff107c2",
          "transactionIndex": "0x19",
          "logIndex": "0x52",
          "removed": false
        }
      ],
      "logsBloom": "0x40000000000000000000000000000000000010000000000000000000000000000400100000000000000000000000000000000100000000000000000000000000000000000000000000000008000000000080000000000000000000000000000000000000000000000400000000000000000000000000010000000010000000000000000000000000000000000000008000000001000000000000000000000000000000000000000000000000000000000000000000000000000000000000000800000002000000000000000000000000004000000000000000000104000000100000020100400000000000000000000000000000000000008400001000000000",
      "transactionHash": "0x6800aa67597417224eb92bed5bccdbd40b255034ebb63a5902248b2a5ff107c2",
      "transactionIndex": "0x19",
      "blockHash": "0x0000000000000000000000000000000000000000000000000000000000000000",
      "blockNumber": "0x2675fe2",
      "gasUsed": "0x6d7a1",
      "effectiveGasPrice": "0x5b8d80",
      "blobGasUsed": "0x4ce4",
      "from": "0xb29e1dddfc73e00dee3eaa7ea102990adca78b39",
      "to": "0x60cec0218b501cf4e045cbdba3ef021374e1afac",
      "contractAddress": null,
      "l1GasPrice": "0x1881bfd",
      "l1GasUsed": "0x85e",
      "l1Fee": "0x2b7bf5f9",
      "l1BaseFeeScalar": "0x44d",
      "l1BlobBaseFee": "0x14e489",
      "l1BlobBaseFeeScalar": "0xa118b",
      "daFootprintGasScalar": "0x94"
    },
    {
      "type": "0x2",
      "status": "0x1",
      "cumulativeGasUsed": "0x9a8253",
      "logs": [
        {
          "address": "0x60cb112631ce92f9fe164878d690fac1fd1c295d",
          "topics": [
            "0xddf252ad1be2c89b69c2b068fc378daa952ba7f163c4a11628f55a4df523b3ef",
            "0x000000000000000000000000285398f9ac1d317bca922691316bdf5b1493da71",
            "0x000000000000000000000000b29e1dddfc73e00dee3eaa7ea102990adca78b39"
          ],
          "data": "0x0000000000000000000000000000000000000000000000362ef58f8628c93e6e",
          "blockHash": "0x0000000000000000000000000000000000000000000000000000000000000000",
          "blockNumber": "0x2675fe2",
          "blockTimestamp": "0x69e21ea4",
          "transactionHash": "0xe791bec96fd13a21f6442c8641c2237dd3486211d6caf3a5e215c8e369729810",
          "transactionIndex": "0x1a",
          "logIndex": "0x53",
          "removed": false
        },
        {
          "address": "0x44406ad771b05827f5fd95b002189e51eebedc91",
          "topics": [
            "0xddf252ad1be2c89b69c2b068fc378daa952ba7f163c4a11628f55a4df523b3ef",
            "0x000000000000000000000000b29e1dddfc73e00dee3eaa7ea102990adca78b39",
            "0x000000000000000000000000285398f9ac1d317bca922691316bdf5b1493da71"
          ],
          "data": "0x00000000000000000000000000000000000000000000003635c9adc5dea00000",
          "blockHash": "0x0000000000000000000000000000000000000000000000000000000000000000",
          "blockNumber": "0x2675fe2",
          "blockTimestamp": "0x69e21ea4",
          "transactionHash": "0xe791bec96fd13a21f6442c8641c2237dd3486211d6caf3a5e215c8e369729810",
          "transactionIndex": "0x1a",
          "logIndex": "0x54",
          "removed": false
        },
        {
          "address": "0x285398f9ac1d317bca922691316bdf5b1493da71",
          "topics": [
            "0xb3e2773606abfd36b5bd91394b3a54d1398336c65005baf7bf7a05efeffaf75b",
            "0x00000000000000000000000060cec0218b501cf4e045cbdba3ef021374e1afac",
            "0x000000000000000000000000b29e1dddfc73e00dee3eaa7ea102990adca78b39"
          ],
          "data": "0x0000000000000000000000000000000000000000000000000000000000000002000000000000000000000000000000000000000000000000000000000000000300000000000000000000000000000000000000000000003635c9adc5dea000000000000000000000000000000000000000000000000000362ef58f8628c93e6e",
          "blockHash": "0x0000000000000000000000000000000000000000000000000000000000000000",
          "blockNumber": "0x2675fe2",
          "blockTimestamp": "0x69e21ea4",
          "transactionHash": "0xe791bec96fd13a21f6442c8641c2237dd3486211d6caf3a5e215c8e369729810",
          "transactionIndex": "0x1a",
          "logIndex": "0x55",
          "removed": false
        }
      ],
      "logsBloom": "0x40000000000000000000000000000000000010000004000000000000000000000400000000000000000000000000000000000100000000000000000000000000000000000000000000000008000000000080002000000001000000000000000000000000000000000400000000000000000000000000000000000010000000000000000000000000000000000000008000000001000000000000000000000000000000000000000000000000000000000000000000000000000000000000000800000002000000000000000000000000004000000000000000000104000000100000020100400000000000000000000000000000000000000400001000000000",
      "transactionHash": "0xe791bec96fd13a21f6442c8641c2237dd3486211d6caf3a5e215c8e369729810",
      "transactionIndex": "0x1a",
      "blockHash": "0x0000000000000000000000000000000000000000000000000000000000000000",
      "blockNumber": "0x2675fe2",
      "gasUsed": "0x6d7a1",
      "effectiveGasPrice": "0x5b8d80",
      "blobGasUsed": "0x4d78",
      "from": "0xb29e1dddfc73e00dee3eaa7ea102990adca78b39",
      "to": "0x60cec0218b501cf4e045cbdba3ef021374e1afac",
      "contractAddress": null,
      "l1GasPrice": "0x1881bfd",
      "l1GasUsed": "0x86c",
      "l1Fee": "0x2b7bf5f9",
      "l1BaseFeeScalar": "0x44d",
      "l1BlobBaseFee": "0x14e489",
      "l1BlobBaseFeeScalar": "0xa118b",
      "daFootprintGasScalar": "0x94"
    },
    {
      "type": "0x2",
      "status": "0x1",
      "cumulativeGasUsed": "0xa200ff",
      "logs": [
        {
          "address": "0x168deb69184ea184aadb8a626dc4d3013dc08fe8",
          "topics": [
            "0xddf252ad1be2c89b69c2b068fc378daa952ba7f163c4a11628f55a4df523b3ef",
            "0x000000000000000000000000285398f9ac1d317bca922691316bdf5b1493da71",
            "0x000000000000000000000000b29e1dddfc73e00dee3eaa7ea102990adca78b39"
          ],
          "data": "0x0000000000000000000000000000000000000000000000364a3ece66ef37798b",
          "blockHash": "0x0000000000000000000000000000000000000000000000000000000000000000",
          "blockNumber": "0x2675fe2",
          "blockTimestamp": "0x69e21ea4",
          "transactionHash": "0x0d923846c0beabe4a3b94559be6661a436ce4cc433c5199863e1148fe6ebaa3b",
          "transactionIndex": "0x1b",
          "logIndex": "0x56",
          "removed": false
        },
        {
          "address": "0x60cb112631ce92f9fe164878d690fac1fd1c295d",
          "topics": [
            "0xddf252ad1be2c89b69c2b068fc378daa952ba7f163c4a11628f55a4df523b3ef",
            "0x000000000000000000000000b29e1dddfc73e00dee3eaa7ea102990adca78b39",
            "0x000000000000000000000000285398f9ac1d317bca922691316bdf5b1493da71"
          ],
          "data": "0x00000000000000000000000000000000000000000000003635c9adc5dea00000",
          "blockHash": "0x0000000000000000000000000000000000000000000000000000000000000000",
          "blockNumber": "0x2675fe2",
          "blockTimestamp": "0x69e21ea4",
          "transactionHash": "0x0d923846c0beabe4a3b94559be6661a436ce4cc433c5199863e1148fe6ebaa3b",
          "transactionIndex": "0x1b",
          "logIndex": "0x57",
          "removed": false
        },
        {
          "address": "0x285398f9ac1d317bca922691316bdf5b1493da71",
          "topics": [
            "0xb3e2773606abfd36b5bd91394b3a54d1398336c65005baf7bf7a05efeffaf75b",
            "0x00000000000000000000000060cec0218b501cf4e045cbdba3ef021374e1afac",
            "0x000000000000000000000000b29e1dddfc73e00dee3eaa7ea102990adca78b39"
          ],
          "data": "0x0000000000000000000000000000000000000000000000000000000000000003000000000000000000000000000000000000000000000000000000000000000000000000000000000000000000000000000000000000003635c9adc5dea000000000000000000000000000000000000000000000000000364a3ece66ef37798b",
          "blockHash": "0x0000000000000000000000000000000000000000000000000000000000000000",
          "blockNumber": "0x2675fe2",
          "blockTimestamp": "0x69e21ea4",
          "transactionHash": "0x0d923846c0beabe4a3b94559be6661a436ce4cc433c5199863e1148fe6ebaa3b",
          "transactionIndex": "0x1b",
          "logIndex": "0x58",
          "removed": false
        }
      ],
      "logsBloom": "0x40000000000000000000000000000000000800000004000000000000000000000400000000000002000000000000000000000000000000000000000000000000000000010000000000000008000000000080002000000001000000000000000000000000000000000400000000000000000000000000000000000010000000000000000000000000000000000000008000000001000000000000000000000000000000000000000000000000000000000000000000000000000000000000000800000002000000000000000000000000004000000000000000000004000000100000020100400000000000000000000000000000000000000400001000000000",
      "transactionHash": "0x0d923846c0beabe4a3b94559be6661a436ce4cc433c5199863e1148fe6ebaa3b",
      "transactionIndex": "0x1b",
      "blockHash": "0x0000000000000000000000000000000000000000000000000000000000000000",
      "blockNumber": "0x2675fe2",
      "gasUsed": "0x77eac",
      "effectiveGasPrice": "0x5b8d80",
      "blobGasUsed": "0x4b28",
      "from": "0xb29e1dddfc73e00dee3eaa7ea102990adca78b39",
      "to": "0x60cec0218b501cf4e045cbdba3ef021374e1afac",
      "contractAddress": null,
      "l1GasPrice": "0x1881bfd",
      "l1GasUsed": "0x829",
      "l1Fee": "0x2b7bf5f9",
      "l1BaseFeeScalar": "0x44d",
      "l1BlobBaseFee": "0x14e489",
      "l1BlobBaseFeeScalar": "0xa118b",
      "daFootprintGasScalar": "0x94"
    },
    {
      "type": "0x2",
      "status": "0x1",
      "cumulativeGasUsed": "0xa91e44",
      "logs": [
        {
          "address": "0x44406ad771b05827f5fd95b002189e51eebedc91",
          "topics": [
            "0xddf252ad1be2c89b69c2b068fc378daa952ba7f163c4a11628f55a4df523b3ef",
            "0x000000000000000000000000285398f9ac1d317bca922691316bdf5b1493da71",
            "0x000000000000000000000000b29e1dddfc73e00dee3eaa7ea102990adca78b39"
          ],
          "data": "0x000000000000000000000000000000000000000000000036137380280dc37377",
          "blockHash": "0x0000000000000000000000000000000000000000000000000000000000000000",
          "blockNumber": "0x2675fe2",
          "blockTimestamp": "0x69e21ea4",
          "transactionHash": "0xc5f3fc51efa4f7aefe2eb6c35404c1766bc6d96ab3a4954d90ae54e07973b1e1",
          "transactionIndex": "0x1c",
          "logIndex": "0x59",
          "removed": false
        },
        {
          "address": "0x168deb69184ea184aadb8a626dc4d3013dc08fe8",
          "topics": [
            "0xddf252ad1be2c89b69c2b068fc378daa952ba7f163c4a11628f55a4df523b3ef",
            "0x000000000000000000000000b29e1dddfc73e00dee3eaa7ea102990adca78b39",
            "0x000000000000000000000000285398f9ac1d317bca922691316bdf5b1493da71"
          ],
          "data": "0x00000000000000000000000000000000000000000000003635c9adc5dea00000",
          "blockHash": "0x0000000000000000000000000000000000000000000000000000000000000000",
          "blockNumber": "0x2675fe2",
          "blockTimestamp": "0x69e21ea4",
          "transactionHash": "0xc5f3fc51efa4f7aefe2eb6c35404c1766bc6d96ab3a4954d90ae54e07973b1e1",
          "transactionIndex": "0x1c",
          "logIndex": "0x5a",
          "removed": false
        },
        {
          "address": "0x285398f9ac1d317bca922691316bdf5b1493da71",
          "topics": [
            "0xb3e2773606abfd36b5bd91394b3a54d1398336c65005baf7bf7a05efeffaf75b",
            "0x00000000000000000000000060cec0218b501cf4e045cbdba3ef021374e1afac",
            "0x000000000000000000000000b29e1dddfc73e00dee3eaa7ea102990adca78b39"
          ],
          "data": "0x0000000000000000000000000000000000000000000000000000000000000000000000000000000000000000000000000000000000000000000000000000000200000000000000000000000000000000000000000000003635c9adc5dea00000000000000000000000000000000000000000000000000036137380280dc37377",
          "blockHash": "0x0000000000000000000000000000000000000000000000000000000000000000",
          "blockNumber": "0x2675fe2",
          "blockTimestamp": "0x69e21ea4",
          "transactionHash": "0xc5f3fc51efa4f7aefe2eb6c35404c1766bc6d96ab3a4954d90ae54e07973b1e1",
          "transactionIndex": "0x1c",
          "logIndex": "0x5b",
          "removed": false
        }
      ],
      "logsBloom": "0x40000000000000000000000000000000000810000000000000000000000000000400000000000002000000000000000000000100000000000000000000000000000000010000000000000008000000000080000000000000000000000000000000000000000000000400000000000000000000000000000000000010000000000000000000000000000000000000008000000001000000000000000000000000000000000000000000000000000000000000000000000000000000000000000800000002000000000000000000000000004000000000000000000104000000100000020100400000000000000000000000000000000000000400001000000000",
      "transactionHash": "0xc5f3fc51efa4f7aefe2eb6c35404c1766bc6d96ab3a4954d90ae54e07973b1e1",
      "transactionIndex": "0x1c",
      "blockHash": "0x0000000000000000000000000000000000000000000000000000000000000000",
      "blockNumber": "0x2675fe2",
      "gasUsed": "0x71d45",
      "effectiveGasPrice": "0x5b8d80",
      "blobGasUsed": "0x496c",
      "from": "0xb29e1dddfc73e00dee3eaa7ea102990adca78b39",
      "to": "0x60cec0218b501cf4e045cbdba3ef021374e1afac",
      "contractAddress": null,
      "l1GasPrice": "0x1881bfd",
      "l1GasUsed": "0x7f3",
      "l1Fee": "0x2b7bf5f9",
      "l1BaseFeeScalar": "0x44d",
      "l1BlobBaseFee": "0x14e489",
      "l1BlobBaseFeeScalar": "0xa118b",
      "daFootprintGasScalar": "0x94"
    },
    {
      "type": "0x2",
      "status": "0x1",
      "cumulativeGasUsed": "0xb041c5",
      "logs": [
        {
          "address": "0x60cb112631ce92f9fe164878d690fac1fd1c295d",
          "topics": [
            "0xddf252ad1be2c89b69c2b068fc378daa952ba7f163c4a11628f55a4df523b3ef",
            "0x000000000000000000000000285398f9ac1d317bca922691316bdf5b1493da71",
            "0x000000000000000000000000b29e1dddfc73e00dee3eaa7ea102990adca78b39"
          ],
          "data": "0x0000000000000000000000000000000000000000000000361357593d108327d4",
          "blockHash": "0x0000000000000000000000000000000000000000000000000000000000000000",
          "blockNumber": "0x2675fe2",
          "blockTimestamp": "0x69e21ea4",
          "transactionHash": "0x7447c9103993623747b4762dac805b8fa9181cea1ff446fff96a7ad563de9f42",
          "transactionIndex": "0x1d",
          "logIndex": "0x5c",
          "removed": false
        },
        {
          "address": "0x39855b7de333de50a7b2e97a3a3e2ec1cf0411a9",
          "topics": [
            "0xddf252ad1be2c89b69c2b068fc378daa952ba7f163c4a11628f55a4df523b3ef",
            "0x000000000000000000000000b29e1dddfc73e00dee3eaa7ea102990adca78b39",
            "0x000000000000000000000000285398f9ac1d317bca922691316bdf5b1493da71"
          ],
          "data": "0x00000000000000000000000000000000000000000000003635c9adc5dea00000",
          "blockHash": "0x0000000000000000000000000000000000000000000000000000000000000000",
          "blockNumber": "0x2675fe2",
          "blockTimestamp": "0x69e21ea4",
          "transactionHash": "0x7447c9103993623747b4762dac805b8fa9181cea1ff446fff96a7ad563de9f42",
          "transactionIndex": "0x1d",
          "logIndex": "0x5d",
          "removed": false
        },
        {
          "address": "0x285398f9ac1d317bca922691316bdf5b1493da71",
          "topics": [
            "0xb3e2773606abfd36b5bd91394b3a54d1398336c65005baf7bf7a05efeffaf75b",
            "0x00000000000000000000000060cec0218b501cf4e045cbdba3ef021374e1afac",
            "0x000000000000000000000000b29e1dddfc73e00dee3eaa7ea102990adca78b39"
          ],
          "data": "0x0000000000000000000000000000000000000000000000000000000000000001000000000000000000000000000000000000000000000000000000000000000300000000000000000000000000000000000000000000003635c9adc5dea000000000000000000000000000000000000000000000000000361357593d108327d4",
          "blockHash": "0x0000000000000000000000000000000000000000000000000000000000000000",
          "blockNumber": "0x2675fe2",
          "blockTimestamp": "0x69e21ea4",
          "transactionHash": "0x7447c9103993623747b4762dac805b8fa9181cea1ff446fff96a7ad563de9f42",
          "transactionIndex": "0x1d",
          "logIndex": "0x5e",
          "removed": false
        }
      ],
      "logsBloom": "0x40000000000000000000000000000000000000000004000000000000000000000400100000000000000000000000000000000000000000000000000000000000000000000000000000000008000000000080002000000001000000000000000000000000000000000400000000000000000000000000010000000010000000000000000000000000000000000000008000000001000000000000000000000000000000000000000000000000000000000000000000000000000000000000000800000002000000000000000000000000004000000000000000000004000000100000020100400000000000000000000000000000000000008400001000000000",
      "transactionHash": "0x7447c9103993623747b4762dac805b8fa9181cea1ff446fff96a7ad563de9f42",
      "transactionIndex": "0x1d",
      "blockHash": "0x0000000000000000000000000000000000000000000000000000000000000000",
      "blockNumber": "0x2675fe2",
      "gasUsed": "0x72381",
      "effectiveGasPrice": "0x5b8d80",
      "blobGasUsed": "0x4d78",
      "from": "0xb29e1dddfc73e00dee3eaa7ea102990adca78b39",
      "to": "0x60cec0218b501cf4e045cbdba3ef021374e1afac",
      "contractAddress": null,
      "l1GasPrice": "0x1881bfd",
      "l1GasUsed": "0x86c",
      "l1Fee": "0x2b7bf5f9",
      "l1BaseFeeScalar": "0x44d",
      "l1BlobBaseFee": "0x14e489",
      "l1BlobBaseFeeScalar": "0xa118b",
      "daFootprintGasScalar": "0x94"
    },
    {
      "type": "0x2",
      "status": "0x1",
      "cumulativeGasUsed": "0xb7f58b",
      "logs": [
        {
          "address": "0x168deb69184ea184aadb8a626dc4d3013dc08fe8",
          "topics": [
            "0xddf252ad1be2c89b69c2b068fc378daa952ba7f163c4a11628f55a4df523b3ef",
            "0x000000000000000000000000285398f9ac1d317bca922691316bdf5b1493da71",
            "0x000000000000000000000000b29e1dddfc73e00dee3eaa7ea102990adca78b39"
          ],
          "data": "0x0000000000000000000000000000000000000000000000364a3ef9f048588487",
          "blockHash": "0x0000000000000000000000000000000000000000000000000000000000000000",
          "blockNumber": "0x2675fe2",
          "blockTimestamp": "0x69e21ea4",
          "transactionHash": "0xff0ae3485d2cf5df63a868c6bc82620e2ede2fe8e41ecab2bc8bb56e30fc50ac",
          "transactionIndex": "0x1e",
          "logIndex": "0x5f",
          "removed": false
        },
        {
          "address": "0x44406ad771b05827f5fd95b002189e51eebedc91",
          "topics": [
            "0xddf252ad1be2c89b69c2b068fc378daa952ba7f163c4a11628f55a4df523b3ef",
            "0x000000000000000000000000b29e1dddfc73e00dee3eaa7ea102990adca78b39",
            "0x000000000000000000000000285398f9ac1d317bca922691316bdf5b1493da71"
          ],
          "data": "0x00000000000000000000000000000000000000000000003635c9adc5dea00000",
          "blockHash": "0x0000000000000000000000000000000000000000000000000000000000000000",
          "blockNumber": "0x2675fe2",
          "blockTimestamp": "0x69e21ea4",
          "transactionHash": "0xff0ae3485d2cf5df63a868c6bc82620e2ede2fe8e41ecab2bc8bb56e30fc50ac",
          "transactionIndex": "0x1e",
          "logIndex": "0x60",
          "removed": false
        },
        {
          "address": "0x285398f9ac1d317bca922691316bdf5b1493da71",
          "topics": [
            "0xb3e2773606abfd36b5bd91394b3a54d1398336c65005baf7bf7a05efeffaf75b",
            "0x00000000000000000000000060cec0218b501cf4e045cbdba3ef021374e1afac",
            "0x000000000000000000000000b29e1dddfc73e00dee3eaa7ea102990adca78b39"
          ],
          "data": "0x0000000000000000000000000000000000000000000000000000000000000002000000000000000000000000000000000000000000000000000000000000000000000000000000000000000000000000000000000000003635c9adc5dea000000000000000000000000000000000000000000000000000364a3ef9f048588487",
          "blockHash": "0x0000000000000000000000000000000000000000000000000000000000000000",
          "blockNumber": "0x2675fe2",
          "blockTimestamp": "0x69e21ea4",
          "transactionHash": "0xff0ae3485d2cf5df63a868c6bc82620e2ede2fe8e41ecab2bc8bb56e30fc50ac",
          "transactionIndex": "0x1e",
          "logIndex": "0x61",
          "removed": false
        }
      ],
      "logsBloom": "0x40000000000000000000000000000000000810000000000000000000000000000400000000000002000000000000000000000100000000000000000000000000000000010000000000000008000000000080000000000000000000000000000000000000000000000400000000000000000000000000000000000010000000000000000000000000000000000000008000000001000000000000000000000000000000000000000000000000000000000000000000000000000000000000000800000002000000000000000000000000004000000000000000000104000000100000020100400000000000000000000000000000000000000400001000000000",
      "transactionHash": "0xff0ae3485d2cf5df63a868c6bc82620e2ede2fe8e41ecab2bc8bb56e30fc50ac",
      "transactionIndex": "0x1e",
      "blockHash": "0x0000000000000000000000000000000000000000000000000000000000000000",
      "blockNumber": "0x2675fe2",
      "gasUsed": "0x7b3c6",
      "effectiveGasPrice": "0x5b8d80",
      "blobGasUsed": "0x4b28",
      "from": "0xb29e1dddfc73e00dee3eaa7ea102990adca78b39",
      "to": "0x60cec0218b501cf4e045cbdba3ef021374e1afac",
      "contractAddress": null,
      "l1GasPrice": "0x1881bfd",
      "l1GasUsed": "0x829",
      "l1Fee": "0x2b7bf5f9",
      "l1BaseFeeScalar": "0x44d",
      "l1BlobBaseFee": "0x14e489",
      "l1BlobBaseFeeScalar": "0xa118b",
      "daFootprintGasScalar": "0x94"
    },
    {
      "type": "0x2",
      "status": "0x1",
      "cumulativeGasUsed": "0xbf7bcf",
      "logs": [
        {
          "address": "0x39855b7de333de50a7b2e97a3a3e2ec1cf0411a9",
          "topics": [
            "0xddf252ad1be2c89b69c2b068fc378daa952ba7f163c4a11628f55a4df523b3ef",
            "0x000000000000000000000000285398f9ac1d317bca922691316bdf5b1493da71",
            "0x000000000000000000000000b29e1dddfc73e00dee3eaa7ea102990adca78b39"
          ],
          "data": "0x0000000000000000000000000000000000000000000000364a5b2ef2ab389456",
          "blockHash": "0x0000000000000000000000000000000000000000000000000000000000000000",
          "blockNumber": "0x2675fe2",
          "blockTimestamp": "0x69e21ea4",
          "transactionHash": "0x9dae9e4e28f4b5bb37930806484cf6a45cd83dec7f70c36f8cb334a58f7c5c3c",
          "transactionIndex": "0x1f",
          "logIndex": "0x62",
          "removed": false
        },
        {
          "address": "0x60cb112631ce92f9fe164878d690fac1fd1c295d",
          "topics": [
            "0xddf252ad1be2c89b69c2b068fc378daa952ba7f163c4a11628f55a4df523b3ef",
            "0x000000000000000000000000b29e1dddfc73e00dee3eaa7ea102990adca78b39",
            "0x000000000000000000000000285398f9ac1d317bca922691316bdf5b1493da71"
          ],
          "data": "0x00000000000000000000000000000000000000000000003635c9adc5dea00000",
          "blockHash": "0x0000000000000000000000000000000000000000000000000000000000000000",
          "blockNumber": "0x2675fe2",
          "blockTimestamp": "0x69e21ea4",
          "transactionHash": "0x9dae9e4e28f4b5bb37930806484cf6a45cd83dec7f70c36f8cb334a58f7c5c3c",
          "transactionIndex": "0x1f",
          "logIndex": "0x63",
          "removed": false
        },
        {
          "address": "0x285398f9ac1d317bca922691316bdf5b1493da71",
          "topics": [
            "0xb3e2773606abfd36b5bd91394b3a54d1398336c65005baf7bf7a05efeffaf75b",
            "0x00000000000000000000000060cec0218b501cf4e045cbdba3ef021374e1afac",
            "0x000000000000000000000000b29e1dddfc73e00dee3eaa7ea102990adca78b39"
          ],
          "data": "0x0000000000000000000000000000000000000000000000000000000000000003000000000000000000000000000000000000000000000000000000000000000100000000000000000000000000000000000000000000003635c9adc5dea000000000000000000000000000000000000000000000000000364a5b2ef2ab389456",
          "blockHash": "0x0000000000000000000000000000000000000000000000000000000000000000",
          "blockNumber": "0x2675fe2",
          "blockTimestamp": "0x69e21ea4",
          "transactionHash": "0x9dae9e4e28f4b5bb37930806484cf6a45cd83dec7f70c36f8cb334a58f7c5c3c",
          "transactionIndex": "0x1f",
          "logIndex": "0x64",
          "removed": false
        }
      ],
      "logsBloom": "0x40000000000000000000000000000000000000000004000000000000000000000400100000000000000000000000000000000000000000000000000000000000000000000000000000000008000000000080002000000001000000000000000000000000000000000400000000000000000000000000010000000010000000000000000000000000000000000000008000000001000000000000000000000000000000000000000000000000000000000000000000000000000000000000000800000002000000000000000000000000004000000000000000000004000000100000020100400000000000000000000000000000000000008400001000000000",
      "transactionHash": "0x9dae9e4e28f4b5bb37930806484cf6a45cd83dec7f70c36f8cb334a58f7c5c3c",
      "transactionIndex": "0x1f",
      "blockHash": "0x0000000000000000000000000000000000000000000000000000000000000000",
      "blockNumber": "0x2675fe2",
      "gasUsed": "0x78644",
      "effectiveGasPrice": "0x5b8d80",
      "blobGasUsed": "0x4ce4",
      "from": "0xb29e1dddfc73e00dee3eaa7ea102990adca78b39",
      "to": "0x60cec0218b501cf4e045cbdba3ef021374e1afac",
      "contractAddress": null,
      "l1GasPrice": "0x1881bfd",
      "l1GasUsed": "0x85e",
      "l1Fee": "0x2b7bf5f9",
      "l1BaseFeeScalar": "0x44d",
      "l1BlobBaseFee": "0x14e489",
      "l1BlobBaseFeeScalar": "0xa118b",
      "daFootprintGasScalar": "0x94"
    }
  ],
  "libraries": [],
  "pending": [],
  "returns": {},
  "timestamp": 1776426660083,
  "chain": 84532,
  "commit": "799baa8"
}