{
  "transactions": [
    {
      "hash": "0x69eef9732e2bd13fe9c30b5e3b220031362f8f38412b58d8843bb7a0c5f83a3a",
      "transactionType": "CALL",
      "contractName": null,
      "contractAddress": "0x168deb69184ea184aadb8a626dc4d3013dc08fe8",
      "function": "mint(address,uint256)",
      "arguments": [
        "0xb29e1ddDfc73E00dEE3EaA7EA102990ADca78b39",
        "10000000000000000000000000"
      ],
      "transaction": {
        "from": "0xb29e1dddfc73e00dee3eaa7ea102990adca78b39",
        "to": "0x168deb69184ea184aadb8a626dc4d3013dc08fe8",
        "gas": "0xb724",
        "value": "0x0",
        "input": "0x40c10f19000000000000000000000000b29e1dddfc73e00dee3eaa7ea102990adca78b39000000000000000000000000000000000000000000084595161401484a000000",
        "nonce": "0x86",
        "chainId": "0x14a34"
      },
      "additionalContracts": [],
      "isFixedGasLimit": false
    },
    {
      "hash": "0x77799c2aa5f7d411daba165b496550a5108df6460c65903877ef47492e547774",
      "transactionType": "CALL",
      "contractName": null,
      "contractAddress": "0x39855b7de333de50a7b2e97a3a3e2ec1cf0411a9",
      "function": "mint(address,uint256)",
      "arguments": [
        "0xb29e1ddDfc73E00dEE3EaA7EA102990ADca78b39",
        "10000000000000000000000000"
      ],
      "transaction": {
        "from": "0xb29e1dddfc73e00dee3eaa7ea102990adca78b39",
        "to": "0x39855b7de333de50a7b2e97a3a3e2ec1cf0411a9",
        "gas": "0xb724",
        "value": "0x0",
        "input": "0x40c10f19000000000000000000000000b29e1dddfc73e00dee3eaa7ea102990adca78b39000000000000000000000000000000000000000000084595161401484a000000",
        "nonce": "0x87",
        "chainId": "0x14a34"
      },
      "additionalContracts": [],
      "isFixedGasLimit": false
    },
    {
      "hash": "0xb1d712b4aa023db0d472ea19fde280d6d3811234c9aafeb35a22843b43f8704c",
      "transactionType": "CALL",
      "contractName": null,
      "contractAddress": "0x44406ad771b05827f5fd95b002189e51eebedc91",
      "function": "mint(address,uint256)",
      "arguments": [
        "0xb29e1ddDfc73E00dEE3EaA7EA102990ADca78b39",
        "10000000000000000000000000"
      ],
      "transaction": {
        "from": "0xb29e1dddfc73e00dee3eaa7ea102990adca78b39",
        "to": "0x44406ad771b05827f5fd95b002189e51eebedc91",
        "gas": "0xb724",
        "value": "0x0",
        "input": "0x40c10f19000000000000000000000000b29e1dddfc73e00dee3eaa7ea102990adca78b39000000000000000000000000000000000000000000084595161401484a000000",
        "nonce": "0x88",
        "chainId": "0x14a34"
      },
      "additionalContracts": [],
      "isFixedGasLimit": false
    },
    {
      "hash": "0xfa465ffc55949333911e43be768943e9464782bfee09d540e80a774729ede4be",
      "transactionType": "CALL",
      "contractName": null,
      "contractAddress": "0x60cb112631ce92f9fe164878d690fac1fd1c295d",
      "function": "mint(address,uint256)",
      "arguments": [
        "0xb29e1ddDfc73E00dEE3EaA7EA102990ADca78b39",
        "10000000000000000000000000"
      ],
      "transaction": {
        "from": "0xb29e1dddfc73e00dee3eaa7ea102990adca78b39",
        "to": "0x60cb112631ce92f9fe164878d690fac1fd1c295d",
        "gas": "0xb724",
        "value": "0x0",
        "input": "0x40c10f19000000000000000000000000b29e1dddfc73e00dee3eaa7ea102990adca78b39000000000000000000000000000000000000000000084595161401484a000000",
        "nonce": "0x89",
        "chainId": "0x14a34"
      },
      "additionalContracts": [],
      "isFixedGasLimit": false
    },
    {
      "hash": "0x7a76020ee0a85bca6fdd71f62898483295e7305785ceb1cd4870d1d8f7ce4830",
      "transactionType": "CALL",
      "contractName": null,
      "contractAddress": "0x168deb69184ea184aadb8a626dc4d3013dc08fe8",
      "function": "approve(address,uint256)",
      "arguments": [
        "0x08AC49be269F1c6C2821D56c4C729C9843152EE3",
        "115792089237316195423570985008687907853269984665640564039457584007913129639935"
      ],
      "transaction": {
        "from": "0xb29e1dddfc73e00dee3eaa7ea102990adca78b39",
        "to": "0x168deb69184ea184aadb8a626dc4d3013dc08fe8",
        "gas": "0x8e58",
        "value": "0x0",
        "input": "0x095ea7b300000000000000000000000008ac49be269f1c6c2821d56c4c729c9843152ee3ffffffffffffffffffffffffffffffffffffffffffffffffffffffffffffffff",
        "nonce": "0x8a",
        "chainId": "0x14a34"
      },
      "additionalContracts": [],
      "isFixedGasLimit": false
    },
    {
      "hash": "0x104e75c5e6ae7d6da7daad7c35b4df6121d5f78d9e189198aaf0af9b67475242",
      "transactionType": "CALL",
      "contractName": null,
      "contractAddress": "0x39855b7de333de50a7b2e97a3a3e2ec1cf0411a9",
      "function": "approve(address,uint256)",
      "arguments": [
        "0x08AC49be269F1c6C2821D56c4C729C9843152EE3",
        "115792089237316195423570985008687907853269984665640564039457584007913129639935"
      ],
      "transaction": {
        "from": "0xb29e1dddfc73e00dee3eaa7ea102990adca78b39",
        "to": "0x39855b7de333de50a7b2e97a3a3e2ec1cf0411a9",
        "gas": "0x8e58",
        "value": "0x0",
        "input": "0x095ea7b300000000000000000000000008ac49be269f1c6c2821d56c4c729c9843152ee3ffffffffffffffffffffffffffffffffffffffffffffffffffffffffffffffff",
        "nonce": "0x8b",
        "chainId": "0x14a34"
      },
      "additionalContracts": [],
      "isFixedGasLimit": false
    },
    {
      "hash": "0xeeee26138ec69872b3d57ea194d3609fb4f5549234c013829f891b16dd03d306",
      "transactionType": "CALL",
      "contractName": null,
      "contractAddress": "0x44406ad771b05827f5fd95b002189e51eebedc91",
      "function": "approve(address,uint256)",
      "arguments": [
        "0x08AC49be269F1c6C2821D56c4C729C9843152EE3",
        "115792089237316195423570985008687907853269984665640564039457584007913129639935"
      ],
      "transaction": {
        "from": "0xb29e1dddfc73e00dee3eaa7ea102990adca78b39",
        "to": "0x44406ad771b05827f5fd95b002189e51eebedc91",
        "gas": "0x8e58",
        "value": "0x0",
        "input": "0x095ea7b300000000000000000000000008ac49be269f1c6c2821d56c4c729c9843152ee3ffffffffffffffffffffffffffffffffffffffffffffffffffffffffffffffff",
        "nonce": "0x8c",
        "chainId": "0x14a34"
      },
      "additionalContracts": [],
      "isFixedGasLimit": false
    },
    {
      "hash": "0x5262ec55528d9ab42e2c1d2bed2b7d4731d14e449499b3146cc7fdf039dc724b",
      "transactionType": "CALL",
      "contractName": null,
      "contractAddress": "0x60cb112631ce92f9fe164878d690fac1fd1c295d",
      "function": "approve(address,uint256)",
      "arguments": [
        "0x08AC49be269F1c6C2821D56c4C729C9843152EE3",
        "115792089237316195423570985008687907853269984665640564039457584007913129639935"
      ],
      "transaction": {
        "from": "0xb29e1dddfc73e00dee3eaa7ea102990adca78b39",
        "to": "0x60cb112631ce92f9fe164878d690fac1fd1c295d",
        "gas": "0x8e58",
        "value": "0x0",
        "input": "0x095ea7b300000000000000000000000008ac49be269f1c6c2821d56c4c729c9843152ee3ffffffffffffffffffffffffffffffffffffffffffffffffffffffffffffffff",
        "nonce": "0x8d",
        "chainId": "0x14a34"
      },
      "additionalContracts": [],
      "isFixedGasLimit": false
    },
    {
      "hash": "0x941b1301c542c6432c66da54e4f8f410f4e52eab2fd4d9d2be9637c83e0defff",
      "transactionType": "CALL",
      "contractName": null,
      "contractAddress": "0x08ac49be269f1c6c2821d56c4c729c9843152ee3",
      "function": "mint((address,uint256,uint256,uint256[],address,uint256))",
      "arguments": [
        "(0x285398F9Ac1D317Bca922691316BDf5B1493dA71, 4200000000000000000000000, 4000000000000000000000000, [0, 0, 0, 0], 0xb29e1ddDfc73E00dEE3EaA7EA102990ADca78b39, 1776427448)"
      ],
      "transaction": {
        "from": "0xb29e1dddfc73e00dee3eaa7ea102990adca78b39",
        "to": "0x08ac49be269f1c6c2821d56c4c729c9843152ee3",
        "gas": "0xe314f",
        "value": "0x0",
        "input": "0xb771f9510000000000000000000000000000000000000000000000000000000000000020000000000000000000000000285398f9ac1d317bca922691316bdf5b1493da7100000000000000000000000000000000000000000003796274caf64c71000000000000000000000000000000000000000000000000034f086f3b33b68400000000000000000000000000000000000000000000000000000000000000000000c0000000000000000000000000b29e1dddfc73e00dee3eaa7ea102990adca78b390000000000000000000000000000000000000000000000000000000069e221b800000000000000000000000000000000000000000000000000000000000000040000000000000000000000000000000000000000000000000000000000000000000000000000000000000000000000000000000000000000000000000000000000000000000000000000000000000000000000000000000000000000000000000000000000000000000000000000000000000000000000000000000000000000",
        "nonce": "0x8e",
        "chainId": "0x14a34"
      },
      "additionalContracts": [],
      "isFixedGasLimit": false
    },
    {
      "hash": "0xa905e828055d1b04a198acb25f8228a45bc9770d2fbf47e48af53e206e2cbb49",
      "transactionType": "CALL",
      "contractName": null,
      "contractAddress": "0x08ac49be269f1c6c2821d56c4c729c9843152ee3",
      "function": "mint((address,uint256,uint256,uint256[],address,uint256))",
      "arguments": [
        "(0x285398F9Ac1D317Bca922691316BDf5B1493dA71, 4025000000000000000000000, 3500000000000000000000000, [0, 0, 0, 0], 0xb29e1ddDfc73E00dEE3EaA7EA102990ADca78b39, 1776427448)"
      ],
      "transaction": {
        "from": "0xb29e1dddfc73e00dee3eaa7ea102990adca78b39",
        "to": "0x08ac49be269f1c6c2821d56c4c729c9843152ee3",
        "gas": "0xe759a",
        "value": "0x0",
        "input": "0xb771f9510000000000000000000000000000000000000000000000000000000000000020000000000000000000000000285398f9ac1d317bca922691316bdf5b1493da71000000000000000000000000000000000000000000035453afed2c0941a0000000000000000000000000000000000000000000000002e5276153cd3fb380000000000000000000000000000000000000000000000000000000000000000000c0000000000000000000000000b29e1dddfc73e00dee3eaa7ea102990adca78b390000000000000000000000000000000000000000000000000000000069e221b800000000000000000000000000000000000000000000000000000000000000040000000000000000000000000000000000000000000000000000000000000000000000000000000000000000000000000000000000000000000000000000000000000000000000000000000000000000000000000000000000000000000000000000000000000000000000000000000000000000000000000000000000000000",
        "nonce": "0x8f",
        "chainId": "0x14a34"
      },
      "additionalContracts": [],
      "isFixedGasLimit": false
    },
    {
      "hash": "0x1c8521649a6d71f14dfa914b0a4c405ae0a353fe534a617e24110281db7b7d98",
      "transactionType": "CALL",
      "contractName": null,
      "contractAddress": "0x08ac49be269f1c6c2821d56c4c729c9843152ee3",
      "function": "mint((address,uint256,uint256,uint256[],address,uint256))",
      "arguments": [
        "(0x285398F9Ac1D317Bca922691316BDf5B1493dA71, 2550000000000000000000000, 2000000000000000000000000, [0, 0, 0, 0], 0xb29e1ddDfc73E00dEE3EaA7EA102990ADca78b39, 1776427448)"
      ],
      "transaction": {
        "from": "0xb29e1dddfc73e00dee3eaa7ea102990adca78b39",
        "to": "0x08ac49be269f1c6c2821d56c4c729c9843152ee3",
        "gas": "0xf9672",
        "value": "0x0",
        "input": "0xb771f9510000000000000000000000000000000000000000000000000000000000000020000000000000000000000000285398f9ac1d317bca922691316bdf5b1493da71000000000000000000000000000000000000000000021bfbc6e8f0f78dc0000000000000000000000000000000000000000000000001a784379d99db4200000000000000000000000000000000000000000000000000000000000000000000c0000000000000000000000000b29e1dddfc73e00dee3eaa7ea102990adca78b390000000000000000000000000000000000000000000000000000000069e221b800000000000000000000000000000000000000000000000000000000000000040000000000000000000000000000000000000000000000000000000000000000000000000000000000000000000000000000000000000000000000000000000000000000000000000000000000000000000000000000000000000000000000000000000000000000000000000000000000000000000000000000000000000000",
        "nonce": "0x90",
        "chainId": "0x14a34"
      },
      "additionalContracts": [],
      "isFixedGasLimit": false
    },
    {
      "hash": "0xbc01ff1e3affc1b712174823d830f5eb426f44cc9c1606d2a593dc1b1fa19eaf",
      "transactionType": "CALL",
      "contractName": null,
      "contractAddress": "0x08ac49be269f1c6c2821d56c4c729c9843152ee3",
      "function": "mint((address,uint256,uint256,uint256[],address,uint256))",
      "arguments": [
        "(0x285398F9Ac1D317Bca922691316BDf5B1493dA71, 687500000000000000000000, 500000000000000000000000, [0, 0, 0, 0], 0xb29e1ddDfc73E00dEE3EaA7EA102990ADca78b39, 1776427448)"
      ],
      "transaction": {
        "from": "0xb29e1dddfc73e00dee3eaa7ea102990adca78b39",
        "to": "0x08ac49be269f1c6c2821d56c4c729c9843152ee3",
        "gas": "0xfdd8c",
        "value": "0x0",
        "input": "0xb771f9510000000000000000000000000000000000000000000000000000000000000020000000000000000000000000285398f9ac1d317bca922691316bdf5b1493da71000000000000000000000000000000000000000000009195731e2ce35eb000000000000000000000000000000000000000000000000069e10de76676d080000000000000000000000000000000000000000000000000000000000000000000c0000000000000000000000000b29e1dddfc73e00dee3eaa7ea102990adca78b390000000000000000000000000000000000000000000000000000000069e221b800000000000000000000000000000000000000000000000000000000000000040000000000000000000000000000000000000000000000000000000000000000000000000000000000000000000000000000000000000000000000000000000000000000000000000000000000000000000000000000000000000000000000000000000000000000000000000000000000000000000000000000000000000000",
        "nonce": "0x91",
        "chainId": "0x14a34"
      },
      "additionalContracts": [],
      "isFixedGasLimit": false
    }
  ],
  "receipts": [
    {
      "type": "0x2",
      "status": "0x1",
      "cumulativeGasUsed": "0x27d1ee",
      "logs": [
        {
          "address": "0x168deb69184ea184aadb8a626dc4d3013dc08fe8",
          "topics": [
            "0xddf252ad1be2c89b69c2b068fc378daa952ba7f163c4a11628f55a4df523b3ef",
            "0x0000000000000000000000000000000000000000000000000000000000000000",
            "0x000000000000000000000000b29e1dddfc73e00dee3eaa7ea102990adca78b39"
          ],
          "data": "0x000000000000000000000000000000000000000000084595161401484a000000",
          "blockHash": "0x0000000000000000000000000000000000000000000000000000000000000000",
          "blockNumber": "0x2676059",
          "blockTimestamp": "0x69e21f92",
          "transactionHash": "0xfa465ffc55949333911e43be768943e9464782bfee09d540e80a774729ede4be",
          "transactionIndex": "0x8",
          "logIndex": "0xb3",
          "removed": false
        }
      ],
      "logsBloom": "0x00000000000000000000000000000000000800000000000000000000000000000000000000000002000000000000000000000000000000000000000000000000000000010000000000000008000000000000000000000000000000000000000000000000020000000000000000000800000000000000000000000010000000000000000000000000000000000000000000000001000000000000000000000000000000000000000000000000000000000000000000000000000000000000000000000002000000000000000000000000004000000000000000000000000020000000000000000000000000000000000000000000000000000400000000000000",
      "transactionHash": "0xfa465ffc55949333911e43be768943e9464782bfee09d540e80a774729ede4be",
      "transactionIndex": "0x8",
      "blockHash": "0x0000000000000000000000000000000000000000000000000000000000000000",
      "blockNumber": "0x2676059",
      "gasUsed": "0x8498",
      "effectiveGasPrice": "0x5b8d80",
      "blobGasUsed": "0x39d0",
      "from": "0xb29e1dddfc73e00dee3eaa7ea102990adca78b39",
      "to": "0x168deb69184ea184aadb8a626dc4d3013dc08fe8",
      "contractAddress": null,
      "l1GasPrice": "0x1e38876",
      "l1GasUsed": "0x640",
      "l1Fee": "0x9f12c0f",
      "l1BaseFeeScalar": "0x44d",
      "l1BlobBaseFee": "0x19a9bf",
      "l1BlobBaseFeeScalar": "0xa118b",
      "daFootprintGasScalar": "0x94"
    },
    {
      "type": "0x2",
      "status": "0x1",
      "cumulativeGasUsed": "0x285686",
      "logs": [
        {
          "address": "0x39855b7de333de50a7b2e97a3a3e2ec1cf0411a9",
          "topics": [
            "0xddf252ad1be2c89b69c2b068fc378daa952ba7f163c4a11628f55a4df523b3ef",
            "0x0000000000000000000000000000000000000000000000000000000000000000",
            "0x000000000000000000000000b29e1dddfc73e00dee3eaa7ea102990adca78b39"
          ],
          "data": "0x000000000000000000000000000000000000000000084595161401484a000000",
          "blockHash": "0x0000000000000000000000000000000000000000000000000000000000000000",
          "blockNumber": "0x2676059",
          "blockTimestamp": "0x69e21f92",
          "transactionHash": "0xb1d712b4aa023db0d472ea19fde280d6d3811234c9aafeb35a22843b43f8704c",
          "transactionIndex": "0x9",
          "logIndex": "0xb4",
          "removed": false
        }
      ],
      "logsBloom": "0x00000000000000000000000000000000000000000000000000000000000000000000100000000000000000000000000000000000000000000000000000000000000000000000000000000008000000000000000000000000000000000000000000000000020000000000000000000800000000000000010000000010000000000000000000000000000000000000000000000001000000000000000000000000000000000000000000000000000000000000000000000000000000000000000000000002000000000000000000000000004000000000000000000000000020000000000000000000000000000000000000000000000000008400000000000000",
      "transactionHash": "0xb1d712b4aa023db0d472ea19fde280d6d3811234c9aafeb35a22843b43f8704c",
      "transactionIndex": "0x9",
      "blockHash": "0x0000000000000000000000000000000000000000000000000000000000000000",
      "blockNumber": "0x2676059",
      "gasUsed": "0x8498",
      "effectiveGasPrice": "0x5b8d80",
      "blobGasUsed": "0x39d0",
      "from": "0xb29e1dddfc73e00dee3eaa7ea102990adca78b39",
      "to": "0x39855b7de333de50a7b2e97a3a3e2ec1cf0411a9",
      "contractAddress": null,
      "l1GasPrice": "0x1e38876",
      "l1GasUsed": "0x640",
      "l1Fee": "0x9f12c0f",
      "l1BaseFeeScalar": "0x44d",
      "l1BlobBaseFee": "0x19a9bf",
      "l1BlobBaseFeeScalar": "0xa118b",
      "daFootprintGasScalar": "0x94"
    },
    {
      "type": "0x2",
      "status": "0x1",
      "cumulativeGasUsed": "0x28db1e",
      "logs": [
        {
          "address": "0x44406ad771b05827f5fd95b002189e51eebedc91",
          "topics": [
            "0xddf252ad1be2c89b69c2b068fc378daa952ba7f163c4a11628f55a4df523b3ef",
            "0x0000000000000000000000000000000000000000000000000000000000000000",
            "0x000000000000000000000000b29e1dddfc73e00dee3eaa7ea102990adca78b39"
          ],
          "data": "0x000000000000000000000000000000000000000000084595161401484a000000",
          "blockHash": "0x0000000000000000000000000000000000000000000000000000000000000000",
          "blockNumber": "0x2676059",
          "blockTimestamp": "0x69e21f92",
          "transactionHash": "0x104e75c5e6ae7d6da7daad7c35b4df6121d5f78d9e189198aaf0af9b67475242",
          "transactionIndex": "0xa",
          "logIndex": "0xb5",
          "removed": false
        }
      ],
      "logsBloom": "0x00000000000000000000000000000000000010000000000000000000000000000000000000000000000000000000000000000100000000000000000000000000000000000000000000000008000000000000000000000000000000000000000000000000020000000000000000000800000000000000000000000010000000000000000000000000000000000000000000000001000000000000000000000000000000000000000000000000000000000000000000000000000000000000000000000002000000000000000000000000004000000000000000000100000020000000000000000000000000000000000000000000000000000400000000000000",
      "transactionHash": "0x104e75c5e6ae7d6da7daad7c35b4df6121d5f78d9e189198aaf0af9b67475242",
      "transactionIndex": "0xa",
      "blockHash": "0x0000000000000000000000000000000000000000000000000000000000000000",
      "blockNumber": "0x2676059",
      "gasUsed": "0x8498",
      "effectiveGasPrice": "0x5b8d80",
      "blobGasUsed": "0x39d0",
      "from": "0xb29e1dddfc73e00dee3eaa7ea102990adca78b39",
      "to": "0x44406ad771b05827f5fd95b002189e51eebedc91",
      "contractAddress": null,
      "l1GasPrice": "0x1e38876",
      "l1GasUsed": "0x640",
      "l1Fee": "0x9f12c0f",
      "l1BaseFeeScalar": "0x44d",
      "l1BlobBaseFee": "0x19a9bf",
      "l1BlobBaseFeeScalar": "0xa118b",
      "daFootprintGasScalar": "0x94"
    },
    {
      "type": "0x2",
      "status": "0x1",
      "cumulativeGasUsed": "0x295fb6",
      "logs": [
        {
          "address": "0x60cb112631ce92f9fe164878d690fac1fd1c295d",
          "topics": [
            "0xddf252ad1be2c89b69c2b068fc378daa952ba7f163c4a11628f55a4df523b3ef",
            "0x0000000000000000000000000000000000000000000000000000000000000000",
            "0x000000000000000000000000b29e1dddfc73e00dee3eaa7ea102990adca78b39"
          ],
          "data": "0x000000000000000000000000000000000000000000084595161401484a000000",
          "blockHash": "0x0000000000000000000000000000000000000000000000000000000000000000",
          "blockNumber": "0x2676059",
          "blockTimestamp": "0x69e21f92",
          "transactionHash": "0x69eef9732e2bd13fe9c30b5e3b220031362f8f38412b58d8843bb7a0c5f83a3a",
          "transactionIndex": "0xb",
          "logIndex": "0xb6",
          "removed": false
        }
      ],
      "logsBloom": "0x00000000000000000000000000000000000000000004000000000000000000000000000000000000000000000000000000000000000000000000000000000000000000000000000000000008000000000000002000000001000000000000000000000000020000000000000000000800000000000000000000000010000000000000000000000000000000000000000000000001000000000000000000000000000000000000000000000000000000000000000000000000000000000000000000000002000000000000000000000000004000000000000000000000000020000000000000000000000000000000000000000000000000000400000000000000",
      "transactionHash": "0x69eef9732e2bd13fe9c30b5e3b220031362f8f38412b58d8843bb7a0c5f83a3a",
      "transactionIndex": "0xb",
      "blockHash": "0x0000000000000000000000000000000000000000000000000000000000000000",
      "blockNumber": "0x2676059",
      "gasUsed": "0x8498",
      "effectiveGasPrice": "0x5b8d80",
      "blobGasUsed": "0x39d0",
      "from": "0xb29e1dddfc73e00dee3eaa7ea102990adca78b39",
      "to": "0x60cb112631ce92f9fe164878d690fac1fd1c295d",
      "contractAddress": null,
      "l1GasPrice": "0x1e38876",
      "l1GasUsed": "0x640",
      "l1Fee": "0x9f12c0f",
      "l1BaseFeeScalar": "0x44d",
      "l1BlobBaseFee": "0x19a9bf",
      "l1BlobBaseFeeScalar": "0xa118b",
      "daFootprintGasScalar": "0x94"
    },
    {
      "type": "0x2",
      "status": "0x1",
      "cumulativeGasUsed": "0x29c6c5",
      "logs": [
        {
          "address": "0x168deb69184ea184aadb8a626dc4d3013dc08fe8",
          "topics": [
            "0x8c5be1e5ebec7d5bd14f71427d1e84f3dd0314c0f7b2291e5b200ac8c7c3b925",
            "0x000000000000000000000000b29e1dddfc73e00dee3eaa7ea102990adca78b39",
            "0x00000000000000000000000008ac49be269f1c6c2821d56c4c729c9843152ee3"
          ],
          "data": "0xffffffffffffffffffffffffffffffffffffffffffffffffffffffffffffffff",
          "blockHash": "0x0000000000000000000000000000000000000000000000000000000000000000",
          "blockNumber": "0x2676059",
          "blockTimestamp": "0x69e21f92",
          "transactionHash": "0x7a76020ee0a85bca6fdd71f62898483295e7305785ceb1cd4870d1d8f7ce4830",
          "transactionIndex": "0xc",
          "logIndex": "0xb7",
          "removed": false
        }
      ],
      "logsBloom": "0x00000000000000000000000000000000020800000000000000000000000000000000000000000002000000000000000000000000000000000000000000200000000000010000000000000000000000000000000000000000000000000000000000000000000000000040000000000000000000000000000000000000000000000000000008000000000000000000000000000001000000000000000000000000020000000000000000000000000000000000000000000000000000000000000000000000000000000000000000000000004000000000000000000000000000000010000000000000000000000000000000000000000000000400000000000000",
      "transactionHash": "0x7a76020ee0a85bca6fdd71f62898483295e7305785ceb1cd4870d1d8f7ce4830",
      "transactionIndex": "0xc",
      "blockHash": "0x0000000000000000000000000000000000000000000000000000000000000000",
      "blockNumber": "0x2676059",
      "gasUsed": "0x670f",
      "effectiveGasPrice": "0x5b8d80",
      "blobGasUsed": "0x39d0",
      "from": "0xb29e1dddfc73e00dee3eaa7ea102990adca78b39",
      "to": "0x168deb69184ea184aadb8a626dc4d3013dc08fe8",
      "contractAddress": null,
      "l1GasPrice": "0x1e38876",
      "l1GasUsed": "0x640",
      "l1Fee": "0x9f12c0f",
      "l1BaseFeeScalar": "0x44d",
      "l1BlobBaseFee": "0x19a9bf",
      "l1BlobBaseFeeScalar": "0xa118b",
      "daFootprintGasScalar": "0x94"
    },
    {
      "type": "0x2",
      "status": "0x1",
      "cumulativeGasUsed": "0x2e3026",
      "logs": [
        {
          "address": "0x39855b7de333de50a7b2e97a3a3e2ec1cf0411a9",
          "topics": [
            "0x8c5be1e5ebec7d5bd14f71427d1e84f3dd0314c0f7b2291e5b200ac8c7c3b925",
            "0x000000000000000000000000b29e1dddfc73e00dee3eaa7ea102990adca78b39",
            "0x00000000000000000000000008ac49be269f1c6c2821d56c4c729c9843152ee3"
          ],
          "data": "0xffffffffffffffffffffffffffffffffffffffffffffffffffffffffffffffff",
          "blockHash": "0x0000000000000000000000000000000000000000000000000000000000000000",
          "blockNumber": "0x2676059",
          "blockTimestamp": "0x69e21f92",
          "transactionHash": "0x5262ec55528d9ab42e2c1d2bed2b7d4731d14e449499b3146cc7fdf039dc724b",
          "transactionIndex": "0x12",
          "logIndex": "0xbc",
          "removed": false
        }
      ],
      "logsBloom": "0x00000000000000000000000000000000020000000000000000000000000000000000100000000000000000000000000000000000000000000000000000200000000000000000000000000000000000000000000000000000000000000000000000000000000000000040000000000000000000000000010000000000000000000000000008000000000000000000000000000001000000000000000000000000020000000000000000000000000000000000000000000000000000000000000000000000000000000000000000000000004000000000000000000000000000000010000000000000000000000000000000000000000000008400000000000000",
      "transactionHash": "0x5262ec55528d9ab42e2c1d2bed2b7d4731d14e449499b3146cc7fdf039dc724b",
      "transactionIndex": "0x12",
      "blockHash": "0x0000000000000000000000000000000000000000000000000000000000000000",
      "blockNumber": "0x2676059",
      "gasUsed": "0x670f",
      "effectiveGasPrice": "0x5b8d80",
      "blobGasUsed": "0x39d0",
      "from": "0xb29e1dddfc73e00dee3eaa7ea102990adca78b39",
      "to": "0x39855b7de333de50a7b2e97a3a3e2ec1cf0411a9",
      "contractAddress": null,
      "l1GasPrice": "0x1e38876",
      "l1GasUsed": "0x640",
      "l1Fee": "0xd5063df",
      "l1BaseFeeScalar": "0x44d",
      "l1BlobBaseFee": "0x19a9bf",
      "l1BlobBaseFeeScalar": "0xa118b",
      "daFootprintGasScalar": "0x94"
    },
    {
      "type": "0x2",
      "status": "0x1",
      "cumulativeGasUsed": "0x2e9735",
      "logs": [
        {
          "address": "0x44406ad771b05827f5fd95b002189e51eebedc91",
          "topics": [
            "0x8c5be1e5ebec7d5bd14f71427d1e84f3dd0314c0f7b2291e5b200ac8c7c3b925",
            "0x000000000000000000000000b29e1dddfc73e00dee3eaa7ea102990adca78b39",
            "0x00000000000000000000000008ac49be269f1c6c2821d56c4c729c9843152ee3"
          ],
          "data": "0xffffffffffffffffffffffffffffffffffffffffffffffffffffffffffffffff",
          "blockHash": "0x8978523d5219e7e83f5803e4779515bf315682a929e03f449ffeb02fd8bad65a",
          "blockNumber": "0x2676059",
          "blockTimestamp": "0x69e21f92",
          "transactionHash": "0xbc01ff1e3affc1b712174823d830f5eb426f44cc9c1606d2a593dc1b1fa19eaf",
          "transactionIndex": "0x13",
          "logIndex": "0xbd",
          "removed": false
        }
      ],
      "logsBloom": "0x00000000000000000000000000000000020010000000000000000000000000000000000000000000000000000000000000000100000000000000000000200000000000000000000000000000000000000000000000000000000000000000000000000000000000000040000000000000000000000000000000000000000000000000000008000000000000000000000000000001000000000000000000000000020000000000000000000000000000000000000000000000000000000000000000000000000000000000000000000000004000000000000000000100000000000010000000000000000000000000000000000000000000000400000000000000",
      "transactionHash": "0xbc01ff1e3affc1b712174823d830f5eb426f44cc9c1606d2a593dc1b1fa19eaf",
      "transactionIndex": "0x13",
      "blockHash": "0x8978523d5219e7e83f5803e4779515bf315682a929e03f449ffeb02fd8bad65a",
      "blockNumber": "0x2676059",
      "gasUsed": "0x670f",
      "effectiveGasPrice": "0x5b8d80",
      "blobGasUsed": "0x39d0",
      "from": "0xb29e1dddfc73e00dee3eaa7ea102990adca78b39",
      "to": "0x44406ad771b05827f5fd95b002189e51eebedc91",
      "contractAddress": null,
      "l1GasPrice": "0x1e38876",
      "l1GasUsed": "0x640",
      "l1Fee": "0x9f12c0f",
      "l1BaseFeeScalar": "0x44d",
      "l1BlobBaseFee": "0x19a9bf",
      "l1BlobBaseFeeScalar": "0xa118b",
      "daFootprintGasScalar": "0x94"
    },
    {
      "type": "0x2",
      "status": "0x1",
      "cumulativeGasUsed": "0x2efe44",
      "logs": [
        {
          "address": "0x60cb112631ce92f9fe164878d690fac1fd1c295d",
          "topics": [
            "0x8c5be1e5ebec7d5bd14f71427d1e84f3dd0314c0f7b2291e5b200ac8c7c3b925",
            "0x000000000000000000000000b29e1dddfc73e00dee3eaa7ea102990adca78b39",
            "0x00000000000000000000000008ac49be269f1c6c2821d56c4c729c9843152ee3"
          ],
          "data": "0xffffffffffffffffffffffffffffffffffffffffffffffffffffffffffffffff",
          "blockHash": "0x0000000000000000000000000000000000000000000000000000000000000000",
          "blockNumber": "0x2676059",
          "blockTimestamp": "0x69e21f92",
          "transactionHash": "0xa905e828055d1b04a198acb25f8228a45bc9770d2fbf47e48af53e206e2cbb49",
          "transactionIndex": "0x14",
          "logIndex": "0xbe",
          "removed": false
        }
      ],
      "logsBloom": "0x00000000000000000000000000000000020000000004000000000000000000000000000000000000000000000000000000000000000000000000000000200000000000000000000000000000000000000000002000000001000000000000000000000000000000000040000000000000000000000000000000000000000000000000000008000000000000000000000000000001000000000000000000000000020000000000000000000000000000000000000000000000000000000000000000000000000000000000000000000000004000000000000000000000000000000010000000000000000000000000000000000000000000000400000000000000",
      "transactionHash": "0xa905e828055d1b04a198acb25f8228a45bc9770d2fbf47e48af53e206e2cbb49",
      "transactionIndex": "0x14",
      "blockHash": "0x0000000000000000000000000000000000000000000000000000000000000000",
      "blockNumber": "0x2676059",
      "gasUsed": "0x670f",
      "effectiveGasPrice": "0x5b8d80",
      "blobGasUsed": "0x39d0",
      "from": "0xb29e1dddfc73e00dee3eaa7ea102990adca78b39",
      "to": "0x60cb112631ce92f9fe164878d690fac1fd1c295d",
      "contractAddress": null,
      "l1GasPrice": "0x1e38876",
      "l1GasUsed": "0x640",
      "l1Fee": "0xd5063df",
      "l1BaseFeeScalar": "0x44d",
      "l1BlobBaseFee": "0x19a9bf",
      "l1BlobBaseFeeScalar": "0xa118b",
      "daFootprintGasScalar": "0x94"
    },
    {
      "type": "0x2",
      "status": "0x1",
      "cumulativeGasUsed": "0x3944b8",
      "logs": [
        {
          "address": "0x168deb69184ea184aadb8a626dc4d3013dc08fe8",
          "topics": [
            "0xddf252ad1be2c89b69c2b068fc378daa952ba7f163c4a11628f55a4df523b3ef",
            "0x000000000000000000000000b29e1dddfc73e00dee3eaa7ea102990adca78b39",
            "0x000000000000000000000000285398f9ac1d317bca922691316bdf5b1493da71"
          ],
          "data": "0x00000000000000000000000000000000000000000001a7821109160d1e7e2470",
          "blockHash": "0x8978523d5219e7e83f5803e4779515bf315682a929e03f449ffeb02fd8bad65a",
          "blockNumber": "0x2676059",
          "blockTimestamp": "0x69e21f92",
          "transactionHash": "0xeeee26138ec69872b3d57ea194d3609fb4f5549234c013829f891b16dd03d306",
          "transactionIndex": "0x15",
          "logIndex": "0xbf",
          "removed": false
        },
        {
          "address": "0x39855b7de333de50a7b2e97a3a3e2ec1cf0411a9",
          "topics": [
            "0xddf252ad1be2c89b69c2b068fc378daa952ba7f163c4a11628f55a4df523b3ef",
            "0x000000000000000000000000b29e1dddfc73e00dee3eaa7ea102990adca78b39",
            "0x000000000000000000000000285398f9ac1d317bca922691316bdf5b1493da71"
          ],
          "data": "0x00000000000000000000000000000000000000000001a783c95d835c6473c380",
          "blockHash": "0x8978523d5219e7e83f5803e4779515bf315682a929e03f449ffeb02fd8bad65a",
          "blockNumber": "0x2676059",
          "blockTimestamp": "0x69e21f92",
          "transactionHash": "0xeeee26138ec69872b3d57ea194d3609fb4f5549234c013829f891b16dd03d306",
          "transactionIndex": "0x15",
          "logIndex": "0xc0",
          "removed": false
        },
        {
          "address": "0x44406ad771b05827f5fd95b002189e51eebedc91",
          "topics": [
            "0xddf252ad1be2c89b69c2b068fc378daa952ba7f163c4a11628f55a4df523b3ef",
            "0x000000000000000000000000b29e1dddfc73e00dee3eaa7ea102990adca78b39",
            "0x000000000000000000000000285398f9ac1d317bca922691316bdf5b1493da71"
          ],
          "data": "0x00000000000000000000000000000000000000000001a78513746a8b719a2d34",
          "blockHash": "0x8978523d5219e7e83f5803e4779515bf315682a929e03f449ffeb02fd8bad65a",
          "blockNumber": "0x2676059",
          "blockTimestamp": "0x69e21f92",
          "transactionHash": "0xeeee26138ec69872b3d57ea194d3609fb4f5549234c013829f891b16dd03d306",
          "transactionIndex": "0x15",
          "logIndex": "0xc1",
          "removed": false
        },
        {
          "address": "0x60cb112631ce92f9fe164878d690fac1fd1c295d",
          "topics": [
            "0xddf252ad1be2c89b69c2b068fc378daa952ba7f163c4a11628f55a4df523b3ef",
            "0x000000000000000000000000b29e1dddfc73e00dee3eaa7ea102990adca78b39",
            "0x000000000000000000000000285398f9ac1d317bca922691316bdf5b1493da71"
          ],
          "data": "0x00000000000000000000000000000000000000000001a785f09df65cfebd502c",
          "blockHash": "0x8978523d5219e7e83f5803e4779515bf315682a929e03f449ffeb02fd8bad65a",
          "blockNumber": "0x2676059",
          "blockTimestamp": "0x69e21f92",
          "transactionHash": "0xeeee26138ec69872b3d57ea194d3609fb4f5549234c013829f891b16dd03d306",
          "transactionIndex": "0x15",
          "logIndex": "0xc2",
          "removed": false
        },
        {
          "address": "0x285398f9ac1d317bca922691316bdf5b1493da71",
          "topics": [
            "0xa1f137c5ae158726e83083553b9082ce64d0180e2e71939290985b94816211d3",
            "0x00000000000000000000000008ac49be269f1c6c2821d56c4c729c9843152ee3"
          ],
          "data": "0x00000000000000000000000000000000000000000003796274caf64c71000000000000000000000000000000000000000000000000034f086f3b33b6840000000000000000000000000000000000000000000000000000000000000000000060000000000000000000000000000000000000000000000000000000000000000400000000000000000000000000000000000000000001a7821109160d1e7e247000000000000000000000000000000000000000000001a783c95d835c6473c38000000000000000000000000000000000000000000001a78513746a8b719a2d3400000000000000000000000000000000000000000001a785f09df65cfebd502c",
          "blockHash": "0x8978523d5219e7e83f5803e4779515bf315682a929e03f449ffeb02fd8bad65a",
          "blockNumber": "0x2676059",
          "blockTimestamp": "0x69e21f92",
          "transactionHash": "0xeeee26138ec69872b3d57ea194d3609fb4f5549234c013829f891b16dd03d306",
          "transactionIndex": "0x15",
          "logIndex": "0xc3",
          "removed": false
        },
        {
          "address": "0x08ac49be269f1c6c2821d56c4c729c9843152ee3",
          "topics": [
            "0xddf252ad1be2c89b69c2b068fc378daa952ba7f163c4a11628f55a4df523b3ef",
            "0x0000000000000000000000000000000000000000000000000000000000000000",
            "0x000000000000000000000000b29e1dddfc73e00dee3eaa7ea102990adca78b39",
            "0x0000000000000000000000000000000000000000000000000000000000000009"
          ],
          "data": "0x",
          "blockHash": "0x8978523d5219e7e83f5803e4779515bf315682a929e03f449ffeb02fd8bad65a",
          "blockNumber": "0x2676059",
          "blockTimestamp": "0x69e21f92",
          "transactionHash": "0xeeee26138ec69872b3d57ea194d3609fb4f5549234c013829f891b16dd03d306",
          "transactionIndex": "0x15",
          "logIndex": "0xc4",
          "removed": false
        }
      ],
      "logsBloom": "0x40000000000000000000000000000000020810000004000000000000000000000000100000000002000000000000000000000100000000000000000001200000000000010000000000000008000000000000002000000001000000000000000000000000020000000440000000000800000000000000010000000010000000000000000008000000000000000000008020001001000000000000000000000000000000000000000000000000000000000020000000000000000000000000000000000002000020000400000000000080004000000000000000000100000020000000020000400000000000000000000000000000000000008400001000800000",
      "transactionHash": "0xeeee26138ec69872b3d57ea194d3609fb4f5549234c013829f891b16dd03d306",
      "transactionIndex": "0x15",
      "blockHash": "0x8978523d5219e7e83f5803e4779515bf315682a929e03f449ffeb02fd8bad65a",
      "blockNumber": "0x2676059",
      "gasUsed": "0xa4674",
      "effectiveGasPrice": "0x5b8d80",
      "blobGasUsed": "0x5a30",
      "from": "0xb29e1dddfc73e00dee3eaa7ea102990adca78b39",
      "to": "0x08ac49be269f1c6c2821d56c4c729c9843152ee3",
      "contractAddress": null,
      "l1GasPrice": "0x1e38876",
      "l1GasUsed": "0x9c8",
      "l1Fee": "0xf8f3adf",
      "l1BaseFeeScalar": "0x44d",
      "l1BlobBaseFee": "0x19a9bf",
      "l1BlobBaseFeeScalar": "0xa118b",
      "daFootprintGasScalar": "0x94"
    },
    {
      "type": "0x2",
      "status": "0x1",
      "cumulativeGasUsed": "0x43bc9d",
      "logs": [
        {
          "address": "0x168deb69184ea184aadb8a626dc4d3013dc08fe8",
          "topics": [
            "0xddf252ad1be2c89b69c2b068fc378daa952ba7f163c4a11628f55a4df523b3ef",
            "0x000000000000000000000000b29e1dddfc73e00dee3eaa7ea102990adca78b39",
            "0x000000000000000000000000285398f9ac1d317bca922691316bdf5b1493da71"
          ],
          "data": "0x000000000000000000000000000000000000000000017291cee7f34b7aae5fe2",
          "blockHash": "0x8978523d5219e7e83f5803e4779515bf315682a929e03f449ffeb02fd8bad65a",
          "blockNumber": "0x2676059",
          "blockTimestamp": "0x69e21f92",
          "transactionHash": "0x1c8521649a6d71f14dfa914b0a4c405ae0a353fe534a617e24110281db7b7d98",
          "transactionIndex": "0x16",
          "logIndex": "0xc5",
          "removed": false
        },
        {
          "address": "0x39855b7de333de50a7b2e97a3a3e2ec1cf0411a9",
          "topics": [
            "0xddf252ad1be2c89b69c2b068fc378daa952ba7f163c4a11628f55a4df523b3ef",
            "0x000000000000000000000000b29e1dddfc73e00dee3eaa7ea102990adca78b39",
            "0x000000000000000000000000285398f9ac1d317bca922691316bdf5b1493da71"
          ],
          "data": "0x0000000000000000000000000000000000000000000172935031d2f0d7e54b10",
          "blockHash": "0x8978523d5219e7e83f5803e4779515bf315682a929e03f449ffeb02fd8bad65a",
          "blockNumber": "0x2676059",
          "blockTimestamp": "0x69e21f92",
          "transactionHash": "0x1c8521649a6d71f14dfa914b0a4c405ae0a353fe534a617e24110281db7b7d98",
          "transactionIndex": "0x16",
          "logIndex": "0xc6",
          "removed": false
        },
        {
          "address": "0x44406ad771b05827f5fd95b002189e51eebedc91",
          "topics": [
            "0xddf252ad1be2c89b69c2b068fc378daa952ba7f163c4a11628f55a4df523b3ef",
            "0x000000000000000000000000b29e1dddfc73e00dee3eaa7ea102990adca78b39",
            "0x000000000000000000000000285398f9ac1d317bca922691316bdf5b1493da71"
          ],
          "data": "0x0000000000000000000000000000000000000000000172947105dd3a0366e78d",
          "blockHash": "0x8978523d5219e7e83f5803e4779515bf315682a929e03f449ffeb02fd8bad65a",
          "blockNumber": "0x2676059",
          "blockTimestamp": "0x69e21f92",
          "transactionHash": "0x1c8521649a6d71f14dfa914b0a4c405ae0a353fe534a617e24110281db7b7d98",
          "transactionIndex": "0x16",
          "logIndex": "0xc7",
          "removed": false
        },
        {
          "address": "0x60cb112631ce92f9fe164878d690fac1fd1c295d",
          "topics": [
            "0xddf252ad1be2c89b69c2b068fc378daa952ba7f163c4a11628f55a4df523b3ef",
            "0x000000000000000000000000b29e1dddfc73e00dee3eaa7ea102990adca78b39",
            "0x000000000000000000000000285398f9ac1d317bca922691316bdf5b1493da71"
          ],
          "data": "0x000000000000000000000000000000000000000000017295328a37915ee5a626",
          "blockHash": "0x8978523d5219e7e83f5803e4779515bf315682a929e03f449ffeb02fd8bad65a",
          "blockNumber": "0x2676059",
          "blockTimestamp": "0x69e21f92",
          "transactionHash": "0x1c8521649a6d71f14dfa914b0a4c405ae0a353fe534a617e24110281db7b7d98",
          "transactionIndex": "0x16",
          "logIndex": "0xc8",
          "removed": false
        },
        {
          "address": "0x285398f9ac1d317bca922691316bdf5b1493da71",
          "topics": [
            "0xa1f137c5ae158726e83083553b9082ce64d0180e2e71939290985b94816211d3",
            "0x00000000000000000000000008ac49be269f1c6c2821d56c4c729c9843152ee3"
          ],
          "data": "0x000000000000000000000000000000000000000000035453afed2c0941a0000000000000000000000000000000000000000000000002e5276153cd3fb380000000000000000000000000000000000000000000000000000000000000000000600000000000000000000000000000000000000000000000000000000000000004000000000000000000000000000000000000000000017291cee7f34b7aae5fe20000000000000000000000000000000000000000000172935031d2f0d7e54b100000000000000000000000000000000000000000000172947105dd3a0366e78d000000000000000000000000000000000000000000017295328a37915ee5a626",
          "blockHash": "0x8978523d5219e7e83f5803e4779515bf315682a929e03f449ffeb02fd8bad65a",
          "blockNumber": "0x2676059",
          "blockTimestamp": "0x69e21f92",
          "transactionHash": "0x1c8521649a6d71f14dfa914b0a4c405ae0a353fe534a617e24110281db7b7d98",
          "transactionIndex": "0x16",
          "logIndex": "0xc9",
          "removed": false
        },
        {
          "address": "0x08ac49be269f1c6c2821d56c4c729c9843152ee3",
          "topics": [
            "0xddf252ad1be2c89b69c2b068fc378daa952ba7f163c4a11628f55a4df523b3ef",
            "0x0000000000000000000000000000000000000000000000000000000000000000",
            "0x000000000000000000000000b29e1dddfc73e00dee3eaa7ea102990adca78b39",
            "0x000000000000000000000000000000000000000000000000000000000000000a"
          ],
          "data": "0x",
          "blockHash": "0x8978523d5219e7e83f5803e4779515bf315682a929e03f449ffeb02fd8bad65a",
          "blockNumber": "0x2676059",
          "blockTimestamp": "0x69e21f92",
          "transactionHash": "0x1c8521649a6d71f14dfa914b0a4c405ae0a353fe534a617e24110281db7b7d98",
          "transactionIndex": "0x16",
          "logIndex": "0xca",
          "removed": false
        }
      ],
      "logsBloom": "0x40000000000000000000000000000000020810000004000000000000000000000000100000000002000000000000000000000100040000000020000001000000000000010000000000000008000000000000002000000001000000000000000000000000020000000440000000000800000000000000010000000010000000000000000008000000010000000000008020000001000000000000000000000000000000000000000000000000000000000020000000000000000000000000000000000002000020000400000000000080004000000000000000000100000020000000020000400000000000000000000000000000000000008400001000000000",
      "transactionHash": "0x1c8521649a6d71f14dfa914b0a4c405ae0a353fe534a617e24110281db7b7d98",
      "transactionIndex": "0x16",
      "blockHash": "0x8978523d5219e7e83f5803e4779515bf315682a929e03f449ffeb02fd8bad65a",
      "blockNumber": "0x2676059",
      "gasUsed": "0xa77e5",
      "effectiveGasPrice": "0x5b8d80",
      "blobGasUsed": "0x5c80",
      "from": "0xb29e1dddfc73e00dee3eaa7ea102990adca78b39",
      "to": "0x08ac49be269f1c6c2821d56c4c729c9843152ee3",
      "contractAddress": null,
      "l1GasPrice": "0x1e38876",
      "l1GasUsed": "0xa0a",
      "l1Fee": "0xff9ae8a",
      "l1BaseFeeScalar": "0x44d",
      "l1BlobBaseFee": "0x19a9bf",
      "l1BlobBaseFeeScalar": "0xa118b",
      "daFootprintGasScalar": "0x94"
    },
    {
      "type": "0x2",
      "status": "0x1",
      "cumulativeGasUsed": "0x4e6520",
      "logs": [
        {
          "address": "0x168deb69184ea184aadb8a626dc4d3013dc08fe8",
          "topics": [
            "0xddf252ad1be2c89b69c2b068fc378daa952ba7f163c4a11628f55a4df523b3ef",
            "0x000000000000000000000000b29e1dddfc73e00dee3eaa7ea102990adca78b39",
            "0x000000000000000000000000285398f9ac1d317bca922691316bdf5b1493da71"
          ],
          "data": "0x00000000000000000000000000000000000000000000d3c108848b068f3f1238",
          "blockHash": "0x0000000000000000000000000000000000000000000000000000000000000000",
          "blockNumber": "0x2676059",
          "blockTimestamp": "0x69e21f92",
          "transactionHash": "0x941b1301c542c6432c66da54e4f8f410f4e52eab2fd4d9d2be9637c83e0defff",
          "transactionIndex": "0x17",
          "logIndex": "0xcb",
          "removed": false
        },
        {
          "address": "0x39855b7de333de50a7b2e97a3a3e2ec1cf0411a9",
          "topics": [
            "0xddf252ad1be2c89b69c2b068fc378daa952ba7f163c4a11628f55a4df523b3ef",
            "0x000000000000000000000000b29e1dddfc73e00dee3eaa7ea102990adca78b39",
            "0x000000000000000000000000285398f9ac1d317bca922691316bdf5b1493da71"
          ],
          "data": "0x00000000000000000000000000000000000000000000d3c1e4aec1ae3239e1c0",
          "blockHash": "0x0000000000000000000000000000000000000000000000000000000000000000",
          "blockNumber": "0x2676059",
          "blockTimestamp": "0x69e21f92",
          "transactionHash": "0x941b1301c542c6432c66da54e4f8f410f4e52eab2fd4d9d2be9637c83e0defff",
          "transactionIndex": "0x17",
          "logIndex": "0xcc",
          "removed": false
        },
        {
          "address": "0x44406ad771b05827f5fd95b002189e51eebedc91",
          "topics": [
            "0xddf252ad1be2c89b69c2b068fc378daa952ba7f163c4a11628f55a4df523b3ef",
            "0x000000000000000000000000b29e1dddfc73e00dee3eaa7ea102990adca78b39",
            "0x000000000000000000000000285398f9ac1d317bca922691316bdf5b1493da71"
          ],
          "data": "0x00000000000000000000000000000000000000000000d3c289ba3545b8cd1699",
          "blockHash": "0x0000000000000000000000000000000000000000000000000000000000000000",
          "blockNumber": "0x2676059",
          "blockTimestamp": "0x69e21f92",
          "transactionHash": "0x941b1301c542c6432c66da54e4f8f410f4e52eab2fd4d9d2be9637c83e0defff",
          "transactionIndex": "0x17",
          "logIndex": "0xcd",
          "removed": false
        },
        {
          "address": "0x60cb112631ce92f9fe164878d690fac1fd1c295d",
          "topics": [
            "0xddf252ad1be2c89b69c2b068fc378daa952ba7f163c4a11628f55a4df523b3ef",
            "0x000000000000000000000000b29e1dddfc73e00dee3eaa7ea102990adca78b39",
            "0x000000000000000000000000285398f9ac1d317bca922691316bdf5b1493da71"
          ],
          "data": "0x00000000000000000000000000000000000000000000d3c2f84efb2e7f5ea815",
          "blockHash": "0x0000000000000000000000000000000000000000000000000000000000000000",
          "blockNumber": "0x2676059",
          "blockTimestamp": "0x69e21f92",
          "transactionHash": "0x941b1301c542c6432c66da54e4f8f410f4e52eab2fd4d9d2be9637c83e0defff",
          "transactionIndex": "0x17",
          "logIndex": "0xce",
          "removed": false
        },
        {
          "address": "0x285398f9ac1d317bca922691316bdf5b1493da71",
          "topics": [
            "0xa1f137c5ae158726e83083553b9082ce64d0180e2e71939290985b94816211d3",
            "0x00000000000000000000000008ac49be269f1c6c2821d56c4c729c9843152ee3"
          ],
          "data": "0x000000000000000000000000000000000000000000021bfbc6e8f0f78dc0000000000000000000000000000000000000000000000001a784379d99db420000000000000000000000000000000000000000000000000000000000000000000060000000000000000000000000000000000000000000000000000000000000000400000000000000000000000000000000000000000000d3c108848b068f3f123800000000000000000000000000000000000000000000d3c1e4aec1ae3239e1c000000000000000000000000000000000000000000000d3c289ba3545b8cd169900000000000000000000000000000000000000000000d3c2f84efb2e7f5ea815",
          "blockHash": "0x0000000000000000000000000000000000000000000000000000000000000000",
          "blockNumber": "0x2676059",
          "blockTimestamp": "0x69e21f92",
          "transactionHash": "0x941b1301c542c6432c66da54e4f8f410f4e52eab2fd4d9d2be9637c83e0defff",
          "transactionIndex": "0x17",
          "logIndex": "0xcf",
          "removed": false
        },
        {
          "address": "0x08ac49be269f1c6c2821d56c4c729c9843152ee3",
          "topics": [
            "0xddf252ad1be2c89b69c2b068fc378daa952ba7f163c4a11628f55a4df523b3ef",
            "0x0000000000000000000000000000000000000000000000000000000000000000",
            "0x000000000000000000000000b29e1dddfc73e00dee3eaa7ea102990adca78b39",
            "0x000000000000000000000000000000000000000000000000000000000000000b"
          ],
          "data": "0x",
          "blockHash": "0x0000000000000000000000000000000000000000000000000000000000000000",
          "blockNumber": "0x2676059",
          "blockTimestamp": "0x69e21f92",
          "transactionHash": "0x941b1301c542c6432c66da54e4f8f410f4e52eab2fd4d9d2be9637c83e0defff",
          "transactionIndex": "0x17",
          "logIndex": "0xd0",
          "removed": false
        }
      ],
      "logsBloom": "0x40000000000000000000004000000000020810000004000000000000000000000000100000000002000000000000000000000100000000000000000001000000000000010000000000000008000000000000002000000001000000000000000000000000020000000440000000000800000000000000010000000010000000000000000008000000000000000000008020000001000000000000000000000000000000000000000000000000000000000020000000000000000000000000000000000002000020000400000000000080006000000000000000000100000020000000020000400000000000000000000000000000000000048400001000000000",
      "transactionHash": "0x941b1301c542c6432c66da54e4f8f410f4e52eab2fd4d9d2be9637c83e0defff",
      "transactionIndex": "0x17",
      "blockHash": "0x0000000000000000000000000000000000000000000000000000000000000000",
      "blockNumber": "0x2676059",
      "gasUsed": "0xaa883",
      "effectiveGasPrice": "0x5b8d80",
      "blobGasUsed": "0x5a30",
      "from": "0xb29e1dddfc73e00dee3eaa7ea102990adca78b39",
      "to": "0x08ac49be269f1c6c2821d56c4c729c9843152ee3",
      "contractAddress": null,
      "l1GasPrice": "0x1e38876",
      "l1GasUsed": "0x9c8",
      "l1Fee": "0xd5063df",
      "l1BaseFeeScalar": "0x44d",
      "l1BlobBaseFee": "0x19a9bf",
      "l1BlobBaseFeeScalar": "0xa118b",
      "daFootprintGasScalar": "0x94"
    },
    {
      "type": "0x2",
      "status": "0x1",
      "cumulativeGasUsed": "0x593e41",
      "logs": [
        {
          "address": "0x168deb69184ea184aadb8a626dc4d3013dc08fe8",
          "topics": [
            "0xddf252ad1be2c89b69c2b068fc378daa952ba7f163c4a11628f55a4df523b3ef",
            "0x000000000000000000000000b29e1dddfc73e00dee3eaa7ea102990adca78b39",
            "0x000000000000000000000000285398f9ac1d317bca922691316bdf5b1493da71"
          ],
          "data": "0x0000000000000000000000000000000000000000000034f0422122c1a3cfc48e",
          "blockHash": "0x0000000000000000000000000000000000000000000000000000000000000000",
          "blockNumber": "0x2676059",
          "blockTimestamp": "0x69e21f92",
          "transactionHash": "0x77799c2aa5f7d411daba165b496550a5108df6460c65903877ef47492e547774",
          "transactionIndex": "0x18",
          "logIndex": "0xd1",
          "removed": false
        },
        {
          "address": "0x39855b7de333de50a7b2e97a3a3e2ec1cf0411a9",
          "topics": [
            "0xddf252ad1be2c89b69c2b068fc378daa952ba7f163c4a11628f55a4df523b3ef",
            "0x000000000000000000000000b29e1dddfc73e00dee3eaa7ea102990adca78b39",
            "0x000000000000000000000000285398f9ac1d317bca922691316bdf5b1493da71"
          ],
          "data": "0x0000000000000000000000000000000000000000000034f0792bb06b8c8e7870",
          "blockHash": "0x0000000000000000000000000000000000000000000000000000000000000000",
          "blockNumber": "0x2676059",
          "blockTimestamp": "0x69e21f92",
          "transactionHash": "0x77799c2aa5f7d411daba165b496550a5108df6460c65903877ef47492e547774",
          "transactionIndex": "0x18",
          "logIndex": "0xd2",
          "removed": false
        },
        {
          "address": "0x44406ad771b05827f5fd95b002189e51eebedc91",
          "topics": [
            "0xddf252ad1be2c89b69c2b068fc378daa952ba7f163c4a11628f55a4df523b3ef",
            "0x000000000000000000000000b29e1dddfc73e00dee3eaa7ea102990adca78b39",
            "0x000000000000000000000000285398f9ac1d317bca922691316bdf5b1493da71"
          ],
          "data": "0x0000000000000000000000000000000000000000000034f0a26e8d516e3345a6",
          "blockHash": "0x0000000000000000000000000000000000000000000000000000000000000000",
          "blockNumber": "0x2676059",
          "blockTimestamp": "0x69e21f92",
          "transactionHash": "0x77799c2aa5f7d411daba165b496550a5108df6460c65903877ef47492e547774",
          "transactionIndex": "0x18",
          "logIndex": "0xd3",
          "removed": false
        },
        {
          "address": "0x60cb112631ce92f9fe164878d690fac1fd1c295d",
          "topics": [
            "0xddf252ad1be2c89b69c2b068fc378daa952ba7f163c4a11628f55a4df523b3ef",
            "0x000000000000000000000000b29e1dddfc73e00dee3eaa7ea102990adca78b39",
            "0x000000000000000000000000285398f9ac1d317bca922691316bdf5b1493da71"
          ],
          "data": "0x0000000000000000000000000000000000000000000034f0be13becb9fd7aa05",
          "blockHash": "0x0000000000000000000000000000000000000000000000000000000000000000",
          "blockNumber": "0x2676059",
          "blockTimestamp": "0x69e21f92",
          "transactionHash": "0x77799c2aa5f7d411daba165b496550a5108df6460c65903877ef47492e547774",
          "transactionIndex": "0x18",
          "logIndex": "0xd4",
          "removed": false
        },
        {
          "address": "0x285398f9ac1d317bca922691316bdf5b1493da71",
          "topics": [
            "0xa1f137c5ae158726e83083553b9082ce64d0180e2e71939290985b94816211d3",
            "0x00000000000000000000000008ac49be269f1c6c2821d56c4c729c9843152ee3"
          ],
          "data": "0x000000000000000000000000000000000000000000009195731e2ce35eb000000000000000000000000000000000000000000000000069e10de76676d0800000000000000000000000000000000000000000000000000000000000000000006000000000000000000000000000000000000000000000000000000000000000040000000000000000000000000000000000000000000034f0422122c1a3cfc48e0000000000000000000000000000000000000000000034f0792bb06b8c8e78700000000000000000000000000000000000000000000034f0a26e8d516e3345a60000000000000000000000000000000000000000000034f0be13becb9fd7aa05",
          "blockHash": "0x0000000000000000000000000000000000000000000000000000000000000000",
          "blockNumber": "0x2676059",
          "blockTimestamp": "0x69e21f92",
          "transactionHash": "0x77799c2aa5f7d411daba165b496550a5108df6460c65903877ef47492e547774",
          "transactionIndex": "0x18",
          "logIndex": "0xd5",
          "removed": false
        },
        {
          "address": "0x08ac49be269f1c6c2821d56c4c729c9843152ee3",
          "topics": [
            "0xddf252ad1be2c89b69c2b068fc378daa952ba7f163c4a11628f55a4df523b3ef",
            "0x0000000000000000000000000000000000000000000000000000000000000000",
            "0x000000000000000000000000b29e1dddfc73e00dee3eaa7ea102990adca78b39",
            "0x000000000000000000000000000000000000000000000000000000000000000c"
          ],
          "data": "0x",
          "blockHash": "0x0000000000000000000000000000000000000000000000000000000000000000",
          "blockNumber": "0x2676059",
          "blockTimestamp": "0x69e21f92",
          "transactionHash": "0x77799c2aa5f7d411daba165b496550a5108df6460c65903877ef47492e547774",
          "transactionIndex": "0x18",
          "logIndex": "0xd6",
          "removed": false
        }
      ],
      "logsBloom": "0x40000000000000000000000000000000020812000004000000000000000000000000100000000202000000000000000000000100000000000000000001000000000000010000000000000008000000000000002000000001000000000000000000000000020000000440000000000800000000000000010000000010000000000000000008000000000000000000008020000001000000000000000000000000000000000000000000000000000000000020000000000000000000000000000000000002000020000400000000000080004000000000000000000100000020200000020000400000000000000000000000000000000000008400001000000000",
      "transactionHash": "0x77799c2aa5f7d411daba165b496550a5108df6460c65903877ef47492e547774",
      "transactionIndex": "0x18",
      "blockHash": "0x0000000000000000000000000000000000000000000000000000000000000000",
      "blockNumber": "0x2676059",
      "gasUsed": "0xad921",
      "effectiveGasPrice": "0x5b8d80",
      "blobGasUsed": "0x5bec",
      "from": "0xb29e1dddfc73e00dee3eaa7ea102990adca78b39",
      "to": "0x08ac49be269f1c6c2821d56c4c729c9843152ee3",
      "contractAddress": null,
      "l1GasPrice": "0x1e38876",
      "l1GasUsed": "0x9f0",
      "l1Fee": "0xd5063df",
      "l1BaseFeeScalar": "0x44d",
      "l1BlobBaseFee": "0x19a9bf",
      "l1BlobBaseFeeScalar": "0xa118b",
      "daFootprintGasScalar": "0x94"
    }
  ],
  "libraries": [],
  "pending": [],
  "returns": {},
  "timestamp": 1776426898575,
  "chain": 84532,
  "commit": "799baa8"
}